:100000000C9414030C9456150C9431030C94310386
:100010000C9431030C9431030C9431030C94310390
:100020000C9431030C9431030C9431030C94310380
:100030000C9431030C9431030C9431030C94310370
:100040000C9431030C9431030C9431030C94310360
:100050000C943103000000000000000000000000CC
:1000600000000000000000000000001C00001C0058
:10007000001C00001C00001C00001C00001C0000F4
:100080000000000000000000000000000000000070
:10009000000000000000000000000000001F000041
:1000A0001F00001F00001F000000000000000000F3
:1000B0000000000000000000000000000000000040
:1000C0000000000000000000000000000000000030
:1000D00000000000800000E00000FC0080FF00E065
:1000E0001F00FC0380FF00E01F00FC0300FE000077
:1000F0001E000002000000000000000000000000E0
:1001000000000000000000000000FF01C0FF0FF031
:10011000FF1FF8FF3F78007C1C00700C00600C0093
:10012000600C00601C00707C003CF8FF3FF0FF1F7B
:10013000E0FF0F00FF0100000000000000000000D1
:10014000000000000000400000E00040600040307F
:100150000040300060F8FF7FFCFF7FFCFF7FFCFF6A
:100160007F000060000040000040000040000000F0
:1001700000000000000000000000000000780060A7
:1001800078007878007C3C007E0C007F0CC07B0CF3
:10019000E0780C70781C3C78FC1F78F80F7CF8072E
:1001A0007EF0017E00000000000000000000000062
:1001B0000000000000000078003C78003C78007CE3
:1001C0003C00781C18700C18600C18600C1C600C3B
:1001D0003C601C7E70FCF73FF8F33FF8E31FF0C073
:1001E0000700000000000000000000000000008088
:1001F0000100E00100F00100BC01008E01808701D8
:10020000C08141F08061F8FF7FFCFF7FFCFF7FFC35
:10021000FF7F00806100804100C00100C00100003C
:10022000000000000000000000000000003CFC1F77
:100230003CFC3F7CFC1F783C18703C18603C18600C
:100240003C18603C38603C78703CF83F3EF03F3EE4
:10025000E01F00C0070000000000000000000000D8
:10026000000000000000F80300FF0F80FF1FC0FF28
:100270003FE01B78F01870380C60180C601C0C60A4
:100280000C0C700C3C780CFC3F00F83F00F01F0099
:10029000E00700000000000000000000000000FC7B
:1002A0000000FC00007C00003C00603C00783C004A
:1002B0007E3C803F3CE00F3CF8033C7E00BC1F00CE
:1002C000FC0700FC01003C00000C000000000000E6
:1002D000000000000000000000E0830FF0C71FF8DE
:1002E000EF3FF8FF3F1C7E780C18700C18600C185C
:1002F000600C18600C38601C7C78F8FF3FF8F73F02
:10030000F0E71FE08107000000000000000000008F
:10031000C00F00F01F00F03F00F87F003C78601C29
:1003200060600C60600C60700C60381C303C3C30CD
:100330001FF8FF0FF0FF07E0FF03807F00000000C1
:10034000000000000000000000000000005F00004E
:100350000007000700147F147F14242A7F2A122329
:100360001308646236495522500005030000001C42
:100370002241000041221C00082A1C2A0808083ECD
:100380000808005030000008080808080030300055
:100390000020100804023E5149453E00427F4000C3
:1003A00042615149462141454B311814127F1027B3
:1003B000454545393C4A49493001710905033649EB
:1003C000494936064949291E00363600000056368E
:1003D00000000008142241141414141441221408BB
:1003E000000201510906324979413E7E1111117E08
:1003F0007F494949363E414141227F4141221C7F8C
:10040000494949417F090901013E414151327F0873
:1004100008087F00417F41002040413F017F0814D0
:1004200022417F404040407F0204027F7F04081049
:100430007F3E4141413E7F090909063E4151215E0F
:100440007F09192946464949493101017F01013F88
:100450004040403F1F2040201F7F2018207F631412
:100460000814630304780403615149454300007F85
:100470004141020408102041417F000004020102B2
:10048000044040404040000102040020545454788D
:100490007F484444383844444420384444487F38F2
:1004A00054545418087E090102081454543C7F081F
:1004B00004047800447D40002040443D00007F104B
:1004C000284400417F40007C041804787C08040420
:1004D0007838444444387C14141408081414187CE4
:1004E0007C080404084854545420043F4440203CF1
:1004F0004040207C1C2040201C3C4030403C442894
:100500001028440C5050503C4464544C440008366D
:10051000410000007F0000004136080008082A1C46
:1005200008081C2A08086E616E00696E66000040AB
:100530007A10F35A00A0724E18090010A5D4E800F2
:1005400000E87648170000E40B54020000CA9A3B0A
:10055000000000E1F5050000809698000000404290
:100560000F000000A086010000001027000000001E
:10057000E803000000006400000000000A00000022
:1005800000000100000000002C76D888DC674F08CE
:1005900023DFC1DFAE59E1B1B796E5E3E453C63AD4
:1005A000E651997696E8E6C28426EB898C9B62ED4B
:1005B000407C6FFCEFBC9C9F40F2BAA56FA5F49005
:1005C000055A2AF75C936B6CF9676DC11BFCE0E47C
:1005D0000D47FEF520E6B500D0ED902E03009435D2
:1005E00077050080841E080000204E0A000000C825
:1005F0000C333333330F986E12831141EF8D211476
:10060000893BE65516CFFEE6DB18D1844B381BF745
:100610007C1D901DA4BBE424203284725E228100E4
:10062000C9F124ECA1E53D2711241FBECFE5D8E098
:10063000DEBFCDBF12E0A0E6B0E0E0E0FBE302C029
:1006400005900D92A032B107D9F712E0A0E2B2E016
:1006500001C01D92A739B107E1F70E94A9140C94BB
:100660007E1D0C940000D898DA98D998A1E6B0E0E5
:100670009D012D5F3F4F48E050E013C0DA98D99AB2
:100680006C91662314F4DA9A01C0DA98D9986081E3
:10069000660F6083019791F7DA981196A217B30756
:1006A00019F0CA01FD01EACFD89A8AE08A95F1F7DC
:1006B000DD9800C000C00000DD9A089520E130E020
:1006C00080E090E0D99A0000D998CB998160880F9A
:1006D000991F21503040B1F7682F792F80E090E0CA
:1006E00008958093610070936200609363000E949C
:1006F0003303089580688093610010926200109225
:100700006300D8980E943303D89A00C000C000004C
:10071000D8980E945E03D89A0895D89ADD9A82E00C
:1007200060E871E10E94710382E00E947A03AB01EC
:10073000BC0181E0403891E1590790E0690790E001
:10074000790709F080E00895BC0181E00E947103FF
:10075000089585E00E947A03605870E080E090E0A0
:100760000E94901621E230EB42EE5FE30E944417B4
:10077000462F572F682F792FCB01BA010E9462169E
:100780008DE7861B08956F927F928F929F92AF9212
:10079000BF92CF92DF92EF92FF920F931F93CF936E
:1007A000DF93782E662E842E922E222309F1EE24DA
:1007B000FF24A82EBB24062F10E0C501840F911D35
:1007C0006C010894C108D108E701C00FD11FC50111
:1007D000BE0141E050E00E942207C601BE0141E097
:1007E00050E00E9422070894E11CF11CE91460F318
:1007F0008820F9F000E010E0A72CBB24C62CDD24F3
:100800007601E90CF11C0894E108F108E801CA0D31
:10081000DB1DCE01B60141E050E00E942207CE016F
:10082000B70141E050E00E9422070F5F1F4F0815FB
:1008300068F3DF91CF911F910F91FF90EF90DF90C0
:10084000CF90BF90AF909F908F907F906F900895C2
:100850002F923F924F925F926F927F928F929F92D0
:10086000AF92BF92CF92DF92EF92FF920F931F93BE
:10087000CF93DF9300D000D0CDB7DEB7E42EFF24B6
:10088000222433242E183F08220C331C0894211CE8
:10089000311CCC24DD2421E030E03A83298300E0C0
:1008A00010E0682E7724462E552443018E0C9F1CA1
:1008B000C801840D951D9C838B83C4016B817C8151
:1008C00041E050E00E9422075301AE18BF08C50165
:1008D0006B817C8141E050E00E942207F201E01B25
:1008E000F10BFC83EB83C501BF0141E050E00E94A6
:1008F0002207C4016B817C8141E050E00E94220705
:100900004301800E911E9701240D351D3C832B83DE
:10091000C401B90141E050E00E9422075301A01A2E
:10092000B10AC5016B817C8141E050E00E94220741
:10093000C2018E199F099C838B83C5016B817C81C9
:1009400041E050E00E942207C4016B817C8141E0BC
:1009500050E00E9422070F5F1F4FE981FA81CE0EFF
:10096000DF1E3296FA83E983C601880F991F820D34
:10097000931D181619064CF40894E108F108C20CEE
:10098000D31C22E030E0220E331EE016F1060CF0FC
:100990008CCF0F900F900F900F90DF91CF911F9100
:1009A0000F91FF90EF90DF90CF90BF90AF909F900E
:1009B0008F907F906F905F904F903F902F90089511
:1009C0002F923F924F925F926F927F928F929F925F
:1009D000AF92BF92CF92DF92EF92FF920F931F934D
:1009E000CF93DF9300D000D0CDB7DEB79C838B834D
:1009F0008B015A0149017A01E81AF90A6901C61AFC
:100A0000D70A2701440C551C3601660C771CFF20C1
:100A10006CF4F094E194F108F394509441945108EB
:100A200053948FEF9FEF9A83898304C0E1E0F0E055
:100A3000FA83E983DD2064F4D094C194D108D3947F
:100A4000709461947108739422242A94322C03C008
:100A50002224332423948B819C81B80141E050E00F
:100A60000E942207E114F10419F4C114D104C9F160
:100A7000EC14FD04E4F068018B809C8000E010E041
:100A800089819A81880E991E060D171DE016F106C0
:100A900024F4C20CD31C04191509C401B60141E0A9
:100AA00050E00E942207A814B90451F71AC0EB8045
:100AB000FC80AA24BB24020D131DA40CB51CCA146F
:100AC000DB0434F4E981FA81EE0EFF1EA618B708A4
:100AD000C701B80141E050E00E942207801691064C
:100AE00051F70F900F900F900F90DF91CF911F91C2
:100AF0000F91FF90EF90DF90CF90BF90AF909F90BD
:100B00008F907F906F905F904F903F902F900895BF
:100B1000939883E08A95F1F70000949A89EF90E02A
:100B20000197F1F700C00000949889EF90E00197D9
:100B3000F1F700C00000949A89EF90E00197F1F777
:100B400000C00000939A959A089593980000959A92
:100B5000000028E030E09698882314F4979A01C0AA
:100B60009798969A880F21503040A9F7939A089544
:100B7000939800009598000028E030E0969888232C
:100B800014F4979A01C09798969A880F2150304094
:100B9000A9F7959A939A08950E94880582EE0E947B
:100BA000B80581EA0E94B80582EA0E94B80580EC87
:100BB0000E94B8058FE20E94B80587EA91E6019786
:100BC000F1F700C0000084EA0E94B80581E80E94A5
:100BD000B80580E20E94B80583E20E94B8058FEA5A
:100BE0000E94B80586EA0E94B80580EB0E94B8050D
:100BF00080E10E94B80580E00E94B80580E40E9470
:100C0000B8050895CF93DF93C82FD62F60932B029A
:100C100080932A0282958F7080610E94B8058C2F84
:100C20008F700E94B8058D2F806B0E94B805DF91F0
:100C3000CF9108951F93CF93DF93D0E014E880E025
:100C40006D2F0E940206C12F80E00E94A505C150B1
:100C5000D9F7DF5FD83099F7DF91CF911F910895D1
:100C60000F931F93CF93DF9390E08C01000F111F20
:100C7000000F111F080F191FE801C05AD0400B596F
:100C80001040FE01EA5BFC4F84910E94A50521966D
:100C9000C017D107B1F780E00E94A505DF91CF9181
:100CA0001F910F9108950F931F93CF93DF9390E0BF
:100CB0008C01000F111F000F111F080F191FE801F1
:100CC000C05AD0400B591040FE01EA5BFC4F8491A2
:100CD00080950E94A5052196C017D107A9F780E04D
:100CE0000E94A505DF91CF911F910F910895CF9399
:100CF000DF93EC018881882331F021960E94300631
:100D000089918823D9F7DF91CF910895CF93DF930D
:100D1000EC018881882331F021960E945306899145
:100D20008823D9F7DF91CF910895AF92BF92CF92E8
:100D3000DF92EF92FF920F931F93CF93DF93D82E02
:100D4000E0902B02C0902A02282F30E08AE390E046
:100D5000289FA001299F500D389F500D11248A0112
:100D600001531A400F2EF8E0AF2EF6EFBF2EF02DF4
:100D7000A40EB51ECC2DDE2DDF5FFF246894F1F8A4
:100D8000FE0C8C2F6E2D0E94020680E2D81691F484
:100D900080E00E94A5058C2F6D2F0E94020680E046
:100DA0000E94A5058C2F6F2D0E94020680E00E94F4
:100DB000A5051AC0F801EC5AFF4F84910E94A505C1
:100DC0008C2F6D2F0E940206F801EB5AFF4F849181
:100DD0000E94A5058C2F6F2D0E940206F801EA5A89
:100DE000FF4F84910E94A505CF5F0D5F1F4F0A152D
:100DF0001B0509F0C6CFCC2DCD5E80E00E94A50575
:100E00008EE2D81609F4C5508C2F6E2D0E94020672
:100E1000DF91CF911F910F91FF90EF90DF90CF90D6
:100E2000BF90AF900895CF93DF93EC018881882322
:100E300031F021960E94950689918823D9F7DF9198
:100E4000CF910895EF92FF920F931F93CF93DF936B
:100E5000C82F8B017A01112314F4695F7F4F7595B8
:100E600067957595679575956795D62F8C2F0E9418
:100E70000206E114F10479F0C80168E070E00E9414
:100E80003F1B21E030E0A90102C0440F551F8A95A5
:100E9000E2F7042F01C000E08C2F6D2F0E940206A4
:100EA000802F0E94A505DF91CF911F910F91FF9098
:100EB000EF9008957F928F929F92AF92BF92CF92C0
:100EC000DF92EF92FF920F931F93CF93DF936C010A
:100ED000762EE42E822E902E969496949694F9F087
:100EE000FF24A22EAA94BB240894A11CB11C6F2D30
:100EF0006E0D872D0E940206882071F0E601CA0D52
:100F0000DB1D8601F80181918F010E94A5050C1758
:100F10001D07C1F7CA0CDB1CF394F91441F7DF91EC
:100F2000CF911F910F91FF90EF90DF90CF90BF90E6
:100F3000AF909F908F907F90089582E080B911B814
:100F400084E486BF089584EE86BF06B607FEFDCF13
:100F5000089583B984EC86BF06B607FEFDCF0895D9
:100F600084EC86BF06B607FEFDCF83B1089584EDFD
:100F700086BF0895CF93DF93C82F0E94A30786E50D
:100F80000E94A9078C2F0E94A9070E94B7070E9400
:100F9000A30787E50E94A9070E94B007D82F0E94E7
:100FA000B00790E03D2F20E0EC01C22BD32B0E9434
:100FB000B7078C2F9D2FDF91CF910895845F0E94FA
:100FC000BA0708950E94BA0708958CE10E94BA07F3
:100FD00008958BE10E94BA070895825E0E94BA07C5
:100FE0000895885F0E94BA070895805F0E94BA073B
:100FF00008958C5E0E94BA07089588E10E94BA079E
:10100000089589E10E94BA0708958AE10E94BA070B
:1010100008951F93CF93DF93C82FD92F162F0E94C7
:10102000A30786E50E94A907812F0E94A9078D2F9B
:101030000E94A9078C2F0E94A9070E94B707DF9181
:10104000CF911F91089580E090E86CE10E9409081B
:1010500008959B01682F645FC9010E9409080895E3
:101060006CE10E9409080895886092606BE10E941B
:101070000908089500245695479507945695479575
:101080000794542F402D362F330F330F330F20E0AA
:10109000682F625ECA01822B932B0E940908089573
:1010A0009B01682F685FC9010E94090808959B0190
:1010B000682F605FC9010E9409080895362F329594
:1010C000307F20E0682F6C5ECA01822B932B0E9438
:1010D0000908089569E10E940908089581606AE19C
:1010E0000E9409080895CF93DF93EC018AE10E94E2
:1010F000BA0720E2C030D20721F490620E946E0845
:1011000003C09F7D0E946E08DF91CF910895CF9319
:10111000DF93EC0180E090E20E94730883EC99E099
:101120000197F1F700C00000CE010E94300880E076
:1011300090E00E94730887EA91E60197F1F700C0FA
:101140000000DF91CF910895CF93DF93EB0180E012
:1011500090E20E94730883EC99E00197F1F700C0D8
:10116000000080E0BE010E94290880E090E00E941B
:10117000730887EA91E60197F1F700C00000DF915C
:10118000CF910895CF93DF93EC010E949D0780E0FB
:1011900090E20E94730880E09CE10E946E0880E06B
:1011A00062E070E044E050E00E945E0880E066ED9E
:1011B00074E00E94500880E06AE070E00E945708E6
:1011C00080E290E20E946A0884E090E00E94340885
:1011D00080E062E170E040E050E00E943A088FEF6A
:1011E000CF3FD80721F080E0BE010E94290880E0AF
:1011F00090E00E947308DF91CF91089587E28ABB47
:101200008FEF87BB87E084BB8AEF81BB1BBA18BA1C
:1012100083E085BB80E182BBAA9A83EC99E00197C9
:10122000F1F700C00000AA9883EC99E00197F1F76C
:1012300000C0000008958BB780648BBF85B78160C4
:1012400085BF789408952FE088E190E00FB6F89478
:10125000A895809341000FBE209341000895089502
:1012600089B3807C0895AF92BF92CF92DF92EF92C4
:10127000FF920F931F93CF93DF93EC017B016A01E1
:10128000590180E160E00E940206CE010E947706CB
:1012900088E067E00E940206C7010E94770682E3A9
:1012A00067E00E940206C6010E94770686E467E0B6
:1012B0000E940206C5010E94770689E667E00E9447
:1012C0000206C8010E94770680E090E068E070E0C6
:1012D00044E850E028E030E00E94E00480E090E044
:1012E00066E370E044E850E026E330E00E94E0046A
:1012F000DF91CF911F910F91FF90EF90DF90CF90F2
:10130000BF90AF9008950E94300980931E02803CE8
:1013100049F40E94CC050E941A06809171028062F5
:101320000E94B80508950F931F93CF93DF930CE3AA
:1013300012E0C5E0D0E0CE010E943F1DDC01CB01F0
:10134000F80181939193A193B1938F012596CC33AA
:10135000D10589F78CE390E00E94371D80937102DC
:1013600086E490E00E94451D909377028093760278
:10137000DF91CF911F910F910895CF92DF92EF925D
:10138000FF926B017C0123E333E343E750E40E94C7
:10139000F61588235CF0C701B60120E030E048EA8A
:1013A00051E40E944017882364F415C00F2EF3E324
:1013B000CF2EF3E3DF2EF3E7EF2EF0E4FF2EF02D38
:1013C0000AC00F2EF0E0CF2EF0E0DF2EF8EAEF2E6D
:1013D000F1E4FF2EF02DC701B60123E333E343E729
:1013E00050E40E9491152AE939E949E851E40E9444
:1013F000FA1520E03FEF4FE757E40E9444170E94A0
:101400006216DC01CB010E94A403FF90EF90DF90F5
:10141000CF900895CF92DF92EF92FF92CF93DF9318
:101420000E94FD0783FF28C080E00E94BA076C017C
:10143000EE24FF247601DD24CC2481E00E94BA074B
:10144000A0E0B0E0C82AD92AEA2AFB2AD701C601BF
:1014500080709070A070B07F0097A105B10561F415
:10146000CD2CDE2CEF2CFF24C0928E02D0928F0266
:10147000E0929002F092910280912902882311F06B
:101480008230A1F58DB79EB708970FB6F8949EBF2E
:101490000FBE8DBFEDB7FEB73196CAE7D2E0ADB74C
:1014A000BEB71296DC93CE93119786E690E09383B5
:1014B000828380918E0290918F02A0919002B091D0
:1014C000910284839583A683B7830E94B71C8DB74E
:1014D0009EB708960FB6F8949EBF0FBE8DBF80E1F1
:1014E00065E00E940206CE010E94770660918E029E
:1014F00070918F028091900290919102DF91CF9133
:10150000FF90EF90DF90CF9008952F923F924F92EF
:101510005F926F927F928F929F92AF92BF92CF9283
:10152000DF92EF92FF920F931F93CF93DF93CDB78C
:10153000DEB728970FB6F894DEBF0FBECDBF6B01A4
:101540007C0180913C0290913D02A0913E02B091BD
:101550003F02C816D906EA06FB0680F4E0E4F2E092
:1015600001E081919191A191B191C816D906EA0645
:10157000FB0628F40F5F0B30A1F701C000E00093D9
:101580006C02602F70E080E090E00E948E162B01CC
:101590003C0120E030E040E85FE30E949115862E98
:1015A000372E282E9B83802F90E09A838983FC011D
:1015B0003197EE0FFF1FEE0FFF1FE45CFD4F6081C0
:1015C0007181828193810E948E166887B72EA82E22
:1015D000992EC701B6010E948E16F8850F2F1B2D7C
:1015E0002A2D392DA90198010E9491156C837D83C4
:1015F0008E839F83C301B2014B81082D132D222DB1
:10160000342FA90198010E9491156B017C01E98199
:10161000FA81EE0FFF1FEE0FFF1FE45CFD4F6081AC
:101620007181828193810E948E16F8850F2F1B2D68
:101630002A2D392DA90198010E9491159B01AC0119
:10164000C701B6010E94FA159B01AC016C817D8136
:101650008E819F810E9444174B81082D132D222DCE
:10166000342FA90198010E949215462F572F682FF9
:10167000792FCB01BA0128960FB6F894DEBF0FBEC2
:10168000CDBFDF91CF911F910F91FF90EF90DF9031
:10169000CF90BF90AF909F908F907F906F905F9012
:1016A0004F903F902F9008952F923F924F925F92CC
:1016B0006F927F928F929F92AF92BF92CF92DF9262
:1016C000EF92FF920F931F93CF93DF9300D000D040
:1016D000CDB7DEB72B013C0110916C02612F70E099
:1016E00080E090E00E948E164B015C0120E030E02B
:1016F00040E85FE30E9491152DEC3CEC4CEC5FE37D
:101700000E94441720E030E040E850E40E94921527
:10171000D62EC72E382E292E812F90E09A838983CA
:10172000FC013197EE0FFF1FEE0FFF1FE45CFD4F32
:1017300060817181828193810E948E166B837C838C
:10174000F82EE92EC301B2010E948E16FB81EC81B6
:101750000F2F1E2F2F2D3E2DA90198010E949115AC
:101760002B013C01C501B4012DEC3CEC4CEC5FE3DA
:101770000E94441720E030E040E850E40E949215B7
:101780000D2D1C2D232D322DA90198010E9491159C
:101790004B015C01E981FA81EE0FFF1FEE0FFF1F85
:1017A000E45CFD4F60817181828193810E948E167D
:1017B000FB81EC810F2F1E2F2F2D3E2DA9019801AB
:1017C0000E9491159B01AC01C501B4010E94FA155C
:1017D0009B01AC01C301B2010E9444170D2D1C2DC9
:1017E000232D322DA90198010E949215F72ED82E93
:1017F000162F472E882E092F862F9F2DAD2DB02F07
:10180000BC01CD0120E030E040E850E40E94F61534
:1018100088237CF0812F9F2DAD2DB02FBC01CD01F1
:1018200020E030E040EA51E40E94401718164CF0E6
:101830000FC010E044240F2EF0E88F2EF02D00E4AE
:1018400007C010E044240F2EF0EA8F2EF02D01E4A3
:10185000812F942DA82DB02FBC01CD010E94BD0970
:10186000812F942DA82DB02FBC01CD010F900F908A
:101870000F900F90DF91CF911F910F91FF90EF90FC
:10188000DF90CF90BF90AF909F908F907F906F90A0
:101890005F904F903F902F900895CF92DF92EF92FC
:1018A000FF920F931F93CF93DF9320E030E040E847
:1018B00050E40E94911520E030E040E85DE30E9492
:1018C000441720E030E048EC52E40E944417062F11
:1018D000172FD82FC92FE62EF72ED82EC92E862FD8
:1018E000912FAD2FBC2FBC01CD0120E030E0A9012C
:1018F0000E94F61588237CF0802F912FAD2FBC2FEE
:10190000BC01CD0120E030E048EC52E40E944017D9
:10191000181634F00FC0EE24FF24DD24CC240AC0B6
:10192000EE24FF240F2EF8ECDF2EF02D0F2EF2E424
:10193000CF2EF02D8E2D9F2DAD2DBC2DBC01CD01B8
:10194000DF91CF911F910F91FF90EF90DF90CF909B
:101950000895CF92DF92EF92FF920F931F93CF9350
:10196000DF936B017C012CE830E082E790E064E8D3
:1019700070E0A9010DE810E00E943309809128026F
:10198000882371F58DB79EB708970FB6F8949EBF60
:101990000FBE8DBFEDB7FEB731968AE792E0ADB7C7
:1019A000BEB712969C938E93119782E990E0938331
:1019B0008283C482D582E682F7820E94B71CEDB78B
:1019C000FEB738960FB6F894FEBF0FBEEDBF8AE69D
:1019D00064E00E94020688E990E00E947706A9C0B0
:1019E0008130C1F58DB79EB708970FB6F8949EBFAA
:1019F0000FBE8DBFCDB7DEB721968AE792E0ADB7B7
:101A0000BEB712969C938E93119782E990E09B83C8
:101A10008A83C701B60129EA33E140ED5CE30E9405
:101A2000FA15DC01CB018C839D83AE83BF830E94BA
:101A3000B71CEDB7FEB738960FB6F894FEBF0FBED1
:101A4000EDBF8AE664E00E9402068DE990E00E9404
:101A500077066FC08230B1F58DB79EB708970FB685
:101A6000F8949EBF0FBE8DBFEDB7FEB731968AE7E3
:101A700092E0ADB7BEB712969C938E93119781EA10
:101A800090E09383828380912F0290913002A09105
:101A90003102B091320284839583A683B7830E947A
:101AA000B71CEDB7FEB738960FB6F894FEBF0FBE61
:101AB000EDBF8AE664E00E94020687EA90E00E9499
:101AC000770637C08330A9F58DB79EB708970FB654
:101AD000F8949EBF0FBE8DBFEDB7FEB731968AE773
:101AE00092E0ADB7BEB712969C938E93119782E9A0
:101AF00090E0938382838091680290916902A09123
:101B00006A02B0916B0284839583A683B7830E9497
:101B1000B71CEDB7FEB738960FB6F894FEBF0FBEF0
:101B2000EDBF8AE664E00E9402068CEA90E00E9423
:101B300077068CE062E00E9402068AE792E00E944B
:101B40001307DF91CF911F910F91FF90EF90DF90DE
:101B5000CF9008950F931F93CF93DF932CE830E03D
:101B600081EB90E0B90141EC50E003EC10E00E9401
:101B7000330980E00E94DE0700D000D000D0EDB72E
:101B8000FEB73196CAE7D2E0ADB7BEB71296DC9386
:101B9000CE93119728EC30E033832283958384839E
:101BA0000E94B71C8DB79EB706960FB6F8949EBFDD
:101BB0000FBE8DBF8CE062E00E940206CE010E9443
:101BC0007706ADB7BEB718970FB6F894BEBF0FBE75
:101BD000ADBFEDB7FEB731961296DC93CE93119759
:101BE00089ED90E09383828380918E0290918F02A1
:101BF000A0919002B091910284839583A683B783CC
:101C00000E94B71C8DB79EB708960FB6F8949EBF7A
:101C10000FBE8DBF8CE065E00E940206CE010E94DF
:101C20007706DF91CF911F910F910895AF92BF92E8
:101C3000CF92DF92EF92FF920F931F93CF93DF9398
:101C400086EE90E065EF70E04AEF50E02DEF30E077
:101C500000E011E00E9433090F2EF0E2EF2EF2E0D7
:101C6000FF2EF02DCEE100E010E00F2EFAE7CF2E90
:101C7000F2E0DF2EF02D0F2EF5E0AF2EF1E0BF2EBB
:101C8000F02DD7018D919D917D0100D000D000D025
:101C9000EDB7FEB73196ADB7BEB71296DC92CE92D5
:101CA0001197B382A282958384830E94B71CEDB7FB
:101CB000FEB736960FB6F894FEBF0FBEEDBF80910B
:101CC0002D0290912E020817190741F48C2F62E023
:101CD0000E940206C6010E94860607C08C2F62E0A1
:101CE0000E940206C6010E9477060F5F1F4FCC5E5E
:101CF000CE3639F680E00E94DE0700D000D000D05A
:101D0000EDB7FEB73196CAE7D2E0ADB7BEB71296CF
:101D1000DC93CE93119728E031E0338322839583BF
:101D200084830E94B71CEDB7FEB736960FB6F894C1
:101D3000FEBF0FBEEDBF8CE063E00E940206CE0145
:101D40000E9477068DB79EB708970FB6F8949EBF8E
:101D50000FBE8DBFEDB7FEB73196ADB7BEB71296C9
:101D6000DC93CE93119789ED90E0938382838091E9
:101D70008E0290918F02A0919002B0919102848383
:101D80009583A683B7830E94B71CEDB7FEB738963C
:101D90000FB6F894FEBF0FBEEDBF8CE064E00E946A
:101DA0000206CE010E947706DF91CF911F910F911D
:101DB000FF90EF90DF90CF90BF90AF900895AF92DB
:101DC000BF92CF92DF92EF92FF920F931F93CF9328
:101DD0008AE191E065EF70E047E251E02DEF30E0FD
:101DE00000E011E00E9433090F2EFAE1EF2EF2E03D
:101DF000FF2EF02DCEE100E010E00F2EFAE7CF2EFF
:101E0000F2E0DF2EF02D0F2EFAE2AF2EF1E0BF2E22
:101E1000F02DD7018D917D0100D000D000D0EDB71D
:101E2000FEB73196ADB7BEB71296DC92CE9211973F
:101E3000B382A282848315820E94B71CEDB7FEB7DD
:101E400036960FB6F894FEBF0FBEEDBF80912D02FF
:101E500090912E020817190741F48C2F63E00E941D
:101E60000206C6010E94860607C08C2F63E00E940E
:101E70000206C6010E9477060F5F1F4FCC5ECE366A
:101E800041F6CF911F910F91FF90EF90DF90CF908F
:101E9000BF90AF900895CF92DF92EF92FF920F9391
:101EA0001F93CF93DF938FE291E065EF70E047E2FD
:101EB00051E02DEF30E000E011E00E943309C0E076
:101EC000D0E00AE712E00F2EFAE2EF2EF1E0FF2E4B
:101ED000F02D0F2EF6E0CF2EDD24F02D00D000D017
:101EE00000D0EDB7FEB73196ADB7BEB712961C93D2
:101EF0000E931197F382E282D583C4830E94B71CAC
:101F00008DB79EB706960FB6F8949EBF0FBE8DBFD5
:101F100080912D0290912E02C817D90791F4CE011D
:101F2000B6010E943F1B880F982F990F990F990FA8
:101F3000890F6E5F805F0E940206C8010E948606BC
:101F400011C0CE01B6010E943F1B880F982F990F38
:101F5000990F990F890F6E5F805F0E940206C8017A
:101F60000E9477062196CB30D10509F0B7CFDF91DB
:101F7000CF911F910F91FF90EF90DF90CF90089538
:101F8000AF92BF92DF92EF92FF920F931F93CF9386
:101F9000DF93809133028823F1F10E94050890932A
:101FA00096028093950280E00E94F90790936E025A
:101FB00080936D0280E090E00E94F5079093790293
:101FC0008093780280E00E94F107909370028093E2
:101FD0006F020E94010890937302809372020E9424
:101FE000E907909339028093380280E00E94ED0760
:101FF00090933B0280933A020E94FD0790939402D3
:102000008093930280E00E94DE0790937702809392
:102010007602109233022CE830E08CE391E067E422
:1020200071E0A90100E011E00E943309809174027F
:10203000909175028130910509F4ABC08130910512
:1020400048F08230910509F44FC18330910509F0C1
:10205000EAC19BC100D000D000D0EDB7FEB73196E9
:10206000CAE7D2E0ADB7BEB71296DC93CE93119714
:102070008EE491E093838283809195029091960201
:10208000958384830E94B71CEDB7FEB736960FB6D2
:10209000F894FEBF0FBEEDBF8CE062E00E94020626
:1020A000CE010E94770600D000D000D0EDB7FEB779
:1020B0003196ADB7BEB71296DC93CE9311978BE5F0
:1020C00091E09383828380916D0290916E0295835B
:1020D00084830E94B71CEDB7FEB736960FB6F8940E
:1020E000FEBF0FBEEDBF8CE063E00E940206CE0192
:1020F0000E94770600D000D000D0EDB7FEB7319631
:10210000ADB7BEB71296DC93CE93119789E691E0F6
:10211000938382838091780290917902958384835E
:102120000E94B71CEDB7FEB736960FB6F894FEBF07
:102130000FBEEDBF8CE064E00E940206CE010E945B
:10214000770600D000D000D0EDB7FEB73196ADB71E
:10215000BEB71296DC93CE93119789E791E09383F3
:10216000828380916F0290917002958384830E9494
:10217000B71CEDB7FEB736960FB6F894FEBF0FBE8C
:10218000EDBF8CE065E00E940206CE010E9477065A
:102190004AC100D000D000D0EDB7FEB73196CAE7F3
:1021A000D2E0ADB7BEB71296DC93CE93119784E818
:1021B00091E0938382838091720290917302958360
:1021C00084830E94B71CEDB7FEB736960FB6F8941D
:1021D000FEBF0FBEEDBF8CE062E00E940206CE01A2
:1021E0000E94770600D000D000D0EDB7FEB7319640
:1021F000ADB7BEB71296DC93CE93119784E991E008
:1022000093838283809138029091390295838483ED
:102210000E94B71CEDB7FEB736960FB6F894FEBF16
:102220000FBEEDBF8CE063E00E940206CE010E946B
:10223000770600D000D000D0EDB7FEB73196ADB72D
:10224000BEB71296DC93CE9311978EE991E09383FB
:10225000828380913A0290913B02958384830E940D
:10226000B71CEDB7FEB736960FB6F894FEBF0FBE9B
:10227000EDBF8CE064E00E940206CE010E9477066A
:102280002DB73EB7285030400FB6F8943EBF0FBE72
:102290002DBFEDB7FEB73196ADB7BEB71296DC9342
:1022A000CE9311978BEA91E09383828380918E0283
:1022B00090918F02A0919002B091910284839583B6
:1022C000A683B7830E94B71CEDB7FEB738960FB64A
:1022D000F894FEBF0FBEEDBF8CE065E00E940206E1
:1022E000CE010E9477069FC000D000D000D0EDB78D
:1022F000FEB73196CAE7D2E0ADB7BEB71296DC930F
:10230000CE93119787EB91E0938382838091930220
:1023100090919402958384830E94B71CEDB7FEB719
:1023200036960FB6F894FEBF0FBEEDBF8CE062E0AC
:102330000E940206CE010E94770600D000D000D095
:10234000EDB7FEB73196ADB7BEB71296DC93CE931C
:10235000119784EC91E0938382838091760290912F
:102360007702958384830E94B71CEDB7FEB736963B
:102370000FB6F894FEBF0FBEEDBF8CE063E00E9485
:102380000206CE010E9477064EC00CE312E0C0E0C8
:102390000F2EFAE7EF2EF2E0FF2EF02D0F2EF1EDCB
:1023A000AF2EF1E0BF2EF02DD3E00F2EF8E2DF2E9E
:1023B000F02DF80181919191A191B1918F012DB7EB
:1023C0003EB7285030400FB6F8943EBF0FBE2DBF29
:1023D0002F5F3F4FEDB7FEB7F282E182F901B38282
:1023E000A282B07084839583A683B7830E94B71CB2
:1023F0002DB73EB7285F3F4F0FB6F8943EBF0FBED4
:102400002DBF8C2F6D2F0E94331B682F9D9D802D1B
:1024100011246E5F865F0E940206C7010E94770644
:10242000CF5FCB3031F6DF91CF911F910F91FF90AD
:10243000EF90DF90BF90AF900895CF93DF9383B379
:1024400082958F708A3009F414C28B3050F4883032
:1024500009F477C2893008F05CC2873009F076C28F
:102460000AC08D3009F4A7C18E3009F4D9C08B3071
:1024700009F06CC223C180912902882331F481E0E4
:10248000809329020E941A06C4C0823009F05FC0FE
:1024900020912D0230912E022F5F3F4FC901880FEE
:1024A000991F880F991F40918E0250918F02609161
:1024B000900270919102820F931F0E945C1D8DB754
:1024C0009EB70A970FB6F8949EBF0FBE8DBFEDB7AB
:1024D000FEB73196CAE7D2E0ADB7BEB71296DC932D
:1024E000CE93119786ED91E09383828380912D02A4
:1024F00090912E029583848380918E0290918F0219
:10250000A0919002B091910286839783A087B187B2
:102510000E94B71C8DB79EB70A960FB6F8949EBF5F
:102520000FBE8DBF8CE064E00E940206CE010E94C7
:10253000770680912D0290912E028A30910508F045
:1025400068C0019690932E0280932D0262C0833062
:1025500031F481E0809333020E941A065AC085301C
:1025600009F457C0843009F054C080912002782FBC
:102570007295707F60E09091220280E0682B792B49
:10258000209124023091250222953295307F322706
:10259000207F3227622B732B209126023091270255
:1025A000622B732B0E94A40880E00E94DE07BC010E
:1025B000909377028093760286E490E00E94681DF3
:1025C00000D000D000D0EDB7FEB73196CAE7D2E018
:1025D000ADB7BEB71296DC93CE9311978AEE91E019
:1025E000938382838091760290917702958384838E
:1025F0000E94B71C8DB79EB706960FB6F8949EBF83
:102600000FBE8DBF8CE065E00E940206CE010E94E5
:102610007706A3EDB0E31197F1F700C0000096C173
:1026200080912902882361F4809128028F5F809332
:102630002802843010F0109228020E941A0637C037
:10264000823039F4109229020E9493090E941A06DE
:102650002EC0813091F482E08093290210922E02E4
:1026600010922D020E941A0688E265E00E9402067E
:102670008CEF91E00E9477061AC0833049F41092E3
:10268000290210927502109274020E941A060FC05D
:10269000853031F481E0809329020E941A0607C038
:1026A000843029F481E0809329020E941A0683ED88
:1026B00090E30197F1F700C0000048C18091290222
:1026C000823069F480912D0290912E02009709F4D6
:1026D0006BC0019790932E0280932D0265C08823D2
:1026E000B1F4809171028F5F80937102873018F08E
:1026F00087E0809371028091710280620E94B80528
:102700008CE390E0609171020E944B1D4DC08330BC
:1027100081F480917402909175028330910508F0E4
:1027200043C0019690937502809374020E941A062A
:102730003BC0813051F484E08093290210922E0234
:1027400010922D020E941A062FC0853061F48091EC
:102750002D0290912E02009739F1019790932E024D
:1027600080932D0221C08430F9F480912D02909144
:102770002E02FC01EE0FFF1FE05EFD4F2081318134
:102780002F30310541F4FC01EE0FFF1FE05EFD4FDD
:102790001182108209C0FC01EE0FFF1FE05EFD4FA9
:1027A0002F5F3F4F31832083A3EDB0E31197F1F703
:1027B00000C00000CBC080912902823071F480916A
:1027C0002D0290912E028A30910508F04BC001969F
:1027D00090932E0280932D0245C0882379F4809136
:1027E000710281508093710280620E94B8058CE36F
:1027F00090E0609171020E944B1D34C0833071F4EF
:102800008091740290917502009761F10197909305
:102810007502809374020E941A0624C0813011F15F
:10282000853069F480912D0290912E0283309105BC
:10283000C8F4019690932E0280932D0213C0843029
:1028400089F480912D0290912E028330910529F414
:1028500010922E0210922D0205C0019690932E0226
:1028600080932D0283ED90E30197F1F700C0000003
:102870006DC080912902813009F068C01092770202
:1028800010927602109221021092200210922302DE
:102890001092220210922502109224021092270216
:1028A0001092260280E060E070E00E94A40860912F
:1028B00076027091770281E490E00E94681D00D05A
:1028C00000D000D0EDB7FEB73196CAE7D2E0ADB781
:1028D000BEB71296DC93CE93119787E092E0938374
:1028E00082838091760290917702958384830E94FF
:1028F000B71C8DB79EB706960FB6F8949EBF0FBE55
:102900008DBF8CE065E00E940206CE010E94770632
:102910001DC09498A3ECB9E01197F1F700C0000036
:10292000949A83EC99E00197F1F700C000000E94AF
:10293000CC050E941A068091710280620E94B8053F
:1029400005C083E0809329020E941A06DF91CF918F
:1029500008950E94FE080E941B090E9423090E94FC
:1029600093090E9483090E948D03809176029091C1
:1029700077020E94C20863E373E383E790E40E9456
:10298000BD091092290280EC80931E0281E08093A1
:1029900033028091760290917702292F22952F7031
:1029A0002093200210922102292F33272F7030709C
:1029B00030932302209322029C01329522952F709E
:1029C00023273F7023272F703070309325022093E8
:1029D00024028F70907090932702809326021092A9
:1029E000750210927402A8950E940A0A60938E02E2
:1029F00070938F0280939002909391020E94850AB7
:102A0000DC01CB018093340290933502A09336020F
:102A1000B093370260918E0270918F028091900284
:102A2000909191020E94540B609368027093690226
:102A300080936A0290936B020E944D0CDC01CB01E3
:102A400080932F0290933002A0933102B093320210
:102A500080911E02803C39F680912902882359F426
:102A60006091340270913502809136029091370264
:102A70000E94A90C18C0813019F40E94AA0D13C03D
:102A8000823019F40E944B0F0EC0833019F40E945B
:102A9000C00F09C0843019F40E94160E04C085309E
:102AA00011F40E94DF0E0E941D129DCF1F920F9203
:102AB0000FB60F9211242F933F934F935F936F9311
:102AC0007F938F939F93AF93BF93EF93FF930E9456
:102AD000FD0793FF14C0AA9A83EC99E00197F1F7E0
:102AE00000C00000AA9883EC99E00197F1F700C0BC
:102AF000000080917602909177020E94C2081ABE6F
:102B0000FF91EF91BF91AF919F918F917F916F91C5
:102B10005F914F913F912F910F900FBE0F901F909B
:102B200018955058BB27AA270ED070C161D130F03C
:102B300066D120F031F49F3F11F41EF456C10EF41B
:102B4000E095E7FB4CC1E92F72D180F3BA17620719
:102B500073078407950718F071F49EF58AC10EF487
:102B6000E0950B2EBA2FA02D0B01B90190010C019D
:102B7000CA01A0011124FF27591B99F0593F50F4B5
:102B8000503E68F11A16F040A22F232F342F44270D
:102B9000585FF3CF469537952795A795F040539505
:102BA000C9F77EF41F16BA0B620B730B840BBAF0D5
:102BB0009150A1F0FF0FBB1F661F771F881FC2F740
:102BC0000EC0BA0F621F731F841F48F48795779554
:102BD0006795B795F7959E3F08F0B3CF9395880F0B
:102BE00008F09927EE0F979587950895D4D008F4AB
:102BF00081E008950CD00AC102D140F0F9D030F044
:102C000021F45F3F19F0EBC0511134C1EEC00FD178
:102C100098F39923C9F35523B1F3951B550BBB27A3
:102C2000AA2762177307840738F09F5F5F4F220F50
:102C3000331F441FAA1FA9F333D00E2E3AF0E0E849
:102C400030D091505040E695001CCAF729D0FE2F95
:102C500027D0660F771F881FBB1F26173707480727
:102C6000AB07B0E809F0BB0B802DBF01FF279358DD
:102C70005F4F2AF09E3F510568F0B1C0FBC05F3F37
:102C8000ECF3983EDCF3869577956795B795F795C5
:102C90009F5FC9F7880F911D9695879597F90895BD
:102CA000E1E0660F771F881FBB1F62177307840759
:102CB000BA0720F0621B730B840BBA0BEE1F88F768
:102CC000E0950895BCD088F09F5790F0B92F9927D0
:102CD000B751A0F0D1F0660F771F881F991F1AF027
:102CE000BA95C9F712C0B13081F0C3D0B1E00895F0
:102CF000C0C0672F782F8827B85F39F0B93FCCF371
:102D0000869577956795B395D9F73EF4909580951C
:102D1000709561957F4F8F4F9F4F0895E89409C03C
:102D200097FB3EF490958095709561957F4F8F4FFE
:102D30009F4F9923A9F0F92F96E9BB279395F69514
:102D4000879577956795B795F111F8CFFAF4BB0F92
:102D500011F460FF1BC06F5F7F4F8F4F9F4F16C0F6
:102D6000882311F096E911C0772321F09EE8872F80
:102D7000762F05C0662371F096E8862F70E060E03C
:102D80002AF09A95660F771F881FDAF7880F9695B5
:102D9000879597F90895990F0008550FAA0BE0E859
:102DA000FEEF16161706E807F907C0F0121613060D
:102DB000E407F50798F0621B730B840B950B39F44D
:102DC0000A2661F0232B242B252B21F408950A26B3
:102DD00009F4A140A6958FEF811D811D089597F9F3
:102DE0009F6780E870E060E008959FEF80EC0895B1
:102DF00000240A94161617061806090608950024DA
:102E00000A9412161306140605060895092E039453
:102E1000000C11F4882352F0BB0F40F4BF2B11F4C7
:102E200060FF04C06F5F7F4F8F4F9F4F089557FD26
:102E30009058440F551F59F05F3F71F04795880F28
:102E400097FB991F61F09F3F79F0879508951216BF
:102E500013061406551FF2CF4695F1DF08C016166B
:102E600017061806991FF1CF86957105610508941C
:102E70000895E894BB2766277727CB0197F9089533
:102E80008ADF08F48FEF08950BD0C0CFB1DF28F0B0
:102E9000B6DF18F0952309F0A2CFA7CF1124EACF0F
:102EA000C6DFA0F3959FD1F3950F50E0551F629FA9
:102EB000F001729FBB27F00DB11D639FAA27F00D93
:102EC000B11DAA1F649F6627B00DA11D661F829FBA
:102ED0002227B00DA11D621F739FB00DA11D621F9F
:102EE000839FA00D611D221F749F3327A00D611DBC
:102EF000231F849F600D211D822F762F6A2F11249E
:102F00009F5750408AF0E1F088234AF0EE0FFF1FF0
:102F1000BB1F661F771F881F91505040A9F79E3F27
:102F2000510570F05CCFA6CF5F3FECF3983EDCF329
:102F3000869577956795B795F795E7959F5FC1F764
:102F4000FE2B880F911D9695879597F90895A5E119
:102F5000B0E0EDEAF7E10C94521B4C017F876E87DD
:102F6000FC0117821682838181FD04C076C34C85E3
:102F70005D8504C01E010894211C311CF40193815D
:102F8000EE85FF8593FD859193FF8191FF87EE8705
:102F9000882309F45EC3853241F493FD859193FF44
:102FA0008191FF87EE87853259F490E0B4014C8B14
:102FB0005D8B0E948B1C4C895D895D874C87D7CFC8
:102FC000FF24DD2410E01032B0F48B3269F08C3233
:102FD00028F4803251F0833271F40BC08D3239F015
:102FE000803349F411602CC01260146029C018604D
:102FF00027C0106125C017FD2EC0282F20532A306E
:1030000098F416FF08C08F2D880FF82EFF0CFF0CC8
:10301000F80EF20E15C08D2D880FD82EDD0CDD0CAC
:10302000D80ED20E10620CC08E3221F416FD11C3E0
:10303000106406C08C3611F4106802C0883659F44A
:10304000EE85FF8593FD859193FF8191FF87EE8744
:10305000882309F0B8CF982F9554933018F4106155
:10306000805E06C0982F9556933008F0A2C11F7E4F
:1030700016FD02C0E6E0FE2E1F73853611F41064C3
:1030800006C0863611F4106802C0F110FA9417FFDA
:1030900007C0FBE3FF1548F0EF2CE39427E00DC0D9
:1030A00027E02F1530F02F2D07C027E07CE3E72E17
:1030B00004C027E067E0F62EEE24CA0104969D873F
:1030C0008C87FA016081718182819381A1010E2D2B
:1030D0000E949D1B5C01C9802C2D30E0398B288B10
:1030E000C0FE03C0388933FF06C011FD06C012FFC1
:1030F00006C000E205C00DE203C00BE201C000E023
:10310000888999898C709070009709F43CC00023DD
:1031100011F084E001C083E08D1558F4D81A13FD36
:1031200009C080E290E0B4010E948B1CDA94C9F7D8
:1031300001C0DD24002329F0802F90E0B4010E941B
:103140008B1C888983FD05C03AE2E32E35E0F32E1F
:1031500011C026E2E22E25E0F22E0CC00115110569
:1031600009F0805290E0B4010E948B1C0894E11C8D
:10317000F11C04C0012F10E000711070F701849160
:10318000882361F763C217FF0EC0EA0CF889F4FFC9
:1031900004C08A81813309F4EA941E144CF528E0B6
:1031A0002E1548F12CC016FD2AC08F2D90E08A15EF
:1031B0009B0544F03CEFA3163FEFB3061CF01068EC
:1031C00001C0FA94FF2049F0E2E0F0E0EC0FFD1FAF
:1031D000EF0DF11D80818033A1F317FF10C0EF2C9C
:1031E000E3948F2D90E0A816B90644F4FA1807C0AE
:1031F000EE24E39404C098E0E92E01C0FF2417FFF9
:1032000007C01A141B043CF495012F5F3F4F05C003
:1032100025E030E002C021E030E0002311F02F5F14
:103220003F4FFF2029F08F2D90E00196280F391F86
:103230008D2D90E02817390714F4D21A01C0DD242F
:10324000612E7724C30189709070009749F406C0FD
:1032500080E290E0B4010E948B1CDA94DD20C1F77B
:10326000002329F0802F90E0B4010E948B1C63FCA6
:1032700009C006C080E390E0B4010E948B1CDA9480
:10328000DD20C1F717FF48C08501B7FE02C000E08E
:1032900010E06624772495012E1931093B8B2A8B87
:1032A0002501401A510A420C531C6F2D70E0EE2488
:1032B000FF24E61AF70A3FEF0F3F130729F48EE2C7
:1032C00090E0B4010E948B1CA016B10654F02A892C
:1032D0003B89201731072CF4F201E60DF71D81819F
:1032E00001C080E3015010400894611C711C0E1550
:1032F0001F052CF090E0B4010E948B1CDCCF0A1556
:103300001B0541F49A81963320F4953319F43889DA
:1033100034FF81E390E049C08A81813311F09FEE50
:10332000C92290E0B4010E948B1CFF2089F08EE23C
:1033300090E0B4010E948B1C12E0F101E10FF11D3D
:103340001F5F808190E0B4010E948B1CFA94A9F762
:1033500064FE03C085E490E002C085E690E0B4011D
:103360000E948B1CB7FC05C0A114B10441F4C4FE3B
:1033700006C0B094A194B108B3948DE201C08BE271
:1033800090E0B4010E948B1C80E305C08F5FE6EFE4
:10339000FFEFAE0EBF1EFAE0AF16B104BCF790E02F
:1033A000B4010E948B1CC501C096B4010E948B1C05
:1033B0004DC1833631F0833789F0833509F059C028
:1033C00022C09A012E5F3F4F3D872C87FA018081F2
:1033D000898381E0E82EF12C510113C09A012E5F00
:1033E0003F4F3D872C87FA01A080B18016FF03C0B4
:1033F0006F2D70E002C06FEF7FEFC5010E94801C4F
:103400007C011F7714C09A012E5F3F4F3D872C87A8
:10341000FA01A080B18016FF03C06F2D70E002C0DA
:103420006FEF7FEFC5010E94751C7C01106813FDD2
:103430001CC006C080E290E0B4010E948B1CDA94AC
:103440008D2D90E0E816F906A8F30FC0F50117FDE1
:10345000859117FF81915F0190E0B4010E948B1C60
:10346000D110DA940894E108F108E114F10471F73D
:10347000EDC0843611F0893671F59A0117FF0AC044
:103480002C5F3F4F3D872C87FA0180819181A2817B
:10349000B3810BC02E5F3F4F3D872C87FA0180819F
:1034A0009181AA2797FDA095BA2F012F0F76B7FF1C
:1034B00008C0B095A095909581959F4FAF4FBF4F95
:1034C0000068BC01CD01A1012AE030E00E94D91CB6
:1034D000E82EE21841C0853721F41F7E2AE030E053
:1034E00020C0197F8F36A9F0803720F4883509F085
:1034F000B0C00BC0803721F0883709F0AAC001C0E6
:10350000106114FF09C0146007C014FF08C01660E2
:1035100006C028E030E005C020E130E002C020E134
:1035200032E0CA0117FF09C004969D878C87FA0113
:10353000608171818281938108C002969D878C870A
:10354000FA016081718180E090E0A1010E94D91CA4
:10355000E82EE218012F0F7706FF09C00E7FEF1447
:1035600030F404FF06C002FD04C00F7E02C01E2D11
:1035700001C01F2D802F90E004FF0CC0FE01EE0D56
:10358000F11D2081203311F4097E09C002FF06C01D
:103590001E5F05C086789070009709F01F5FA02E0F
:1035A000BB2403FD12C000FF0DC0FE2C1D1550F4FE
:1035B000FD0CF11A1D2D06C080E290E0B4010E94BE
:1035C0008B1C1F5F1D15C0F304C01D1510F4D11A0C
:1035D00001C0DD24A4FE0FC080E390E0B4010E948E
:1035E0008B1CA2FE1FC0A1FE03C088E590E010C0A6
:1035F00088E790E00DC0C50186789070009791F043
:10360000A1FC02C080E201C08BE207FD8DE290E0E8
:10361000B4010E948B1C06C080E390E0B4010E94BC
:103620008B1CFA94EF14C0F3EA94F101EE0DF11D36
:10363000808190E0B4010E948B1CEE20A9F706C0A7
:1036400080E290E0B4010E948B1CDA94DD20C1F787
:103650008ECCF4018681978102C08FEF9FEF659633
:10366000E2E10C946E1B991B79E004C0991F961738
:1036700008F0961B881F7A95C9F78095089597FBE7
:10368000092E07260AD077FD04D043D006D00020AB
:103690001AF4709561957F4F0895F6F7909581958E
:1036A0009F4F08952F923F924F925F926F927F9219
:1036B0008F929F92AF92BF92CF92DF92EF92FF9242
:1036C0000F931F93CF93DF93CDB7DEB7CA1BDB0BEE
:1036D0000FB6F894DEBF0FBECDBF09942A88398893
:1036E00048885F846E847D848C849B84AA84B9849A
:1036F000C884DF80EE80FD800C811B81AA81B981A6
:10370000CE0FD11D0FB6F894DEBF0FBECDBFED01B9
:103710000895AA1BBB1B51E107C0AA1FBB1FA61718
:10372000B70710F0A61BB70B881F991F5A95A9F76A
:1037300080959095BC01CD010895283008F027E0D0
:103740003327DA01990F311D87FD916000966105DD
:10375000710539F432602E5F3D9330E32A95E1F72D
:1037600008959F3F30F080387105610509F03C5F96
:103770003C5F3D93913008F08068911DDF93CF93BB
:103780001F930F93FF92EF92192F987F9695E92F31
:1037900096959695E90FFF27E857FA4F9927332713
:1037A000EE24FF24A701E70105900894079428F46C
:1037B000360FE71EF81E491F511D660F771F881F21
:1037C000991F0694A1F70590079428F4E70EF81EB8
:1037D000491F561FC11D770F881F991F661F06942A
:1037E000A1F70590079428F4F80E491F561FC71F2C
:1037F000D11D880F991F661F771F0694A1F70590AA
:10380000079420F4490F561FC71FD81F990F661F32
:10381000771F881F0694A9F784911095177041F0BF
:10382000D695C79557954795F794E7941A95C1F79C
:10383000EEE2F5E0689415901591359165919591BA
:1038400005907FE27395E118F10A430B560BC90B03
:10385000D009C0F7E10CF11E431F561FC91FD01D30
:103860007EF4703311F48A95E6CFE894015030F07D
:10387000080F0AF40027021708F4202F2395022FBF
:103880007A3328F079E37D932A95E9F710C07D9388
:103890002A9589F606949795679537951795179405
:1038A000E118F10A430B560BC90BD00998F0239588
:1038B0007E9173957A3308F070E37C932013B8F708
:1038C0007E9170617D9330F0839571E37D9370E319
:1038D0002A95E1F71124EF90FF900F911F91CF915E
:1038E000DF91992787FD90950895FC01059061501F
:1038F00070400110D8F7809590958E0F9F1F089506
:10390000FC016150704001900110D8F780959095AE
:103910008E0F9F1F08950F931F93CF93DF938C01FA
:10392000EB018B8181FF1BC082FF0DC02E813F8187
:103930008C819D812817390764F4E881F98101930E
:10394000F983E88306C0E885F985802F09950097FB
:1039500031F48E819F8101969F838E8302C00FEF89
:103960001FEFC801DF91CF911F910F910895AEE035
:10397000B0E0EDEBFCE10C94601B0D891E8986E044
:103980008C831A8309838FEF9FE79E838D83AE011B
:10399000475E5F4FCE0101966F89788D0E94A71711
:1039A000EF81F885E00FF11F10822E96E4E00C9471
:1039B0007C1BFA01AA27283051F1203181F1E894CB
:1039C0006F936E7F6E5F7F4F8F4F9F4FAF4FB1E012
:1039D0003ED0B4E03CD0670F781F891F9A1FA11D0D
:1039E000680F791F8A1F911DA11D6A0F711D811D0E
:1039F000911DA11D20D009F468943F912AE0269FD3
:103A000011243019305D3193DEF6CF010895462F31
:103A10004770405D4193B3E00FD0C9F7F6CF462F12
:103A20004F70405D4A3318F0495D31FD405241937B
:103A300002D0A9F7EACFB4E0A69597958795779538
:103A40006795BA95C9F700976105710508959B01BF
:103A5000AC010A2E06945795479537952795BA9548
:103A6000C9F7620F731F841F951FA01D0895E19968
:103A7000FECF9FBB8EBBE09A99278DB30895A6E138
:103A8000B0E044E050E00C94701DA8E1B0E042E0EA
:103A900050E00C94701D262FE199FECF9FBB8EBB8A
:103AA000E09A01970DB2021631F02DBB0FB6F894D3
:103AB000E29AE19A0FBE08950396272F0E944C1DAB
:103AC0000E944B1D252F0E944C1D242F0C944C1D31
:103AD0000196272F0E944C1D0C944B1DDC01CB013D
:103AE000FC01E199FECF06C0FFBBEEBBE09A319628
:103AF0000DB20D9241505040B8F70895F894FFCFA1
:103B0000030000000001444154413A202530386C44
:103B10005800494E445543544956452053454E5349
:103B2000494E470053455454494E470000554E49AD
:103B3000540025362E324600206D6D20006D696CD4
:103B40000025362E3146002025202000206D412002
:103B5000004F4646534554264741494E205345544D
:103B60000031004E45585400312E204F46465345F3
:103B700054203A20253034780044415441203A20E2
:103B80002530386C58004F46465345542053455411
:103B900054494E470053415645005550002D3E00B4
:103BA0004558495400257800435552204F46465306
:103BB0004554203A2025303458004741494E20537F
:103BC000455454494E47003C2D0025303264005383
:103BD000455454494E47204D4F4445004465627555
:103BE00067204D6F6465005245524F414400434F7A
:103BF0004E4649473A2025303458004449564944F6
:103C000045523A202530345800534554544C4543CE
:103C10006E743A20253034580052436E743A202591
:103C2000303458004552524F52436F6E663A202549
:103C3000303458004D55583A202530345800494406
:103C4000524956453A202530345800665245513A7B
:103C5000202530386C58005354415455533A202590
:103C6000303458004F46465345543A202530345896
:103C70000025366C5800253032646D6D28253038AB
:103C80006C5829736176656421004F46465345544C
:103C90002025303458205341564521004E6F6E6523
:103CA000204163742121004F6666736574282530B6
:103CB00034582920494E4954210001040810C000FD
:00000001FF
