:1000000008040020754A0000F14A0000F14A00008F
:10001000F14A0000F14A0000F14A0000000000002F
:10002000000000000000000000000000F14A000095
:10003000F14A000000000000F14A0000F14A00000F
:10004000F14A0000F14A0000F14A0000F14A0000C4
:10005000F14A0000F14A0000F14A0000F14A0000B4
:10006000F14A0000F14A000000000000DB0E000031
:10007000F14A0000E10C0000F14A0000F14A0000E2
:10008000F14A0000F14A0000F14A0000F14A000084
:10009000F14A0000F14A0000F14A0000F14A000074
:1000A000F14A0000F14A0000F14A0000F14A000064
:1000B000F14A0000F14A0000F14A0000F14A000054
:1000C000F14A0000F14A0000F14A0000F14A000044
:1000D000F14A0000F14A0000F14A0000000000006F
:1000E000012110F01F029140DFF8DC2B40B24009E3
:1000F00042F820107047012110F01F029140DFF8F4
:10010000C42C40B2400942F820107047BFF34F8F13
:10011000DFF8B40C006810F4E060DFF8081708435B
:10012000DFF8A41C0860BFF34F8F00BFFDE780B568
:100130000020DFF8981C0870DFF8900BDFF8901BA8
:1001400008600120DFF88C1B087000F0E0F800F078
:10015000E5F800F0F7F800F097FE00F038F9DFF866
:10016000700C006864282BD0002006E00021DFF826
:10017000642C80B242F82010401C80B20B28F5DBC2
:100180000420DFF8541C08700020DFF8501C0880A1
:100190005FF05860DFF8481C08605FF0A560DFF88A
:1001A000441C08600020DFF8301B08600020DFF8E6
:1001B0002C1B08606420DFF8181C086000F066F94A
:1001C000DFF8140C0078002803D10320DFF8081CA6
:1001D000087000F0C2F900F0F8F90121DFF8080C0E
:1001E00000F0B5FE0D20FFF77BFF642000F06DFEF0
:1001F00000F015FADFF8E40B008800F006FFDFF8E6
:10020000EC0B0078402826D10120DFF8E41B0870B1
:1002100000200FE0DFF8C41B098880B28200D2F111
:100220000C02114111F00F01DFF8C82B80B222F847
:100230001010401C80B20428ECDB0020DFF8B81B53
:10024000088008E0DFF8840B0078062801D101F06F
:100250008DFA00F0E9FA00F0F1F9DFF8A01B086070
:10026000DFF8980B006800F003FADFF8941B0860D1
:10027000DFF88C0B006800F052FADFF8881B08608A
:10028000DFF8800B006800F054FADFF87C1B086090
:10029000DFF8700B006800F06AFADFF8500B0078A6
:1002A0004028D8D1DFF8240B0078002807D1DFF8E8
:1002B000500B006801F002FC01F0D7F8C9E7DFF845
:1002C0000C0B0078012802D101F0CEF9C1E7DFF86C
:1002D000FC0A0078022802D101F080FAB9E7DFF8C1
:1002E000EC0A0078032802D101F056F9B1E7DFF8F3
:1002F000DC0A0078042802D101F031F9A9E7DFF81F
:10030000CC0A007805289DD101F0F8F9A1E780B565
:1003100000220221002001F0FDFB01BD80B540F26A
:10032000531001F02DFC002301220021012001F0D7
:1003300001FC5FF0FF33002200215FF0FF3001F08D
:1003400009FC01BD80B544F23C01DFF8C00A01F0B0
:1003500021FC0421DFF8B40A01F01FFC0021DFF8C2
:10036000AC0A01F01DFC0021DFF8A40A01F012FC28
:100370009F21DFF89C0A01F010FC0021DFF8900AB1
:1003800001F00EFC0021DFF88C0A01F003FC0321D0
:10039000DFF8800A01F007FC0321DFF8780A01F09A
:1003A000FCFB0021DFF86C0A01F0FAFB01BD80B50F
:1003B0000B20FFF7A0FE0D20FFF79DFE01BD80B5CD
:1003C0000B20FFF78DFE0D20FFF78AFE01BD10B553
:1003D00000200024FFF7EBFF78225FF48031DFF884
:1003E000380A01F00AFCFFF7EAFF00200BE0DFF813
:1003F000281AE4B251F82410DFF8D829C0B242F824
:100400002010641C401CC0B20B28F0DBDFF8080A87
:10041000E4B250F82400DFF8C0190870641CDFF85B
:10042000F809E4B250F82400DFF8B0190880641C21
:10043000DFF8E409E4B250F82400DFF8A4190860FA
:10044000641CDFF8D409E4B250F82400DFF89419F2
:100450000860641CDFF8C009E4B250F82400DFF83B
:1004600078180860641CDFF8B009E4B250F8240082
:10047000DFF868180860641CDFF89C09E4B250F8E3
:100480002400DFF84C190860641C10BD80B5002101
:10049000002000210BE0DFF83C29C9B252F82120EE
:1004A000DFF87439C0B243F82020401C491CC9B29F
:1004B0000B29F0DBDFF820190978DFF85C29C0B2DE
:1004C00042F82010401CDFF814190988DFF8482989
:1004D000C0B242F82010401CDFF804190968DFF8A8
:1004E0003829C0B242F82010401CDFF8F81809681B
:1004F000DFF82429C0B242F82010401CDFF8D817DA
:100500000968DFF81429C0B242F82010401CDFF857
:10051000CC170968DFF80029C0B242F82010401C4F
:10052000DFF8AC180968DFF8F028C0B242F82010F4
:10053000401CFFF73CFF5FF4803001F06BFB78223A
:100540005FF48031DFF8D00801F03AFB01F08CFB5A
:10055000C007FBD4FFF733FF01BD80B500F02BF8D7
:10056000DFF888180870DFF884080078002813D0B6
:1005700020280ED040281DD101F00CFC01F057FCC2
:10058000DFF85408007850F02000C0B201F0D0FB32
:1005900010E000F052F80DE001F0FCFB01F047FC28
:1005A000DFF83408007850F02000C0B201F0C0FB42
:1005B00000F043F801BD80B50020DFF8540801F0D9
:1005C000F5FA10F06000C0B202BD80B50321DFF87B
:1005D000180800F0BCFC002310220021DFF80808F6
:1005E00000F08CFC5FF470320021DFF8FC0700F0B3
:1005F000C7FC4FF490720F21DFF8EC0700F0D3FC3A
:1006000000234FF450627C21DFF8DC0700F08EFC01
:1006100001220121DFF8D00700F0D4FC01BD80B534
:1006200000234FF480720021102001F01AFD5FF0CA
:10063000A561002001F010FD01BD704710B5002438
:1006400000F02FFD00070FD5002000F04FFE0443FF
:100650002404012000F04AFE044314F0704F03D13B
:10066000200ADFF898170860DFF89007006810BDCF
:100670002DE9F041040000200026002000E0401C8D
:10068000C0B20B2806DADFF84C17C0B251F82010C0
:100690008C42F4D3DFF884170870DFF88007007805
:1006A00001F0F8FCDFF8781701F004FD0500DFF831
:1006B0006C07007801F0EEFC0600DFF81807DFF8A1
:1006C0005C17097810EB810050F8040C01F0E2FC93
:1006D0000700DFF80007DFF84417097850F8210019
:1006E00001F0D8FC80463000290001F025FD06000D
:1006F0004046390001F020FD0100300001F090FD7E
:100700000600200001F0C6FC390001F015FD3100A3
:1007100001F004FE290001F0CDFCBDE8F08180B5B8
:10072000DFF8001701F07CFDDFF8FC1601F0F6FDA4
:1007300002BD80B5DFF894160978052902D15FF073
:10074000814013E0DFF884160978062902D1DFF82A
:10075000DC060BE0DFF8D01601F062FD5FF08341AC
:1007600001F0DCFD5FF0814101F0A4FC02BD38B571
:10077000DFF858160978052906D1DFF86406006805
:10078000DFF8AC16086030E0DFF84016097806297B
:1007900006D1DFF850060068DFF89416086024E000
:1007A000DFF8841601F03CFD0400DFF8380600682D
:1007B00001F070FC0500DFF82806006801F06AFC13
:1007C0000100280001F0B8FC210001F0A7FD0400A1
:1007D000DFF80C06006801F05DFC210001F06AFC06
:1007E00001F008FEDFF848160860DFF844060168EB
:1007F000002001F031FCDFF8D4050078022810D089
:10080000DFF82C060268DFF82C16DFF82C0601F062
:1008100003FE0521082001F0F1FADFF81C0601F0C3
:1008200053FB31BD0400FA0510B50024DFF8DC05E8
:1008300001F0BCF910F0F000C0B2302800F02482C2
:10084000602800F03E82702800F08E81902800F031
:100850000E82B02800F0DC80D02877D0E02840F06D
:100860003282DFF868050078002805D0022835D0EC
:1008700009D3032839D065E00420DFF8501508704B
:1008800001F0D5FA5EE0DFF874050068DFF8441582
:10089000DFF8A825128841F82200DFF86005036818
:1008A000DFF898050288DFF89815DFF88C0501F06D
:1008B000B3FD04210C2001F0A1FADFF87C0501F062
:1008C00003FBDFF8780500880A2806DADFF86C05F4
:1008D0000088401CDFF86415088033E00120DFF851
:1008E0001015087001F0A3FA2CE000200BE0DFF8EF
:1008F0000415C0B231F81010C0B28200D2F10C025F
:1009000091400C43401CC0B20428F0DB210089B2A6
:10091000002000F02BFC002000F022FCDFF8BC14CB
:100920000880DFF8B8040288DFF81815DFF808053A
:1009300001F072FD05210C2001F060FADFF8F804E7
:1009400001F0C2FAC82000F0C0FABCE1DFF87C0474
:100950000078002809D0022822D01AD304283DD0DC
:1009600029D3062848D040D34EE0DFF8DC040078D5
:10097000401CDFF8D4140870DFF8CC040078042899
:1009800003DB0020DFF8C0140870C82000F09DFAD7
:100990003AE00520DFF83414087001F048FA33E03B
:1009A0000020DFF8281408700020DFF84C140880BD
:1009B00001F03DFA28E00120DFF810140870002053
:1009C000DFF87814088001F032FA0421282001F0C1
:1009D00015FADFF8780401F077FA15E00320DFF864
:1009E000EC13087001F023FA0EE00620DFF8DC13A8
:1009F000087001F01CFA07E0FFF748FD0020DFF85F
:100A0000CC13087001F013FAC82000F05EFA5AE126
:100A1000DFF8B803007801280AD0C0F0A1800328CD
:100A200022D012D305285AD040D306287AD097E096
:100A3000DFF808040088002806D0DFF800040088EA
:100A4000401EDFF8F81308808AE0DFF8AC03008866
:100A5000032808DADFF8A0030088401CDFF89813A9
:100A6000088001F0E4F97BE0DFF88803DFF8CC13BD
:100A7000098830F811000F2808D10020DFF874131E
:100A8000DFF8B823128821F812000EE0DFF86403C3
:100A9000DFF8A813098830F81100401CDFF8541360
:100AA000DFF89823128821F8120059E0DFF82803B4
:100AB0000078401CDFF820130870DFF81C03007872
:100AC000072803DB0720DFF810130870DFF808039E
:100AD000007850F02000C0B201F02AF940E0C04890
:100AE000006800F17F4010F57F00BD4908600321D8
:100AF000BD4800F02CFAFF2000F0DCF90020DFF800
:100B0000501308700121B84800F021FADFF84003C3
:100B100000780028FAD0DFF83C030068DFF83813CB
:100B200008601DE0AF48006800F17F4010F57F00CD
:100B3000AC4908600321AC4800F009FAFF2000F03E
:100B4000B9F90020C24908700121A74800F0FFF957
:100B5000BF4800780028FBD0BE480068BF49086045
:100B6000C82000F0B2F9AEE098480078012809D01A
:100B700079D303281CD00FD305283BD026D30628D1
:100B800055D070E0AD4800880A2804DAAB480088E8
:100B9000401CAA49088066E097480088002806D0D3
:100BA00095480088401E9449088001F040F95AE0B9
:100BB000A2480088032803D10020A049088004E04F
:100BC0009E480088401C9D4908804CE0824800787F
:100BD000401E8149087080480078002802D100201A
:100BE0007D4908707C48007850F02000C0B201F0C8
:100BF0009FF838E07A48006810F58030784908603E
:100C00000321794800F0A3F9FF2000F053F90020F8
:100C10008F4908700121744800F099F98C480078D8
:100C20000028FBD08B4800688B4908601BE06D48AA
:100C3000006810F580306B49086003216A4800F0B5
:100C400086F9FF2000F036F9002081490870012163
:100C5000654800F07CF97E4800780028FBD07D488C
:100C600000687E490860C82000F02FF92BE0574843
:100C70000078022804D002205449087001F0D7F807
:100C8000C82000F022F91EE00221614800F093FF25
:100C90000A2000F01AF902215D4800F089FF0A20BD
:100CA00000F013F901F076F801F0C1F84A48007835
:100CB00050F02000C0B201F03BF8C82000F005F968
:100CC00001E0FFF723FA10BD00E100E09A999931A5
:100CD0001C050020530500201005002014050020ED
:100CE00080B500200090404800F046F90090009840
:100CF000C00665D45A4800780C283BDA3A4800F020
:100D00003DF95849564A127841F82200554854494D
:100D1000097850F8210054490968884206DA514898
:100D20004F49097850F821004F4908604F48006842
:100D30004C494B4A127851F82210884206DA494849
:100D40004749097850F82100484908604848D0E9E7
:100D5000002344484249097850F82100C11710186F
:100D60005941434AC2E900013D480078401C3C49D2
:100D7000087025E03E48D0E900233B480068C117D1
:100D8000121A8B4139480068C117101A73EB010120
:100D90000A22002301F05AFB2E49086001202C4949
:100DA000087000202E49087000200021304AC2E956
:100DB00000015FF0FF302C49086000202B490860DB
:100DC00001BD000080E100E00CED00E04E050020D8
:100DD00020050020B0040020510500204A05002015
:100DE000080500200C050020000003404F050020EE
:100DF00056050020F80400204C050020280500209E
:100E00002C05002034050020300500200060004043
:100E10003060004060600040080400205005002061
:100E2000000080BF000020410000C8420000A04137
:100E300004050020144A0000DC04002038050020CE
:100E4000E0480000F448000055050020204A00005A
:100E50005205002018050020100500201405002070
:100E600054050020800400200000002024050020FC
:100E7000F0040020012110F01F0291401D4A40B2F1
:100E8000400942F82010704780B520215FF0804073
:100E900001F086FB1823002240215FF0804001F022
:100EA0006FFB00F001F801BD80B50B20FFF7E2FFFA
:100EB00001BD000005E000BF00BF00BF00BF00BFD4
:100EC00000BF401E0128F6DA704700210A4A11606F
:100ED000094909688142FBD3704780B501215FF061
:100EE000804001F060FB04480068401C0249086033
:100EF00001BD000000E100E00005002030B4002446
:100F0000848C4FF607752C4012F0F802224382843D
:100F100082682F4C1440002B01D054F4802411F42B
:100F2000405121438160012030BC704710B400243F
:100F300011F07F01120212F4706211434DF280022F
:100F40001A4052EA01040484008C10BC704700224D
:100F50008268002902D052F4002201E032F400221B
:100F600083681A438260828C1A4B1A4011F0070181
:100F7000114381840120704700787047806C70476E
:100F800010B400238368144C234012F470321343CE
:100F90008360828B12F47F5311F00F010B43838324
:100FA000012010BC704710B4002383680B4C234011
:100FB00012F47872134311F01F010B438360012078
:100FC00010BC7047002A00D0017100797047000002
:100FD000FFCFFF0FF8FF0F00FF3F0C0000FCFF00EA
:100FE00010B504001A2000F081F9A4B2B4F5005F36
:100FF00005D150F4005080B200F03BF804E04DF60B
:10100000FF71084000F035F810BD10B5040000F085
:10101000C2F84FF40050FFF7E3FF4FF4E05000F048
:1010200028F804220221002000F040F840F2D641C6
:10103000002000F05CF80A21002000F048F842F29D
:10104000200000F023F8042000F073F800221221A1
:10105000002000F05CF8A4B24FF6FF70844204D088
:10106000210089B2002000F071F80020FFF7B8FFDE
:1010700010BD80B550F001001A2180B200F004F9D3
:1010800001BD80B51A2000F031F902BD80B51921EB
:1010900080B200F0F9F801BD80B5192000F026F902
:1010A00002BD80B5182000F021F902BD80B552EADA
:1010B000013210F11401C9B2100080B200F0E4F85E
:1010C00001BD80B51430C0B200F010F902BD80B58A
:1010D0000A0010F11001C9B2100080B200F0D4F87B
:1010E00001BD80B51030C0B200F000F902BD80B57E
:1010F0000A0010F10801C9B2100080B200F0C4F873
:1011000001BD80B50830C0B200F0F0F802BD80B576
:10111000920152EAC12210F11E01C9B2100080B240
:1011200000F0B2F801BD80B51E30C0B200F0DEF8AC
:1011300002BD80B550F402701B2180B200F0A4F80B
:1011400001BD80B51B2000F0D1F802BD80B50A00BA
:1011500010F10C01C9B2100080B200F095F801BD89
:1011600080B50C30C0B200F0C1F802BD10B50C0063
:101170004FF40050FFF734FF0A20FFF7A6FE2100CE
:1011800089B20020FFF7E2FF0020FFF729FF64206B
:10119000FFF79BFE10BD80B50121984800F008FDC7
:1011A0000221964800F004FD01BD80B5022193485C
:1011B00000F001FD0120FFF77DFE01218F4800F0C6
:1011C000FAFC0120FFF776FE01BD80B501218B48B6
:1011D00000F0EEFC0120FFF76DFE0221874800F0D1
:1011E000E7FC0120FFF766FE01BD80B5C0B2002814
:1011F00004D00221814800F0DBFC03E002217F489B
:1012000000F0D9FC6420FFF755FE01217B4800F077
:10121000CFFC0120FFF74EFE0121784800F0CBFC07
:101220000120FFF747FE01BD10B5002401217348DE
:1012300000F0B3FC6420FFF73DFE704800F0B6FC00
:1012400010F0010401216D4800F0B2FC0120FFF70D
:1012500031FE0121694800F0AEFC0120FFF72AFEB3
:101260000321664800F099FC2000C0B210BD80B593
:101270000321624800F091FC0020FFF7B6FF012136
:101280005E4800F08AFC01BD38B556228DF800207A
:101290008DF80110010089B2090A8DF802108DF84D
:1012A0000300FFF782FF002402E0FFF7BDFF641C8C
:1012B000E4B2042C14DA002503E00020FFF795FFC8
:1012C0006D1CEDB2082DF0DA6846E4B2205CD5F171
:1012D00007010841C007F0D50120FFF786FFEFE7BF
:1012E000FFF773FF6420FFF7E5FD31BDF8B5002778
:1012F000002456218DF800108DF80100FFF755FFEE
:10130000002602E0FFF790FF761CF6B2022E14D200
:10131000002503E00020FFF768FF6D1CEDB2082DEB
:10132000F0DA6846F6B2305CD5F107010841C00733
:10133000F0D50120FFF759FFEFE7FFF746FF012047
:10134000FFF7B8FDFFF731FF5726002503E0002027
:10135000FFF74BFF6D1CEDB2082D0ADAF6B2D5F19E
:10136000070031000141C807F1D50120FFF73DFF1B
:10137000F0E7FFF759FF0121204800F00EFC642040
:10138000FFF798FD002625E01C4800F00FFCC0F395
:101390004000D5F10701884007430121174800F0BC
:1013A00007FC0120FFF786FD0121144800F003FC33
:1013B0000120FFF77FFD6D1CEDB2082DE4DBFFF788
:1013C00056FFFFB2D6F10100C0B2C00017FA00F01C
:1013D0000443761CF6B2022E02DA00270025EBE762
:1013E0000321064800F0D9FBFFF7EFFE6420FFF76A
:1013F00061FD200080B2F2BD00000000606000408E
:10140000F8B504000D0016001F000021102000F0A8
:10141000F5FC200000F058FD0721082000F0EEFC4C
:10142000280000F051FD0721322000F0E7FC3000D9
:1014300000F04AFD0721462000F0E0FC380000F0F3
:1014400043FD0721692000F0D9FC069800F03CFD1F
:10145000082384220821002001F0A8F836238422E2
:101460003621002001F0A2F8F1BD80B5DFF850056B
:1014700000907CA37BA2DFF84C15DFF84C05FFF74A
:10148000BFFFDFF848050078002805D0022832D0D9
:1014900018D3032845D059E0DFF83405006800F080
:1014A0000DFB02000B00DFF82C15DFF82C0500F017
:1014B000B3FF04216A2000F0A1FCDFF8200500F052
:1014C00003FD43E0DFF808050068DFF8141500F0BD
:1014D000A7FE00F0F3FA02000B00DFF80815DFF8B2
:1014E000F80400F099FF04216A2000F087FC82A034
:1014F00000F0EAFC2AE0DFF8F004006800F0DEFA11
:1015000002000B00DFF8DC14DFF8CC0400F084FFED
:1015100004216A2000F072FCDFF8D00400F0D4FC53
:1015200014E0DFF8CC04006800F0C8FA02000B00F9
:10153000DFF8A014DFF8A00400F06EFF04216A2099
:1015400000F05CFCDFF8AC0400F0BEFC02210C20D3
:1015500000F054FCDFF8800400F044FD01BD80B5CC
:10156000DFF894040090DFF894347DA23DA1DFF809
:101570009004FFF745FFDFF88C04027879A1DFF8CB
:10158000580400F049FF0221462000F037FCDFF844
:10159000480400F027FD01BD10B582B0DFF8580403
:1015A000009071A36EA2DFF86014DFF86004FFF70B
:1015B00027FF00240DE00221E4B2142000FB04F018
:1015C0001E30C0B200F01AFCDFF80C0400F07CFC06
:1015D000641CE4B2042C1FDADFF83404E4B230F8FF
:1015E00014207BA1DFF8F00300F016FF2000C0B24A
:1015F000DFF82014098880B28842DCD10221E4B2ED
:10160000142000FB04F01E30C0B200F0F7FBDFF83E
:10161000C80300F064FCDBE70020FFF7A1FD020037
:1016200092B2DFF8F413DFF8B00300F0F5FE032107
:101630000C2000F0E3FBDFF8A00300F045FCDFF82E
:10164000DC030268DFF8D813DFF88C0300F0E4FE57
:1016500004210C2000F0D2FBDFF87C0300F034FC06
:1016600013BD00000000000010B582B0DFF8880351
:1016700000903DA357A2DFF89013DFF8A803FFF70F
:10168000BFFE002414E00620062194FBF1F1891C22
:10169000C9B294FBF0F200FB12401222504310300A
:1016A000C0B200F0ABFBDFF8300300F00DFC641CAF
:1016B0000B2C1FDA2200DFF87013DFF81C0300F098
:1016C000ABFEDFF8500300888442DCD106200621FF
:1016D00094FBF1F1891CC9B294FBF0F200FB1240BB
:1016E000122250431030C0B200F088FBBA4800F01C
:1016F000F6FBDCE713BD00006D696C0080B5BE48E9
:101700000090BE4B16A2C049C848FFF779FEC848F2
:101710000268C849B04800F07FFE02210C2000F0AA
:101720006DFBAD4800F0D0FBC3480268C349AA482E
:1017300000F072FE03210C2000F060FBA64800F0D0
:10174000C3FBBF480268BF49A34800F065FE0421FF
:101750000C2000F053FBA04800F0B6FB01BD0000D8
:1017600055500000256400002D3E000080B5A248C1
:101770000090A24B18A2A449B348FFF741FEB3481A
:101780000268AC49944800F047FE02210C2000F0AA
:1017900035FB914800F098FBAD480268A7498E4898
:1017A00000F03AFE03210C2000F028FB8A4800F0EC
:1017B0008BFBA3480268A349874800F02DFE042153
:1017C0000C2000F01BFB844800F07EFB01BD0000F4
:1017D000257800003C2D00005550000010B582B067
:1017E0009C48007800282BD0FFF74BFC9A490880D2
:1017F0000020FFF766FC994908800020FFF771FC84
:10180000974908800020FFF77CFC96490880FFF785
:1018100043FC95490880FFF794FC94490880002018
:10182000FFF781FC92490880FFF73BFC9149088053
:101830000020FFF795FC904908800020854908703A
:101840008E4800905DA35DA28D498E48FFF7D8FDBC
:101850008D480088002806D002286ED038D303288F
:1018600000F08680A9E07C48028888495A4800F048
:10187000D3FD02210C2000F0C1FA574800F024FBF0
:10188000764802888249544800F0C6FD03210C20A6
:1018900000F0B4FA504800F017FB714802887D4907
:1018A0004D4800F0B9FD04210C2000F0A7FA4A4889
:1018B00000F00AFB6B4802887749474800F0ACFD0E
:1018C00005210C2000F09AFA434800F0FDFA74E07C
:1018D000654802887149404800F09EFD02210C20B5
:1018E00000F08CFA3C4800F0EFFA604802886C493E
:1018F000394800F091FD03210C2000F07FFA3648B2
:1019000000F0E2FA5A4802886649334800F084FD44
:1019100004210C2000F072FA2F4800F0D5FA3F485D
:10192000026861492C4800F077FD05210C2000F089
:1019300065FA294800F0C8FA3FE04E4802885B4942
:10194000254800F069FD02210C2000F057FA2248DA
:1019500000F0BAFA4848028855491F4800F05CFD7B
:1019600003210C2000F04AFA1B4800F0ADFA24E0F5
:1019700000241FE04F48E4B250F824000202120A8B
:101980004D49154800F048FDE4B20320E4B20321BC
:1019900094FBF1F1891CC9B294FBF0F200FB1240F8
:1019A000282250430A30C0B200F028FA0A4800F05A
:1019B0008BFA641CE4B20B2CDCDB13BD00000000CE
:1019C000884A0000804A00000849000055050020B0
:1019D0002C050020904A0000DC040020984A0000FA
:1019E000A913D03CA04A000034050020A84A0000FA
:1019F00030050020B04A0000C04A0000B84A00008C
:101A00001C49000051050020C84A0000444900005C
:101A1000F804002038050020304900002805002087
:101A20005449000064490000D04A00007449000095
:101A3000080500202C4A000010050020384A00004C
:101A40001805002084490000944900000C0500207E
:101A500014050020560500203A0500203C05002012
:101A60003E050020400500204205002044050020DE
:101A700046050020480500204A050020E04A0000F5
:101A8000D84A0000444A00004C050020A449000048
:101A9000B4490000C4490000504A0000D449000085
:101AA0005C4A0000E4490000684A0000F449000074
:101AB000044A0000B0040020E84A00005FF0FF0C78
:101AC0001CEAD05114BF614506E0C110400721F067
:101AD000E04101F16051704779B900F00041000226
:101AE0000AD0B0FA80FC00FA0CF001F16051A1EBD1
:101AF0000C5101EBD0214005704741020CBF40F46E
:101B0000E0016FF00001002070470268531C036081
:101B100011707047064B1B889BB213F0200353F0E3
:101B2000400303430B4313430148038001207047E4
:101B30008825004010F0070011F0030150EAC100B1
:101B400013F0070150EA41100F4908800F48028046
:101B50000120704710B410F0070454EAC00411F0DB
:101B6000070054EA801412F0070054EA402413F0EE
:101B7000070054EA003406480480012010BC704776
:101B8000014988850120704700200040442400401E
:101B9000042000400180012070470171012070473E
:101BA000017201207047017301207047007D70476A
:101BB0000177007F704780F8201090F82000704770
:101BC000F8B504000D00160000200027012000F0E9
:101BD0003AF800F049F8002709E000202068286062
:101BE000241D2D1D00F040F8C007FBD43F1DB74257
:101BF000F3D3002000F027F8F1BD10B40023002338
:101C000004E00C68091D0460001D1B1D9342F8D3FD
:101C100010BC70471649098889B2012901D10020FA
:101C200010E04FF25641134A11804FF22311114A2E
:101C3000118012490880000C1149088001200E49CA
:101C4000088001207047002806D00E48008850F018
:101C500004000C49088005E00A48008810F0FB00E9
:101C600008490880012070470148008880B2704709
:101C7000002800402028004008280040102800408C
:101C8000142800400428004080B50121CE48FFF709
:101C900092FF1E20FFF70EF90221CB48FFF788FFC5
:101CA0000120FFF712F90221C748FFF784FF012046
:101CB000FFF70BF90221C448FFF77AFF0120FFF775
:101CC00004F90121C048FFF773FF0421BE48FFF764
:101CD0006FFF01BD38B504000121BB48FFF76BFF62
:101CE0000120FFF7E7F80421B748FFF761FF012063
:101CF000FFF7E0F8002509E01021B348FFF75BFF8C
:101D00000821B148FFF754FF64006D1C082D0ADA62
:101D10000821AD48FFF74FFF2006EDD51021AA4856
:101D2000FFF746FFECE70121A748FFF741FF31BD70
:101D300038B504000121A448FFF73DFF0120FFF75B
:101D4000B9F80421A048FFF736FF0120FFF7B2F8E9
:101D5000002509E010219C48FFF72DFF08219A4833
:101D6000FFF726FF64006D1C082D0ADA082196484B
:101D7000FFF721FF2006EDD510219348FFF718FF4C
:101D8000ECE704219048FFF713FF01218E48FFF78D
:101D90000FFF31BD80B5FFF777FFE220FFF7C8FFE7
:101DA000A120FFF7C5FFA220FFF7C2FFC020FFF769
:101DB000BFFF2F20FFF7BCFF6420FFF786F8A420A9
:101DC000FFF7B6FF8120FFF7B3FF2020FFF7B0FF3A
:101DD0002320FFF7ADFFAF20FFF7AAFFA620FFF7F4
:101DE000A7FFB020FFF7A4FF1020FFF7A1FF0020FE
:101DF000FFF79EFF4020FFF79BFF01BD38B50400B1
:101E00000D0072480570724804702000C0B20009CD
:101E100050F01000C0B2FFF78BFF14F00F00FFF777
:101E200087FF55F0B000C0B2FFF782FF31BD38B573
:101E300000240025002507E00020FFF74BFF641C6D
:101E4000E4B2842CF8DB6D1CEDB2082D06DA290013
:101E5000C9B20020FFF7D2FF0024F1E731BD38B549
:101E6000040000250EE05B48E4B20521EDB201FB61
:101E7000045110EB8100B0F520700068C0B2FFF78C
:101E800029FF6D1CEDB2052DEDDB0020FFF722FFD1
:101E900031BD38B5040000250FE04E48E4B20521FD
:101EA000EDB201FB045110EB8100B0F52070006829
:101EB000C043C0B2FFF70EFF6D1CEDB2052DECDB89
:101EC0000020FFF707FF31BD10B5040003E02078C4
:101ED000FFF7C5FF641C20780028F8D110BD10B5AD
:101EE000040003E02078FFF7D4FF641C207800286A
:101EF000F8D110BDF8B504003448057834480678A8
:101F000001270FE03448E4B23A21FFB201FB04712B
:101F100010EB4100B0F5A3500088C0B2FFF7DAFE25
:101F2000761CFF1CFFB23A2F40DA2900C9B23000FC
:101F3000C0B2FFF763FFE4B2202C03D10020FFF70B
:101F4000C9FE0CE02448E4B23A21FFB201FB04715F
:101F500010EB41002149085AC0B2FFF7BBFE691CD3
:101F6000C9B23000C0B2FFF749FFE4B2202C03D160
:101F70000020FFF7AFFE0CE01748E4B23A21FFB2B1
:101F800001FB047110EB41001549085AC0B2FFF77C
:101F9000A1FEA91CC9B23000C0B2FFF72FFFE4B206
:101FA000202CAFD10020FFF795FEB9E70020FFF706
:101FB00091FEE4B22E2C00D1761F2900C9B2300068
:101FC000C0B2FFF71BFFF1BD306000405805002094
:101FD00057050020803A0000004200009CEBFFFF04
:101FE0009EEBFFFF10B5040003E02078FFF782FFAF
:101FF000641C20780028F8D110BDF8B504000D004D
:1020000017000026082095FBF0F00100C9B220005F
:10201000C0B2FFF7F3FE002F08D00120082195FB86
:10202000F1F202FB11529040064307E00120082123
:1020300095FBF1F202FB115290408643082095FB7C
:10204000F0F00100C9B22000C0B2FFF7D7FE3000A7
:10205000C0B2FFF73FFEF1BD0C4801600B480068BD
:10206000704710B49C0507D54FF4007008490880EC
:102070000748008880B207E0511840181818044932
:1020800008800348008880B210BC704704000240FA
:1020900000000240002800BF0AD0B0FA80F188405A
:1020A000D1F19D01C905020672F1004241EB1020F9
:1020B0007047010090EA010F44BF81F0004100F039
:1020C00043B800BF421A3CBF801A89184FF0004C39
:1020D000C0F3C752FF2A24D0C1F3C75313B3D21A97
:1020E000D2F1190327DD4CEA01214CFA03F321EA6E
:1020F0000303D140C20D4CEA0020401834BF20EA4F
:102100000C004CEA5000D20553EA006373EB0C0C50
:1021100052EB1020420012F1807F38BF7047C00D93
:10212000C0057047490212BF9A4200EB5120F8E700
:10213000D2F11703D9D5704790EA010F44BF81F05F
:102140000041FFF7BFBF00BF431A4FF000423EBF40
:102150005340C01AC91800BFD3095FEAD05C13EB23
:10216000400F34BFB3EB410F40E07CEBD1530CD3B5
:1021700042EA012122D8D1EB402009D3400A28BFEE
:102180005FEA500140EBCC507047401A15D0400236
:10219000B0FA80F2521C9040400A4FEA3C23B3EB65
:1021A000026384BF00EB730007E040F400001A16DE
:1021B000DB07C2F10102D04018437047182BFCDC4A
:1021C00031FA03F202FA03F3591A38BF42F001025E
:1021D000D2EB40203CBF4000ACF1010C5FEACC5C8C
:1021E000C20572F100414CEB5020704713EB400FD9
:1021F0000FD24B0009D0ACEBD153022B03DB4902C9
:10220000172BDDDD70479143401A4300D5D10020E4
:10221000704713EB410FD0D36FF000007047000000
:1022200010B5FF2313EAD0541DBF13EAD1529C42CC
:102230009A4239E0A41ADA0780EA0103134042EA1D
:10224000012142EA0020421A3CBF641E01EB420217
:10225000090AB2FBF1FE01FB1E221202B2FBF1F0F1
:1022600001FB10226EF30F201202B2FBF1FE4EEAC8
:1022700000207F3406DDFE2C24DA53EA500050EBB8
:10228000C45010BDD4F1020401FB1E2240F0807145
:10229000192C1DDC21FA04F0C4F12004A1401143E3
:1022A00071F10042584110BD9C421ABF03EAD1525D
:1022B0009A420FE080EA010E0EF00043400004D085
:1022C000490016D143F0FF4010BD490008BFD34379
:1022D000180010BD9C4205D1D21AF7D001F0004180
:1022E000484010BD4A0212BF0846484000F0004076
:1022F00010BD4AB90902B1FA81F2914044B1A41863
:10230000C00140F000409EE7C90141F00041524247
:102310000002B0FA80F4A040141B94E7FF2212EAF6
:10232000D05C1DBF12EAD153944593422BE09C44EC
:10233000D30780EA01021A4043EA002043EA012160
:10234000A1FB0030410038BF40007CF17F010BDB76
:10235000FE294ADA5B0842EAC15153EA006373F18D
:10236000004C51EB10207047D1F1080CDCF120013A
:102370002FDB5B0810FA01F10B4373F1004120FAE7
:102380000CF05041704794451CBF02EAD153934270
:1023900080EA010202F000421DD0400019D049003D
:1023A00017D05BB9634514D00902B1FA81F39940A3
:1023B000BCEB030CC00140F00040C1E70002B0FAE2
:1023C00080FC10FA0CF0B3EB0C0CC90141F0004199
:1023D000B6E71000704740000AD0490008D010F15D
:1023E000807F94BF11F1807F02E042F0FF40704790
:1023F000D043704740000DD2010E7F390AD4D1F18D
:102400001F0104D4C00140F00040C84070477FF075
:1024100000007047002070470CB41CB5044604A8A7
:1024200001900A46009401AB694607487844183089
:1024300000F00AF9009A0021117000285CBF009892
:10244000001B16BC5DF80CFBC3F6FFFF13F0004C3D
:1024500003D55B42524263F100039CEA210C00F079
:10246000178010B5644603D34942404261F1000130
:1024700000F00EF8640004D34942404261F10001CB
:10248000244203D55B42524263F1000310BD0000B9
:102490001B4213D1094236D12AB18446B0FBF2F077
:1024A00002FB10C2704700F0CDBEFCD30022002317
:1024B00070470B000200002100207047904271EB32
:1024C000030CF6D370B5B1FA81F4B3FA83F52C1B83
:1024D000A340C4F1200532FA05F63343A2405FF071
:1024E0000046E64002E05B085FEA3202841A71EBC4
:1024F000030524BF204629467641F4D302000B0091
:102500003000002170BD012ACFD970B5140C20D045
:10251000B1FA81F4B2FA82F5C4F120046419B4F17D
:102520002006D6D3B2405FF00044F440002502E01C
:1025300052085FEA3303C61A71EB020E24BF30461D
:10254000714664416D41F3D302000B002000290065
:1025500070BD0C46B1FBF2F102FB11452D0445EABA
:102560001045B5FBF2F402FB145580B240EA054574
:10257000B5FBF2F002FB105240EA044070BD0000CF
:1025800010B4848B640601D5002007E0048914F49C
:1025900070640C4314431C430481012010BC704739
:1025A0000180012070478181012070472DE9FE4F95
:1025B000019A141A029A551A26196F1983468846E9
:1025C0005FF001095FF0010A002C03D55FF0FF39CD
:1025D00064427642002D03D55FF0FF3A6D427F42A0
:1025E000184A1278FFF709FD55EA0400002826D0A2
:1025F000AC4212DB002519EB0B0B7D19AC4202DA61
:102600001AEB0808AD1B0F48027841465846FFF701
:10261000F4FC01988345EED111E000241AEB080880
:102620003419A54202DA19EB0B0BE41B05480278BA
:1026300041465846FFF7E1FC02988045EED1BDE8DF
:10264000F78F0000B22000002DE9F04FA1B08046C6
:10265000002017461D4602910B900DF1440A6FF0C1
:1026600000490AE017F8011B0298C04700280290B1
:1026700000F0A1820B98401C0B90387808B90B9899
:102680009BE22528EED10020059006900790089047
:1026900009900A9001E040F0010017F8011F20297D
:1026A000F9D023290DD02B2904D02D2906D030298B
:1026B0000AD00CE040F0020080B2EEE740F00400E7
:1026C000FAE740F00800F7E740F01000F4E72A29A5
:1026D0000ED12968296051F8042B2960002A0D9237
:1026E00004D5514240F004000D9180B27F1C11E0EE
:1026F00000210D9109E00D99494505D001EB8103B9
:1027000002EB430130390D917F1C3A78A2F1300180
:102710000A29F0D339782E2903D04FF0FF310C91DC
:102720001DE017F8011F2A2907D1296829607F1C9D
:1027300051F8042B29600C9211E000210C9109E062
:102740000C99494505D001EB810302EB4301303977
:102750000C917F1C3A78A2F130010A29F0D3ADF830
:1027600038000FF6C420397800F06EFD08B117F874
:10277000010B8DF83A009DF83A00682802BF3978BD
:102780006829622005D06C2804BF38786C2803D1F2
:1027900071208DF83A007F1C11A8049017F8014BA6
:1027A000B4F1250023D02038022840F2BB80133832
:1027B00000F0E0800B3800F04A81401E00F02381D9
:1027C000401E022840F2AE80001F00F01C81401F16
:1027D00079D0401E00F0CE80401E24D0C01E0BD009
:1027E000801E00F0C780C01E00F0C48039E12520A3
:1027F0008DF8440001203DE12868286050F8046B02
:10280000286003960C9C002C04D5304600F028FD6F
:10281000044606E022460021304600F03DFD00B1AE
:10282000841B069427E1296829603C2451F8040B95
:1028300029600021CDE9000111A80390DDE9000124
:10284000049E11B908B90C9AB2B10206120FA0EB9E
:1028500002123032D2B2631E3A2AA8BF27320009D0
:102860009A5540EA0170090908BF00281C4603D0A8
:10287000039AA3199A42E8D3A0190390C4F13C012A
:102880000C980691814209DA401A08904FF6EF71D0
:10289000BDF838000840ADF83800ECE0002840F101
:1028A000EA809DF8380000F01400102840F0E38022
:1028B0000D98059A801A089A801A441A012CC0F2C1
:1028C000DA800894D7E09DF83A0062281AD0682888
:1028D00006D06A280CD06C281CD0712808D019E0CA
:1028E0002868286050F8041B28600B980880C2E014
:1028F0002868286050F8042B28600B98C117C2E99B
:102900000001B8E02868286050F8041B28600B9884
:102910000870B0E02868286050F8041B28600B9805
:102920000860A8E02868C01D20F007022A60D2E9EC
:10293000000108322A60CDE90001002902D505987E
:102940002D210AE0BDF83800810702D505982B211A
:1029500003E0C00705D50598202100F80A10401CA7
:10296000059011A80599081803902146684600F0C3
:10297000E1F980E09DF83A006C280DD0712818BF6D
:102980006A2809D12868C01D20F007022A60D2E910
:10299000000108322A6005E02968296051F8040B1B
:1029A00029600021CDE900019DF83A00682803D193
:1029B000DDE9000180B20BE0622803D1DDE900010E
:1029C000C0B205E0742818BF7A2804D1DDE90001FF
:1029D0000021CDE900019DF8380000072ED5DDE982
:1029E0000001002908BF002828D044F020007828E2
:1029F00024D10598302100F80A10401C411C059193
:102A000000F80A401AE09DF83A00294600F0D8F88C
:102A1000CDE90001002902DA05982D210AE0BDF870
:102A20003800810702D505982B2103E0C00705D5A2
:102A30000598202100F80A10401C059011A805995E
:102A4000081803902146684600F0F1F813E00120D1
:102A500005902868286050F8041B28608DF8441001
:102A600009E025208DF84400012005901CB18AF86A
:102A70000140022005900D980599401A0899401AC6
:102A80000699401A0999401A0799401A0A99441A56
:102A90009DF83800400710D42020012C8DF840000C
:102AA0000BDB2646012310AA6946404600F0A5FB31
:102AB000002840F08080761EF4D1DDF814B0BBF120
:102AC000000F11AE0CD016F8011B0298C047002869
:102AD000029070D00B98401CBBF1010B0B90F2D10F
:102AE00030208DF84000089E012E09DB012310AA3A
:102AF0006946404600F081FB00285CD1761EF5D186
:102B0000DDF818B0039EBBF1000F0CD016F8011BC6
:102B10000298C047002802904DD00B98401CBBF192
:102B2000010B0B90F2D130208DF84000099E012E50
:102B300009DB012310AA6946404600F05EFB00282D
:102B400039D1761EF5D103980699DDF81CB00E1820
:102B5000BBF1000F0BD016F8011B0298C047029082
:102B600048B30B98401CBBF1010B0B90F3D1302004
:102B70008DF840000A9E012E08DB012310AA694649
:102B8000404600F03AFBB0B9761EF6D19DF8380009
:102B900040077FF572AD2020012C8DF84000FFF634
:102BA0006CAD012310AA6946404600F026FB10B91F
:102BB000641EF6D161E54FF0FF3021B0BDE8F08F23
:102BC000622826D068281DD06A2808D06C2827D013
:102BD000712804D0742823D07A280CD020E008680B
:102BE000C01D20F007000860D0E90023083008600D
:102BF0001946104670470A680A6052F8040B0A60CA
:102C0000002170470A680A6052F8040B0A6000B29B
:102C10000BE00A680A6052F8040B0A6040B204E054
:102C20000A680A6052F8040B0A60C11770472DE960
:102C3000FA4E05460A462F696F2A08BF082405D0B8
:102C400041F02000782814BF0A2410243C26D5E93E
:102C50000001642A18BF692A81468A4605D10029E5
:102C600003DAD9F100096AEB4A0ABAF1000F08BF8A
:102C7000B9F1000F0CD1286B50B9082C36D195F85A
:102C80003800000732D530203B2687F83B002DE086
:102C9000E317484651462246FFF7FAFBA4FB002300
:102CA000A9EB02023032D2B2A6F1010B3A2A5E46FB
:102CB00003DB9DF80030513B9A180BF80720814642
:102CC0005FEA010A08BFB9F1000F03D0E868F11903
:102CD0008842DDD3082C09D195F83800000705D5C6
:102CE000F05D302802D0761E3020F055C6F13C0051
:102CF000A861F119E960296B884208DA081A28628C
:102D00004FF6EF71288F08402887BDE8F38E002921
:102D10000ED595F8381001F01401102908D1696B0F
:102D20006A69891A2A6A891A0E1A012EA8BF2E62A8
:102D3000BDE8F38E2DE9F34F8BB0D0E90089006B2D
:102D4000002801AF48BF062005D404BF41F0200091
:102D5000672802D101200B99086340F2FF720B989B
:102D60004168C1F30A50904220D1080302BF0B987A
:102D7000006800280AD10B99032088619DF8300073
:102D800061381A2858D30FF2B44109E00B99032097
:102D900088619DF8300061381A284AD30FF29441B7
:102DA0000B98C068032200F0A3FA00E1012807DABB
:102DB0000B9800F0D8FA012802DB00230026EDE092
:102DC0000B9ADFF854B1526840F2FE3161F31E52A3
:102DD0000B994A6040F2FE31461A404649460022AD
:102DE000002300F0E1FA38BF89F0004936B247F21B
:102DF00097507043494990FBF1F636B2C6F1070788
:102E0000012F92461BDBF80707D552465B4640462A
:102E1000494600F0E1FA80468946504659465246F6
:102E20005B467F1000F0D8FA002F82468B46EAD12D
:102E300026E00FF2FC31B3E70FF2FC31B0E77F423E
:102E40000024374D12E0F80707D552465B4620466E
:102E5000294600F0C1FA04460D46504659465246EE
:102E60005B4600F0B9FA7F1082468B46002FEAD10C
:102E70004046494622462B4600F080FB8046894664
:102E80009DF83000DFF89CB040F02005662D0CBFA7
:102E900006F10A0006200B99096B4718142FA8BFEA
:102EA000132730208DF804000DF10504012F3BDBC2
:102EB0004046494600F08EFC014604F10802042316
:102EC0004FF00A0CB1FBFCFC0CEB8C04A1EB4401B1
:102ED000303102F8011C0A21BCFBF1FE0EEB8E041E
:102EE000ACEB440430345B1E714602F8024DE7D16E
:102EF000083F012F02F10804D8DB00F081FC0246F4
:102F00000B464046494600F089FC00225B4600F033
:102F100063FA80468946CBE700002440A086010082
:102F20000000F03F84D797410DF10500201A0DF104
:102F3000050702E0401E761E7F1C39783029F9D043
:102F4000662D02D136B2711C03E0652D0CBF012144
:102F500000210B9A126B8B181BB29842B8BF034624
:102F60001BB219001AD4814204DAC85D3528A8BF03
:102F7000392000DA3020CA19521E00E05B1E12F818
:102F80000149491E8442F9D0392802D1C85D401C4C
:102F9000C855002902D57F1E5B1C761C36B29DF8F1
:102FA00030100B9800961BB23A4600F003F80DB0B3
:102FB000BDE8F08F2DE9F043054685B01E46D5F8F3
:102FC0003080012E8946174602DA01260FF270275B
:102FD00049F02000BDF93040662808BF641C15D0B8
:102FE000672840F0938014F1040F7CDB44457ADAC3
:102FF00095F83800641C000702D44645B8BFB046B7
:1030000024B2B8EB040848BF4FF0000824B2E868C7
:10301000A969012C25DA4A1C30230B54B8F1010FA1
:1030200003DA95F83810090702D52E211154521CE5
:10303000AA6118EB040FB8BFC8F1000424B26142C2
:10304000A0446962B045B8BF4646AB6936B2EE618E
:1030500032463946181800F04BF9A8EB0600A86272
:10306000B4E00818A64218DA3246394600F040F9B2
:10307000A9697118A01BB8F1010FA961686203DA90
:1030800095F83800000705D5EA682E208854E869CD
:10309000401CE861C5F8288098E02246394600F0D7
:1030A00027F9A8692018361BB8F1010F03DA95F843
:1030B0003810090703D5EA682E218154401C36B226
:1030C000A861B045B8BF4646E868AB6936B232463B
:1030D000E119181800F00CF9A8693018A861A8EBDC
:1030E0000600686272E0464504DA95F83810090770
:1030F00058BFB046B8F1010848BF4FF00008B9F119
:10310000670F0CBF4FF065094FF04509A969E868E2
:103110004A1CAA61B8F1010F17F8013B0B5403DAFE
:1031200095F83810090717D5531CAB612E2111549F
:10313000B8F1010F10DB761E36B2B045B8BF464677
:1031400036B232463946181800F0D2F8A86930185D
:10315000A861A8EB06006862E868A9690918200060
:1031600081F8009003D42B2048708F1C03E02D229F
:103170004A708F1C644200260DF1080808E00A22FC
:10318000684600F00BFC019808F8010B761C009CC7
:1031900021B20129F3DA022E06DA49F0200065286F
:1031A00004BF302007F8010B4EB9302007F8010B9F
:1031B00007E0761E02A8305C303007F8010B012EC4
:1031C000F7DAE868A9690818381AE86195F838004C
:1031D00000F0140010280DD16869A9690818696AFF
:1031E0000818E9690818A96A0818696B8842BCBF01
:1031F000081A286205B0BDE8F083F8B504460D460C
:1032000016461F46002077B116F8011BA868A04794
:10321000A86030B1E86A401CE86200207F1EF3D14C
:10322000F2BD4FF0FF30F2BD686A6C747A4C00005A
:103230006E616E004E414E00696E6600494E46005A
:1032400030000000704700000278C9B28A421AB10B
:103250001CBF10F8012FF9E718BF002070470000CD
:1032600000F10103810704D010F8011B89B1810727
:10327000FAD10268B2F10131914311F0803F04BFED
:1032800050F8042FF6E710F8011B11B110F8011BDC
:10329000FBE7C01A70470000C9B2830706D0521E70
:1032A00022D310F8013B9942F7D11FE0083A13D31B
:1032B00002F1040241EA012141EA014150F8043BD4
:1032C000121F21BF4B40A3F1013C2CEA030C1CF060
:1032D000803FF3D0C9B2001F083210F8013B521EE4
:1032E00028BF91EA030FF8D818BF0120401E70478D
:1032F00062B38B0708D0521E11F8013B00F8013B66
:1033000000F024808B07F6D1830740F0208000BFB7
:10331000103A07D330B4B1E83810103AA0E83810AA
:10332000F9D230BC530724BFB1E80810A0E8081058
:1033300044BF51F8043B40F8043BD20724BF31F8A6
:10334000022B20F8022B44BF0B7803707047083A19
:1033500007D3B1E80810083A40F8043B40F804CB22
:10336000F7D25307E4E730B4436803F00042012189
:103370001B031B0B436004BF0368002B08D10DE047
:103380000368DD0F45EA440444605B000360491EA6
:103390004468E302F4D523031B0B436043681A43DC
:1033A0004260084630BC70474FF4001C1CEB410FD4
:1033B00094BF1CEB430F09E041EA030C50EA4C0CAC
:1033C00052EA0C0C03D2994208BF9042704714BFD6
:1033D0008B42824270470000B0B581EA030C0CF0CA
:1033E000004C40F2FF7515EA11541DBF15EA135742
:1033F000AC42AF4239E0E41923EA455343F4801369
:10340000C90241F0004141EA505EC7021100A7FB2A
:10341000020200284FF00000EEFB01204FF00001F7
:10342000E3FB072118BF42F0010240180021494187
:10343000E3FB0E01A4F580640F0302D25200404169
:10344000494154F101046CDD470872F1004250F12A
:10345000000051EB0451A1F580115CBF41EA0C0161
:10346000B0BD4CEA05510020B0BD05EA1357AC428F
:1034700014BFAF4241E050EA410E1CBF52EA430E76
:1034800002E061460020B0BD24423C441BD15FEA0B
:10349000070EF6D0090302BF01460020AEF1140E5C
:1034A000B1FA81F7AEEB070401FA07FE0C37C7F15A
:1034B000200100FA07F7C8404EEA000E23EA455300
:1034C00043F48013A2E733F00043B3FA83F704BF59
:1034D000B2FA82FE77440B3FE41BB7F1200E2FBFF8
:1034E00002FA0EF3BB40C7F1200E22FA0EFE38BFDF
:1034F00043EA0E03BA40641C82E750EA410E14BF4F
:1035000052EA430E6FF000014FF4001717EB430F20
:103510008ABF194617EB410FB5E74CEA0551002069
:10352000B0BDD4F10104B4F120070FDAC4F12007D3
:10353000520828BF42F0010210FA07F501FA07F716
:10354000E1BF2A43E0403843E1400FE0352C98DCEE
:10355000C7F1200452EA400220FA07F218BF42F0F5
:10356000010231FA07F0A1400A43002172F1004242
:1035700050F1000051EB0C01B0BD00002DE9F0410D
:1035800040F2FF7581EA030C0CF0004C15EA11546F
:103590001DBF15EA1357AC42AF42E9E0BC41C1F38D
:1035A0001301C3F31303801A994143F4801304D227
:1035B000641E4000494180185941C90241EA5051F6
:1035C000B1FBF3F603FB1611A2FB0675D7EBC02087
:1035D000A94102D2761E80185941C90241EA5051D0
:1035E000B1FBF3FE03FB1E11A2FB0E75D7EBC0204F
:1035F000A94103D2AEF1010E80185941890241EA76
:103600009051760546EA8E2EB1FBF3F603FB1611B8
:10361000A2FB0675D7EB8020A94102D2761E801846
:103620005941C90241EA50514EEA060EB1FBF3F688
:1036300003FB1611A2FB0675D7EBC020A94102D2ED
:10364000761E80185941C90241EA5051B1FBF3F787
:1036500003FB1711A2FB0735D3EBC020A94167F18B
:1036600000070CBF004247F0010766F3D5274FEA79
:103670001E31B80814F5806414DDBD0775F10042F1
:1036800050EB0E5051EB045111F5801F5CBF41EA25
:103690000C01BDE8F0814CF07F6141F0E041002079
:1036A000BDE8F081BD076D0840EA0E5041F480117D
:1036B000D4F10104B4F120060ADAC4F120060200B4
:1036C000E04001FA06F3E1401843B24015430EE032
:1036D000342C14DCC6F1200445EA40056D0820FABC
:1036E00006F2154321FA06F0A1400D43002175F1C1
:1036F000004250F1000051EB0C01BDE8F0810020C8
:103700005FEA0C01BDE8F081CFB992185B41B3FAD2
:1037100083F704BFB2FA82F6BF190B3FB7F1200658
:103720002FBF02FA06F3BB40C7F1200622FA06F6C5
:1037300038BF3343BA401CB1E419641E2FE77F42FF
:1037400031F00041B1FA81F404BFB0FA80F6A41957
:103750000B3CB4F120062FBF00FA06F1A140C4F1E2
:10376000200620FA06F638BF3143A0403C1B16E77E
:10377000AC421ABF05EA1357AF4214E050EA4106C3
:103780001CBF52EA4306BFE750EA41073046614694
:103790001CBF41EA0551BDE8F08152EA430C08BF65
:1037A000C143BDE8F08100204FF4001616EB410F35
:1037B00098BF16EB430F08BF16EB410F24BFC14360
:1037C00005E016EB430F0CBF61464CEA0551BDE81E
:1037D000F0810000400D40EAC120490080F00D80DA
:1037E00040F00040490DA1F58061491C05D4D1F19C
:1037F0001F0154BFC840C01770474FF0000070470A
:10380000010000BF09D0B0FA80F18840C91CC1F5A1
:103810008461090501EBD02140057047F0B44FF0F9
:10382000004591EA030F44BF6B4000F0BFB800BFF2
:10383000841A71EB030604D26E40001BB1411219C9
:1038400073414FF4001C1CEB410F34BF7CEB43066B
:1038500084E00C0DA4EB1356362E7DDC012E43DCE8
:1038600045EAC32343EA525312BFD20292025B08D5
:10387000240545EAC12141EA5051D2EBC0209941CB
:1038800025D407D1B0FA80F610FA06F164D00020F2
:10389000203608E0B1FA81F6B140C6F1200220FAE4
:1038A00002F21143B0404FEAF474B4EB465434F0E2
:1038B00001064FEA74040AD8D6F50016760D04F016
:1038C0000044F04061FA06F25040F1404840C00A1E
:1038D00040EA415021F0004128BF5FEA500550F115
:1038E000000044EBD12137E045EAC323DB0A45EA77
:1038F000C121C90AB6F120050EDD42EA0242120CCE
:10390000C5F1200603FA06F6EB4042EA06056D42D1
:10391000984161F100010DE062FA06F5F240554070
:1039200063FA06FC82EA0C02F3405A406D42904171
:1039300061EB030111F4801F05D1641E620502D002
:103940006D004041494121F48011430875F1004365
:1039500050F1000041EB0451F0BC70471CEB410FEB
:1039600015D223F0004352EA43060BD04FEA4C0C29
:10397000BCEB410F04D80C0D661E342EB7DDEBE70F
:10398000801A994150EA410608BF0021E4E708BFC8
:103990001CEB430F28BF6FF00001DDE791FBF2F352
:1039A00003FB1211C0E9003170470000841A71EB6B
:1039B000030603D2001BB141121973414FF4001CDE
:1039C0001CEB410F34BF7CEB430443E00C0DA4EB34
:1039D0001356352E50DC45EAC323DB0A45EAC121E4
:1039E000C912B6F120050DDD63FA05F6EB4086EA53
:1039F0000305124218BF45F00105C01851F100013E
:103A00000CD213E062FA06F5F2405540F3415A40F9
:103A1000B340F3405A408018594107D349085FEA40
:103A200030005FEA350528BF45F0010501F580113A
:103A3000420875F1004250F1000041EB0451F0BC26
:103A40004FF4001C1CEB410F38BF70470020090DDC
:103A5000090570471CEB410F10D252EA43060BD008
:103A6000BCEB410F05D80C0DAB43661E342EB5DD03
:103A700002E0AB4380185941F0BC7047F0BC70477E
:103A80000000000000000000000000000000000036
:103A90000000000000000000000000005F000000C7
:103AA000000000000000000000000000070000000F
:103AB00000000000070000000000000014000000EB
:103AC0007F000000140000007F00000014000000D0
:103AD000240000002A0000007F0000002A000000EF
:103AE0001200000023000000130000000800000086
:103AF0006400000062000000360000004900000081
:103B000055000000220000005000000000000000EE
:103B1000050000000300000000000000000000009D
:103B2000000000001C000000220000004100000016
:103B30000000000000000000410000002200000022
:103B40001C00000000000000080000002A00000027
:103B50001C0000002A00000008000000080000000F
:103B6000080000003E0000000800000008000000FF
:103B700000000000500000003000000000000000C5
:103B8000000000000800000008000000080000001D
:103B900008000000080000000000000030000000E5
:103BA00030000000000000000000000020000000C5
:103BB00010000000080000000400000002000000E7
:103BC0003E000000510000004900000045000000D8
:103BD0003E00000000000000420000007F000000E6
:103BE00040000000000000004200000061000000F2
:103BF00051000000490000004600000021000000C4
:103C000041000000450000004B00000031000000B2
:103C10001800000014000000120000007F000000E7
:103C200010000000270000004500000045000000D3
:103C300045000000390000003C0000004A00000080
:103C400049000000490000003000000001000000B1
:103C500071000000090000000500000003000000E2
:103C60003600000049000000490000004900000043
:103C70003600000006000000490000004900000076
:103C8000290000001E0000000000000036000000B7
:103C900036000000000000000000000000000000EE
:103CA0005600000036000000000000000000000088
:103CB00000000000080000001400000022000000C6
:103CC0004100000014000000140000001400000077
:103CD0001400000014000000410000002200000059
:103CE00014000000080000000000000002000000B6
:103CF0000100000051000000090000000600000063
:103D0000320000004900000079000000410000007E
:103D10003E0000007E0000001100000011000000C5
:103D2000110000007E0000007F000000490000003C
:103D30004900000049000000360000003E0000007D
:103D4000410000004100000041000000220000008E
:103D50007F00000041000000410000002200000040
:103D60001C0000007F000000490000004900000026
:103D700049000000410000007F0000000900000031
:103D80000900000001000000010000003E000000EA
:103D9000410000004100000051000000320000001E
:103DA0007F0000000800000008000000080000007C
:103DB0007F00000000000000410000007F000000C4
:103DC0004100000000000000200000004000000052
:103DD000410000003F000000010000007F000000E3
:103DE0000800000014000000220000004100000054
:103DF0007F00000040000000400000004000000084
:103E0000400000007F0000000200000004000000ED
:103E1000020000007F0000007F000000040000009E
:103E200008000000100000007F0000003E000000BD
:103E30004100000041000000410000003E00000081
:103E40007F000000090000000900000009000000D8
:103E5000060000003E00000041000000510000008C
:103E6000210000005E0000007F000000090000004B
:103E70001900000029000000460000004600000074
:103E80004900000049000000490000003100000026
:103E900001000000010000007F00000001000000A0
:103EA000010000003F000000400000004000000052
:103EB000400000003F0000001F0000002000000044
:103EC00040000000200000001F0000007F000000F4
:103ED0002000000018000000200000007F0000000B
:103EE000630000001400000008000000140000003F
:103EF00063000000030000000400000078000000E0
:103F000004000000030000006100000051000000F8
:103F100049000000450000004300000000000000D0
:103F2000000000007F000000410000004100000090
:103F30000200000004000000080000001000000063
:103F40002000000041000000410000007F00000050
:103F5000000000000000000004000000020000005B
:103F6000010000000200000004000000400000000A
:103F70004000000040000000400000004000000041
:103F8000000000000100000002000000040000002A
:103F90000000000020000000540000005400000059
:103FA00054000000780000007F000000480000007E
:103FB0004400000044000000380000003800000009
:103FC0004400000044000000440000002000000005
:103FD00038000000440000004400000048000000D9
:103FE0007F00000038000000540000005400000072
:103FF0005400000018000000080000007E000000CF
:10400000090000000100000002000000080000009C
:104010001400000054000000540000003C000000A8
:104020007F00000008000000040000000400000001
:104030007800000000000000440000007D00000047
:1040400040000000000000002000000040000000D0
:10405000440000003D0000000000000000000000DF
:104060007F00000010000000280000004400000055
:1040700000000000410000007F0000004000000040
:10408000000000007C000000040000001800000098
:1040900004000000780000007C0000000800000020
:1040A0000400000004000000780000003800000058
:1040B00044000000440000004400000038000000FC
:1040C0007C00000014000000140000001400000038
:1040D00008000000080000001400000014000000A8
:1040E000180000007C0000007C00000008000000B8
:1040F0000400000004000000080000004800000068
:104100005400000054000000540000002000000093
:10411000040000003F0000004400000040000000D8
:10412000200000003C0000004000000040000000B3
:10413000200000007C0000001C00000020000000A7
:1041400040000000200000001C0000003C000000B7
:104150004000000030000000400000003C00000073
:1041600044000000280000001000000028000000AB
:10417000440000000C00000050000000500000004F
:10418000500000003C0000004400000064000000FB
:10419000540000004C00000044000000000000003B
:1041A0000800000036000000410000000000000090
:1041B00000000000000000007F0000000000000080
:1041C0000000000000000000410000003600000078
:1041D00008000000000000000800000008000000C7
:1041E0002A0000001C000000080000000800000079
:1041F0001C0000002A000000080000000800000069
:1042000000000000000000000000000000000000AE
:10421000000000000000000000000000000000009E
:1042200000000000000000000000000000001C0072
:10423000000000001C00000000001C000000000046
:104240001C00000000001C00000000001C0000001A
:1042500000001C0000000000000000000000000042
:10426000000000000000000000000000000000004E
:10427000000000000000000000000000000000003E
:10428000000000000000000000000000000000002E
:1042900000001F00000000001F00000000001F00C1
:1042A000000000001F0000000000000000000000EF
:1042B00000000000000000000000000000000000FE
:1042C00000000000000000000000000000000000EE
:1042D00000000000000000000000000000000000DE
:1042E00000000000000000000000000000000000CE
:1042F00000000000000000000000000000000000BE
:10430000800000000000E00000000000FC00000051
:104310008000FF000000E0001F000000FC00030020
:104320008000FF000000E0001F000000FC00030010
:104330000000FE00000000001E000000000002005F
:10434000000000000000000000000000000000006D
:10435000000000000000000000000000000000005D
:10436000000000000000000000000000FF0001004D
:10437000C000FF000F00F000FF001F00F800FF006A
:104380003F00780000007C001C00000070000C0062
:10439000000060000C00000060000C0000006000E5
:1043A0001C00000070007C0000003C00F800FF00D2
:1043B0003F00F000FF001F00E000FF000F000000C2
:1043C000FF000100000000000000000000000000ED
:1043D00000000000000000000000000000000000DD
:1043E00000000000400000000000E000000040006D
:1043F000600000004000300000004000300000007D
:104400006000F800FF007F00FC00FF007F00FC0060
:10441000FF007F00FC00FF007F0000000000600044
:10442000000000004000000000004000000000000C
:10443000400000000000000000000000000000003C
:10444000000000000000000000000000000000006C
:10445000000078000000600078000000780078001C
:1044600000007C003C0000007E000C0000007F008B
:104470000C00C0007B000C00E00078000C00700015
:1044800078001C003C007800FC001F007800F80059
:104490000F007C00F80007007E00F00001007E00A5
:1044A000000000000000000000000000000000000C
:1044B00000000000000000000000000000000000FC
:1044C000000000000000780000003C0078000000C0
:1044D0003C00780000007C003C00000078001C00DC
:1044E000180070000C00180060000C00180060003C
:1044F0000C001C0060000C003C0060001C007E00F2
:104500007000FC00F7003F00F800F3003F00F800E7
:10451000E3001F00F000C0000700000000000000E2
:10452000000000000000000000000000000000008B
:10453000000000000000800001000000E000010019
:104540000000F00001000000BC00010000008E002F
:104550000100800087000100C00081004100F000E0
:1045600080006100F800FF007F00FC00FF007F007A
:10457000FC00FF007F00FC00FF007F0000008000C7
:1045800061000000800041000000C0000100000048
:10459000C00001000000000000000000000000005A
:1045A000000000000000000000000000000000000B
:1045B00000003C00FC001F003C00FC003F007C00B1
:1045C000FC001F0078003C00180070003C00180040
:1045D00060003C00180060003C00180060003C00D7
:1045E000380060003C00780070003C00F8003F009C
:1045F0003E00F0003F003E00E0001F000000C00051
:1046000007000000000000000000000000000000A3
:10461000000000000000000000000000000000009A
:1046200000000000F80003000000FF000F00800001
:10463000FF001F00C000FF003F00E0001B007800EB
:10464000F0001800700038000C00600018000C002A
:1046500060001C000C0060000C000C0070000C00DE
:104660003C0078000C00FC003F000000F8003F0018
:104670000000F0001F000000E00007000000000044
:10468000000000000000000000000000000000002A
:10469000000000000000FC0000000000FC00000022
:1046A00000007C00000000003C00000060003C00B6
:1046B000000078003C0000007E003C0080003F00CD
:1046C0003C00E0000F003C00F80003003C007E00CE
:1046D0000000BC001F000000FC0007000000FC0000
:1046E000010000003C00000000000C000000000081
:1046F00000000000000000000000000000000000BA
:1047000000000000000000000000E00083000F0037
:10471000F000C7001F00F800EF003F00F800FF00A6
:104720003F001C007E0078000C00180070000C0098
:10473000180060000C00180060000C0018006000F9
:104740000C00380060001C007C007800F800FF00BE
:104750003F00F800F7003F00F000E7001F00E00016
:1047600081000700000000000000000000000000C1
:104770000000000000000000C0000F000000F0007A
:104780001F000000F0003F000000F8007F00000064
:104790003C00780060001C00600060000C006000BD
:1047A00060000C00600070000C00600038001C000D
:1047B00030003C003C0030001F00F800FF000F00FC
:1047C000F000FF000700E000FF00030080007F0012
:1047D00000000000000000000000000000000000D9
:1047E0000000000019E050F8041BCB0744BFA9F1FA
:1047F00001035918121F0023042A41F8043BF9D27F
:104800005FEA827C0B4604D54FF0000CA1F800C093
:104810009B1CD10744BF0021197050F8042B002ABB
:10482000E1D1704710B450F8041B79B102684368B5
:1048300012180830DC0744BFA9F10104E31852F84C
:10484000044B43F8044B091FF9D1ECE710BC704747
:1048500010B5074979441831064C7C44163404E0FD
:104860000A68081D511888470146A142F8D110BDB9
:1048700008000000280000006DFFFFFF5401000049
:1048800008040020000000009DFFFFFF040000005E
:1048900064020000000000200000000000F00BF89F
:1048A000002801D0FFF7D4FF0020C046C046FBF728
:1048B0003EFC00F002F80120704700F001B8000053
:1048C0000746384600F002F8FBE7000080B5C04616
:1048D000C046024A11001820ABBEFBE726000200CA
:1048E000253032646D6D282530386C582973617617
:1048F000656421004F4646534554202530345820E6
:104900005341564521000000494E445543544956F1
:10491000452053454E53494E47000000434F4E54E7
:10492000524153542053455454494E47000000000F
:10493000435552204F4646534554203A20253034A3
:10494000580000004F46465345542053455454499F
:104950004E47000044415441203A202530386C58DD
:104960000000000053455454494E47204D4F4445E4
:104970000000000030346D412053455454494E47E7
:104980000000000043555220414443203A20253086
:10499000386C580032306D412053455454494E47CD
:1049A00000000000434F4E4649473A202530345816
:1049B00000000000444956494445523A202530340D
:1049C00058000000534554544C45436E743A20251A
:1049D000303458004552524F52436F6E663A20258C
:1049E000303458004944524956453A20253034580D
:1049F000000000005354415455533A202530345898
:104A0000000000004F46465345543A2025303458A4
:104A1000000000004441433A20253038580000008F
:104A20004E6F6E6520416374212100004441432094
:104A30003A202530386C5800414443203A20253034
:104A4000386C58004465627567204D6F64650000DE
:104A500052436E743A202530345800004D55583A70
:104A60002025303458000000665245513A20253048
:104A7000386C5800C046C046C046C046FFF70EFF1F
:104A800053455454494E4700554E495400000000C8
:104A900025352E3246000000206D6D2000000000FC
:104AA00025352E3146000000202520200000000082
:104AB000206D412000000000444F574E00000000D0
:104AC0004E45585400000000534156450000000078
:104AD00025303264000000005245524F414400002E
:104AE000455849540000000025366C58000000006D
:084AF000FFF7FEBFFFFFFFFF0F
:0400000500004A7538
:00000001FF
