:100000000C94AB000C94C8000C94C8000C94C8006D
:100010000C94C8000C94C8000C94C8000C94C80040
:100020000C94C8000C94C8000C94C8000C94C80030
:100030000C94C8000C94C8000C94C8000C94C80020
:100040000C94C8000C94C8000C94C8000C94C80010
:100050000C94C8006E616E00696E660000407A10F4
:10006000F35A00A0724E18090010A5D4E80000E869
:100070007648170000E40B54020000CA9A3B0000C7
:1000800000E1F505000080969800000040420F0056
:100090000000A08601000000102700000000E80317
:1000A000000000006400000000000A0000000000E2
:1000B0000100000000002C76D888DC674F0823DFA1
:1000C000C1DFAE59E1B1B796E5E3E453C63AE65174
:1000D000997696E8E6C28426EB898C9B62ED407C9B
:1000E0006FFCEFBC9C9F40F2BAA56FA5F490055A37
:1000F0002AF75C936B6CF9676DC11BFCE0E40D475C
:10010000FEF520E6B500D0ED902E0300943577057E
:100110000080841E080000204E0A000000C80C3336
:100120003333330F986E12831141EF8D2114893BC5
:10013000E65516CFFEE6DB18D1844B381BF77C1D45
:10014000901DA4BBE424203284725E228100C9F198
:1001500024ECA1E53D2711241FBECFE5D8E0DEBF8A
:10016000CDBF17E0A0E6B0E0EAEFF2E302C00590F1
:100170000D92A232B107D9F717E0A2E2B7E001C0B1
:100180001D92AE37B107E1F70E9416110C947B194E
:100190000C940000D898DA98D998A1E6B0E09D01B7
:1001A0002D5F3F4F48E050E013C0DA98D99A6C9128
:1001B000662314F4DA9A01C0DA98D9986081660F40
:1001C0006083019791F7DA981196A217B30719F097
:1001D000CA01FD01EACFD89A8AE08A95F1F7DD9845
:1001E00000C000C00000DD9A089520E130E080E00A
:1001F00090E0D99A0000D998CB998160880F991F17
:1002000021503040B1F7682F792F80E090E00895B9
:100210008093610070936200609363000E94CA0043
:1002200008958068809361001092620010926300CC
:10023000D8980E94CA00D89A00C000C00000D89880
:100240000E94F500D89A0895D89ADD9A82E060E875
:1002500071E10E94080182E00E941101AB01BC0122
:1002600081E0403891E1590790E0690790E0790713
:1002700009F080E00895BC0181E00E940801089522
:1002800085E00E941101605870E080E090E00E94DB
:100290009F1221E230EB42EE5FE30E945313462FA0
:1002A000572F682F792FCB01BA010E9471128DE769
:1002B000861B08956F927F928F929F92AF92BF920A
:1002C000CF92DF92EF92FF920F931F93CF93DF9322
:1002D000782E662E842E922E222309F1EE24FF24FE
:1002E000A82EBB24062F10E0C501840F911D6C01C0
:1002F0000894C108D108E701C00FD11FC501BE0194
:1003000041E050E00E948F04C601BE0141E050E090
:100310000E948F040894E11CF11CE91460F388200A
:10032000F9F000E010E0A72CBB24C62CDD247601F8
:10033000E90CF11C0894E108F108E801CA0DDB1D85
:10034000CE01B60141E050E00E948F04CE01B7011A
:1003500041E050E00E948F040F5F1F4F081568F3C3
:10036000DF91CF911F910F91FF90EF90DF90CF9091
:10037000BF90AF909F908F907F906F9008952F9235
:100380003F924F925F926F927F928F929F92AF9225
:10039000BF92CF92DF92EF92FF920F931F93CF9372
:1003A000DF9300D000D0CDB7DEB7E42EFF242224A7
:1003B00033242E183F08220C331C0894211C311CB6
:1003C000CC24DD2421E030E03A83298300E010E0F2
:1003D000682E7724462E552443018E0C9F1CC8019D
:1003E000840D951D9C838B83C4016B817C8141E0CE
:1003F00050E00E948F045301AE18BF08C5016B8105
:100400007C8141E050E00E948F04F201E01BF10B7F
:10041000FC83EB83C501BF0141E050E00E948F04E3
:10042000C4016B817C8141E050E00E948F04430154
:10043000800E911E9701240D351D3C832B83C40132
:10044000B90141E050E00E948F045301A01AB10AA3
:10045000C5016B817C8141E050E00E948F04C201A4
:100460008E199F099C838B83C5016B817C8141E040
:1004700050E00E948F04C4016B817C8141E050E018
:100480000E948F040F5F1F4FE981FA81CE0EDF1E9D
:100490003296FA83E983C601880F991F820D931D56
:1004A000181619064CF40894E108F108C20CD31C84
:1004B00022E030E0220E331EE016F1060CF08CCF65
:1004C0000F900F900F900F90DF91CF911F910F9190
:1004D000FF90EF90DF90CF90BF90AF909F908F9064
:1004E0007F906F905F904F903F902F9008952F9244
:1004F0003F924F925F926F927F928F929F92AF92B4
:10050000BF92CF92DF92EF92FF920F931F93CF9300
:10051000DF9300D000D0CDB7DEB79C838B838B01F7
:100520005A0149017A01E81AF90A6901C61AD70A7B
:100530002701440C551C3601660C771CFF206CF417
:10054000F094E194F108F394509441945108539439
:100550008FEF9FEF9A83898304C0E1E0F0E0FA8394
:10056000E983DD2064F4D094C194D108D3947094CD
:1005700061947108739422242A94322C03C022249B
:10058000332423948B819C81B80141E050E00E9488
:100590008F04E114F10419F4C114D104C9F1EC146D
:1005A000FD04E4F068018B809C8000E010E089810C
:1005B0009A81880E991E060D171DE016F10624F487
:1005C000C20CD31C04191509C401B60141E050E066
:1005D0000E948F04A814B90451F71AC0EB80FC8064
:1005E000AA24BB24020D131DA40CB51CCA14DB04E1
:1005F00034F4E981FA81EE0EFF1EA618B708C70190
:10060000B80141E050E00E948F048016910651F736
:100610000F900F900F900F90DF91CF911F910F913E
:10062000FF90EF90DF90CF90BF90AF909F908F9012
:100630007F906F905F904F903F902F900895939888
:1006400083E08A95F1F70000949A89EF90E0019792
:10065000F1F700C00000949889EF90E00197F1F75E
:1006600000C00000949A89EF90E00197F1F700C074
:100670000000939A959A089593980000959A000027
:1006800028E030E09698882314F4979A01C0979850
:10069000969A880F21503040A9F7939A089593981D
:1006A00000009598000028E030E09698882314F424
:1006B000979A01C09798969A880F21503040A9F7D1
:1006C000959A939A08950E941F0382EE0E944F0309
:1006D00081EA0E944F0382EA0E944F0380EC0E944D
:1006E0004F038FE20E944F0387EA91E60197F1F7EB
:1006F00000C0000084EA0E944F0381E80E944F037B
:1007000080E20E944F0383E20E944F038FEA0E941F
:100710004F0386EA0E944F0380EB0E944F0380E163
:100720000E944F0380E00E944F0380E40E944F0329
:100730000895CF93DF93C82FD62F6093250780931A
:10074000240782958F7080610E944F038C2F8F70D9
:100750000E944F038D2F806B0E944F03DF91CF913A
:1007600008951F93CF93DF93D0E014E880E06D2FBE
:100770000E949903C12F80E00E943C03C150D9F729
:10078000DF5FD83099F7DF91CF911F9108950F93D4
:100790001F93CF93DF9390E08C01000F111F000F88
:1007A000111F080F191FE801C854DD4F03541D4FD6
:1007B00089910E943C03C017D107D1F780E00E94C5
:1007C0003C03DF91CF911F910F9108950F931F93D9
:1007D000CF93DF9390E08C01000F111F000F111FCA
:1007E000080F191FE801C854DD4F03541D4F8991AC
:1007F00080950E943C03C017D107C9F780E00E9492
:100800003C03DF91CF911F910F910895CF93DF9318
:10081000EC018881882331F021960E94C7038991D9
:100820008823D9F7DF91CF910895CF93DF93EC011F
:100830008881882331F021960E94E60389918823DC
:10084000D9F7DF91CF910895BF92CF92DF92EF92C7
:10085000FF920F931F93CF93DF93B82ED09025076D
:10086000C0902407282F30E08AE390E0289F800181
:10087000299F100D389F100D1124095C19400F2E6F
:10088000F3E1FF2EF02DFC0CCC2DDD2DDF5FEE24EF
:100890006894E1F8ED0C8C2F6D2D0E949903F801FE
:1008A000329780810E943C038C2F6D2F0E94990308
:1008B000F801319780810E943C038C2F6E2D0E949D
:1008C0009903F80180810E943C03CF5F0D5F1F4FA9
:1008D000CF1509F780E00E943C03FEE2BF1611F439
:1008E000CC2DC25F8C2F6D2D0E949903DF91CF918B
:1008F0001F910F91FF90EF90DF90CF90BF900895E0
:10090000CF93DF93EC018881882331F021960E94F8
:10091000240489918823D9F7DF91CF910895EF922C
:10092000FF920F931F93CF93DF93C82F8B017A0110
:10093000112314F4695F7F4F7595679575956795D9
:1009400075956795D62F8C2F0E949903E114F104B9
:1009500079F0C80168E070E00E944E1721E030E0B5
:10096000A90102C0440F551F8A95E2F7042F01C068
:1009700000E08C2F6D2F0E949903802F0E943C0372
:10098000DF91CF911F910F91FF90EF9008957F928B
:100990008F929F92AF92BF92CF92DF92EF92FF928F
:1009A0000F931F93CF93DF936C01762EE42E822E4C
:1009B000902E969496949694F9F0FF24A22EAA94E1
:1009C000BB240894A11CB11C6F2D6E0D872D0E94B5
:1009D0009903882071F0E601CA0DDB1D8601F8013C
:1009E00081918F010E943C030C171D07C1F7CA0CAF
:1009F000DB1CF394F91441F7DF91CF911F910F9114
:100A0000FF90EF90DF90CF90BF90AF909F908F902E
:100A10007F90089582E080B911B884E486BF08957C
:100A200084EE86BF06B607FEFDCF089583B984EC39
:100A300086BF06B607FEFDCF089584EC86BF06B6D6
:100A400007FEFDCF83B1089584ED86BF0895CF934F
:100A5000DF93C82F0E94100586E50E9416058C2F93
:100A60000E9416050E9424050E94100587E50E9439
:100A700016050E941D05D82F0E941D0590E03D2FF0
:100A800020E0EC01C22BD32B0E9424058C2F9D2F3C
:100A9000DF91CF910895845F0E94270508950E94F9
:100AA000270508958CE10E94270508958BE10E9497
:100AB00027050895825E0E9427050895885F0E9499
:100AC00027050895805F0E94270508958C5E0E9487
:100AD0002705089588E10E942705089589E10E946D
:100AE000270508958AE10E94270508951F93CF9353
:100AF000DF93C82FD92F162F0E94100586E50E947C
:100B00001605812F0E9416058D2F0E9416058C2F29
:100B10000E9416050E942405DF91CF911F91089530
:100B200080E090E86CE10E94760508959B01682FB3
:100B3000645FC9010E94760508956CE10E94760504
:100B40000895886092606BE10E9476050895002404
:100B5000569547950794569547950794542F402DE1
:100B6000362F330F330F330F20E0682F625ECA0138
:100B7000822B932B0E94760508959B01682F685F56
:100B8000C9010E94760508959B01682F605FC90125
:100B90000E9476050895362F3295307F20E0682F29
:100BA0006C5ECA01822B932B0E947605089569E141
:100BB0000E947605089581606AE10E947605089595
:100BC000CF93DF93EC018AE10E94270520E2C03039
:100BD000D20721F490620E94DB0503C09F7D0E9432
:100BE000DB05DF91CF910895CF93DF93EC0180E097
:100BF00090E20E94E00583EC99E00197F1F700C0D4
:100C00000000CE010E949D0580E090E00E94E0057A
:100C100087EA91E60197F1F700C00000DF91CF91DC
:100C20000895CF93DF93EB0180E090E20E94E0050E
:100C300083EC99E00197F1F700C0000080E0BE016D
:100C40000E94960580E090E00E94E00587EA91E628
:100C50000197F1F700C00000DF91CF910895CF9385
:100C6000DF93EC010E940A0580E090E20E94E0051B
:100C700080E89CE10E94DB0580E062E070E04AE0F1
:100C800050E00E94CB0580E066ED74E00E94BD0557
:100C900080E06AE070E00E94C40580E090E00E947D
:100CA000D70584E090E00E94A10580E062E170E059
:100CB00040E050E00E94A70580E092E00E949D0580
:100CC0008FEFCF3FD80721F080E0BE010E9496054C
:100CD00080E090E00E94E005DF91CF91089587E2E7
:100CE0008ABB8FEF87BB87E084BB8AEF81BB1BBACF
:100CF00018BA83E085BB80E182BBAA9A83EC99E0B5
:100D00000197F1F700C00000AA9883EC99E00197E1
:100D1000F1F700C000000895089589B3807C08951C
:100D2000AF92BF92CF92DF92EF92FF920F931F93F9
:100D3000CF93DF93EC017B016A01590180E160E010
:100D40000E949903CE010E94060488E067E00E9499
:100D50009903C7010E94060482E367E00E94990399
:100D6000C6010E94060486E467E00E949903C5015B
:100D70000E94060489E667E00E949903C8010E9468
:100D8000060480E090E068E070E044E850E028E08D
:100D900030E00E94770280E090E066E370E044E893
:100DA00050E026E330E00E947702DF91CF911F915F
:100DB0000F91FF90EF90DF90CF90BF90AF9008958C
:100DC0000E948D0680932107803C49F40E946303B2
:100DD0000E94B10380915A0780620E944F030895D8
:100DE0000F931F93CF93DF9309E317E0C5E0D0E0A3
:100DF000CE010E944E19F801819391938F0125969F
:100E0000CC33D105A9F78CE390E00E94461980937A
:100E10005A0781E490E00E944E19909360078093F6
:100E20005F0786E490E00E9446198093580710926D
:100E30005907DF91CF911F910F910895CF92DF92C3
:100E4000EF92FF926B017C0123E333E343E750E42D
:100E50000E94051288235CF0C701B60120E030E053
:100E600048EA51E40E944F13882364F415C00F2E02
:100E7000F3E3CF2EF3E3DF2EF3E7EF2EF0E4FF2EC4
:100E8000F02D0AC00F2EF0E0CF2EF0E0DF2EF8EAB2
:100E9000EF2EF1E4FF2EF02DC701B60123E333E37B
:100EA00043E750E40E94A0112AE939E949E851E4F6
:100EB0000E94091220E03FEF4FE757E40E945313CE
:100EC0000E947112DC01CB010E943B01FF90EF9068
:100ED000DF90CF9008950F931F93CF93DF9380E01F
:100EE0000E942705EC018070907F009721F4D09339
:100EF0007807C093770780912307833091F1813081
:100F000081F10E946A052DB73EB7285030400FB6D8
:100F1000F8943EBF0FBE2DBFEDB7FEB7319603E686
:100F200017E0ADB7BEB712961C930E93119728E346
:100F300035E033832283D583C483978386830E94DD
:100F4000C6182DB73EB7285F3F4F0FB6F8943EBF87
:100F50000FBE2DBF88E065E00E949903C8010E9482
:100F600006048091770790917807DF91CF911F91C8
:100F70000F9108952F923F924F925F926F927F92BE
:100F80008F929F92AF92BF92CF92DF92EF92FF9299
:100F90000F931F93CF93DF9300D000D0CDB7DEB770
:100FA0008C018091390790913A070817190770F45E
:100FB000EBE3F7E0BB24B3948191919108171907F3
:100FC00030F4B3948BE0B816B9F701C0BB24B092EB
:100FD00053076B2D70E080E090E00E949D126B0142
:100FE0007C0120E030E040E85FE30E94A011962EF3
:100FF000872E382E292EAB2DB0E0BA83A983FD01B0
:101000003197EE0FFF1FE75CF84F6081718180E040
:1010100090E00E949D126C83B72E8B83A92EB8019D
:1010200080E090E00E949D12FC815B810F2F1B2DC0
:10103000252F3A2DA90198010E94A0112B013C01F6
:10104000C701B601092D182D232D322DA9019801B4
:101050000E94A0116B017C0189819A81880F991FE0
:10106000875C984FFC016081718180E090E00E9474
:101070009D12FC815B810F2F1B2D252F3A2DA9017D
:1010800098010E94A0119B01AC01C701B6010E940A
:1010900009129B01AC01C301B2010E945313092D37
:1010A000182D232D322DA90198010E94A111462F40
:1010B000572F682F792FCB01BA010F900F900F9007
:1010C0000F90DF91CF911F910F91FF90EF90DF90E4
:1010D000CF90BF90AF909F908F907F906F905F90D8
:1010E0004F903F902F9008952F923F924F925F9292
:1010F0006F927F928F929F92AF92BF92CF92DF9228
:10110000EF92FF920F931F93CF93DF9300D000D005
:10111000CDB7DEB78C01F09053076F2D70E080E003
:1011200090E00E949D124B015C0120E030E040E81D
:101130005FE30E94A0112DEC3CEC4CEC5FE30E94BD
:10114000531320E030E040E850E40E94A111D62E75
:10115000C72E382E292E8F2D90E09A838983FC018B
:101160003197EE0FFF1FE75CF84F6081718180E0DF
:1011700090E00E949D126B837C83F82EE92EB801CB
:1011800080E090E00E949D12FB81EC810F2F1E2FCA
:101190002F2D3E2DA90198010E94A0112B013C0189
:1011A000C501B4012DEC3CEC4CEC5FE30E94531301
:1011B00020E030E040E850E40E94A1110D2D1C2DEC
:1011C000232D322DA90198010E94A0114B015C0131
:1011D000E981FA81EE0FFF1FE75CF84F60817181B2
:1011E00080E090E00E949D12FB81EC810F2F1E2F6A
:1011F0002F2D3E2DA90198010E94A0119B01AC0149
:10120000C501B4010E9409129B01AC01C301B201E6
:101210000E9453130D2D1C2D232D322DA901980151
:101220000E94A111F72ED82E162F472E882E092F97
:10123000862F9F2DAD2DB02FBC01CD0120E030E0D9
:1012400040E850E40E94051288237CF0812F9F2DF6
:10125000AD2DB02FBC01CD0120E030E040EA51E4DB
:101260000E944F1318164CF00FC010E044240F2EAC
:10127000F0E88F2EF02D00E407C010E044240F2E7C
:10128000F0EA8F2EF02D01E4812F942DA82DB02FA0
:10129000BC01CD010E941E07812F942DA82DB02FD7
:1012A000BC01CD010F900F900F900F90DF91CF9167
:1012B0001F910F91FF90EF90DF90CF90BF90AF9074
:1012C0009F908F907F906F905F904F903F902F9066
:1012D0000895CF92DF92EF92FF920F931F93CF93D7
:1012E000DF9320E030E040E850E40E94A01120E0CD
:1012F00030E040E85DE30E94531320E030E048EC2A
:1013000052E40E945313062F172FD82FC92FE62E11
:10131000F72ED82EC92E862F912FAD2FBC2FBC01B2
:10132000CD0120E030E0A9010E94051288237CF065
:10133000802F912FAD2FBC2FBC01CD0120E030E0DC
:1013400048EC52E40E944F13181634F00FC0EE24FC
:10135000FF24DD24CC240AC0EE24FF240F2EF8EC59
:10136000DF2EF02D0F2EF2E4CF2EF02D8E2D9F2D9F
:10137000AD2DBC2DBC01CD01DF91CF911F910F91FF
:10138000FF90EF90DF90CF900895CF92DF92EF9291
:10139000FF920F931F93CF93DF936B017C0123E6A2
:1013A00035E089E495E06BE575E0A90104E615E018
:1013B0000E94900680912207882371F58DB79EB711
:1013C00008970FB6F8949EBF0FBE8DBFEDB7FEB75E
:1013D000319683E697E0ADB7BEB712969C938E9395
:1013E000119789E695E093838283C482D582E68251
:1013F000F7820E94C618EDB7FEB738960FB6F8947C
:10140000FEBF0FBEEDBF8AE664E00E9499038FE63F
:1014100095E00E940604A9C08130C1F58DB79EB742
:1014200008970FB6F8949EBF0FBE8DBFCDB7DEB73D
:10143000219683E697E0ADB7BEB712969C938E9344
:10144000119784E795E09B838A83C701B60129EA57
:1014500033E140ED5CE30E940912DC01CB018C8397
:101460009D83AE83BF830E94C618EDB7FEB7389642
:101470000FB6F894FEBF0FBEEDBF8AE664E00E948F
:1014800099038AE795E00E9406046FC08230B1F5A7
:101490008DB79EB708970FB6F8949EBF0FBE8DBF4D
:1014A000EDB7FEB7319683E697E0ADB7BEB71296BB
:1014B0009C938E93119784E795E093838283809128
:1014C0002A0790912B07A0912C07B0912D078483B8
:1014D0009583A683B7830E94C618EDB7FEB73896EA
:1014E0000FB6F894FEBF0FBEEDBF8AE664E00E941F
:1014F00099038EE795E00E94060437C08330A9F572
:101500008DB79EB708970FB6F8949EBF0FBE8DBFDC
:10151000EDB7FEB7319683E697E0ADB7BEB712964A
:101520009C938E93119789E695E0938382838091B3
:101530004F0790915007A0915107B09152078483B3
:101540009583A683B7830E94C618EDB7FEB7389679
:101550000FB6F894FEBF0FBEEDBF8AE664E00E94AE
:10156000990383E895E00E9406048CE062E00E9403
:10157000990383E697E00E948004DF91CF911F9149
:101580000F91FF90EF90DF90CF9008950F931F93EE
:10159000CF93DF9388E895E063E675E048E955E08E
:1015A0002AE935E00CE915E00E94900680E00E94EF
:1015B0004B0500D000D000D0EDB7FEB73196C3E6A2
:1015C000D7E0ADB7BEB71296DC93CE93119721EA60
:1015D00035E033832283958384830E94C6188DB7B8
:1015E0009EB706960FB6F8949EBF0FBE8DBF8CE0D7
:1015F00062E00E949903CE010E94060480E00E94EE
:101600004B0500D000D000D0EDB7FEB73196ADB796
:10161000BEB71296DC93CE93119722EB35E033835D
:101620002283958384830E94C6188DB79EB7069641
:101630000FB6F8949EBF0FBE8DBF8CE063E00E9492
:101640009903CE010E94060400D000D000D0EDB76F
:10165000FEB73196ADB7BEB71296DC93CE93119715
:1016600081EC95E09383828380917707909178074E
:10167000958384830E94C6188DB79EB706960FB6D1
:10168000F8949EBF0FBE8DBF8CE064E00E9499036A
:10169000CE010E940604DF91CF911F910F91089512
:1016A0000F931F93CF93DF9382ED95E061EE75E08A
:1016B00046EE55E029EE35E00CEE15E00E9490066E
:1016C00000D000D000D0EDB7FEB73196C3E6D7E02A
:1016D000ADB7BEB71296DC93CE93119781EF95E02C
:1016E0009383828380913507909136079583848315
:1016F0000E94C6188DB79EB706960FB6F8949EBF87
:101700000FBE8DBF8CE062E00E949903CE010E9463
:10171000060480E00E944B0500D000D000D0EDB759
:10172000FEB73196ADB7BEB71296DC93CE93119744
:1017300023E036E033832283958384830E94C61896
:101740008DB79EB706960FB6F8949EBF0FBE8DBF9D
:101750008CE062E00E949903CE010E94060400D052
:1017600000D000D0EDB7FEB73196ADB7BEB7129638
:10177000DC93CE93119781EC95E0938382838091E3
:10178000770790917807958384830E94C6188DB758
:101790009EB706960FB6F8949EBF0FBE8DBF8CE025
:1017A00064E00E949903CE010E940604DF91CF916C
:1017B0001F910F910895AF92BF92CF92DF92EF9257
:1017C000FF920F931F93CF93DF9385E196E061EE35
:1017D00075E042E256E029EE35E00CEE15E00E949D
:1017E00090060F2EFDE1EF2EF7E0FF2EF02DD0E159
:1017F00010E1C0E00F2EF3E6CF2EF7E0DF2EF02D44
:101800000F2EF5E2AF2EF6E0BF2EF02DD7018D9111
:101810007D0100D000D000D0EDB7FEB73196ADB756
:10182000BEB71296DC92CE921197B382A2828483C5
:1018300015820E94C618EDB7FEB736960FB6F8941B
:10184000FEBF0FBEEDBF80912907C81741F4812F5D
:1018500063E00E949903C6010E94150407C08D2F02
:1018600063E00E949903C6010E941504CF5F1E5ECB
:10187000DC5EC43059F6DF91CF911F910F91FF903C
:10188000EF90DF90CF90BF90AF900895CF92DF920E
:10189000EF92FF920F931F93CF93DF938AE296E02C
:1018A00061EE75E042E256E029EE35E00CEE15E01F
:1018B0000E949006C0E0D0E003E617E00F2EF5E2AC
:1018C000EF2EF6E0FF2EF02D0F2EF6E0CF2EDD24CA
:1018D000F02D00D000D000D0EDB7FEB73196ADB7F7
:1018E000BEB712961C930E931197F382E282D583B2
:1018F000C4830E94C6188091290790E02DB73EB797
:101900002A5F3F4F0FB6F8943EBF0FBE2DBF8C1716
:101910009D0789F4B6010E944E17880F982F990FE2
:10192000990F990F890F6E5F805F0E949903C8011C
:101930000E94150411C0CE01B6010E944E17880FF7
:10194000982F990F990F990F890F6E5F805F0E94F2
:101950009903C8010E9406042196CB30D10509F0F5
:10196000B8CFDF91CF911F910F91FF90EF90DF9053
:10197000CF900895AF92BF92DF92EF92FF920F93B4
:101980001F93CF93DF9380912E07882309F44BC0D8
:101990000E94720590937D0780937C0780E00E94EF
:1019A0006605909355078093540780E090E00E946D
:1019B0006205909362078093610780E00E945E0554
:1019C00090935707809356070E946E0590935C078B
:1019D00080935B070E9456059093340780933307EA
:1019E00080E00E945A05909338078093370780E083
:1019F0000E94270590937807809377070E946A05D5
:101A000090937B0780937A070E9452059093590721
:101A10008093580780E00E944B0590936007809365
:101A20005F0710922E0723E635E087E396E062E435
:101A300076E0A9010CEE15E00E94900680915D070A
:101A400090915E078130910509F4ABC0813091051A
:101A500048F08230910509F443C18330910509F0C3
:101A6000FBC1B6C100D000D000D0EDB7FEB73196B3
:101A7000C3E6D7E0ADB7BEB71296DC93CE9311970D
:101A800089E496E09383828380917C0790917D071F
:101A9000958384830E94C618EDB7FEB736960FB6BD
:101AA000F894FEBF0FBEEDBF8CE062E00E94990388
:101AB000CE010E94060400D000D000D0EDB7FEB7E2
:101AC0003196ADB7BEB71296DC93CE93119786E5EB
:101AD00096E0938382838091540790915507958374
:101AE00084830E94C618EDB7FEB736960FB6F894F9
:101AF000FEBF0FBEEDBF8CE063E00E949903CE01F4
:101B00000E94060400D000D000D0EDB7FEB7319699
:101B1000ADB7BEB71296DC93CE93119784E696E0EC
:101B20009383828380916107909162079583848378
:101B30000E94C618EDB7FEB736960FB6F894FEBFF2
:101B40000FBEEDBF8CE064E00E949903CE010E94BD
:101B5000060400D000D000D0EDB7FEB73196ADB787
:101B6000BEB71296DC93CE93119784E796E09383E9
:101B700082838091560790915707958384830E94B2
:101B8000C618EDB7FEB736960FB6F894FEBF0FBE77
:101B9000EDBF8CE065E00E949903CE010E9406042F
:101BA0005BC100D000D000D0EDB7FEB73196C3E6E0
:101BB000D7E0ADB7BEB71296DC93CE9311978FE7FF
:101BC00096E09383828380915B0790915C07958375
:101BD00084830E94C618EDB7FEB736960FB6F89408
:101BE000FEBF0FBEEDBF8CE062E00E949903CE0104
:101BF0000E94060400D000D000D0EDB7FEB73196A9
:101C0000ADB7BEB71296DC93CE9311978FE896E0EE
:101C100093838283809133079091340795838483E3
:101C20000E94C618EDB7FEB736960FB6F894FEBF01
:101C30000FBEEDBF8CE063E00E949903CE010E94CD
:101C4000060400D000D000D0EDB7FEB73196ADB796
:101C5000BEB71296DC93CE93119789E996E09383F1
:101C600082838091370790913807958384830E94FF
:101C7000C618EDB7FEB736960FB6F894FEBF0FBE86
:101C8000EDBF8CE064E00E949903CE010E9406043F
:101C900000D000D000D0EDB7FEB73196ADB7BEB7DB
:101CA0001296DC93CE93119786EA96E09383828313
:101CB0008091770790917807958384830E94C61856
:101CC000EDB7FEB736960FB6F894FEBF0FBEEDBF68
:101CD0008CE065E00E949903CE010E940604BCC01E
:101CE00000D000D000D0EDB7FEB73196C3E6D7E004
:101CF000ADB7BEB71296DC93CE93119781EB96E009
:101D00009383828380917A0790917B079583848364
:101D10000E94C618EDB7FEB736960FB6F894FEBF10
:101D20000FBEEDBF8CE062E00E949903CE010E94DD
:101D3000060400D000D000D0EDB7FEB73196ADB7A5
:101D4000BEB71296DC93CE9311978EEB96E09383F9
:101D5000828380915F0790916007958384830E94BE
:101D6000C618EDB7FEB736960FB6F894FEBF0FBE95
:101D7000EDBF8CE063E00E949903CE010E9406044F
:101D800000D000D000D0EDB7FEB73196ADB7BEB7EA
:101D90001296DC93CE9311978BEC96E0938382831B
:101DA0008091580790915907958384830E94C618A3
:101DB000EDB7FEB736960FB6F894FEBF0FBEEDBF77
:101DC0008CE064E00E949903CE010E94060444C0A6
:101DD00009E317E0C0E00F2EF3E6EF2EF7E0FF2E49
:101DE000F02D0F2EF6EDAF2EF6E0BF2EF02DD3E046
:101DF0000F2EF8E2DF2EF02DD8018D919D918D01EF
:101E000000D000D000D0EDB7FEB73196ADB7BEB769
:101E10001296FC92EE921197B382A28295838483EC
:101E20000E94C618EDB7FEB736960FB6F894FEBFFF
:101E30000FBEEDBF8C2F6D2F0E944217682F9D9D06
:101E4000802D11246E5F805F0E949903C7010E945C
:101E50000604CF5FCB3081F6DF91CF911F910F91B8
:101E6000FF90EF90DF90BF90AF900895CF93DF93F6
:101E700083B382958F708A3009F474C18B3050F42B
:101E8000883009F4CBC1893008F0B0C1873009F03F
:101E9000CAC10AC08D3009F428C18E3009F4A4C02B
:101EA0008B3009F0C0C1DCC080912307882331F456
:101EB00081E0809323070E94B1038FC0823009F034
:101EC0004DC02091290730E02F5F3F4FC901880F97
:101ED000991F880F991F6091770770917807820F7B
:101EE000931F0E9465198DB79EB708970FB6F89497
:101EF0009EBF0FBE8DBFEDB7FEB73196C3E6D7E0EC
:101F0000ADB7BEB71296DC93CE9311978BED96E0EA
:101F10009383828380912907848315828091770738
:101F200090917807978386830E94C6188DB79EB7D5
:101F300008960FB6F8949EBF0FBE8DBF8CE064E08C
:101F40000E949903CE010E940604809129078A30DD
:101F500008F043C08F5F809329073FC0833031F47E
:101F600081E080932E070E94B10337C08530A9F12C
:101F7000843099F5609135077091360780E00E94B2
:101F8000110680E00E944B059093600780935F07E5
:101F900000D000D000D0EDB7FEB73196C3E6D7E051
:101FA000ADB7BEB71296DC93CE93119721EF36E012
:101FB00033832283958384830E94C6188DB79EB78E
:101FC00006960FB6F8949EBF0FBE8DBF8CE065E0FD
:101FD0000E949903CE010E940604A3EDB0E311977D
:101FE000F1F700C000001FC180912307882361F42E
:101FF000809122078F5F80932207843010F0109227
:1020000022070E94B10325C0823039F410922307C1
:102010000E94F0060E94B1031CC0813081F482E06E
:1020200080932307109229070E94B10388E265E09C
:102030000E9499038FEF96E00E9406040AC0833045
:1020400041F41092230710925E0710925D070E94E0
:10205000B10383ED90E30197F1F700C00000E3C006
:1020600080912307823041F4809129078823B1F1C0
:1020700081508093290732C08823B1F480915A0798
:102080008F5F80935A07873018F087E080935A0754
:1020900080915A0780620E944F038CE390E0609128
:1020A0005A070E9454191AC0833079F480915D0751
:1020B00090915E078330910588F4019690935E07B6
:1020C00080935D070E94B10309C0813039F484E038
:1020D00080932307109229070E94B103A3EDB0E378
:1020E0001197F1F700C000009EC080912307823055
:1020F00041F4809129078A3070F58F5F809329071A
:102100002AC0882379F480915A07815080935A0716
:1021100080620E944F038CE390E060915A070E9416
:10212000541919C0833071F480915D0790915E0756
:10213000009789F0019790935E0780935D070E9456
:10214000B10309C0813039F485E0809323071092F0
:1021500029070E94B10383ED90E30197F1F700C0D6
:10216000000061C080912307813009F05CC01092AB
:10217000600710925F07109236071092350780E0D3
:1021800060E070E00E94110660915F077091600747
:1021900081E490E00E94651900D000D000D0EDB736
:1021A000FEB73196C3E6D7E0ADB7BEB71296DC9363
:1021B000CE9311978AE097E09383828380915F07A3
:1021C00090916007958384830E94C6188DB79EB74F
:1021D00006960FB6F8949EBF0FBE8DBF8CE065E0EB
:1021E0000E949903CE010E9406041DC09498A3EC9E
:1021F000B9E01197F1F700C00000949A83EC99E0E0
:102200000197F1F700C000000E9463030E94B10330
:1022100080915A0780620E944F0305C083E080933B
:1022200023070E94B103DF91CF9108950E946F06AA
:102230000E94F0060E94E0060E94240180915F0740
:10224000909160070E942F0663E373E383E790E4B5
:102250000E941E071092230780EC8093210781E0E3
:1022600080932E0780915F079091600790933607C7
:1022700080933507809158079091590790932707CD
:102280008093260710925E0710925D070E946B07ED
:1022900090937807809377070E94BA07DC01CB01FF
:1022A00080932F0790933007A0933107B0933207A4
:1022B00080917707909178070E94740860934F0788
:1022C0007093500780935107909352070E946909B9
:1022D000DC01CB0180932A0790932B07A0932C0756
:1022E000B0932D0780912107803C81F680912307D0
:1022F000882359F460912F0770913007809131073E
:10230000909132070E94C50918C0813019F40E94CB
:10231000C60A13C0823019F40E94460C0EC08330E6
:1023200019F40E94BA0C09C0843019F40E94500BB1
:1023300004C0853011F40E94DB0B0E94360FA6CF3B
:102340005058BB27AA270ED070C161D130F066D19A
:1023500020F031F49F3F11F41EF456C10EF4E095C5
:10236000E7FB4CC1E92F72D180F3BA1762077307FC
:102370008407950718F071F49EF58AC10EF4E09574
:102380000B2EBA2FA02D0B01B90190010C01CA012F
:10239000A0011124FF27591B99F0593F50F4503EDA
:1023A00068F11A16F040A22F232F342F4427585FCC
:1023B000F3CF469537952795A795F0405395C9F7E4
:1023C0007EF41F16BA0B620B730B840BBAF091509C
:1023D000A1F0FF0FBB1F661F771F881FC2F70EC03B
:1023E000BA0F621F731F841F48F48795779567950E
:1023F000B795F7959E3F08F0B3CF9395880F08F0F7
:102400009927EE0F979587950895D4D008F481E029
:1024100008950CD00AC102D140F0F9D030F021F477
:102420005F3F19F0EBC0511134C1EEC00FD198F3EA
:102430009923C9F35523B1F3951B550BBB27AA2745
:1024400062177307840738F09F5F5F4F220F331FB7
:10245000441FAA1FA9F333D00E2E3AF0E0E830D083
:1024600091505040E695001CCAF729D0FE2F27D086
:10247000660F771F881FBB1F261737074807AB0754
:10248000B0E809F0BB0B802DBF01FF2793585F4FC9
:102490002AF09E3F510568F0B1C0FBC05F3FECF3EE
:1024A000983EDCF3869577956795B795F7959F5F8E
:1024B000C9F7880F911D9695879597F90895E1E0E2
:1024C000660F771F881FBB1F621773078407BA0741
:1024D00020F0621B730B840BBA0BEE1F88F7E0959C
:1024E0000895BCD088F09F5790F0B92F9927B75125
:1024F000A0F0D1F0660F771F881F991F1AF0BA95C8
:10250000C9F712C0B13081F0C3D0B1E00895C0C0A6
:10251000672F782F8827B85F39F0B93FCCF38695BD
:1025200077956795B395D9F73EF49095809570951A
:1025300061957F4F8F4F9F4F0895E89409C097FB97
:102540003EF490958095709561957F4F8F4F9F4F8A
:102550009923A9F0F92F96E9BB279395F6958795CE
:1025600077956795B795F111F8CFFAF4BB0F11F491
:1025700060FF1BC06F5F7F4F8F4F9F4F16C0882338
:1025800011F096E911C0772321F09EE8872F762F6E
:1025900005C0662371F096E8862F70E060E02AF0AF
:1025A0009A95660F771F881FDAF7880F969587959B
:1025B00097F90895990F0008550FAA0BE0E8FEEF70
:1025C00016161706E807F907C0F012161306E407F7
:1025D000F50798F0621B730B840B950B39F40A26F0
:1025E00061F0232B242B252B21F408950A2609F4CE
:1025F000A140A6958FEF811D811D089597F99F67D2
:1026000080E870E060E008959FEF80EC089500247A
:102610000A941616170618060906089500240A9447
:1026200012161306140605060895092E0394000CCD
:1026300011F4882352F0BB0F40F4BF2B11F460FF5C
:1026400004C06F5F7F4F8F4F9F4F089557FD905885
:10265000440F551F59F05F3F71F04795880F97FB66
:10266000991F61F09F3F79F0879508951216130620
:102670001406551FF2CF4695F1DF08C0161617064F
:102680001806991FF1CF8695710561050894089584
:10269000E894BB2766277727CB0197F908958ADF4F
:1026A00008F48FEF08950BD0C0CFB1DF28F0B6DF6C
:1026B00018F0952309F0A2CFA7CF1124EACFC6DFE7
:1026C000A0F3959FD1F3950F50E0551F629FF00145
:1026D000729FBB27F00DB11D639FAA27F00DB11D9E
:1026E000AA1F649F6627B00DA11D661F829F222727
:1026F000B00DA11D621F739FB00DA11D621F839FAE
:10270000A00D611D221F749F3327A00D611D231F83
:10271000849F600D211D822F762F6A2F11249F57D1
:1027200050408AF0E1F088234AF0EE0FFF1FBB1FF4
:10273000661F771F881F91505040A9F79E3F510593
:1027400070F05CCFA6CF5F3FECF3983EDCF386954C
:1027500077956795B795F795E7959F5FC1F7FE2B3E
:10276000880F911D9695879597F90895A5E1B0E09A
:10277000ECEBF3E10C9461174C017F876E87FC0151
:1027800017821682838181FD04C076C34C855D85E6
:1027900004C01E010894211C311CF4019381EE85B4
:1027A000FF8593FD859193FF8191FF87EE878823B5
:1027B00009F45EC3853241F493FD859193FF8191C5
:1027C000FF87EE87853259F490E0B4014C8B5D8B26
:1027D0000E949A184C895D895D874C87D7CFFF246A
:1027E000DD2410E01032B0F48B3269F08C3228F422
:1027F000803251F0833271F40BC08D3239F0803366
:1028000049F411602CC01260146029C0186027C000
:10281000106125C017FD2EC0282F20532A3098F4B0
:1028200016FF08C08F2D880FF82EFF0CFF0CF80E36
:10283000F20E15C08D2D880FD82EDD0CDD0CD80EB4
:10284000D20E10620CC08E3221F416FD11C310643A
:1028500006C08C3611F4106802C0883659F4EE8533
:10286000FF8593FD859193FF8191FF87EE878823F4
:1028700009F0B8CF982F9554933018F41061805E0A
:1028800006C0982F9556933008F0A2C11F7E16FD02
:1028900002C0E6E0FE2E1F73853611F4106406C0F8
:1028A000863611F4106802C0F110FA9417FF07C0C1
:1028B000FBE3FF1548F0EF2CE39427E00DC027E081
:1028C0002F1530F02F2D07C027E07CE3E72E04C042
:1028D00027E067E0F62EEE24CA0104969D878C87D8
:1028E000FA016081718182819381A1010E2D0E9484
:1028F000AC175C01C9802C2D30E0398B288BC0FED1
:1029000003C0388933FF06C011FD06C012FF06C0A0
:1029100000E205C00DE203C00BE201C000E08889BF
:1029200099898C709070009709F43CC0002311F0D5
:1029300084E001C083E08D1558F4D81A13FD09C056
:1029400080E290E0B4010E949A18DA94C9F701C0BD
:10295000DD24002329F0802F90E0B4010E949A1812
:10296000888983FD05C038E5E32E30E0F32E11C0E1
:1029700024E5E22E20E0F22E0CC00115110509F02D
:10298000805290E0B4010E949A180894E11CF11C56
:1029900004C0012F10E000711070F70184918823AA
:1029A00061F763C217FF0EC0EA0CF889F4FF04C098
:1029B0008A81813309F4EA941E144CF528E02E151F
:1029C00048F12CC016FD2AC08F2D90E08A159B057A
:1029D00044F03CEFA3163FEFB3061CF0106801C0B3
:1029E000FA94FF2049F0E2E0F0E0EC0FFD1FEF0D5C
:1029F000F11D80818033A1F317FF10C0EF2CE39409
:102A00008F2D90E0A816B90644F4FA1807C0EE24FA
:102A1000E39404C098E0E92E01C0FF2417FF07C02B
:102A20001A141B043CF495012F5F3F4F05C025E0AD
:102A300030E002C021E030E0002311F02F5F3F4F73
:102A4000FF2029F08F2D90E00196280F391F8D2D42
:102A500090E02817390714F4D21A01C0DD24612E42
:102A60007724C30189709070009749F406C080E212
:102A700090E0B4010E949A18DA94DD20C1F7002397
:102A800029F0802F90E0B4010E949A1863FC09C0DD
:102A900006C080E390E0B4010E949A18DA94DD2029
:102AA000C1F717FF48C08501B7FE02C000E010E083
:102AB0006624772495012E1931093B8B2A8B250139
:102AC000401A510A420C531C6F2D70E0EE24FF2473
:102AD000E61AF70A3FEF0F3F130729F48EE290E062
:102AE000B4010E949A18A016B10654F02A893B89B5
:102AF000201731072CF4F201E60DF71D818101C08A
:102B000080E3015010400894611C711C0E151F05D4
:102B10002CF090E0B4010E949A18DCCF0A151B0536
:102B200041F49A81963320F4953319F4388934FFAF
:102B300081E390E049C08A81813311F09FEEC92280
:102B400090E0B4010E949A18FF2089F08EE290E094
:102B5000B4010E949A1812E0F101E10FF11D1F5F0C
:102B6000808190E0B4010E949A18FA94A9F764FE5B
:102B700003C085E490E002C085E690E0B4010E94C5
:102B80009A18B7FC05C0A114B10441F4C4FE06C0F4
:102B9000B094A194B108B3948DE201C08BE290E0AF
:102BA000B4010E949A1880E305C08F5FE6EFFFEF43
:102BB000AE0EBF1EFAE0AF16B104BCF790E0B40150
:102BC0000E949A18C501C096B4010E949A184DC17E
:102BD000833631F0833789F0833509F059C022C03C
:102BE0009A012E5F3F4F3D872C87FA0180818983B0
:102BF00081E0E82EF12C510113C09A012E5F3F4F66
:102C00003D872C87FA01A080B18016FF03C06F2D8D
:102C100070E002C06FEF7FEFC5010E948F187C014A
:102C20001F7714C09A012E5F3F4F3D872C87FA0112
:102C3000A080B18016FF03C06F2D70E002C06FEF5F
:102C40007FEFC5010E9484187C01106813FD1CC031
:102C500006C080E290E0B4010E949A18DA948D2DAB
:102C600090E0E816F906A8F30FC0F50117FD85916D
:102C700017FF81915F0190E0B4010E949A18D11072
:102C8000DA940894E108F108E114F10471F7EDC059
:102C9000843611F0893671F59A0117FF0AC02C5F4E
:102CA0003F4F3D872C87FA0180819181A281B381BA
:102CB0000BC02E5F3F4F3D872C87FA0180819181A9
:102CC000AA2797FDA095BA2F012F0F76B7FF08C04E
:102CD000B095A095909581959F4FAF4FBF4F0068DD
:102CE000BC01CD01A1012AE030E00E94E818E82EE5
:102CF000E21841C0853721F41F7E2AE030E020C071
:102D0000197F8F36A9F0803720F4883509F0B0C0DC
:102D10000BC0803721F0883709F0AAC001C01061CC
:102D200014FF09C0146007C014FF08C0166006C075
:102D300028E030E005C020E130E002C020E132E0D0
:102D4000CA0117FF09C004969D878C87FA0160812C
:102D500071818281938108C002969D878C87FA01D8
:102D60006081718180E090E0A1010E94E818E82E66
:102D7000E218012F0F7706FF09C00E7FEF1430F421
:102D800004FF06C002FD04C00F7E02C01E2D01C05C
:102D90001F2D802F90E004FF0CC0FE01EE0DF11DF1
:102DA0002081203311F4097E09C002FF06C01E5F96
:102DB00005C086789070009709F01F5FA02EBB2495
:102DC00003FD12C000FF0DC0FE2C1D1550F4FD0CBC
:102DD000F11A1D2D06C080E290E0B4010E949A18FD
:102DE0001F5F1D15C0F304C01D1510F4D11A01C0DA
:102DF000DD24A4FE0FC080E390E0B4010E949A1885
:102E0000A2FE1FC0A1FE03C088E590E010C088E7C5
:102E100090E00DC0C50186789070009791F0A1FCFC
:102E200002C080E201C08BE207FD8DE290E0B401B8
:102E30000E949A1806C080E390E0B4010E949A189C
:102E4000FA94EF14C0F3EA94F101EE0DF11D8081C4
:102E500090E0B4010E949A18EE20A9F706C080E223
:102E600090E0B4010E949A18DA94DD20C1F78ECC6C
:102E7000F4018681978102C08FEF9FEF6596E2E1B2
:102E80000C947D17991B79E004C0991F961708F0E0
:102E9000961B881F7A95C9F78095089597FB092E90
:102EA00007260AD077FD04D043D006D000201AF4BC
:102EB000709561957F4F0895F6F7909581959F4F96
:102EC00008952F923F924F925F926F927F928F92CE
:102ED0009F92AF92BF92CF92DF92EF92FF920F93A9
:102EE0001F93CF93DF93CDB7DEB7CA1BDB0B0FB6B3
:102EF000F894DEBF0FBECDBF09942A883988488870
:102F00005F846E847D848C849B84AA84B984C88405
:102F1000DF80EE80FD800C811B81AA81B981CE0FFC
:102F2000D11D0FB6F894DEBF0FBECDBFED010895E1
:102F3000AA1BBB1B51E107C0AA1FBB1FA617B707DF
:102F400010F0A61BB70B881F991F5A95A9F78095FB
:102F50009095BC01CD010895283008F027E0332773
:102F6000DA01990F311D87FD9160009661057105A9
:102F700039F432602E5F3D9330E32A95E1F70895EE
:102F80009F3F30F080387105610509F03C5F3C5F80
:102F90003D93913008F08068911DDF93CF931F938C
:102FA0000F93FF92EF92192F987F9695E92F9695A0
:102FB0009695E90FFF27EA54FF4F99273327EE2410
:102FC000FF24A701E70105900894079428F4360F21
:102FD000E71EF81E491F511D660F771F881F991F96
:102FE0000694A1F70590079428F4E70EF81E491FF0
:102FF000561FC11D770F881F991F661F0694A1F7E2
:103000000590079428F4F80E491F561FC71FD11DBD
:10301000880F991F661F771F0694A1F705900794E4
:1030200020F4490F561FC71FD81F990F661F771F1F
:10303000881F0694A9F784911095177041F0D695D2
:10304000C79557954795F794E7941A95C1F7ECE51E
:10305000F0E06894159015913591659195910590E2
:103060007FE27395E118F10A430B560BC90BD009A7
:10307000C0F7E10CF11E431F561FC91FD01D7EF47F
:10308000703311F48A95E6CFE894015030F0080FC0
:103090000AF40027021708F4202F2395022F7A3311
:1030A00028F079E37D932A95E9F710C07D932A955E
:1030B00089F6069497956795379517951794E118B3
:1030C000F10A430B560BC90BD00998F023957E915A
:1030D00073957A3308F070E37C932013B8F77E91F0
:1030E00070617D9330F0839571E37D9370E32A9551
:1030F000E1F71124EF90FF900F911F91CF91DF9195
:10310000992787FD90950895FC01059061507040C6
:103110000110D8F7809590958E0F9F1F0895FC01A0
:103120006150704001900110D8F7809590958E0FF6
:103130009F1F08950F931F93CF93DF938C01EB0193
:103140008B8181FF1BC082FF0DC02E813F818C814E
:103150009D812817390764F4E881F9810193F98387
:10316000E88306C0E885F985802F0995009731F43A
:103170008E819F8101969F838E8302C00FEF1FEF88
:10318000C801DF91CF911F910F910895AEE0B0E09B
:10319000ECECF8E10C946F170D891E8986E08C83A6
:1031A0001A8309838FEF9FE79E838D83AE01475E6D
:1031B0005F4FCE0101966F89788D0E94B613EF8123
:1031C000F885E00FF11F10822E96E4E00C948B1727
:1031D000FA01AA27283051F1203181F1E8946F9348
:1031E0006E7F6E5F7F4F8F4F9F4FAF4FB1E03ED0EE
:1031F000B4E03CD0670F781F891F9A1FA11D680F8C
:10320000791F8A1F911DA11D6A0F711D811D911DBE
:10321000A11D20D009F468943F912AE0269F112433
:103220003019305D3193DEF6CF010895462F477097
:10323000405D4193B3E00FD0C9F7F6CF462F4F70F2
:10324000405D4A3318F0495D31FD4052419302D050
:10325000A9F7EACFB4E0A6959795879577956795F6
:10326000BA95C9F700976105710508959B01AC01F6
:103270000A2E06945795479537952795BA95C9F71D
:10328000620F731F841F951FA01D0895E199FECF43
:103290009FBB8EBBE09A99278DB30895A8E1B0E05B
:1032A00042E050E00C946D19262FE199FECF9FBBB0
:1032B0008EBBE09A01970DB2021631F02DBB0FB60E
:1032C000F894E29AE19A0FBE08950196272F0E9482
:1032D00055190C945419DC01CB01FC01E199FECF86
:1032E00006C0FFBBEEBBE09A31960DB20D92415085
:0A32F0005040B8F70895F894FFCF9E
:1032FA0003000000000100000000000000000000C0
:10330A00000000000000000000000000001C000097
:10331A001C00001C00001C00001C00001C00001CFB
:10332A000000000000000000000000000000000093
:10333A000000000000000000000000000000001F64
:10334A0000001F00001F00001F0000000000000016
:10335A000000000000000000000000000000000063
:10336A000000000000000000000000000000000053
:10337A00000000000000800000E00000FC0080FF68
:10338A0000E01F00FC0380FF00E01F00FC0300FEBA
:10339A0000001E0000020000000000000000000003
:1033AA00000000000000000000000000FF01C0FF54
:1033BA000FF0FF1FF8FF3F78007C1C00700C0060C4
:1033CA000C00600C00601C00707C003CF8FF3FF0B1
:1033DA00FF1FE0FF0F00FF010000000000000000D7
:1033EA000000000000000000400000E00040600013
:1033FA0040300040300060F8FF7FFCFF7FFCFF7F19
:10340A00FCFF7F0000600000400000400000400018
:10341A00000000000000000000000000000000782A
:10342A00006078007878007C3C007E0C007F0CC03D
:10343A007B0CE0780C70781C3C78FC1F78F80F7CC9
:10344A00F8077EF0017E0000000000000000000086
:10345A0000000000000000000078003C78003C7882
:10346A00007C3C00781C18700C18600C18600C1C4E
:10347A00600C3C601C7E70FCF73FF8F33FF8E31FDA
:10348A00F0C007000000000000000000000000007B
:10349A0000800100E00100F00100BC01008E018003
:1034AA008701C08141F08061F8FF7FFCFF7FFCFF4C
:1034BA007FFCFF7F00806100804100C00100C001E5
:1034CA000000000000000000000000000000003CB6
:1034DA00FC1F3CFC3F7CFC1F783C18703C18603C8D
:1034EA0018603C18603C38603C78703CF83F3EF00D
:1034FA003F3EE01F00C0070000000000000000007F
:10350A000000000000000000F80300FF0F80FF1F0A
:10351A00C0FF3FE01B78F01870380C60180C601C74
:10352A000C600C0C700C3C780CFC3F00F83F00F06F
:10353A001F00E0070000000000000000000000007B
:10354A0000FC0000FC00007C00003C00603C0078AD
:10355A003C007E3C803F3CE00F3CF8033C7E00BCD4
:10356A001F00FC0700FC01003C00000C00000000EA
:10357A000000000000000000000000E0830FF0C718
:10358A001FF8EF3FF8FF3F1C7E780C18700C18608C
:10359A000C18600C18600C38601C7C78F8FF3FF837
:1035AA00F73FF0E71FE0810700000000000000007D
:1035BA000000C00F00F01F00F03F00F87F003C78C9
:1035CA00601C60600C60600C60700C60381C303CE1
:1035DA003C301FF8FF0FF0FF07E0FF03807F000079
:1035EA000000000000000000000000000000005F72
:1035FA0000000007000700147F147F14242A7F2A82
:10360A00122313086462364955225000050300004C
:10361A00001C2241000041221C00082A1C2A08081A
:10362A00083E080800503000000808080808003062
:10363A0030000020100804023E5149453E00427FF6
:10364A00400042615149462141454B311814127FCD
:10365A001027454545393C4A494930017109050356
:10366A003649494936064949291E003636000000BE
:10367A00563600000008142241141414141441226E
:10368A001408000201510906324979413E7E11119E
:10369A00117E7F494949363E414141227F414122BB
:1036AA001C7F494949417F090901013E4141513283
:1036BA007F0808087F00417F41002040413F017F89
:1036CA00081422417F404040407F0204027F7F0469
:1036DA0008107F3E4141413E7F090909063E41519A
:1036EA00215E7F09192946464949493101017F016D
:1036FA00013F4040403F1F2040201F7F2018207F6D
:10370A0063140814630304780403615149454300B0
:10371A00007F4141020408102041417F0000040259
:10372A000102044040404040000102040020545479
:10373A0054787F4844443838444444203844444800
:10374A007F3854545418087E090102081454543C12
:10375A007F0804047800447D40002040443D000076
:10376A007F10284400417F40007C041804787C08BC
:10377A0004047838444444387C1414140808141493
:10378A00187C7C080404084854545420043F4440DC
:10379A00203C4040207C1C2040201C3C4030403CC7
:1037AA0044281028440C5050503C4464544C440063
:1037BA000836410000007F00000041360800080872
:1037CA002A1C08081C2A0808444154413A2025307A
:1037DA00347828253034782900494E4455435449D1
:1037EA0056452053454E53494E4700534554544974
:1037FA004E470000554E49540025322E32660020AD
:10380A006D6D200025322E3166006D696C00202511
:10381A00202000206D4120004F464653455426473C
:10382A0041494E2053455400310032004E45585408
:10383A0000312E204F4646534554203A2025303435
:10384A007800322E204741494E203A2025303478DC
:10385A0000524541442044415441203A2025303405
:10386A0078004F46465345542053455454494E47D1
:10387A000053415645005550002D3E0045584954C5
:10388A00004348414E47452056414C203A202530B6
:10389A00347800435552204F4646534554203A2027
:1038AA0025303478004741494E2053455454494EF7
:1038BA0047003C2D00253032640053455454494E8C
:1038CA0047204D4F4445004465627567204D6F643B
:1038DA0065005245524F414400434F4E4649473ACC
:1038EA00202530347800444956494445523A202527
:1038FA0030347800534554544C45436E743A20256D
:10390A003034780052436E743A20253034780045BA
:10391A0052524F52436F6E663A2025303478004D2A
:10392A0055583A2025303478004944524956453A88
:10393A00202530347800665245513A2025303478B3
:10394A00005354415455533A2025303478004F4699
:10395A00465345543A2025303478004741494E3A77
:10396A002025303478002530347800253032642020
:10397A006D6D20282530347829207361766564219D
:10398A00004F666673657428253034782921004E05
:10399A006F6E65204163742121004F6666736574FA
:1039AA0028253034782920494E4954210001040839
:0239BA0010C03B
:00000001FF
