:100000000C941C030C943D110C9439030C9439038B
:100010000C9439030C9439030C9439030C94390370
:100020000C9439030C9439030C9439030C94390360
:100030000C9439030C9439030C9439030C94390350
:100040000C9439030C9439030C9439030C94390340
:100050000C943903540E94107C103D105B0F9910D2
:10006000D90F0C0F6E616E00696E660000407A1049
:10007000F35A00A0724E18090010A5D4E80000E859
:100080007648170000E40B54020000CA9A3B0000B7
:1000900000E1F505000080969800000040420F0046
:1000A0000000A08601000000102700000000E80307
:1000B000000000006400000000000A0000000000D2
:1000C0000100000000002C76D888DC674F0823DF91
:1000D000C1DFAE59E1B1B796E5E3E453C63AE65164
:1000E000997696E8E6C28426EB898C9B62ED407C8B
:1000F0006FFCEFBC9C9F40F2BAA56FA5F490055A27
:100100002AF75C936B6CF9676DC11BFCE0E40D474B
:10011000FEF520E6B500D0ED902E0300943577056E
:100120000080841E080000204E0A000000C80C3326
:100130003333330F986E12831141EF8D2114893BB5
:10014000E65516CFFEE6DB18D1844B381BF77C1D35
:10015000901DA4BBE424203284725E228100C9F188
:1001600024ECA1E53D270000000000000000000095
:10017000000000000000000000000000001C000063
:100180001C00001C00001C00001C00001C00001CC7
:10019000000000000000000000000000000000005F
:1001A0000000000000000000000000000000001F30
:1001B00000001F00001F00001F00000000000000E2
:1001C000000000000000000000000000000000002F
:1001D000000000000000000000000000000000001F
:1001E000000000000000800000E00000FC0080FF34
:1001F00000E01F00FC0380FF00E01F00FC0300FE86
:1002000000001E00000200000000000000000000CE
:10021000000000000000000000000000FF01C0FF1F
:100220000FF0FF1FF8FF3F78007C1C00700C00608F
:100230000C00600C00601C00707C003CF8FF3FF07C
:10024000FF1FE0FF0F00FF010000000000000000A2
:100250000000000000000000400000E000406000DE
:1002600040300040300060F8FF7FFCFF7FFCFF7FE4
:10027000FCFF7F00006000004000004000004000E4
:1002800000000000000000000000000000000078F6
:10029000006078007878007C3C007E0C007F0CC009
:1002A0007B0CE0780C70781C3C78FC1F78F80F7C95
:1002B000F8077EF0017E0000000000000000000052
:1002C00000000000000000000078003C78003C784E
:1002D000007C3C00781C18700C18600C18600C1C1A
:1002E000600C3C601C7E70FCF73FF8F33FF8E31FA6
:1002F000F0C0070000000000000000000000000047
:1003000000800100E00100F00100BC01008E0180CE
:100310008701C08141F08061F8FF7FFCFF7FFCFF17
:100320007FFCFF7F00806100804100C00100C001B0
:100330000000000000000000000000000000003C81
:10034000FC1F3CFC3F7CFC1F783C18703C18603C58
:1003500018603C18603C38603C78703CF83F3EF0D8
:100360003F3EE01F00C0070000000000000000004A
:100370000000000000000000F80300FF0F80FF1FD6
:10038000C0FF3FE01B78F01870380C60180C601C40
:100390000C600C0C700C3C780CFC3F00F83F00F03B
:1003A0001F00E00700000000000000000000000047
:1003B00000FC0000FC00007C00003C00603C007879
:1003C0003C007E3C803F3CE00F3CF8033C7E00BCA0
:1003D0001F00FC0700FC01003C00000C00000000B6
:1003E0000000000000000000000000E0830FF0C7E4
:1003F0001FF8EF3FF8FF3F1C7E780C18700C186058
:100400000C18600C18600C38601C7C78F8FF3FF802
:10041000F73FF0E71FE08107000000000000000048
:100420000000C00F00F01F00F03F00F87F003C7894
:10043000601C60600C60600C60700C60381C303CAC
:100440003C301FF8FF0FF0FF07E0FF03807F000044
:100450000000000000000000000000000000005F3D
:1004600000000007000700147F147F14242A7F2A4D
:100470001223130864623649552250000503000018
:10048000001C2241000041221C00082A1C2A0808E6
:10049000083E08080050300000080808080800302E
:1004A00030000020100804023E5149453E00427FC2
:1004B000400042615149462141454B311814127F99
:1004C0001027454545393C4A494930017109050322
:1004D0003649494936064949291E0036360000008A
:1004E000563600000008142241141414141441223A
:1004F0001408000201510906324979413E7E11116A
:10050000117E7F494949363E414141227F41412286
:100510001C7F494949417F090901013E414151324E
:100520007F0808087F00417F41002040413F017F54
:10053000081422417F404040407F0204027F7F0434
:1005400008107F3E4141413E7F090909063E415165
:10055000215E7F09192946464949493101017F0138
:10056000013F4040403F1F2040201F7F2018207F38
:10057000631408146303047804036151494543007C
:10058000007F4141020408102041417F0000040225
:100590000102044040404040000102040020545445
:1005A00054787F48444438384444442038444448CC
:1005B0007F3854545418087E090102081454543CDE
:1005C0007F0804047800447D40002040443D000042
:1005D0007F10284400417F40007C041804787C0888
:1005E00004047838444444387C141414080814145F
:1005F000187C7C080404084854545420043F4440A8
:10060000203C4040207C1C2040201C3C4030403C92
:1006100044281028440C5050503C4464544C44002E
:100620000836410000007F0000004136080008083D
:100630002A1C08081C2A080811241FBECFE5D8E090
:10064000DEBFCDBF12E0A0E6B0E0E0E0F3E302C021
:1006500005900D92A631B107D9F722E0A6E1B2E0EC
:1006600001C01D92AD38B207E1F70E949A100C94B8
:100670007E190C940000D898DA98D998A1E6B0E0D9
:1006800064E670E048E090E014C0DA98D99A8C9162
:10069000882314F4DA9A01C0DA98D9988081880FF7
:1006A00080832150310989F7DA981196A617B70788
:1006B00021F0242F392FFD01E8CFD89A8AE08A95BE
:1006C000F1F7DD9800C000C00000DD9A089580E1D8
:1006D00090E060E070E0D99A0000D998CB99616011
:1006E000660F771F0197B9F780E090E00895E0E684
:1006F000F0E08183728363830E943B030895E0E608
:10070000F0E08068818312821382D8980E943B03B4
:10071000D89A00C000C00000D8980E946703D89AF9
:100720000895D89ADD9A60E871E182E00E9477032B
:1007300082E00E947F0321E06038714181059105CC
:1007400009F020E0822F0895BC0181E00E94770328
:1007500008952F923F924F925F926F927F928F9265
:100760009F92AF92BF92CF92DF92EF92FF920F9340
:100770001F93CF93DF9300D000D0CDB7DEB79C831B
:100780008B834B011A013A8329838A01081B190BB9
:100790007901E61AF70A2801440C551C3701660C4A
:1007A000771C112354F4119501951109519441942A
:1007B0005108CC24CA94DC2C03C0CC24C394D12C83
:1007C000FF2054F4F194E194F1087194619471085C
:1007D000AA24AA94BA2C03C0AA24A394B12C41E061
:1007E00050E0B4018B819C810E94DF050115110549
:1007F00019F4E114F104F1F10E151F05F4F0E12CE8
:10080000F12C8B819C818C0D9D1D9C838B83E60C30
:10081000F71C0E151F0524F48A0C9B1CE418F50820
:1008200041E050E0B4018B819C810E94DF05EB81A7
:10083000FC81E215F30529F71DC000E010E08A0CE9
:100840009B1C040D151DE016F10644F48B819C8160
:100850008C0D9D1D9C838B830619170941E050E088
:10086000B4018B819C810E94DF05E981FA818E169B
:100870009F0629F70F900F900F900F90DF91CF9167
:100880001F910F91FF90EF90DF90CF90BF90AF90AE
:100890009F908F907F906F905F904F903F902F90A0
:1008A0000895939883E08A95F1F70000949A89EF70
:1008B00090E00197F1F700C00000949889EF90E074
:1008C0000197F1F700C00000949A89EF90E001973A
:1008D000F1F700C00000939A959A0895939800004C
:1008E000959A000028E030E09698882314F4979AAF
:1008F00001C09798969A880F21503109A9F7939AC9
:100900000895939800009598000028E030E09698AC
:10091000882314F4979A01C09798969A880F2150CB
:100920003109A9F7959A939A08950E94510482EE8D
:100930000E94810481EA0E94810482EA0E9481046B
:1009400080EC0E9481048FE20E94810487EA91E694
:100950000197F1F700C0000084EA0E94810481E859
:100960000E94810480E20E94810483E20E9481044B
:100970008FEA0E94810486EA0E94810480EB0E9433
:10098000810480E10E94810480E00E94810480E46F
:100990000E9481040895CF93DF93C82FD62F6093D0
:1009A00021028093200282958F7080610E948104D1
:1009B0008C2F8F700E9481048D2F806B0E94810488
:1009C000DF91CF9108951F93CF93DF93D0E014E888
:1009D0006D2F80E00E94CB04C12F80E00E946E0446
:1009E000C150D9F7DF5FD83099F7DF91CF911F91D0
:1009F00008950F931F93CF93DF93082F10E00052B9
:100A00001109C801880F991F880F991F080F191F16
:100A1000E801C85ADB4F035A1B4FFE0184910E9424
:100A20006E042196C017D107C1F780E00E946E04C2
:100A3000DF91CF911F910F9108950F931F93CF9343
:100A4000DF93082F10E000521109C801880F991F89
:100A5000880F991F080F191FE801C85ADB4F035A66
:100A60001B4FFE01849180950E946E042196C01751
:100A7000D107B9F780E00E946E04DF91CF911F91FA
:100A80000F910895CF93DF93EC018881882331F093
:100A900021960E94F90489918111FBCFDF91CF91BA
:100AA0000895CF93DF93EC018881882331F021965C
:100AB0000E941D0589918111FBCFDF91CF9108958F
:100AC000BF92CF92DF92EF92FF920F931F93CF933B
:100AD000DF93D82FF0902102B090200290E08D9704
:100AE0002AE3289F8001299F100D112409591E4FC8
:100AF0000F2EF3E1EF2EF02DEB0CCB2DCC24C39475
:100B0000CF0C6894DD24D1F8DF0C6F2D8C2F0E9460
:100B1000CB04D03291F480E00E946E046C2D8C2FB7
:100B20000E94CB0480E00E946E046D2D8C2F0E94E9
:100B3000CB0480E00E946E0416C0F80184910E94EC
:100B40006E046C2D8C2F0E94CB04F8013196849199
:100B50000E946E046D2D8C2F0E94CB04F8013296FA
:100B600084910E946E04CF5F0D5F1F4FCE11CDCFD9
:100B700080E00E946E04DE3229F40F2EFEE0EF2E9C
:100B8000F02DEB0C6F2D8E2D0E94CB04DF91CF91B9
:100B90001F910F91FF90EF90DF90CF90BF9008953D
:100BA000CF93DF93EC018881882331F021960E9456
:100BB000600589918111FBCFDF91CF910895CF928C
:100BC000DF92FF920F931F93CF93DF93F82EEB01E9
:100BD0006A018B01DD2314F4095F1F4F15950795FA
:100BE0001595079515950795602F8F2D0E94CB04BD
:100BF000CD2879F0C770D078DD2324F42197C86F11
:100C0000DF6F219691E001C0990FCA95EAF7C92FCD
:100C100001C0C0E0602F8F2D0E94CB048C2F0E945A
:100C20006E04DF91CF911F910F91FF90DF90CF90D5
:100C3000089582E080B911B884E486BF089584EEF7
:100C400086BF06B607FEFDCF089583B984EC86BF44
:100C500006B607FEFDCF089584EC86BF06B607FEF4
:100C6000FDCF83B1089584ED86BF0895CF93DF93C0
:100C7000C82F0E941F0686E50E9425068C2F0E9421
:100C800025060E9433060E941F0687E50E9425065E
:100C90000E942C06C82F0E942C06D0E0DC2FCC2707
:100CA000C82B0E943306CE01DF91CF9108958AE1CF
:100CB0000E943606089589E10E943606089588E16B
:100CC0000E94360608958C5E0E9436060895805F65
:100CD0000E9436060895885F0E9436060895825E57
:100CE0000E94360608958BE10E9436060895845FBF
:100CF0000E94360608951F93CF93DF93C82FD92FF4
:100D0000162F0E941F0686E50E942506812F0E944D
:100D100025068D2F0E9425068C2F0E9425060E94F5
:100D20003306DF91CF911F9108956AE181600E949F
:100D30007B060895CF93DF93EC018AE10E9436068B
:100D4000C115D04221F490620E94950603C09F7D98
:100D50000E949506DF91CF91089569E10E947B067C
:100D600008956BE1886092600E947B060895CF939E
:100D7000DF93EB0180E090E20E949A0683EC99E019
:100D80000197F1F700C000006CE0CE010E947B06E5
:100D900080E090E00E949A0687EA91E60197F1F7D9
:100DA00000C00000DF91CF910895CF93DF93EC0155
:100DB0000E94190680E090E20E949A0680E09CE181
:100DC0000E94950664E184E090E20E947B0668E060
:100DD00086ED94E00E947B0660E18AE090E00E944C
:100DE0007B0680E290E20E94AD0684E090E00E94E3
:100DF000B1066EE180E090E90E947B06CF3F8FEF65
:100E0000D80721F06CE0CE010E947B0680E090E0E4
:100E10000E949A06DF91CF91089587E28ABB8FEFF7
:100E200087BB87E084BB8AEF81BB1BBA18BA83E01B
:100E300085BB80E182BBAA9A83EC99E00197F1F728
:100E400000C00000AA9883EC99E00197F1F700C078
:100E5000000008958BB780648BBF85B7816085BF24
:100E6000789408959FE088E10FB6F894A89581BD25
:100E70000FBE91BD0895AF92BF92CF92DF92EF92D5
:100E8000FF920F931F93CF93DF935C016B017A0165
:100E9000E90160E080E10E94CB04C5010E944205A7
:100EA00067E088E00E94CB04C6010E94420567E02B
:100EB00082E30E94CB04C7010E94420567E086E4FA
:100EC0000E94CB04CE010E94420567E089E60E94A1
:100ED000CB04C8010E94420528E030E044E850E01D
:100EE00068E070E080E090E00E94A90326E330E033
:100EF00044E850E066E370E080E090E00E94A903DF
:100F0000DF91CF911F910F91FF90EF90DF90CF90E5
:100F1000BF90AF90089589B3807C80936900803C36
:100F200049F40E9495040E94E30480916702806264
:100F30000E9481040895EF92FF920F931F93CF9325
:100F4000DF9302E312E00F2EFEE5EF2EF2E0FF2E1C
:100F5000F02DC5E0D0E0CE010E943F19F801619369
:100F60007193819391938F012596EE15FF0599F763
:100F70008CE390E00E9437198093670286E490E04A
:100F80000E94451990936D0280936C02DF91CF917E
:100F90001F910F91FF90EF900895CF92DF92EF9203
:100FA000FF926B017C0123E333E343E750E40E94AB
:100FB000611588239CF020E030E048EA51E4C70145
:100FC000B6010E94B916882394F00F2EC12CD12CA3
:100FD000F8EAEF2EF1E4FF2EF02D09C00F2EF3E317
:100FE000CF2EDC2CF3E7EF2EF0E4FF2EF02D23E3E1
:100FF00033E343E750E4C701B6010E94F4142AE941
:1010000039E949E851E40E94661520E03FEF4FE7D7
:1010100057E40E94BE160E94D815CB010E94A4037B
:10102000FF90EF90DF90CF900895CF92DF92EF92F4
:10103000FF920E945F0683FF2AC080E00E9436066E
:10104000A0E0B0E07C01DD24CC2481E00E943606E3
:10105000AC0160E070E0D701C601842B952BA62B74
:10106000B72BAC01BD01442755276627707F452B60
:10107000462B472B61F4892F9A2FAB2FBB278093E8
:10108000840290938502A0938602B0938702809198
:101090001F028D7F31F5809187028F9380918602A8
:1010A0008F93809185028F93809184028F938AE63B
:1010B00090E09F938F9380E792E09F938F930E949D
:1010C000B61865E080E10E94CB0480E792E00E94C0
:1010D00042058DB79EB708960FB6F8949EBF0FBE17
:1010E0008DBF6091840270918502809186029091FB
:1010F0008702FF90EF90DF90CF9008954F925F921C
:101100006F927F928F929F92AF92BF92CF92DF9217
:10111000EF92FF920F931F93CF93DF9300D000D0F5
:10112000CDB7DEB76B017C01809132029091330222
:10113000A0913402B0913502C816D906EA06FB0622
:1011400080F4E6E3F2E001E081919191A191B19107
:10115000C816D906EA06FB0628F40F5F0B30A1F784
:1011600001C000E000936202602F70E080E090E038
:101170000E9407162B013C0120E030E040E85FE3CD
:101180000E94F41469837A838B839C8310E0F801B6
:10119000EE0FFF1FEE0FFF1FE25DFD4F60817181BB
:1011A000828193810E9407164B015C01C701B60141
:1011B0000E940716A50194010E94F4146B017C01A2
:1011C00029813A814B815C81C301B2010E94F414F0
:1011D0002B013C01000F111F000F111FF801EE5CE5
:1011E000FD4F60817181828193810E940716A50164
:1011F00094010E94F4149B01AC01C301B2010E944E
:1012000066159B01AC01C701B6010E94BE1629817B
:101210003A814B815C810E94F5140F900F900F90E2
:101220000F90DF91CF911F910F91FF90EF90DF9082
:10123000CF90BF90AF909F908F907F906F905F9076
:101240004F9008954F925F926F927F928F929F92EC
:10125000AF92BF92CF92DF92EF92FF920F931F93C4
:10126000CF93DF9300D000D0CDB7DEB72B013C0188
:1012700000916202602F70E080E090E00E9407160B
:101280004B015C0120E030E040E85FE30E94F41491
:101290002DEC3CEC4CEC5FE30E94BE1620E030E00D
:1012A00040E850E40E94F51469837A838B839C8321
:1012B00010E0F801EE0FFF1FEE0FFF1FE25DFD4F84
:1012C00060817181828193810E9407166B017C018C
:1012D000C301B2010E940716A70196010E94F414EF
:1012E0002B013C012DEC3CEC4CEC5FE3C501B4015F
:1012F0000E94BE1620E030E040E850E40E94F51461
:1013000029813A814B815C810E94F4144B015C017C
:10131000000F111F000F111FF801EE5CFD4F6081DF
:101320007181828193810E940716A70196010E9414
:10133000F4149B01AC01C501B4010E9466159B0128
:10134000AC01C301B2010E94BE1629813A814B81D2
:101350005C810E94F5146B017C0120E030E040E8E4
:1013600050E40E94611588239CF020E030E040EAC0
:1013700051E4C701B6010E94B91618167CF40F2E6D
:10138000C12CD12CF0EAEF2EF1E4FF2EF02D06C097
:10139000C12CD12C76016894E7F8F6F8C701B601A4
:1013A0000E94CD07C701B6010F900F900F900F90CC
:1013B000DF91CF911F910F91FF90EF90DF90CF9031
:1013C000BF90AF909F908F907F906F905F904F9065
:1013D0000895CF92DF92EF92FF9220E030E040E854
:1013E00050E40E94F41420E030E040E85DE30E9405
:1013F000BE1620E030E048EC52E40E94BE166B01BD
:101400007C0120E030E0A9010E94611588239CF056
:1014100020E030E048EC52E4C701B6010E94B91662
:10142000181664F40F2EC12CD12CF8ECEF2EF2E438
:10143000FF2EF02D03C0C12CD12C7601C701B601BF
:10144000FF90EF90DF90CF900895EF92FF920F936F
:101450001F93CF93DF93E62EF72ED82FC92F06E7E1
:1014600010E026EA30E0A9016DE171E08BE790E041
:101470000E943B0720911E0221111FC0CF93DF93D2
:10148000FF92EF928DE890E09F938F9380E792E038
:101490009F938F930E94B61864E08AE60E94CB0463
:1014A00083E990E00E9442058DB79EB708960FB67B
:1014B000F8949EBF0FBE8DBF7CC0213049F529EA4C
:1014C00033E140ED5CE36E2D7F2D8D2F9C2F0E942C
:1014D00066159F938F937F936F9388E990E09F9316
:1014E0008F9380E792E09F938F930E94B61864E0F9
:1014F0008AE60E94CB048EE990E00E9442058DB7F7
:101500009EB708960FB6F8949EBF0FBE8DBF51C010
:10151000223039F5809128028F93809127028F9392
:10152000809126028F93809125028F9388E990E025
:101530009F938F9380E792E09F938F930E94B618BA
:1015400064E08AE60E94CB0482EA90E00E944205B1
:101550008DB79EB708960FB6F8949EBF0FBE8DBF8D
:1015600028C0233031F5809161028F938091600211
:101570008F9380915F028F9380915E028F938DE8AD
:1015800090E09F938F9380E792E09F938F930E94C8
:10159000B61864E08AE60E94CB0487EA90E00E94D5
:1015A00042058DB79EB708960FB6F8949EBF0FBE42
:1015B0008DBF62E08CE00E94CB0480E792E00E9445
:1015C000D005DF91CF911F910F91FF90EF9008957B
:1015D0000F931F93CF93DF930CEA10E026EA30E0DD
:1015E00041EB50E0B90183EB90E00E943B0780E0C3
:1015F0000E9477069F938F9383EC90E09F938F9345
:10160000C0E7D2E0DF93CF930E94B61862E08CE08F
:101610000E94CB04CE010E944205809187028F93E5
:10162000809186028F93809185028F9380918402AE
:101630008F9384ED90E09F938F93DF93CF930E94DD
:10164000B61865E08CE00E94CB04CE010E944205F2
:101650008DB79EB70E960FB6F8949EBF0FBE8DBF86
:10166000DF91CF911F910F910895AF92BF92CF92CA
:10167000DF92EF92FF920F931F93CF9301EE10E052
:1016800026EE30E049EE50E06CEE70E081EF90E045
:101690000E943B0706E112E0CEE1C12CD12C0F2EB7
:1016A000F0E0AF2EF1E0BF2EF02D0F2EF0E7EF2E81
:1016B000F2E0FF2EF02DF801808191810E5F1F4F27
:1016C0009F938F93BF92AF92FF92EF920E94B618B2
:1016D0000F900F900F900F900F900F90809123021A
:1016E00090912402C816D90641F462E08C2F0E9422
:1016F000CB04C7010E94510507C062E08C2F0E94F5
:10170000CB04C7010E944205FFEFCF1ADF0ACC5E6F
:10171000CE3689F680E00E9477069F938F9383E010
:1017200091E09F938F9300E712E01F930F930E9425
:10173000B61863E08CE00E94CB04C8010E94420509
:10174000809187028F93809186028F93809185028A
:101750008F93809184028F9384ED90E09F938F9379
:101760001F930F930E94B61864E08CE00E94CB0494
:10177000C8010E9442058DB79EB70E960FB6F89429
:101780009EBF0FBE8DBFCF911F910F91FF90EF9025
:10179000DF90CF90BF90AF900895AF92BF92CF925D
:1017A000DF92FF920F931F93CF93DF9301EE10E030
:1017B00026EE30E045E151E06CEE70E088E191E02A
:1017C0000E943B070F2EF5E6AF2EF0E0BF2EF02D66
:1017D0000F2EFEE1FF2EF02DC0E0D0E00F2EF5E23F
:1017E000CF2EF1E0DF2EF02D00E712E0F501819120
:1017F0005F011F928F93DF92CF921F930F930E94EE
:10180000B6180F900F900F900F900F900F9080913F
:10181000230290912402C817D90741F463E08F2D69
:101820000E94CB04C8010E94510507C063E08F2DC0
:101830000E94CB04C8010E9442052196F4E1FF0EEC
:10184000C430D10599F6DF91CF911F910F91FF9090
:10185000DF90CF90BF90AF900895CF92DF92EF923C
:10186000FF920F931F93CF93DF9301EE10E026EECC
:1018700030E045E151E06CEE70E08AE291E00E94D8
:101880003B07C0E0D0E00F2EF5E2EF2EF1E0FF2E97
:10189000F02D00E712E00F2EF6E0CF2ED12CF02D28
:1018A000DF93CF93FF92EF921F930F930E94B6188E
:1018B0000F900F900F900F900F900F908091230238
:1018C00090912402C817D90791F4CE01B6010E9465
:1018D0002B176E5F880F982F990F990F990F890F0B
:1018E000805F0E94CB04C8010E94510512C0CE0146
:1018F000B6010E942B176E5F982F990F892F880FC2
:10190000880F880F890F805F0E94CB04C8010E9456
:1019100042052196CB30D10519F6DF91CF911F9169
:101920000F91FF90EF90DF90CF900895BF92CF92EC
:10193000DF92EF92FF920F931F93CF93DF938091EB
:1019400029028823F1F10E94570690938C0280931C
:101950008B0280E00E94630690936402809363028E
:1019600080E090E00E94670690936F0280936E0281
:1019700080E00E946B0690936602809365020E944D
:101980005B0690936902809368020E9473069093AD
:101990002F0280932E0280E00E946F069093310206
:1019A000809330020E945F0690938A02809389029E
:1019B00080E00E94770690936D0280936C021092F3
:1019C000290201EE10E026EA30E0A90167E371E0A8
:1019D0008EE391E00E943B0780916A0290916B0236
:1019E0008130910509F468C040F08230910509F416
:1019F000C8C0039709F4FAC03DC180918C028F934F
:101A000080918B028F9389E491E09F938F93C0E73D
:101A1000D2E0DF93CF930E94B61862E08CE00E9480
:101A2000CB04CE010E944205809164028F93809185
:101A300063028F9386E591E09F938F93DF93CF931B
:101A40000E94B61863E08CE00E94CB04CE010E9495
:101A5000420580916F028F9380916E028F9384E68E
:101A600091E09F938F93DF93CF930E94B61864E029
:101A70008CE00E94CB04CE010E9442058091660258
:101A80008F93809165028F9384E791E09F938F936A
:101A9000DF93CF930E94B61865E08CE00E94CB04E0
:101AA000CE010E9442058DB79EB748960FB6F894B6
:101AB0009EBF0FBE8DBFDEC0809169028F93809163
:101AC00068028F938FE791E09F938F93C0E7D2E0F6
:101AD000DF93CF930E94B61862E08CE00E94CB04A3
:101AE000CE010E94420580912F028F9380912E0299
:101AF0008F938FE891E09F938F93DF93CF930E9412
:101B0000B61863E08CE00E94CB04CE010E9442052F
:101B1000809131028F93809130028F9389E991E017
:101B20009F938F93DF93CF930E94B61864E08CE06D
:101B30000E94CB04CE010E944205809187028F93C0
:101B4000809186028F93809185028F938091840289
:101B50008F9386EA91E09F938F93DF93CF930E94B8
:101B6000B61865E08CE00E94CB04CE010E944205CD
:101B7000EDB7FEB77A960FB6F894FEBF0FBEEDBF75
:101B800079C080918A028F93809189028F9382EB32
:101B900091E09F938F93C0E7D2E0DF93CF930E94B1
:101BA000B61862E08CE00E94CB04CE010E94420590
:101BB00080916D028F9380916C028F938FEB91E0F7
:101BC0009F938F93DF93CF930E94B61863E08CE0CE
:101BD0000E94CB04CE010E9442058DB79EB70C96A1
:101BE0000FB6F8949EBF0FBE8DBF44C00F2EF2E318
:101BF000EF2EF2E0FF2EF02DD12C0CEC11E0C0E71F
:101C0000D2E00F2EFBEABF2EF02D0F2EF8E2CF2EE2
:101C1000F02DF70181919191A191B1917F01BB27A5
:101C2000BF93AF939F938F931F930F93DF93CF93A4
:101C30000E94B618DB9C912D1124969562E0690FE5
:101C4000892F880F980F8D2D891B8C9D802D112435
:101C5000865F0E94CB04CE010E944205D394EDB76B
:101C6000FEB738960FB6F894FEBF0FBEEDBFFBE08F
:101C7000DF12CFCFDF91CF911F910F91FF90EF90A7
:101C8000DF90CF90BF90089583B3E82FE295EF7077
:101C90008E2F90E0FC013797E830F10508F049C23B
:101CA000E65DFF4F0C943F1780911F02811106C023
:101CB00081E080931F020E94E304A7C0823009F0F4
:101CC00051C04091840250918502609186027091CA
:101CD0008702809123029091240201969C01220F99
:101CE000331F220F331F820F931F0E945C198091B4
:101CF00087028F93809186028F93809185028F93C4
:101D0000809184028F93809124028F93809123028B
:101D10008F9381ED91E09F938F9380E792E09F9363
:101D20008F930E94B61864E08CE00E94CB0480E799
:101D300092E00E94420580912302909124022DB7E7
:101D40003EB7265F3F4F0FB6F8943EBF0FBE2DBF84
:101D50008A30910508F059C001969093240280932F
:101D6000230253C0833031F481E0809329020E9422
:101D7000E3044BC0843009F048C0E6E1F2E0808122
:101D800060E070E0782F7295707F80E090E0928143
:101D9000682B792B8481958182959295907F9827E5
:101DA000807F9827862B972B66817781682B792BEC
:101DB00080E00E94B70680E00E94770690936D0253
:101DC00080936C02BC0186E490E00E9468198091C7
:101DD0006D028F9380916C028F9385EE91E09F93BB
:101DE0008F9380E792E09F938F930E94B61865E0EF
:101DF0008CE00E94CB0480E792E00E9442050F90A5
:101E00000F900F900F900F900F9083ED90E301973C
:101E1000F1F700C00000089580911F0281110DC0EC
:101E200080911E028F5F843018F480931E0202C0DE
:101E300010921E020E94E30437C0823039F41092DF
:101E40001F020E949B070E94E3042EC0813091F480
:101E500082E080931F0210922402109223020E94BB
:101E6000E30465E088E20E94CB0487EF91E00E94E2
:101E700042051AC0833049F410921F0210926B027F
:101E800010926A020E94E3040FC0853031F481E0B1
:101E900080931F020E94E30407C0843029F481E08C
:101EA00080931F020E94E30483ED90E30197F1F712
:101EB00000C00000089580911F02823069F4809173
:101EC000230290912402009709F46CC0019790932B
:101ED00024028093230266C0811117C0809167029B
:101EE0008F5F873018F48093670203C087E0809388
:101EF00067028091670280620E948104609167029C
:101F00008CE390E00E944B194DC0833081F48091A6
:101F10006A0290916B028330910508F043C00196EC
:101F200090936B0280936A020E94E3043BC081306D
:101F300051F484E080931F02109224021092230235
:101F40000E94E3042FC0853061F4809123029091B8
:101F50002402009739F10197909324028093230281
:101F600021C08430F9F48091230290912402FC0175
:101F7000EE0FFF1FEA5EFD4F208131812F303105CA
:101F800041F4880F991FFC01EA5EFD4F1182108217
:101F900009C0880F991FFC01EA5EFD4F2F5F3F4F7C
:101FA0003183208383ED90E30197F1F700C00000B7
:101FB000089580911F02823071F4809123029091E4
:101FC00024028A30910508F051C0019690932402B2
:101FD000809323024BC0811115C08091670281500C
:101FE00019F08093670202C0109267028091670225
:101FF00080620E948104609167028CE390E00E94FD
:102000004B1934C0833071F480916A0290916B0255
:10201000009761F1019790936B0280936A020E948E
:10202000E30424C0813011F1853069F480912302EA
:102030009091240283309105C8F401969093240274
:102040008093230213C0843089F4809123029091FD
:1020500024028330910529F4109224021092230265
:1020600005C00196909324028093230283ED90E3B0
:102070000197F1F700C00000089580911F028130A0
:1020800009F057C010926D0210926C02E6E1F2E086
:102090001182108213821282158214821782168294
:1020A00060E070E080E00E94B70660916C02709181
:1020B0006D0281E490E00E94681980916D028F9317
:1020C00080916C028F9382E092E09F938F9380E7E0
:1020D00092E09F938F930E94B61865E08CE00E9477
:1020E000CB0480E792E00E9442050F900F900F9082
:1020F0000F900F900F900895949883EC99E00197BA
:10210000F1F700C00000949A83EC99E00197F1F791
:1021100000C000000E9495040E94E30480916702C1
:1021200080620E948104089583E080931F020E94D0
:10213000E30408950E940D070E942A070E943207B7
:102140000E949B070E948B070E94910380916C0262
:1021500090916D020E94D50663E373E383E790E4F8
:102160000E94CD0710921F0280EC8093690081E0ED
:102170008093290280916C0290916D02E6E1F2E079
:10218000292F22952F7020831182292F33272F701A
:102190003327338322839C01329522952F70232786
:1021A0003F7023272F703327358324838F7099271F
:1021B0009783868310926B0210926A02A8950E9400
:1021C0001508609384027093850280938602909331
:1021D00087020E947E0860932A0270932B028093EC
:1021E0002C0290932D02609184027091850280915F
:1021F0008602909187020E94220960935E0270938A
:102200005F0280936002909361020E94E9096093EB
:1022100025027093260280932702909328028091D2
:102220006900803C59F680911F0281110BC06091BA
:102230002A0270912B0280912C0290912D020E9413
:10224000250A18C0813019F40E94E80A13C08230B0
:1022500019F40E942D0C0EC0833019F40E94960CC4
:1022600009C0843019F40E94350B04C0853011F484
:102270000E94CD0B0E94440EA1CF1F920F920FB669
:102280000F9211242F933F934F935F936F937F93FC
:102290008F939F93AF93BF93EF93FF930E945F063B
:1022A00093FF14C0AA9A83EC99E00197F1F700C05C
:1022B0000000AA9883EC99E00197F1F700C00000B4
:1022C00080916C0290916D020E94D5061ABEFF911A
:1022D000EF91BF91AF919F918F917F916F915F919E
:1022E0004F913F912F910F900FBE0F901F90189517
:1022F000A3E1B0E0EEE7F1E10C9445176C014B016E
:102300002A01FC0117821682838181FF43C3AE013B
:102310004F5F5F4F3A01F6019381F40193FD859180
:1023200093FF81914F01882309F430C3853239F43A
:1023300093FD859193FF81914F01853239F4B60168
:1023400090E00E947E1852012501E5CF10E0F12CAB
:1023500020E02032A0F48B3269F030F4803259F062
:10236000833269F420612CC08D3239F0803339F426
:10237000216026C02260246023C0286021C027FD80
:1023800027C030ED380F3A3078F426FF06C0FAE067
:102390001F9F300D1124132F13C04AE0F49E300DFF
:1023A0001124F32E20620CC08E3221F426FDEEC2E1
:1023B000206406C08C3611F4206802C0883641F4CF
:1023C000F40193FD859193FF81914F018111C1CF5C
:1023D0009BEB980F933018F42061805E06C09BE958
:1023E000980F933008F071C12F7E26FF16E02F73EF
:1023F000322E853619F42064322E08C0863621F438
:10240000F22FF0683F2E02C01111115037FE07C0A5
:102410001C3350F4EE24E394E10E27E00BC0183097
:1024200038F027E017E005C027E04CE3E42E02C0B7
:10243000212FE12C520144E0A40EB11CF201608175
:102440007181828193810E2DA3010E9490172C012E
:10245000098100FF02C003FF07C031FC08C032FE43
:1024600009C030E2232E07C02DE2222E04C09BE2D9
:10247000292E01C0212C802F8C7019F0211068C2E8
:10248000A8C237FE0FC0E40C04FF04C08A81813368
:1024900009F4EA941E1474F5F8E0FE1578F588E066
:1024A000E82E2CC036FC2AC0812F90E084159505BB
:1024B0009CF02CEF42162FEF520674F0432D40682B
:1024C000342E0AC0E2E0F0E0EC0FFD1FE10FF11D39
:1024D0008081803319F411501111F4CF37FE0EC0F2
:1024E000EE24E394E10E812F90E0481659062CF477
:1024F000141904C0EE24E39401C010E037FE06C0B6
:102500001414150434F4C201019605C085E090E06E
:1025100002C081E090E021100196112331F0212FBB
:1025200030E02F5F3F4F820F931F2F2D30E0821737
:10253000930714F4F81A01C0F12C832D897049F423
:10254000FF2039F0B60180E290E00E947E18FA94F4
:10255000F7CF222029F0B601822D90E00E947E184C
:1025600033FC09C0FF2039F0B60180E390E00E94FF
:102570007E18FA94F7CF37FE5AC0942D852D57FE5A
:1025800002C090E080E0292E382E20E030E0A20149
:102590004E1951095D874C87A201421953095F8783
:1025A0004E87612F70E044275527461B570B598BE8
:1025B000488B5FEF2516350649F4B6018EE290E0B0
:1025C0002A8B3B8B0E947E183B892A894214530434
:1025D0006CF04C855D854215530544F4EE85FF850E
:1025E000E20FF31FE60DF71D818101C080E351E08A
:1025F000251A31082F5F3F4F48895989241635061F
:102600004CF0B60190E02A8B3B8B0E947E182A8901
:102610003B89CFCF2414350439F49A81963318F4CA
:10262000953311F404FF81E3B60190E04BC08A8139
:10263000813309F00F7EB60190E00E947E181111DF
:1026400005C034FC18C085E690E017C0B6018EE2E4
:1026500090E00E947E1882E0EE24E394E80EF301FD
:10266000E80FF11D8081B60190E00E947E181150A4
:102670008E2D91F7E6CF85E490E0B6010E947E189A
:1026800057FC05C04114510439F404FF05C05194AE
:10269000419451088DE201C08BE2B60190E00E94A6
:1026A0007E1880E39AE0491651042CF08F5F5AE0BF
:1026B000451A5108F7CFB60190E00E947E18B60186
:1026C000C201C0960E947E1857C1833631F083370D
:1026D00079F0833509F058C021C05201E2E0AE0E16
:1026E000B11CF2018081898301E010E0230114C054
:1026F0005201F2E0AF0EB11CF2014080518026FF82
:1027000003C0612F70E002C06FEF7FEFC2012A8B20
:102710000E9473188C012A892F7715C05201F2E0AC
:10272000AF0EB11CF2014080518026FF03C0612F23
:1027300070E002C06FEF7FEFC2012A8B0E94681821
:102740008C012A892068322E23FD1AC08F2D90E03B
:1027500008171907A8F4B60180E290E00E947E18DD
:10276000FA94F4CFF20137FC859137FE81912F0165
:10277000B60190E00E947E18F110FA940150110900
:102780000115110579F7F8C0843611F0893659F52D
:10279000520127FF09C0F4E0AF0EB11CF2016081C5
:1027A0007181828193810AC0F2E0AF0EB11CF20107
:1027B00060817181072E000C880B990B2F76322EC9
:1027C00097FF09C090958095709561957F4F8F4FC9
:1027D0009F4F2068322E2AE030E0A3010E94D918D2
:1027E000E82EE6183FC0022F853721F40F7E2AE03D
:1027F00030E01DC0097F8F3691F018F4883559F00C
:10280000C5C0803719F0883711F0C0C0006104FFDF
:1028100009C0046007C024FF08C0066006C028E0A5
:1028200030E005C020E130E002C020E132E052019A
:1028300007FF09C0F4E0AF0EB11CF20160817181A5
:102840008281938108C0F2E0AF0EB11CF201608179
:10285000718180E090E0A3010E94D918E82EE6186B
:102860000F77302E36FE0BC0332D3E7FE11650F42D
:1028700034FE0AC032FC08C0332D3E7E05C00E2D4A
:10288000332D03C00E2D01C0012F34FF0CC0FE01FB
:10289000EE0DF11D8081803311F4397E08C032FFC6
:1028A00005C00E5F04C0832F867809F00F5F33FDEB
:1028B00013C030FF06C01E2D0F1518F41F0D101B7E
:1028C0000F2D0F1568F4B60180E290E03B8B0E945B
:1028D0007E180F5F3B89F5CF0F1510F4F01A01C079
:1028E000F12C34FF12C0B60180E390E03B8B0E94D4
:1028F0007E183B8932FF17C031FD03C088E790E0A6
:1029000002C088E590E0B6010CC0832F867859F0AC
:1029100031FF02C08BE201C080E237FD8DE2B601DB
:1029200090E00E947E18E11638F4B60180E390E052
:102930000E947E181150F7CFEA94F301EE0DF11DBD
:102940008081B60190E00E947E18E110F5CF14C09E
:10295000F4E0FF1558F584E0F81A33FE1EC021108C
:1029600026C003FF2AC004E610E0F32DF0713F2ECD
:10297000F8018491811124C0FF2009F4E5CCB6014F
:1029800080E290E00E947E18FA94F6CFF6018681EC
:10299000978126C08FEF9FEF23C0B60180E290E0C1
:1029A0000E947E18FA94F110F8CFD9CFF12CB6011D
:1029B000822D90E00E947E18D4CF08E610E0D5CF9B
:1029C00031108052B60190E00E947E180F5F1F4FB9
:1029D000CFCF23E02F1510F483E0BECFF12CC1CF71
:1029E0006396E2E10C9461175058BB27AA270E9416
:1029F0000C150C947F160E94711638F00E94781600
:102A000020F039F49F3F19F426F40C946E160EF45E
:102A1000E095E7FB0C946816E92F0E94901658F396
:102A2000BA17620773078407950720F079F4A6F5B3
:102A30000C94B2160EF4E0950B2EBA2FA02D0B01BC
:102A4000B90190010C01CA01A0011124FF27591BF3
:102A500099F0593F50F4503E68F11A16F040A22FF9
:102A6000232F342F4427585FF3CF4695379527956A
:102A7000A795F0405395C9F77EF41F16BA0B620B69
:102A8000730B840BBAF09150A1F0FF0FBB1F661FB0
:102A9000771F881FC2F70EC0BA0F621F731F841FF3
:102AA00048F4879577956795B795F7959E3F08F019
:102AB000B0CF9395880F08F09927EE0F97958795DB
:102AC00008950E94441608F481E008950E947A1542
:102AD0000C947F160E94781658F00E94711640F0F0
:102AE00029F45F3F29F00C94681651110C94B31629
:102AF0000C946E160E94901668F39923B1F3552337
:102B000091F3951B550BBB27AA2762177307840700
:102B100038F09F5F5F4F220F331F441FAA1FA9F396
:102B200035D00E2E3AF0E0E832D091505040E69584
:102B3000001CCAF72BD0FE2F29D0660F771F881FE5
:102B4000BB1F261737074807AB07B0E809F0BB0BD8
:102B5000802DBF01FF2793585F4F3AF09E3F5105EC
:102B600078F00C9468160C94B3165F3FE4F3983E2B
:102B7000D4F3869577956795B795F7959F5FC9F7D5
:102B8000880F911D9695879597F90895E1E0660F56
:102B9000771F881FBB1F621773078407BA0720F0CF
:102BA000621B730B840BBA0BEE1F88F7E095089538
:102BB0000E94981688F09F5798F0B92F9927B7511F
:102BC000B0F0E1F0660F771F881F991F1AF0BA95D1
:102BD000C9F714C0B13091F00E94B216B1E0089567
:102BE0000C94B216672F782F8827B85F39F0B93F59
:102BF000CCF3869577956795B395D9F73EF4909584
:102C00008095709561957F4F8F4F9F4F0895E89401
:102C100009C097FB3EF490958095709561957F4F24
:102C20008F4F9F4F9923A9F0F92F96E9BB279395D2
:102C3000F695879577956795B795F111F8CFFAF4E2
:102C4000BB0F11F460FF1BC06F5F7F4F8F4F9F4F13
:102C500016C0882311F096E911C0772321F09EE871
:102C6000872F762F05C0662371F096E8862F70E0D7
:102C700060E02AF09A95660F771F881FDAF7880FB1
:102C80009695879597F90895990F0008550FAA0B07
:102C9000E0E8FEEF16161706E807F907C0F012166F
:102CA0001306E407F50798F0621B730B840B950B72
:102CB00039F40A2661F0232B242B252B21F40895C7
:102CC0000A2609F4A140A6958FEF811D811D089564
:102CD00097F99F6780E870E060E008959FEF80ECCF
:102CE000089500240A941616170618060906089572
:102CF00000240A9412161306140605060895092ED8
:102D00000394000C11F4882352F0BB0F40F4BF2B46
:102D100011F460FF04C06F5F7F4F8F4F9F4F089586
:102D200057FD9058440F551F59F05F3F71F047957C
:102D3000880F97FB991F61F09F3F79F08795089561
:102D4000121613061406551FF2CF4695F1DF08C080
:102D5000161617061806991FF1CF8695710561059D
:102D600008940895E894BB2766277727CB0197F945
:102D700008950E94441608F48FEF08950E94D1161A
:102D80000C947F160E94711638F00E94781620F07D
:102D9000952311F00C9468160C946E1611240C9463
:102DA000B3160E94901670F3959FC1F3950F50E0F3
:102DB000551F629FF001729FBB27F00DB11D639FED
:102DC000AA27F00DB11DAA1F649F6627B00DA11D93
:102DD000661F829F2227B00DA11D621F739FB00D39
:102DE000A11D621F839FA00D611D221F749F3327A9
:102DF000A00D611D231F849F600D211D822F762F42
:102E00006A2F11249F5750409AF0F1F088234AF01E
:102E1000EE0FFF1FBB1F661F771F881F915050408A
:102E2000A9F79E3F510580F00C9468160C94B316D8
:102E30005F3FE4F3983ED4F3869577956795B79511
:102E4000F795E7959F5FC1F7FE2B880F911D96952B
:102E5000879597F9089597FB072E16F4009407D0ED
:102E600077FD09D00E947C1707FC05D03EF49095B1
:102E700081959F4F0895709561957F4F0895EE0F4E
:102E8000FF1F0590F491E02D09942F923F924F92ED
:102E90005F926F927F928F929F92AF92BF92CF92EA
:102EA000DF92EF92FF920F931F93CF93DF93CDB7F3
:102EB000DEB7CA1BDB0B0FB6F894DEBF0FBECDBF6B
:102EC00009942A88398848885F846E847D848C843C
:102ED0009B84AA84B984C884DF80EE80FD800C8145
:102EE0001B81AA81B981CE0FD11D0FB6F894DEBF28
:102EF0000FBECDBFED010895AA1BBB1B51E107C05A
:102F0000AA1FBB1FA617B70710F0A61BB70B881F79
:102F1000991F5A95A9F780959095BC01CD01089508
:102F2000283008F027E03327DA01990F311D87FD9B
:102F3000916000966105710539F432602E5F3D9312
:102F400030E32A95E1F708959F3F30F0803871050E
:102F5000610509F03C5F3C5F3D93913008F080686B
:102F6000911DDF93CF931F930F93FF92EF92192F31
:102F7000987F9695E92F96959695E90FFF27EA5346
:102F8000FF4F99273327EE24FF24A701E70105907F
:102F90000894079428F4360FE71EF81E491F511DA8
:102FA000660F771F881F991F0694A1F70590079455
:102FB00028F4E70EF81E491F561FC11D770F881F02
:102FC000991F661F0694A1F70590079428F4F80E40
:102FD000491F561FC71FD11D880F991F661F771FD6
:102FE0000694A1F70590079420F4490F561FC71FB8
:102FF000D81F990F661F771F881F0694A9F7849121
:103000001095177041F0D695C79557954795F79449
:10301000E7941A95C1F7ECE6F0E0689415901591E5
:1030200035916591959105907FE27395E118F10ACC
:10303000430B560BC90BD009C0F7E10CF11E431F1F
:10304000561FC91FD01D7EF4703311F48A95E6CF48
:10305000E894015030F0080F0AF40027021708F432
:10306000202F2395022F7A3328F079E37D932A9538
:10307000E9F710C07D932A9589F606949795679590
:10308000379517951794E118F10A430B560BC90BA6
:10309000D00998F023957E9173957A3308F070E308
:1030A0007C932013B8F77E9170617D9330F0839507
:1030B00071E37D9370E32A95E1F71124EF90FF907F
:1030C0000F911F91CF91DF91992787FD90950895DA
:1030D000FC010590615070400110D8F780959095E3
:1030E0008E0F9F1F0895FC016150704001900110E8
:1030F000D8F7809590958E0F9F1F08950F931F937B
:10310000CF93DF93FB01238121FD03C08FEF9FEF5E
:1031100028C022FF16C0468157812481358142177D
:10312000530744F4A081B1819D012F5F3F4F31834C
:1031300020838C93268137812F5F3F4F37832683EF
:1031400010C0EB01092F182F0084F185E02D09959F
:10315000892BE1F68E819F8101969F838E83812F3B
:10316000902FDF91CF911F910F910895AEE0B0E0C5
:10317000ECEBF8E10C9453170D891E8986E08C83E3
:103180001A8309838FEF9FE79E838D83AE01475E8D
:103190005F4F6F89788DCE0101960E9478112F8143
:1031A0003885F801E20FF31F10822E96E4E00C94AC
:1031B0006F17FA01AA27283051F1203181F1E894E4
:1031C0006F936E7F6E5F7F4F8F4F9F4FAF4FB1E01A
:1031D0003ED0B4E03CD0670F781F891F9A1FA11D15
:1031E000680F791F8A1F911DA11D6A0F711D811D16
:1031F000911DA11D20D009F468943F912AE0269FDB
:1032000011243019305D3193DEF6CF010895462F39
:103210004770405D4193B3E00FD0C9F7F6CF462F1A
:103220004F70405D4A3318F0495D31FD4052419383
:1032300002D0A9F7EACFB4E0A69597958795779540
:103240006795BA95C9F700976105710508959B01C7
:10325000AC010A2E06945795479537952795BA9550
:10326000C9F7620F731F841F951FA01D0895E19970
:10327000FECF9FBB8EBBE09A99278DB30895A6E140
:10328000B0E044E050E00C947019A8E1B0E042E0F6
:1032900050E00C947019262FE199FECF9FBB8EBB96
:1032A000E09A01970DB2021631F02DBB0FB6F894DB
:1032B000E29AE19A0FBE08950396272F0E944C19B7
:1032C0000E944B19252F0E944C19242F0C944C1945
:1032D0000196272F0E944C190C944B19DC01CB014D
:1032E000FC01E199FECF06C0FFBBEEBBE09A319630
:1032F0000DB20D9241505040B8F70895F894FFCFA9
:10330000030000000001040810C0444154413A2069
:103310002530386C5800554E495400494E445543A9
:10332000544956452053454E53494E470025342EA7
:10333000324600206D6D200025342E3146006D6927
:103340006C002025202000206D4120004E4558545F
:103350000031004F4646534554264741494E2053BD
:10336000455400312E204F4646534554203A2025DF
:103370003034780044415441203A202530386C588C
:103380000045584954002D3E0055500053415645C4
:10339000004F46465345542053455454494E470028
:1033A000257800435552204F4646534554203A2035
:1033B00025303458003C2D004741494E2053455498
:1033C00054494E4700253032640053455454494E09
:1033D00047204D4F4445005245524F4144004465FB
:1033E000627567204D6F646500434F4E4649473A0A
:1033F000202530345800444956494445523A202546
:1034000030345800534554544C45436E743A20258B
:103410003034580052436E743A20253034580045F9
:1034200052524F52436F6E663A2025303458004D49
:1034300055583A2025303458004944524956453AA7
:10344000202530345800665245513A202530386CDA
:1034500058005354415455533A2025303458004FA6
:1034600046465345543A20253034580025366C588A
:1034700000253032646D6D282530386C5829736111
:1034800076656421004F4646534554202530345814
:10349000205341564521004E6F6E652041637421D3
:1034A00021004F66667365742825303458292049F9
:0634B0004E49542100000A
:00000001FF
