:100000000C949B020C94E4110C94B8020C94B8026A
:100010000C94B8020C94B8020C94B8020C94B80278
:100020000C94B8020C94B8020C94B8020C94B80268
:100030000C94B8020C94B8020C94B8020C94B80258
:100040000C94B8020C94B8020C94B8020C94B80248
:100050000C94B802F10E35111D11D810FC0F3A1195
:100060007A10AD0F0000000000000000000000004A
:1000700000000000000000000000001C00001C0048
:10008000001C00001C00001C00001C00001C0000E4
:100090000000000000000000000000000000000060
:1000A000000000000000000000000000001F000031
:1000B0001F00001F00001F000000000000000000E3
:1000C0000000000000000000000000000000000030
:1000D0000000000000000000000000000000000020
:1000E00000000000800000E00000FC0080FF00E055
:1000F0001F00FC0380FF00E01F00FC0300FE000067
:100100001E000002000000000000000000000000CF
:1001100000000000000000000000FF01C0FF0FF021
:10012000FF1FF8FF3F78007C1C00700C00600C0083
:10013000600C00601C00707C003CF8FF3FF0FF1F6B
:10014000E0FF0F00FF0100000000000000000000C1
:10015000000000000000400000E00040600040306F
:100160000040300060F8FF7FFCFF7FFCFF7FFCFF5A
:100170007F000060000040000040000040000000E0
:100180000000000000000000000000000078006097
:1001900078007878007C3C007E0C007F0CC07B0CE3
:1001A000E0780C70781C3C78FC1F78F80F7CF8071E
:1001B0007EF0017E00000000000000000000000052
:1001C0000000000000000078003C78003C78007CD3
:1001D0003C00781C18700C18600C18600C1C600C2B
:1001E0003C601C7E70FCF73FF8F33FF8E31FF0C063
:1001F0000700000000000000000000000000008078
:100200000100E00100F00100BC01008E01808701C7
:10021000C08141F08061F8FF7FFCFF7FFCFF7FFC25
:10022000FF7F00806100804100C00100C00100002C
:10023000000000000000000000000000003CFC1F67
:100240003CFC3F7CFC1F783C18703C18603C1860FC
:100250003C18603C38603C78703CF83F3EF03F3ED4
:10026000E01F00C0070000000000000000000000C8
:10027000000000000000F80300FF0F80FF1FC0FF18
:100280003FE01B78F01870380C60180C601C0C6094
:100290000C0C700C3C780CFC3F00F83F00F01F0089
:1002A000E00700000000000000000000000000FC6B
:1002B0000000FC00007C00003C00603C00783C003A
:1002C0007E3C803F3CE00F3CF8033C7E00BC1F00BE
:1002D000FC0700FC01003C00000C000000000000D6
:1002E000000000000000000000E0830FF0C71FF8CE
:1002F000EF3FF8FF3F1C7E780C18700C18600C184C
:10030000600C18600C38601C7C78F8FF3FF8F73FF1
:10031000F0E71FE08107000000000000000000007F
:10032000C00F00F01F00F03F00F87F003C78601C19
:1003300060600C60600C60700C60381C303C3C30BD
:100340001FF8FF0FF0FF07E0FF03807F00000000B1
:10035000000000000000000000000000005F00003E
:100360000007000700147F147F14242A7F2A122319
:100370001308646236495522500005030000001C32
:100380002241000041221C00082A1C2A0808083EBD
:100390000808005030000008080808080030300045
:1003A0000020100804023E5149453E00427F4000B3
:1003B00042615149462141454B311814127F1027A3
:1003C000454545393C4A49493001710905033649DB
:1003D000494936064949291E00363600000056367E
:1003E00000000008142241141414141441221408AB
:1003F000000201510906324979413E7E1111117EF8
:100400007F494949363E414141227F4141221C7F7B
:10041000494949417F090901013E414151327F0863
:1004200008087F00417F41002040413F017F0814C0
:1004300022417F404040407F0204027F7F04081039
:100440007F3E4141413E7F090909063E4151215EFF
:100450007F09192946464949493101017F01013F78
:100460004040403F1F2040201F7F2018207F631402
:100470000814630304780403615149454300007F75
:100480004141020408102041417F000004020102A2
:10049000044040404040000102040020545454787D
:1004A0007F484444383844444420384444487F38E2
:1004B00054545418087E090102081454543C7F080F
:1004C00004047800447D40002040443D00007F103B
:1004D000284400417F40007C041804787C08040410
:1004E0007838444444387C14141408081414187CD4
:1004F0007C080404084854545420043F4440203CE1
:100500004040207C1C2040201C3C4030403C442883
:100510001028440C5050503C4464544C440008365D
:10052000410000007F0000004136080008082A1C36
:1005300008081C2A080811241FBECFE5D8E0DEBF3A
:10054000CDBF12E0A0E6B0E0EAEFFEE202C0059007
:100550000D92A631B107D9F722E0A6E1B2E001C0C1
:100560001D92AD38B207E1F70E943B110C947B1746
:100570000C9400006F927F928F929F92AF92BF92E5
:10058000CF92DF92EF92FF920F931F93CF93DF935F
:10059000782E662E842E922E222309F1EE24FF243B
:1005A000A82EBB24062F10E0C501840F911D6C01FD
:1005B0000894C108D108E701C00FD11FC501BE01D1
:1005C00041E050E00E948706C601BE0141E050E0D4
:1005D0000E9487060894E11CF11CE91460F388204E
:1005E000F9F000E010E0A72CBB24C62CDD24760136
:1005F000E90CF11C0894E108F108E801CA0DDB1DC3
:10060000CE01B60141E050E00E948706CE01B7015D
:1006100041E050E00E9487060F5F1F4F081568F306
:10062000DF91CF911F910F91FF90EF90DF90CF90CE
:10063000BF90AF909F908F907F906F9008952F9272
:100640003F924F925F926F927F928F929F92AF9262
:10065000BF92CF92DF92EF92FF920F931F93CF93AF
:10066000DF9300D000D0CDB7DEB7E42EFF242224E4
:1006700033242E183F08220C331C0894211C311CF3
:10068000CC24DD2421E030E03A83298300E010E02F
:10069000682E7724462E552443018E0C9F1CC801DA
:1006A000840D951D9C838B83C4016B817C8141E00B
:1006B00050E00E9487065301AE18BF08C5016B8148
:1006C0007C8141E050E00E948706F201E01BF10BC3
:1006D000FC83EB83C501BF0141E050E00E94870627
:1006E000C4016B817C8141E050E00E948706430198
:1006F000800E911E9701240D351D3C832B83C40170
:10070000B90141E050E00E9487065301A01AB10AE6
:10071000C5016B817C8141E050E00E948706C201E7
:100720008E199F099C838B83C5016B817C8141E07D
:1007300050E00E948706C4016B817C8141E050E05B
:100740000E9487060F5F1F4FE981FA81CE0EDF1EE0
:100750003296FA83E983C601880F991F820D931D93
:10076000181619064CF40894E108F108C20CD31CC1
:1007700022E030E0220E331EE016F1060CF08CCFA2
:100780000F900F900F900F90DF91CF911F910F91CD
:10079000FF90EF90DF90CF90BF90AF909F908F90A1
:1007A0007F906F905F904F903F902F9008952F9281
:1007B0003F924F925F926F927F928F929F92AF92F1
:1007C000BF92CF92DF92EF92FF920F931F93CF933E
:1007D000DF9300D000D0CDB7DEB79C838B838B0135
:1007E0005A0149017A01E81AF90A6901C61AD70AB9
:1007F0002701440C551C3601660C771CFF206CF455
:10080000F094E194F108F394509441945108539476
:100810008FEF9FEF9A83898304C0E1E0F0E0FA83D1
:10082000E983DD2064F4D094C194D108D39470940A
:1008300061947108739422242A94322C03C02224D8
:10084000332423948B819C81B80141E050E00E94C5
:100850008706E114F10419F4C114D104C9F1EC14B0
:10086000FD04E4F068018B809C8000E010E0898149
:100870009A81880E991E060D171DE016F10624F4C4
:10088000C20CD31C04191509C401B60141E050E0A3
:100890000E948706A814B90451F71AC0EB80FC80A7
:1008A000AA24BB24020D131DA40CB51CCA14DB041E
:1008B00034F4E981FA81EE0EFF1EA618B708C701CD
:1008C000B80141E050E00E9487068016910651F77A
:1008D0000F900F900F900F90DF91CF911F910F917C
:1008E000FF90EF90DF90CF90BF90AF909F908F9050
:1008F0007F906F905F904F903F902F900895D89881
:10090000DA98D998A1E6B0E024E630E068E050E05B
:1009100014C0DA98D99A4C91442314F4DA9A01C09D
:10092000DA98D9984081440F40830197009789F75E
:10093000DA981196A217B30721F0862F952FFD01A3
:10094000E8CFD89A8AE08A95F1F7DD9800C000C018
:100950000000DD9A089580E190E060E070E0D99AAF
:100960000000D998CB996160660F771F01970097B7
:10097000B1F780E090E00895809361007093620089
:10098000609363000E947F040895806880936100F3
:100990001092620010926300D8980E947F04D89A47
:1009A00000C000C00000D8980E94AB04D89A0895F7
:1009B000D89ADD9A60E871E182E00E94BC0482E08E
:1009C0000E94C50421E0603871418105910509F05C
:1009D00020E0822F0895BC0181E00E94BC040895AC
:1009E000939883E08A95F1F70000949A89EF90E05C
:1009F0000197F1F700C00000949889EF90E001970B
:100A0000F1F700C00000949A89EF90E00197F1F7A8
:100A100000C00000939A959A089593980000959AC3
:100A2000000028E030E09698882314F4979A01C0DB
:100A30009798969A880F215031092115310599F719
:100A4000939A0895939800009598000028E030E06C
:100A50009698882314F4979A01C09798969A880FCD
:100A6000215031092115310599F7959A939A0895E6
:100A70000E94F00482EE0E94220581EA0E94220573
:100A800082EA0E94220580EC0E9422058FE20E94E9
:100A9000220587EA91E60197F1F700C0000084EA99
:100AA0000E94220581E80E94220580E20E94220520
:100AB00083E20E9422058FEA0E94220586EA0E94B4
:100AC000220580EB0E94220580E10E94220580E041
:100AD0000E94220580E40E9422050895CF93DF93AF
:100AE000C82FD62F609321028093200282958F70A9
:100AF00080610E9422058C2F8F700E9422058D2F0D
:100B0000806B0E942205DF91CF9108951F93CF93B0
:100B1000DF93D0E014E86D2F80E00E946E05C12FB6
:100B200080E00E940D05C150D9F7DF5FD83099F7FA
:100B3000DF91CF911F9108950F931F93CF93DF9370
:100B4000082F10E000521109C801880F991F880F63
:100B5000991F080F191FC0E0D0E00A5A1C4FF80176
:100B6000EC0FFD1F84910E940D052196C530D10523
:100B7000B1F780E00E940D05DF91CF911F910F9199
:100B800008950F931F93CF93DF93082F10E0005227
:100B90001109C801880F991F880F991F080F191F85
:100BA000C0E0D0E00A5A1C4FF801EC0FFD1F849101
:100BB00080950E940D052196C530D105A9F780E0EA
:100BC0000E940D05DF91CF911F910F910895CF9352
:100BD000DF93EC018881882331F021960E949C05E7
:100BE00089918111FBCFDF91CF910895CF93DF934E
:100BF000EC018881882331F021960E94C1058991FA
:100C00008111FBCFDF91CF910895BF92CF92DF92F8
:100C1000EF92FF920F931F93CF93DF93F82E0091E3
:100C20002102E0902002282F30E02D5231098AE382
:100C3000829FE001839FD00D1124CB59DF4F0F2EEF
:100C4000F3E1DF2EF02DDE0C1E2DBB24B394B00E8D
:100C50006894CC24C1F8C00E602F812F0E946E05CD
:100C600080E2F81212C080E00E940D056B2D812FEA
:100C70000E946E0580E00E940D056C2D812F0E9460
:100C80006E0580E00E940D0516C0FE0184910E9451
:100C90000D056B2D812F0E946E05FE01319684910A
:100CA0000E940D056C2D812F0E946E05FE0132966B
:100CB00084910E940D051F5F23961D11CDCF80E00A
:100CC0000E940D05FEE2FF1205C00F2EFEE0DF2E92
:100CD000F02DDE0C602F8D2D0E946E05DF91CF91DF
:100CE0001F910F91FF90EF90DF90CF90BF900895EC
:100CF000CF93DF93EC018881882331F021960E9405
:100D0000050689918111FBCFDF91CF910895DF9284
:100D1000EF92FF920F931F93CF93DF93D82EEB01A7
:100D20007A018B01DD2314F4095F1F4F1595079598
:100D30001595079515950795602F8D2D0E946E05C9
:100D4000EF2879F0C770D078DD2324F42197C86F9D
:100D5000DF6F219681E001C0880FCA95EAF7C82F9E
:100D600001C0C0E0602F8D2D0E946E058C2F0E9467
:100D70000D05DF91CF911F910F91FF90EF90DF90C4
:100D8000089582E080B911B884E486BF089584EEA6
:100D900086BF06B607FEFDCF089583B984EC86BFF3
:100DA00006B607FEFDCF089584EC86BF06B607FEA3
:100DB000FDCF83B1089584ED86BF0895CF93DF936F
:100DC000C82F0E94C70686E50E94CD068C2F0E9480
:100DD000CD060E94DB060E94C70687E50E94CD066D
:100DE0000E94D406C82F0E94D406D0E0DC2FCC2766
:100DF000C82B0E94DB06CE01DF91CF9108958AE1D6
:100E00000E94DE06089589E10E94DE06089588E1C9
:100E10000E94DE0608958C5E0E94DE060895805FC3
:100E20000E94DE060895885F0E94DE060895825EB5
:100E30000E94DE0608958BE10E94DE060895845F1D
:100E40000E94DE0608951F93CF93DF93C82FD92FFA
:100E5000162F0E94C70686E50E94CD06812F0E94AC
:100E6000CD068D2F0E94CD068C2F0E94CD060E94AC
:100E7000DB06DF91CF911F9108956AE181600E94A6
:100E800023070895CF93DF93EC018AE10E94DE06E9
:100E9000C115D04221F490620E943D0703C09F7D9E
:100EA0000E943D07DF91CF91089569E10E942307D9
:100EB00008956BE1886092600E9423070895CF93A4
:100EC000DF93EB0180E090E20E94420783EC99E01F
:100ED0000197F1F700C000006CE0CE010E942307EB
:100EE00080E090E00E94420787EA91E60197F1F7DF
:100EF00000C00000DF91CF910895CF93DF93EC0104
:100F00000E94C10680E090E20E94420780E09CE1DE
:100F10000E943D0764E184E090E20E94230768E0BC
:100F200086ED94E00E94230760E18AE090E00E9451
:100F3000230780E290E20E94550784E090E00E943F
:100F400059076EE180E090E90E942307CF3F8FEFC1
:100F5000D80721F06CE0CE010E94230780E090E0EA
:100F60000E944207DF91CF91089587E28ABB8FEFFD
:100F700087BB87E084BB8AEF81BB1BBA18BA83E0CA
:100F800085BB80E182BBAA9A83EC99E00197F1F7D7
:100F900000C00000AA9883EC99E00197F1F700C027
:100FA000000008958BB780648BBF85B7816085BFD3
:100FB000789408952FE088E190E00FB6F894A89512
:100FC00081BD0FBE21BD0895AF92BF92CF92DF9237
:100FD000EF92FF920F931F93CF93DF935C016B010E
:100FE0007A01E90160E080E10E946E05C5010E947E
:100FF000E70567E088E00E946E05C6010E94E705EC
:1010000067E082E30E946E05C7010E94E70567E082
:1010100086E40E946E05CE010E94E70567E089E63E
:101020000E946E05C8010E94E70528E030E044E810
:1010300050E068E070E080E090E00E94D70326E393
:1010400030E044E850E066E370E080E090E00E9429
:10105000D703DF91CF911F910F91FF90EF90DF9019
:10106000CF90BF90AF90089589B3807C8093690042
:10107000803C49F40E9438050E94860580916702F1
:1010800080620E94220508950F931F93CF93DF93F0
:1010900002E312E0C5E0D0E0CE010E945F16F80145
:1010A00061937193819391938F012596CC33D105F0
:1010B00099F78CE390E00E9457168093670286E4CC
:1010C00090E00E94651690936D0280936C02DF9110
:1010D000CF911F910F910895CF92DF92EF92FF92DF
:1010E0006B017C0123E333E343E750E40E94841265
:1010F00088235CF020E030E048EA51E4C701B60103
:101100000E94CE1388235CF412C00F2EF3E3CF2E7F
:10111000DC2CF3E7EF2EF0E4FF2EF02D08C00F2EAD
:10112000C12CD12CF8EAEF2EF1E4FF2EF02D23E3B1
:1011300033E343E750E4C701B6010E941F122AE9D6
:1011400039E949E851E40E94881220E03FEF4FE777
:1011500057E40E94D2130E94F012CB010E94EB04CC
:10116000FF90EF90DF90CF900895CF92DF92EF92B3
:10117000FF920E94070783FF28C080E00E94DE06DE
:101180006C01E12CF12C7601DD24CC2481E00E945D
:10119000DE06A0E0B0E08C299D29AE29BF29AC0174
:1011A000BD01442755276627707F452B462B472BCB
:1011B00061F4892F9A2FAB2FBB27809384029093E1
:1011C0008502A0938602B093870280911F028D7FD3
:1011D00031F5809187028F93809186028F93809161
:1011E00085028F93809184028F938AE690E09F938B
:1011F0008F9380E792E09F938F930E94631465E042
:1012000080E10E946E0580E792E00E94E7058DB7BD
:101210009EB708960FB6F8949EBF0FBE8DBF609123
:101220008402709185028091860290918702FF90DE
:10123000EF90DF90CF9008954F925F926F927F92E0
:101240008F929F92AF92BF92CF92DF92EF92FF92D6
:101250000F931F93CF93DF9300D000D0CDB7DEB7AD
:101260006B017C018091320290913302A091340293
:10127000B0913502C816D906EA06FB0680F4E6E30B
:10128000F2E001E081919191A191B191C816D90646
:10129000EA06FB0628F40F5F0B30A1F701C000E05F
:1012A00000936202602F70E080E090E00E941C13C7
:1012B0002B013C0120E030E040E85FE30E941F1278
:1012C00069837A838B839C8310E0F801EE0FFF1F04
:1012D000EE0FFF1FE25DFD4F60817181828193817E
:1012E0000E941C134B015C01C701B6010E941C1334
:1012F000A50194010E941F126B017C0129813A8192
:101300004B815C81C301B2010E941F122B013C0181
:10131000000F111F000F111FF801EE5CFD4F6081DF
:101320007181828193810E941C13A50194010E9406
:101330001F129B01AC01C301B2010E9488129B01E4
:10134000AC01C701B6010E94D21329813A814B81B9
:101350005C810E9420120F900F900F900F90DF91F0
:10136000CF911F910F91FF90EF90DF90CF90BF90A2
:10137000AF909F908F907F906F905F904F90089567
:101380004F925F926F927F928F929F92AF92BF9295
:10139000CF92DF92EF92FF920F931F93CF93DF9341
:1013A00000D000D0CDB7DEB72B013C010091620226
:1013B000602F70E080E090E00E941C134B015C0104
:1013C00020E030E040E85FE30E941F122DEC3CEC8F
:1013D0004CEC5FE30E94D21320E030E040E850E4A0
:1013E0000E94201269837A838B839C8310E0F8012A
:1013F000EE0FFF1FEE0FFF1FE25DFD4F6081718159
:10140000828193810E941C136B017C01C301B20194
:101410000E941C13A70196010E941F122B013C0180
:101420002DEC3CEC4CEC5FE3C501B4010E94D213FF
:1014300020E030E040E850E40E94201229813A8107
:101440004B815C810E941F124B015C01000F111F38
:10145000000F111FF801EE5CFD4F608171818281E8
:1014600093810E941C13A70196010E941F129B01E9
:10147000AC01C501B4010E9488129B01AC01C301FB
:10148000B2010E94D21329813A814B815C810E9472
:1014900020126B017C0120E030E040E850E40E9423
:1014A000841288235CF020E030E040EA51E4C70178
:1014B000B6010E94CE13181644F00FC0C12CD12CD7
:1014C00076016894E7F8F6F808C00F2EC12CD12CED
:1014D000F0EAEF2EF1E4FF2EF02DC701B6010E94D5
:1014E0006C08C701B6010F900F900F900F90DF911D
:1014F000CF911F910F91FF90EF90DF90CF90BF9011
:10150000AF909F908F907F906F905F904F900895D5
:10151000CF92DF92EF92FF9220E030E040E850E47B
:101520000E941F1220E030E040E85DE30E94D213E9
:1015300020E030E048EC52E40E94D2136B017C01C1
:1015400020E030E0A9010E94841288235CF020E0B2
:1015500030E048EC52E4C701B6010E94CE131816E1
:101560002CF00CC0C12CD12C760108C00F2EC12C40
:10157000D12CF8ECEF2EF2E4FF2EF02DC701B601CE
:10158000FF90EF90DF90CF900895EF92FF920F932E
:101590001F93CF93DF93E62EF72ED82FC92F06E7A0
:1015A00010E026EA30E0A9016DE171E08BE790E000
:1015B0000E94E40720911E0221111FC0CF93DF93E8
:1015C000FF92EF928DE890E09F938F9380E792E0F7
:1015D0009F938F930E94631464E08AE60E946E05D5
:1015E00083E990E00E94E7058DB79EB708960FB695
:1015F000F8949EBF0FBE8DBF7CC0213049F529EA0B
:1016000033E140ED5CE36E2D7F2D8D2F9C2F0E94EA
:1016100088129F938F937F936F9388E990E09F93B5
:101620008F9380E792E09F938F930E94631464E00E
:101630008AE60E946E058EE990E00E94E7058DB76C
:101640009EB708960FB6F8949EBF0FBE8DBF51C0CF
:10165000223039F5809128028F93809127028F9351
:10166000809126028F93809125028F9388E990E0E4
:101670009F938F9380E792E09F938F930E946314D0
:1016800064E08AE60E946E0582EA90E00E94E70527
:101690008DB79EB708960FB6F8949EBF0FBE8DBF4C
:1016A00028C0233031F5809161028F9380916002D0
:1016B0008F9380915F028F9380915E028F938DE86C
:1016C00090E09F938F9380E792E09F938F930E9487
:1016D000631464E08AE60E946E0587EA90E00E9447
:1016E000E7058DB79EB708960FB6F8949EBF0FBE5C
:1016F0008DBF62E08CE00E946E0580E792E00E9460
:101700007806DF91CF911F910F91FF90EF90089590
:101710000F931F93CF93DF930CEA10E026EA30E09B
:1017200041EB50E0B90183EB90E00E94E40780E0D8
:101730000E941F079F938F9383EC90E09F938F935A
:10174000C0E7D2E0DF93CF930E94631462E08CE0A5
:101750000E946E05CE010E94E705809187028F935B
:10176000809186028F93809185028F93809184026D
:101770008F9384ED90E09F938F93DF93CF930E949C
:10178000631465E08CE00E946E05CE010E94E705BF
:101790008DB79EB70E960FB6F8949EBF0FBE8DBF45
:1017A000DF91CF911F910F910895BF92CF92DF9259
:1017B000EF92FF920F931F93CF93DF9301EE10E010
:1017C00026EE30E049EE50E06CEE70E081EF90E004
:1017D0000E94E407C6E1D2E00F2EFEE1BF2EF02DFD
:1017E000E12CF12C0F2EF0E0CF2EF1E0DF2EF02DCA
:1017F00000E712E08881998122969F938F93DF9270
:10180000CF921F930F930E9463140F900F900F902D
:101810000F900F900F902091230230912402E21636
:10182000F30641F462E08B2D0E946E05C8010E9410
:10183000F60507C062E08B2D0E946E05C8010E946C
:10184000E7058FEFE81AF80A94E1B90E8EE6B812B0
:10185000D1CF80E00E941F079F938F9383E091E098
:101860009F938F93C0E7D2E0DF93CF930E946314DE
:1018700063E08CE00E946E05CE010E94E705809136
:1018800087028F93809186028F93809185028F9338
:10189000809184028F9384ED90E09F938F93DF93E8
:1018A000CF930E94631464E08CE00E946E05CE0129
:1018B0000E94E7058DB79EB70E960FB6F8949EBFAF
:1018C0000FBE8DBFDF91CF911F910F91FF90EF90D1
:1018D000DF90CF90BF900895BF92CF92DF92EF92AA
:1018E000FF920F931F93CF93DF9301EE10E026EE4C
:1018F00030E045E151E06CEE70E088E191E00E945B
:10190000E4070F2EF5E6CF2EF0E0DF2EF02D0F2EA0
:10191000FEE1BF2EF02D00E010E00F2EF5E2EF2EDD
:10192000F1E0FF2EF02DC0E7D2E0F60181916F01CA
:101930001F928F93FF92EF92DF93CF930E946314D5
:101940000F900F900F900F900F900F902091230207
:10195000309124020217130741F463E08B2D0E949B
:101960006E05CE010E94F60507C063E08B2D0E9434
:101970006E05CE010E94E7050F5F1F4FE4E1BE0E2A
:10198000FEE6BF12D2CFDF91CF911F910F91FF9052
:10199000EF90DF90CF90BF900895CF92DF92EF92BB
:1019A000FF920F931F93CF93DF9301EE10E026EE8B
:1019B00030E045E151E06CEE70E08AE291E00E9497
:1019C000E407C0E0D0E00F2EF5E2EF2EF1E0FF2EAD
:1019D000F02D00E712E00F2EF6E0CF2ED12CF02DE7
:1019E000DF93CF93FF92EF921F930F930E946314A4
:1019F0000F900F900F900F900F900F9080912302F7
:101A000090912402C817D90791F4CE01B6010E9423
:101A100035146E5F880F982F990F990F990F890FC2
:101A2000805F0E946E05C8010E94F60511C0CE01BC
:101A3000B6010E9435146E5F880F982F990F990F89
:101A4000990F890F805F0E946E05C8010E94E7050B
:101A50002196CB30D10521F6DF91CF911F910F91C7
:101A6000FF90EF90DF90CF900895BF92CF92DF92DA
:101A7000EF92FF920F931F93CF93DF9380912902F0
:101A80008823F1F10E94FF0690938C0280938B02D1
:101A900080E00E940B07909364028093630280E0D1
:101AA00090E00E940F0790936F0280936E0280E097
:101AB0000E94130790936602809365020E940307B9
:101AC00090936902809368020E941B0790932F02F3
:101AD00080932E0280E00E9417079093310280933A
:101AE00030020E94070790938A028093890280E067
:101AF0000E941F0790936D0280936C02109229023E
:101B000001EE10E026EA30E0A90167E371E08EE320
:101B100091E00E94E40780916A0290916B0281300B
:101B2000910509F468C040F08230910509F4C8C0FD
:101B3000039709F4FAC03DC180918C028F93809184
:101B40008B028F9389E491E09F938F93C0E7D2E05B
:101B5000DF93CF930E94631462E08CE00E946E05D5
:101B6000CE010E94E705809164028F938091630209
:101B70008F9386E591E09F938F93DF93CF930E949D
:101B8000631463E08CE00E946E05CE010E94E705BD
:101B900080916F028F9380916E028F9384E691E023
:101BA0009F938F93DF93CF930E94631464E08CE044
:101BB0000E946E05CE010E94E705809166028F9318
:101BC000809165028F9384E791E09F938F93DF93D9
:101BD000CF930E94631465E08CE00E946E05CE01F5
:101BE0000E94E7058DB79EB748960FB6F8949EBF42
:101BF0000FBE8DBFDEC0809169028F938091680215
:101C00008F938FE791E09F938F93C0E7D2E0DF93AC
:101C1000CF930E94631462E08CE00E946E05CE01B7
:101C20000E94E70580912F028F9380912E028F935F
:101C30008FE891E09F938F93DF93CF930E9463147B
:101C400063E08CE00E946E05CE010E94E705809162
:101C500031028F93809130028F9389E991E09F93B5
:101C60008F93DF93CF930E94631464E08CE00E9413
:101C70006E05CE010E94E705809187028F938091C7
:101C800086028F93809185028F93809184028F9337
:101C900086EA91E09F938F93DF93CF930E94631422
:101CA00065E08CE00E946E05CE010E94E705EDB76D
:101CB000FEB77A960FB6F894FEBF0FBEEDBF79C09F
:101CC00080918A028F93809189028F9382EB91E0B9
:101CD0009F938F93C0E7D2E0DF93CF930E9463146A
:101CE00062E08CE00E946E05CE010E94E7058091C3
:101CF0006D028F9380916C028F938FEB91E09F9395
:101D00008F93DF93CF930E94631463E08CE00E9473
:101D10006E05CE010E94E7058DB79EB70C960FB6F3
:101D2000F8949EBF0FBE8DBF44C00F2EF2E3EF2E7E
:101D3000F2E0FF2EF02DD12C0CEC11E0C0E7D2E048
:101D40000F2EFBEABF2EF02D0F2EF8E2CF2EF02D36
:101D5000F70141915191619171917F0177277F93B3
:101D60006F935F934F931F930F93DF93CF930E94D3
:101D70006314DB9C812D1124869562E0680F982FF7
:101D8000990F890F9D2D981B9C9D802D1124865F96
:101D90000E946E05CE010E94E705D394EDB7FEB711
:101DA00038960FB6F894FEBF0FBEEDBFFBE0DF1212
:101DB000CFCFDF91CF911F910F91FF90EF90DF90E8
:101DC000CF90BF90089583B382958F7090E0FC010F
:101DD0003797E830F10508F04DC2E65DFF4F0C94EF
:101DE000491480911F02811106C081E080931F0277
:101DF0000E948605ABC0823009F051C04091840238
:101E00005091850260918602709187028091230231
:101E10009091240201969C01220F331F220F331F41
:101E2000820F931F0E947C16809187028F9380916E
:101E300086028F93809185028F93809184028F9385
:101E4000809124028F93809123028F9381ED91E002
:101E50009F938F9380E792E09F938F930E946314E8
:101E600064E08CE00E946E0580E792E00E94E70546
:101E700080912302909124022DB73EB7265F3F4FF9
:101E80000FB6F8943EBF0FBE2DBF8A30910508F003
:101E90005DC00196909324028093230257C0833043
:101EA00031F481E0809329020E9486054FC084307E
:101EB00009F04CC08091160220E030E0382F3295B6
:101EC000307F80E090E090911802B901682B792B67
:101ED00040911A0250911B0242955295507F54270F
:101EE000407F5427642B752B40911C0250911D029A
:101EF000642B752B0E945F0780E00E941F07909360
:101F00006D0280936C02BC0186E490E00E9488160A
:101F100080916D028F9380916C028F9385EE91E09A
:101F20009F938F9380E792E09F938F930E94631417
:101F300065E08CE00E946E0580E792E00E94E70574
:101F40000F900F900F900F900F900F9083ED90E3F4
:101F50000197F1F700C00000089580911F028111E0
:101F60000DC080911E028F5F843018F480931E0292
:101F700002C010921E020E94860537C0823039F4DA
:101F800010921F020E9444080E9486052EC08130D4
:101F900091F482E080931F02109224021092230297
:101FA0000E94860565E088E20E946E0587EF91E059
:101FB0000E94E7051AC0833049F410921F02109264
:101FC0006B0210926A020E9486050FC0853031F4C0
:101FD00081E080931F020E94860507C0843029F4A7
:101FE00081E080931F020E94860583ED90E30197B4
:101FF000F1F700C00000089580911F02823069F45B
:102000008091230290912402009709F46CC00197FB
:10201000909324028093230266C0811117C080919F
:1020200067028F5F873018F48093670203C087E0F0
:10203000809367028091670280620E94220560910E
:1020400067028CE390E00E946B164DC0833081F4F0
:1020500080916A0290916B028330910508F043C031
:10206000019690936B0280936A020E9486053BC0A2
:10207000813051F484E080931F0210922402109268
:1020800023020E9486052FC0853061F480912302CF
:1020900090912402009739F1019790932402809344
:1020A000230221C08430F9F480912302909124020C
:1020B000FC01EE0FFF1FEA5EFD4F208131812F30C2
:1020C000310541F4FC01EE0FFF1FEA5EFD4F118266
:1020D000108209C0FC01EE0FFF1FEA5EFD4F2F5F6B
:1020E0003F4F3183208383ED90E30197F1F700C0E8
:1020F0000000089580911F02823071F480912302C4
:10210000909124028A30910508F04BC0019690937B
:1021100024028093230245C081110FC08091670281
:1021200081508093670280620E942205609167025D
:102130008CE390E00E946B1634C0833071F4809180
:102140006A0290916B02009761F1019790936B0284
:1021500080936A020E94860524C0813011F1853087
:1021600069F4809123029091240283309105C8F490
:102170000196909324028093230213C0843089F443
:1021800080912302909124028330910529F41092CA
:1021900024021092230205C001969093240280939A
:1021A000230283ED90E30197F1F700C0000008954A
:1021B00080911F02813009F05DC010926D02109273
:1021C0006C021092170210921602109219021092CD
:1021D000180210921B0210921A0210921D02109205
:1021E0001C0260E070E080E00E945F0760916C027A
:1021F00070916D0281E490E00E94881680916D02DA
:102200008F9380916C028F9382E092E09F938F93E3
:1022100080E792E09F938F930E94631465E08CE0C7
:102220000E946E0580E792E00E94E7050F900F90F4
:102230000F900F900F900F900895949883EC99E071
:102240000197F1F700C00000949A83EC99E00197A0
:10225000F1F700C000000E9438050E9486058091B9
:10226000670280620E942205089583E080931F0226
:102270000E94860508950E94B5070E94D2070E9419
:10228000DA070E9444080E9434080E94D804809112
:102290006C0290916D020E947D0763E373E383E714
:1022A00090E40E946C0810921F0280EC80936900F9
:1022B00081E08093290280916C0290916D02292F18
:1022C00022952F702093160210921702292F332780
:1022D0002F70332730931902209318029C013295F6
:1022E00022952F7023273F7023272F703327309399
:1022F0001B0220931A028F70992790931D028093DE
:102300001C0210926B0210926A02A8950E94B508F6
:102310006093840270938502809386029093870273
:102320000E941C0960932A0270932B0280932C0256
:1023300090932D02609184027091850280918602B3
:10234000909187020E94C00960935E0270935F02C1
:1023500080936002909361020E94880A6093250234
:10236000709326028093270290932802809169003F
:10237000803C59F680911F0281110BC060912A02A6
:1023800070912B0280912C0290912D020E94C50A1F
:1023900018C0813019F40E94880B13C0823019F4E0
:1023A0000E94CD0C0EC0833019F40E94350D09C077
:1023B000843019F40E94D50B04C0853011F40E94BA
:1023C0006C0C0E94E30EA1CF1F920F920FB60F92DA
:1023D00011242F933F934F935F936F937F938F932A
:1023E0009F93AF93BF93EF93FF930E94070793FFD1
:1023F00014C0AA9A83EC99E00197F1F700C000009D
:10240000AA9883EC99E00197F1F700C00000809151
:102410006C0290916D020E947D071ABEFF91EF91B0
:10242000BF91AF919F918F917F916F915F914F91EC
:102430003F912F910F900FBE0F901F9018955058FD
:10244000BB27AA270ED070C161D130F066D120F031
:1024500031F49F3F11F41EF456C10EF4E095E7FBF2
:102460004CC1E92F72D180F3BA1762077307840752
:10247000950718F071F49EF58AC10EF4E0950B2EC5
:10248000BA2FA02D0B01B90190010C01CA01A001C6
:102490001124FF27591B99F0593F50F4503E68F121
:1024A0001A16F040A22F232F342F4427585FF3CF62
:1024B000469537952795A795F0405395C9F77EF433
:1024C0001F16BA0B620B730B840BBAF09150A1F07C
:1024D000FF0FBB1F661F771F881FC2F70EC0BA0F02
:1024E000621F731F841F48F4879577956795B7958A
:1024F000F7959E3F08F0B3CF9395880F08F0992782
:10250000EE0F979587950895D4D008F481E008954B
:102510000CD00AC102D140F0F9D030F021F45F3F75
:1025200019F0EBC0511134C1EEC00FD198F39923CB
:10253000C9F35523B1F3951B550BBB27AA27621787
:102540007307840738F09F5F5F4F220F331F441FCC
:10255000AA1FA9F333D00E2E3AF0E0E830D0915004
:102560005040E695001CCAF729D0FE2F27D0660FF1
:10257000771F881FBB1F261737074807AB07B0E830
:1025800009F0BB0B802DBF01FF2793585F4F2AF046
:102590009E3F510568F0B1C0FBC05F3FECF3983E31
:1025A000DCF3869577956795B795F7959F5FC9F7A3
:1025B000880F911D9695879597F90895E1E0660F2C
:1025C000771F881FBB1F621773078407BA0720F0A5
:1025D000621B730B840BBA0BEE1F88F7E09508950E
:1025E000BCD088F09F5790F0B92F9927B751A0F031
:1025F000D1F0660F771F881F991F1AF0BA95C9F797
:1026000012C0B13081F0C3D0B1E00895C0C0672FCF
:10261000782F8827B85F39F0B93FCCF38695779546
:102620006795B395D9F73EF490958095709561952F
:102630007F4F8F4F9F4F0895E89409C097FB3EF45A
:1026400090958095709561957F4F8F4F9F4F9923FF
:10265000A9F0F92F96E9BB279395F695879577957D
:102660006795B795F111F8CFFAF4BB0F11F460FF3D
:102670001BC06F5F7F4F8F4F9F4F16C0882311F095
:1026800096E911C0772321F09EE8872F762F05C0A9
:10269000662371F096E8862F70E060E02AF09A9544
:1026A000660F771F881FDAF7880F9695879597F939
:1026B0000895990F0008550FAA0BE0E8FEEF1616D3
:1026C0001706E807F907C0F012161306E407F50726
:1026D00098F0621B730B840B950B39F40A2661F09A
:1026E000232B242B252B21F408950A2609F4A1403D
:1026F000A6958FEF811D811D089597F99F6780E84A
:1027000070E060E008959FEF80EC089500240A9443
:102710001616170618060906089500240A941216BC
:102720001306140605060895092E0394000C11F4EF
:10273000882352F0BB0F40F4BF2B11F460FF04C09C
:102740006F5F7F4F8F4F9F4F089557FD9058440FF5
:10275000551F59F05F3F71F04795880F97FB991F00
:1027600061F09F3F79F087950895121613061406BD
:10277000551FF2CF4695F1DF08C01616170618064A
:10278000991FF1CF86957105610508940895E89425
:10279000BB2766277727CB0197F908958ADF08F4CE
:1027A0008FEF08950BD0C0CFB1DF28F0B6DF18F05F
:1027B000952309F0A2CFA7CF1124EACFC6DFA0F35B
:1027C000959FD1F3950F50E0551F629FF001729FC6
:1027D000BB27F00DB11D639FAA27F00DB11DAA1FE5
:1027E000649F6627B00DA11D661F829F2227B00D32
:1027F000A11D621F739FB00DA11D621F839FA00DBD
:10280000611D221F749F3327A00D611D231F849F0C
:10281000600D211D822F762F6A2F11249F57504063
:102820008AF0E1F088234AF0EE0FFF1FBB1F661FFE
:10283000771F881F91505040A9F79E3F510570F0B7
:102840005CCFA6CF5F3FECF3983EDCF3869577959F
:102850006795B795F795E7959F5FC1F7FE2B880FB2
:10286000911D9695879597F9089597FB072E16F475
:10287000009407D077FD09D00E944F1407FC05D0C3
:102880003EF4909581959F4F0895709561957F4F87
:102890000895EE0FFF1F0590F491E02D0994AA1BF7
:1028A000BB1B51E107C0AA1FBB1FA617B70710F03B
:1028B000A61BB70B881F991F5A95A9F7809590956D
:1028C000BC01CD010895AEE0B0E0E9E6F4E10C947E
:1028D00052170D891E8986E08C831A8309838FEF36
:1028E0009FE79E838D83AE01475E5F4F6F89788D32
:1028F000CE0101960E948514EF81F885E00FF11F4B
:1029000010822E96E4E00C946E17ACE0B0E0EBE899
:10291000F4E10C9444177C016B018A01FC011782DD
:102920001682838181FFBDC1CE0101964C01F70162
:102930009381F60193FD859193FF81916F01882327
:1029400009F4ABC1853239F493FD859193FF8191F0
:102950006F01853229F4B70190E00E94A416E7CFF9
:10296000512C312C20E02032A0F48B3269F030F46D
:10297000803259F0833269F420612CC08D3239F0F5
:10298000803339F4216026C02260246023C028608F
:1029900021C027FD27C030ED380F3A3078F426FFEC
:1029A00006C0FAE05F9E300D1124532E13C08AE05A
:1029B000389E300D1124332E20620CC08E3221F44B
:1029C00026FD6BC1206406C08C3611F4206802C05D
:1029D000883641F4F60193FD859193FF81916F0153
:1029E0008111C1CF982F9F7D9554933028F40C5FAF
:1029F0001F4FFFE3F9830DC0833631F0833771F049
:102A0000833509F05BC022C0F801808189830E5FA5
:102A10001F4F44244394512C540115C03801F2E057
:102A20006F0E711CF801A080B18026FF03C0652DD8
:102A300070E002C06FEF7FEFC5012C870E949916EE
:102A40002C0183012C852F77222E17C03801F2E04C
:102A50006F0E711CF801A080B18026FF03C0652DA8
:102A600070E002C06FEF7FEFC5012C870E948E16C9
:102A70002C012C852068222E830123FC1BC0832D72
:102A800090E048165906B0F4B70180E290E00E9449
:102A9000A4163A94F4CFF50127FC859127FE819185
:102AA0005F01B70190E00E94A41631103A94F1E062
:102AB0004F1A51084114510471F7E5C0843611F0E2
:102AC000893639F5F80127FF07C06081718182815D
:102AD00093810C5F1F4F08C060817181882777FD4B
:102AE0008095982F0E5F1F4F2F76B22E97FF09C04B
:102AF00090958095709561957F4F8F4F9F4F20687F
:102B0000B22E2AE030E0A4010E94D616A82EA81802
:102B100044C0853729F42F7EB22E2AE030E025C04C
:102B2000F22FF97FBF2E8F36C1F018F4883579F077
:102B3000B4C0803719F0883721F0AFC02F2F206143
:102B4000B22EB4FE0DC08B2D8460B82E09C024FFB8
:102B50000AC09F2F9660B92E06C028E030E005C05D
:102B600020E130E002C020E132E0F801B7FE07C00A
:102B700060817181828193810C5F1F4F06C06081EB
:102B8000718180E090E00E5F1F4FA4010E94D61675
:102B9000A82EA818FB2DFF77BF2EB6FE0BC02B2D3D
:102BA0002E7FA51450F4B4FE0AC0B2FC08C02B2D31
:102BB0002E7E05C07A2C2B2D03C07A2C01C0752CDB
:102BC00024FF0DC0FE01EA0DF11D8081803311F458
:102BD000297E09C022FF06C07394739404C0822F1B
:102BE000867809F0739423FD13C020FF06C05A2C89
:102BF000731418F4530C5718732C731468F4B7013A
:102C000080E290E02C870E94A41673942C85F5CF67
:102C1000731410F4371801C0312C24FF12C0B7010F
:102C200080E390E02C870E94A4162C8522FF17C019
:102C300021FF03C088E590E002C088E790E0B7017B
:102C40000CC0822F867859F021FD02C080E201C0BD
:102C50008BE227FD8DE2B70190E00E94A416A51437
:102C600038F4B70180E390E00E94A4165A94F7CF9D
:102C7000AA94F401EA0DF11D8081B70190E00E9451
:102C8000A416A110F5CF332009F451CEB70180E28C
:102C900090E00E94A4163A94F6CFF70186819781BE
:102CA00002C08FEF9FEF2C96E2E10C946017E19940
:102CB000FECF9FBB8EBBE09A99278DB30895A6E106
:102CC000B0E044E050E00C943617A8E1B0E042E0F8
:102CD00050E00C943617262FE199FECF9FBB8EBB98
:102CE000E09A01970DB2021631F02DBB0FB6F894A1
:102CF000E29AE19A0FBE08950396272F0E946C1660
:102D00000E946B16252F0E946C16242F0C946C16B3
:102D10000196272F0E946C160C946B16FC010590EF
:102D2000615070400110D8F7809590958E0F9F1FCD
:102D30000895FC016150704001900110D8F7809512
:102D400090958E0F9F1F08950F931F93CF93DF933E
:102D5000182F092FEB018B8181FD03C08FEF9FEFAF
:102D600020C082FF10C04E815F812C813D814217BF
:102D700053077CF4E881F9819F012F5F3F4F39832E
:102D80002883108306C0E885F985812F0995892B52
:102D900029F72E813F812F5F3F4F3F832E83812F65
:102DA000902FDF91CF911F910F910895FA01AA27DB
:102DB000283051F1203181F1E8946F936E7F6E5F7E
:102DC0007F4F8F4F9F4FAF4FB1E03ED0B4E03CD02C
:102DD000670F781F891F9A1FA11D680F791F8A1F0F
:102DE000911DA11D6A0F711D811D911DA11D20D076
:102DF00009F468943F912AE0269F11243019305D30
:102E00003193DEF6CF010895462F4770405D419320
:102E1000B3E00FD0C9F7F6CF462F4F70405D4A336D
:102E200018F0495D31FD4052419302D0A9F7EACF35
:102E3000B4E0A6959795879577956795BA95C9F764
:102E400000976105710508959B01AC010A2E069457
:102E50005795479537952795BA95C9F7620F731F10
:102E6000841F951FA01D0895DC01CB01FC01E19991
:102E7000FECF06C0FFBBEEBBE09A31960DB20D92BD
:102E800041505040B8F708952F923F924F925F9271
:102E90006F927F928F929F92AF92BF92CF92DF926A
:102EA000EF92FF920F931F93CF93DF93CDB7DEB7CF
:102EB000CA1BDB0B0FB6F894DEBF0FBECDBF099463
:102EC0002A88398848885F846E847D848C849B84BA
:102ED000AA84B984C884DF80EE80FD800C811B81C8
:102EE000AA81B981CE0FD11D0FB6F894DEBF0FBEF7
:0A2EF000CDBFED010895F894FFCF67
:102EFA00030000000001040810C0444154413A2074
:102F0A002530386C5800554E495400494E445543B3
:102F1A00544956452053454E53494E470025352EB0
:102F2A00324600206D6D200025352E3146006D6930
:102F3A006C002025202000206D4120004E45585469
:102F4A000031004F4646534554264741494E2053C7
:102F5A00455400312E204F4646534554203A2025E9
:102F6A003034780044415441203A202530386C5896
:102F7A000045584954002D3E0055500053415645CE
:102F8A00004F46465345542053455454494E470032
:102F9A00257800435552204F4646534554203A203F
:102FAA0025303458003C2D004741494E20534554A2
:102FBA0054494E4700253032640053455454494E13
:102FCA0047204D4F4445005245524F414400446505
:102FDA00627567204D6F646500434F4E4649473A14
:102FEA00202530345800444956494445523A202550
:102FFA0030345800534554544C45436E743A202596
:10300A003034580052436E743A2025303458004503
:10301A0052524F52436F6E663A2025303458004D53
:10302A0055583A2025303458004944524956453AB1
:10303A00202530345800665245513A202530386CE4
:10304A0058005354415455533A2025303458004FB0
:10305A0046465345543A20253034580025366C5894
:10306A0000253032646D6D282530386C582973611B
:10307A0076656421004F464653455420253034581E
:10308A00205341564521004E6F6E652041637421DD
:10309A0021004F6666736574282530345829204903
:0630AA004E495421000014
:00000001FF
