:10000000F8040020253A0000A13A0000A13A0000BF
:10001000A13A0000A13A0000A13A0000000000004F
:10002000000000000000000000000000A13A0000F5
:10003000A13A000000000000A13A0000A13A00002F
:10004000A13A0000A13A0000A13A0000A13A000044
:10005000A13A0000A13A0000A13A0000A13A000034
:10006000A13A0000A13A00000000000009200000B1
:10007000A13A0000A13A0000A13A0000A13A000014
:10008000A13A0000A13A0000A13A0000A13A000004
:10009000A13A0000BB220000A13A0000A13A0000F2
:1000A000A13A0000A13A0000A13A0000A13A0000E4
:1000B000A13A0000A13A0000A13A0000A13A0000D4
:1000C000A13A0000A13A0000A13A0000A13A0000C4
:1000D000A13A0000A13A0000A13A0000000000008F
:1000E0002DE9F04FA1B08046002017461D46029131
:1000F0000B900DF1440A6FF000490AE017F8011B5C
:100100000298C0470028029000F0A1820B98401C82
:100110000B90387808B90B989BE22528EED1002087
:10012000059006900790089009900A9001E040F031
:10013000010017F8011F2029F9D023290DD02B2900
:1001400004D02D2906D030290AD00CE040F002005E
:1001500080B2EEE740F00400FAE740F00800F7E76D
:1001600040F01000F4E72A290ED12968296051F8DF
:10017000042B2960002A0D9204D5514240F004005E
:100180000D9180B27F1C11E000210D9109E00D99C5
:10019000494505D001EB810302EB430130390D9154
:1001A0007F1C3A78A2F130010A29F0D339782E2940
:1001B00003D04FF0FF310C911DE017F8011F2A29E1
:1001C00007D1296829607F1C51F8042B29600C9203
:1001D00011E000210C9109E00C99494505D001EB93
:1001E000810302EB430130390C917F1C3A78A2F174
:1001F00030010A29F0D3ADF838000FF6C420397861
:1002000000F070FD08B117F8010B8DF83A009DF869
:100210003A00682802BF39786829622005D06C2826
:1002200004BF38786C2803D171208DF83A007F1C08
:1002300011A8049017F8014BB4F1250023D0203801
:10024000022840F2BB80133800F0E0800B3800F049
:100250004A81401E00F02381401E022840F2AE80F9
:10026000001F00F01C81401F79D0401E00F0CE809E
:10027000401E24D0C01E0BD0801E00F0C780C01EC0
:1002800000F0C48039E125208DF8440001203DE1D3
:100290002868286050F8046B286003960C9C002C9A
:1002A00004D5304600F02AFD044606E0224600212F
:1002B000304600F03FFD00B1841B069427E1296819
:1002C00029603C2451F8040B29600021CDE900018C
:1002D00011A80390DDE90001049E11B908B90C9A38
:1002E000B2B10206120FA0EB02123032D2B2631E7C
:1002F0003A2AA8BF273200099A5540EA0170090935
:1003000008BF00281C4603D0039AA3199A42E8D3D9
:10031000A0190390C4F13C010C980691814209DABE
:10032000401A08904FF6EF71BDF838000840ADF85C
:100330003800ECE0002840F1EA809DF8380000F039
:100340001400102840F0E3800D98059A801A089A4E
:10035000801A441A012CC0F2DA800894D7E09DF884
:100360003A0062281AD0682806D06A280CD06C2877
:100370001CD0712808D019E02868286050F8041BA8
:1003800028600B980880C2E02868286050F8042B89
:1003900028600B98C117C2E90001B8E028682860FE
:1003A00050F8041B28600B980870B0E0286828609B
:1003B00050F8041B28600B980860A8E02868C01D4E
:1003C00020F007022A60D2E9000108322A60CDE954
:1003D0000001002902D505982D210AE0BDF838005A
:1003E000810702D505982B2103E0C00705D50598A4
:1003F000202100F80A10401C059011A80599081842
:1004000003902146684600F0E1F980E09DF83A004B
:100410006C280DD0712818BF6A2809D12868C01D22
:1004200020F007022A60D2E9000108322A6005E0C4
:100430002968296051F8040B29600021CDE90001E9
:100440009DF83A00682803D1DDE9000180B20BE095
:10045000622803D1DDE90001C0B205E0742818BFAD
:100460007A2804D1DDE900010021CDE900019DF8E1
:10047000380000072ED5DDE90001002908BF00285B
:1004800028D044F02000782824D10598302100F8A5
:100490000A10401C411C059100F80A401AE09DF822
:1004A0003A00294600F0D8F8CDE90001002902DA27
:1004B00005982D210AE0BDF83800810702D505987E
:1004C0002B2103E0C00705D50598202100F80A106C
:1004D000401C059011A8059908180390214668460C
:1004E00000F0F1F813E0012005902868286050F82A
:1004F000041B28608DF8441009E025208DF8440085
:10050000012005901CB18AF80140022005900D9849
:100510000599401A0899401A0699401A0999401AF3
:100520000799401A0A99441A9DF83800400710D4D8
:100530002020012C8DF840000BDB2646012310AA59
:100540006946404600F0A5FB002840F08080761EFA
:10055000F4D1DDF814B0BBF1000F11AE0CD016F8D9
:10056000011B0298C0470028029070D00B98401CD5
:10057000BBF1010B0B90F2D130208DF84000089EAA
:10058000012E09DB012310AA6946404600F081FBD9
:1005900000285CD1761EF5D1DDF818B0039EBBF1C2
:1005A000000F0CD016F8011B0298C04700280290DB
:1005B0004DD00B98401CBBF1010B0B90F2D13020B9
:1005C0008DF84000099E012E09DB012310AA69461F
:1005D000404600F05EFB002839D1761EF5D1039825
:1005E0000699DDF81CB00E18BBF1000F0BD016F801
:1005F000011B0298C047029048B30B98401CBBF106
:10060000010B0B90F3D130208DF840000A9E012E93
:1006100008DB012310AA6946404600F03AFBB0B956
:10062000761EF6D19DF8380040077FF572AD202088
:10063000012C8DF84000FFF66CAD012310AA69462D
:10064000404600F026FB10B9641EF6D161E54FF07C
:10065000FF3021B0BDE8F08F622826D068281DD079
:100660006A2808D06C2827D0712804D0742823D099
:100670007A280CD020E00868C01D20F00700086030
:10068000D0E90023083008601946104670470A6810
:100690000A6052F8040B0A60002170470A680A6079
:1006A00052F8040B0A6000B20BE00A680A6052F8C4
:1006B000040B0A6040B204E00A680A6052F8040BB6
:1006C0000A60C11770472DE9FA4E05460A462F69A0
:1006D0006F2A08BF082405D041F02000782814BFF5
:1006E0000A2410243C26D5E90001642A18BF692A8F
:1006F00081468A4605D1002903DAD9F100096AEB5F
:100700004A0ABAF1000F08BFB9F1000F0CD1286BEB
:1007100050B9082C36D195F83800000732D5302072
:100720003B2687F83B002DE0E3174846514622461A
:1007300000F02CFBA4FB0023A9EB02023032D2B262
:10074000A6F1010B3A2A5E4603DB9DF80030513BCF
:100750009A180BF8072081465FEA010A08BFB9F131
:10076000000F03D0E868F1198842DDD3082C09D1C5
:1007700095F83800000705D5F05D302802D0761EC8
:100780003020F055C6F13C00A861F119E960296BF1
:10079000884208DA081A28624FF6EF71288F08405D
:1007A0002887BDE8F38E00290ED595F8381001F0A2
:1007B0001401102908D1696B6A69891A2A6A891A91
:1007C0000E1A012EA8BF2E62BDE8F38E2DE9F34F5D
:1007D0008BB0D0E90089006B002801AF48BF06202C
:1007E00005D404BF41F02000672802D101200B99F5
:1007F000086340F2FF720B984168C1F30A509042BF
:1008000020D1080302BF0B98006800280AD10B9979
:10081000032088619DF8300061381A2858D30FF200
:10082000B44109E00B99032088619DF830006138DC
:100830001A284AD30FF294410B98C068032200F0A3
:100840001DFB00E1012807DA0B9800F052FB01289C
:1008500002DB00230026EDE00B9ADFF854B152686A
:1008600040F2FE3161F31E520B994A6040F2FE31B4
:10087000461A404649460022002300F05BFB38BF81
:1008800089F0004936B247F297507043494990FBCE
:10089000F1F636B2C6F10707012F92461BDBF807C7
:1008A00007D552465B464046494600F05BFB804612
:1008B00089465046594652465B467F1000F052FB2F
:1008C000002F82468B46EAD126E00FF2FC31B3E7D7
:1008D0000FF2FC31B0E77F420024374D12E0F807F9
:1008E00007D552465B462046294600F03BFB0446AE
:1008F0000D465046594652465B4600F033FB7F108A
:1009000082468B46002FEAD14046494622462B4676
:1009100000F0FAFB804689469DF83000DFF89CB075
:1009200040F02005662D0CBF06F10A0006200B9949
:10093000096B4718142FA8BF132730208DF8040027
:100940000DF10504012F3BDB4046494600F008FD50
:10095000014604F1080204234FF00A0CB1FBFCFC31
:100960000CEB8C04A1EB4401303102F8011C0A218C
:10097000BCFBF1FE0EEB8E04ACEB440430345B1E8A
:10098000714602F8024DE7D1083F012F02F1080439
:10099000D8DB00F0FBFC02460B464046494600F01F
:1009A00003FD00225B4600F0DDFA80468946CBE776
:1009B00000002440A08601000000F03F84D797414A
:1009C0000DF10500201A0DF1050702E0401E761E0C
:1009D0007F1C39783029F9D0662D02D136B2711CCE
:1009E00003E0652D0CBF012100210B9A126B8B18BF
:1009F0001BB29842B8BF03461BB219001AD48142F9
:100A000004DAC85D3528A8BF392000DA3020CA19B9
:100A1000521E00E05B1E12F80149491E8442F9D0C3
:100A2000392802D1C85D401CC855002902D57F1E57
:100A30005B1C761C36B29DF830100B9800961BB2EA
:100A40003A4600F003F80DB0BDE8F08F2DE9F04311
:100A5000054685B01E46D5F83080012E89461746DA
:100A600002DA01260FF2702749F02000BDF930406C
:100A7000662808BF641C15D0672840F0938014F1E5
:100A8000040F7CDB44457ADA95F83800641C0007D3
:100A900002D44645B8BFB04624B2B8EB040848BFFC
:100AA0004FF0000824B2E868A969012C25DA4A1C35
:100AB00030230B54B8F1010F03DA95F83810090709
:100AC00002D52E211154521CAA6118EB040FB8BF95
:100AD000C8F1000424B26142A0446962B045B8BFC5
:100AE0004646AB6936B2EE6132463946181800F018
:100AF000C5F9A8EB0600A862B4E00818A64218DA07
:100B00003246394600F0BAF9A9697118A01BB8F14C
:100B1000010FA961686203DA95F83800000705D56E
:100B2000EA682E208854E869401CE861C5F82880EE
:100B300098E02246394600F0A1F9A8692018361B32
:100B4000B8F1010F03DA95F83810090703D5EA6800
:100B50002E218154401C36B2A861B045B8BF46462C
:100B6000E868AB6936B23246E119181800F086F928
:100B7000A8693018A861A8EB0600686272E04645D3
:100B800004DA95F83810090758BFB046B8F10108E3
:100B900048BF4FF00008B9F1670F0CBF4FF065096F
:100BA0004FF04509A969E8684A1CAA61B8F1010F2C
:100BB00017F8013B0B5403DA95F83810090717D5DD
:100BC000531CAB612E211154B8F1010F10DB761EBE
:100BD00036B2B045B8BF464636B232463946181826
:100BE00000F04CF9A8693018A861A8EB060068620B
:100BF000E868A9690918200081F8009003D42B2027
:100C000048708F1C03E02D224A708F1C644200261E
:100C10000DF1080808E00A22684600F085FC0198FA
:100C200008F8010B761C009C21B20129F3DA022E90
:100C300006DA49F02000652804BF302007F8010BD0
:100C40004EB9302007F8010B07E0761E02A8305C91
:100C5000303007F8010B012EF7DAE868A9690818A7
:100C6000381AE86195F8380000F0140010280DD10A
:100C70006869A9690818696A0818E9690818A96AF9
:100C80000818696B8842BCBF081A286205B0BDE825
:100C9000F083F8B504460D4616461F46002077B18E
:100CA00016F8011BA868A047A86030B1E86A401C8C
:100CB000E86200207F1EF3D1F2BD4FF0FF30F2BD9D
:100CC000686A6C747A4C00006E616E004E414E0092
:100CD000696E6600494E460030000268531C03608E
:100CE000117070470278C9B28A421AB11CBF10F85D
:100CF000012FF9E718BF00207047010000F1010340
:100D0000810704D010F8011B89B18107FAD102686C
:100D1000B2F10131914311F0803F04BF50F8042F2C
:100D2000F6E710F8011B11B110F8011BFBE7C01A20
:100D300070470000C9B2830706D0521E22D310F8B4
:100D4000013B9942F7D11FE0083A13D302F10402A4
:100D500041EA012141EA014150F8043B121F21BF41
:100D60004B40A3F1013C2CEA030C1CF0803FF3D074
:100D7000C9B2001F083210F8013B521E28BF91EA89
:100D8000030FF8D818BF0120401E70471B4213D133
:100D9000094236D12AB18446B0FBF2F002FB10C200
:100DA000704700F0C9BBFCD30022002370470B0042
:100DB0000200002100207047904271EB030CF6D333
:100DC00070B5B1FA81F4B3FA83F52C1BA340C4F1DA
:100DD000200532FA05F63343A2405FF00046E640B4
:100DE00002E05B085FEA3202841A71EB030524BF5C
:100DF000204629467641F4D302000B003000002142
:100E000070BD012ACFD970B5140C20D0B1FA81F48D
:100E1000B2FA82F5C4F120046419B4F12006D6D3E5
:100E2000B2405FF00044F440002502E052085FEA5F
:100E30003303C61A71EB020E24BF3046714664417B
:100E40006D41F3D302000B002000290070BD0C4659
:100E5000B1FBF2F102FB11452D0445EA1045B5FB4B
:100E6000F2F402FB145580B240EA0545B5FBF2F0FE
:100E700002FB105240EA044070BD000062B38B07D1
:100E800008D0521E11F8013B00F8013B00F024800D
:100E90008B07F6D1830740F0208000BF103A07D3BC
:100EA00030B4B1E83810103AA0E83810F9D230BCAC
:100EB000530724BFB1E80810A0E8081044BF51F858
:100EC000043B40F8043BD20724BF31F8022B20F842
:100ED000022B44BF0B7803707047083A07D3B1E880
:100EE0000810083A40F8043B40F804CBF7D2530707
:100EF000E4E730B4436803F0004201211B031B0BFD
:100F0000436004BF0368002B08D10DE00368DD0FC8
:100F100045EA440444605B000360491E4468E30200
:100F2000F4D523031B0B436043681A434260084611
:100F300030BC70474FF4001C1CEB410F94BF1CEBFE
:100F4000430F09E041EA030C50EA4C0C52EA0C0C46
:100F500003D2994208BF9042704714BF8B4282422D
:100F600070470000B0B581EA030C0CF0004C40F271
:100F7000FF7515EA11541DBF15EA1357AC42AF4275
:100F800039E0E41923EA455343F48013C90241F0E0
:100F9000004141EA505EC7021100A7FB020200288F
:100FA0004FF00000EEFB01204FF00001E3FB0721B2
:100FB00018BF42F00102401800214941E3FB0E0135
:100FC000A4F580640F0302D252004041494154F11C
:100FD00001046CDD470872F1004250F1000051EB52
:100FE0000451A1F580115CBF41EA0C01B0BD4CEA8F
:100FF00005510020B0BD05EA1357AC4214BFAF4203
:1010000041E050EA410E1CBF52EA430E02E0614645
:101010000020B0BD24423C441BD15FEA070EF6D04D
:10102000090302BF01460020AEF1140EB1FA81F7A8
:10103000AEEB070401FA07FE0C37C7F1200100FAF6
:1010400007F7C8404EEA000E23EA455343F48013E5
:10105000A2E733F00043B3FA83F704BFB2FA82FE8B
:1010600077440B3FE41BB7F1200E2FBF02FA0EF3BB
:10107000BB40C7F1200E22FA0EFE38BF43EA0E0332
:10108000BA40641C82E750EA410E14BF52EA430E94
:101090006FF000014FF4001717EB430F8ABF19469A
:1010A00017EB410FB5E74CEA05510020B0BDD4F174
:1010B0000104B4F120070FDAC4F12007520828BF59
:1010C00042F0010210FA07F501FA07F7E1BF2A43DF
:1010D000E0403843E1400FE0352C98DCC7F12004B4
:1010E00052EA400220FA07F218BF42F0010231FA38
:1010F00007F0A1400A43002172F1004250F10000C4
:1011000051EB0C01B0BD00002DE9F04140F2FF753C
:1011100081EA030C0CF0004C15EA11541DBF15EACE
:101120001357AC42AF42E9E0BC41C1F31301C3F332
:101130001303801A994143F4801304D2641E4000C3
:10114000494180185941C90241EA5051B1FBF3F6B7
:1011500003FB1611A2FB0675D7EBC020A94102D2F2
:10116000761E80185941C90241EA5051B1FBF3FE85
:1011700003FB1E11A2FB0E75D7EBC020A94103D2C1
:10118000AEF1010E80185941890241EA905176056D
:1011900046EA8E2EB1FBF3F603FB1611A2FB067591
:1011A000D7EB8020A94102D2761E80185941C9028E
:1011B00041EA50514EEA060EB1FBF3F603FB16115D
:1011C000A2FB0675D7EBC020A94102D2761E80187B
:1011D0005941C90241EA5051B1FBF3F703FB171122
:1011E000A2FB0735D3EBC020A94167F100070CBF74
:1011F000004247F0010766F3D5274FEA1E31B808D1
:1012000014F5806414DDBD0775F1004250EB0E50FB
:1012100051EB045111F5801F5CBF41EA0C01BDE8A0
:10122000F0814CF07F6141F0E0410020BDE8F081A9
:10123000BD076D0840EA0E5041F48011D4F101045D
:10124000B4F120060ADAC4F120060200E04001FAF7
:1012500006F3E1401843B24015430EE0342C14DC91
:10126000C6F1200445EA40056D0820FA06F2154350
:1012700021FA06F0A1400D43002175F1004250F122
:10128000000051EB0C01BDE8F08100205FEA0C0189
:10129000BDE8F081CFB992185B41B3FA83F704BF80
:1012A000B2FA82F6BF190B3FB7F120062FBF02FA40
:1012B00006F3BB40C7F1200622FA06F638BF3343D7
:1012C000BA401CB1E419641E2FE77F4231F000419F
:1012D000B1FA81F404BFB0FA80F6A4190B3CB4F162
:1012E00020062FBF00FA06F1A140C4F1200620FA23
:1012F00006F638BF3143A0403C1B16E7AC421ABF8C
:1013000005EA1357AF4214E050EA41061CBF52EA07
:101310004306BFE750EA4107304661461CBF41EA39
:101320000551BDE8F08152EA430C08BFC143BDE856
:10133000F08100204FF4001616EB410F98BF16EB1A
:10134000430F08BF16EB410F24BFC14305E016EB66
:10135000430F0CBF61464CEA0551BDE8F081000027
:10136000400D40EAC120490080F00D8040F000406F
:10137000490DA1F58061491C05D4D1F11F0154BF6D
:10138000C840C01770474FF000007047010000BF11
:1013900009D0B0FA80F18840C91CC1F58461090503
:1013A00001EBD02140057047F0B44FF0004591EAC1
:1013B000030F44BF6B4000F0C1B800BF841A71EB4B
:1013C000030604D26E40001BB141121973414FF461
:1013D000001C1CEB410F34BF7CEB430684E00C0D7A
:1013E000A4EB1356362E7DDC012E43DC45EAC323E5
:1013F00043EA525312BFD20292025B08240545EA27
:10140000C12141EA5051D2EBC020994125D407D1E6
:10141000B0FA80F610FA06F164D00020203608E019
:10142000B1FA81F6B140C6F1200220FA02F211436E
:10143000B0404FEAF474B4EB465434F001064FEA7E
:1014400074040AD8D6F50016760D04F00044F04076
:1014500061FA06F25040F1404840C00A40EA41506B
:1014600021F0004128BF5FEA500550F1000044EB35
:10147000D12137E045EAC323DB0A45EAC121C90A85
:10148000B6F120050EDD42EA0242120CC5F120063B
:1014900003FA06F6EB4042EA06056D42984161F117
:1014A00000010DE062FA06F5F240554063FA06FCD1
:1014B00082EA0C02F3405A406D42904161EB030115
:1014C00011F4801F05D1641E620502D06D004041F9
:1014D000494121F48011430875F1004350F10000A7
:1014E00041EB0451F0BC70471CEB410F15D223F0C7
:1014F000004352EA43060BD04FEA4C0CBCEB410FC1
:1015000004D80C0D661E342EB7DDEBE7801A994126
:1015100050EA410608BF0021E4E708BF1CEB430F77
:1015200028BF6FF00001DDE791FBF2F303FB12111E
:10153000C0E900317047000070470000841A71EB69
:10154000030603D2001BB141121973414FF4001C72
:101550001CEB410F34BF7CEB430443E00C0DA4EBC8
:101560001356352E50DC45EAC323DB0A45EAC12178
:10157000C912B6F120050DDD63FA05F6EB4086EAE7
:101580000305124218BF45F00105C01851F10001D2
:101590000CD213E062FA06F5F2405540F3415A408E
:1015A000B340F3405A408018594107D349085FEAD5
:1015B00030005FEA350528BF45F0010501F58011CF
:1015C000420875F1004250F1000041EB0451F0BCBB
:1015D0004FF4001C1CEB410F38BF70470020090D71
:1015E000090570471CEB410F10D252EA43060BD09D
:1015F000BCEB410F05D80C0DAB43661E342EB5DD98
:1016000002E0AB4380185941F0BC7047F0BC704712
:10161000012110F01F029140DFF8E02840B240099C
:1016200042F820107047012110F01F029140DFF8AE
:10163000D02840B2400942F82010704780B50321FD
:10164000DFF8C00800F0A9FC4FF47A7000F0D4FC79
:101650000321DFF8B00800F0A3FC4FF47A7000F02B
:10166000CBFCECE780B50020DFF89C180880002058
:10167000DFF89818087000F08DF800F092F800F08C
:10168000A4F800F09DFC00F0CFF8DFF884080078A3
:10169000002803D10320DFF87818087000F034F92F
:1016A000DFF87008008800F0E0FCDFF86C080078D4
:1016B00040281CD10120DFF86418087000200FE0DA
:1016C000DFF85018098880B28200D2F10C02114173
:1016D00011F00F01DFF8482880B222F81010401CEA
:1016E00080B20428ECDB0020DFF838180880FFF710
:1016F000A5FF08E0DFF814080078042801D100F005
:10170000F7FE00F04FFA00F038F9DFF81C18086017
:10171000DFF81408006800F06DF9DFF810180860B1
:10172000DFF80408006800F0BCF9DFF8041808606E
:10173000DFF8FC07006800F01AFADFF8F817086015
:10174000DFF8D40700784028DDD1DFF8C007007843
:10175000002807D1DFF8D407006801F08BF800F00B
:10176000E6FDCEE7DFF8A4070078012802D100F0FB
:10177000D9FEC6E7DFF894070078022802D100F00E
:101780001DFFBEE7DFF8840700780328B2D100F020
:1017900051FEB6E780B500220221002001F092F848
:1017A00001BD80B540F2531001F0C2F800230022C1
:1017B0000021002001F096F85FF0FF3300220021A5
:1017C0005FF0FF3001F09EF801BD80B53C21DFF8ED
:1017D000680700F0D7FB0421DFF85C0700F0D5FBB9
:1017E0000021DFF8540700F0D3FB0021DFF84C079D
:1017F00000F0C8FB9F21DFF8440700F0C6FB002182
:10180000DFF8380700F0C4FB0021DFF8F80600F02D
:10181000B9FBFF21DFF8EC0600F0B7FB0021DFF891
:10182000E40600F0B5FB01BD10B5002000240B203C
:10183000FFF7F9FE78225FF48031DFF8040701F04A
:101840009EF80B20FFF7E4FE00200BE0DFF8F01617
:10185000E4B251F82410DFF8EC26C0B242F82010B0
:10186000641C401CC0B20B28F0DBDFF8D406E4B2E5
:1018700050F82400DFF898160870641CDFF8C006E2
:10188000E4B250F82400DFF88C160880641C10BD08
:1018900080B50020002100200BE0DFF8A826C0B2B0
:1018A00052F82020DFF89836C9B243F82120491CAD
:1018B000401CC0B20B28F0DBDFF854060078DFF8DC
:1018C0008026C9B242F82100491CDFF8480600888A
:1018D000DFF86C26C9B242F82100491C0B20FFF743
:1018E000A2FE5FF4803001F057F878225FF4803177
:1018F000DFF84C0601F026F801F078F8C007FBD4B9
:101900000B20FFF785FE01BD80B500F02BF8DFF856
:1019100008160870DFF800060078002813D0202889
:101920000ED040281DD101F0F7F801F042F9DFF8A0
:10193000E005007850F02000C0B201F0BBF810E0E4
:1019400000F01AF80DE001F0E7F801F032F9DFF8E5
:10195000C005007850F02000C0B201F0ABF800F0F4
:101960000BF801BD80B50020DFF8D00500F013FBB7
:1019700010F06000C0B202BD704710B5002400F046
:10198000C0FB00070FD5002000F044FC04432404F2
:10199000012000F03FFC044314F0704F03D1200AF3
:1019A000DFF884150860DFF864050078002804D0AB
:1019B000DFF858050078012811D12300DFF8480529
:1019C0000288DFF88415DFF8840501F0FBF90521B2
:1019D000102001F0D5F8DFF8740501F032F9DFF8D6
:1019E00028050088401CDFF820150880DFF838053E
:1019F000006810BD2DE9F041040000200026002001
:101A000000E0401CC0B20B2806DADFF83815C0B27F
:101A100051F820108C42F4D3DFF834150870DFF849
:101A20003005007801F0E8F9DFF8281501F0F4F945
:101A30000500DFF81C05007801F0DEF90600DFF88C
:101A40000405DFF80C15097810EB810050F8040C40
:101A500001F0D2F90700DFF8EC04DFF8F41409789C
:101A600050F8210001F0C8F980463000290001F04B
:101A700015FA06004046390001F010FA0100300066
:101A800001F080FA0600200001F0B6F9390001F0FB
:101A900005FA310001F0F4FA290001F0BDF9BDE8C2
:101AA000F0812DE9F041040000200025DFF8A004BA
:101AB000007801F0A1F9DFF8A01401F0E1FA5FF07D
:101AC000814101F0A9F90500DFF88404007801F0F4
:101AD00093F9DFF8801401F09FF9DFF87C1401F02E
:101AE000CFFA5FF0814101F097F90600DFF8540466
:101AF000DFF85C14097810EB810050F8040C01F059
:101B00007BF90700DFF83C04DFF84414097850F84B
:101B1000210001F071F980462800310001F0BEF982
:101B200005004046390001F0B9F90100280001F034
:101B300029FA0500200001F05FF9390001F0AEF943
:101B4000290001F09DFA310001F066F95FF0814152
:101B500001F002FB02D25FF0814006E0DFF8FC13E7
:101B600001F00CFB01D8DFF8F803BDE8F08180B587
:101B7000DFF8F01301F050F95FF0834101F002FA51
:101B8000DFF8E41301F07CFA002101F0E5FA01D25C
:101B9000002006E0DFF8D41301F0F0FA01D8DFF8F6
:101BA000C80302BD10B50024DFF88C0300F0F3F980
:101BB00010F0F000C0B2302800F08281702800F0F0
:101BC0002981902800F07281B02800F0CB80D028C5
:101BD00078D0E02840F09181DFF8300300780028C9
:101BE00006D10420DFF82413087000F0E2FF64E05F
:101BF000DFF81803007801282AD1DFF82C030068E9
:101C0000DFF84013DFF86823128841F82200DFF87C
:101C100018030368DFF858030288DFF85813DFF869
:101C20002C0301F0CFF804210C2000F0A9FFDFF80D
:101C30001C0301F006F8DFF8380300880A283CDAB4
:101C4000DFF82C030088401CDFF82413088034E000
:101C5000AE480078022805D10120B049087000F094
:101C6000A8FF2AE0A9480078032826D100200AE02E
:101C7000AB49C0B231F81010C0B28200D2F10C02F0
:101C800091400C43401CC0B20428F1DB210089B212
:101C9000002000F09BFA002000F092FA9D49088095
:101CA0009C480288B449A94801F08CF805210C2011
:101CB00000F066FFA54800F0C4FF4FF4967000F0F6
:101CC0009BF91AE191480078002810D1AB480078C0
:101CD000401CAA490870A9480078042802DB0020AB
:101CE000A64908704FF4967000F086F935E08748F1
:101CF0000078012807D1FFF7CBFD00208349087049
:101D000000F057FF29E081480078022808D1002020
:101D10007E49087000208349088000F04AFF1CE0DB
:101D20007A48007803280FD10120784908700020F4
:101D30008F49088000F03DFF0421282000F020FF9B
:101D40008F4800F07EFF08E070480078042804D136
:101D500003206E49087000F02CFF4FF4967000F0DD
:101D60004BF9CAE069480078012809D18048008809
:101D700000284AD07E480088401E7D49088044E003
:101D80006248007802280BD16648008803283CDAB4
:101D900064480088401C6349088000F00AFF34E072
:101DA0005A480078032819D15D487149098830F8EC
:101DB00011000F2806D1002059496D4A128821F8D8
:101DC000120022E056486A49098830F81100401C88
:101DD0005349674A128821F8120016E04B480078F0
:101DE000042812D14A480078401C494908704848E4
:101DF0000078072802DB072045490870444800782E
:101E000050F02000C0B200F055FE4FF4967000F084
:101E1000F3F872E03D480078012809D15448008861
:101E20000A283EDA52480088401C5149088038E0B0
:101E30003648007802280BD13A480088002830D074
:101E400038480088401E3749088000F0B2FE28E07C
:101E50002E48007803280DD145480088032803D177
:101E60000020434908801CE041480088401C40494C
:101E7000088016E025480078042812D1244800780C
:101E8000401E2349087022480078002802D1002013
:101E90001F4908701E48007850F02000C0B200F0C2
:101EA00009FE4FF4967000F0A7F826E002201749CB
:101EB000087000F07EFE4FF4967000F09DF81CE074
:101EC00002211E4800F06CF80A2000F095F802216B
:101ED0001A4800F062F80A2000F08EF800F01CFEAC
:101EE00000F067FE0A48007850F02000C0B200F011
:101EF000E1FD4FF4967000F07FF810BD00E100E0C6
:101F000080E100E060600040D4000020EC00002090
:101F1000EF000020E8000020ED000020F10000208C
:101F2000B8000020EA000020C4000020C800002003
:101F3000CC000020D0000020006000403060004055
:101F40000000002078000020DC390000A400002000
:101F5000EE000020000080BFCDCCCC3F0100A041AE
:101F60000000A041000080C00000C8420100C8423B
:101F7000D6000020D8380000EC380000F000002027
:101F8000E83900000180012070470171012070478D
:101F9000017201207047007D70470177007F704714
:101FA00080F8201090F8200070470000012110F008
:101FB0001F0291401A4A40B2400942F8201070476F
:101FC00080B520215FF0804001F0FAF8182300224C
:101FD00040215FF0804001F0E3F800F001F801BD1E
:101FE00080B50B20FFF7E2FF01BD000000E000BF5D
:101FF000401E0128FBDA704700210A4A1160094996
:1020000009688142FBD3704780B501215FF08040B1
:1020100001F0D9F803480068401C0249086001BD7E
:1020200000E100E0C0000020012110F01F029140FB
:10203000024A40B2400942F82010704700E100E037
:1020400010B504001A2000F0E5F8A4B2B4F5005F62
:1020500005D150F4005080B200F03BF804E04DF69A
:10206000FF71084000F035F810BD10B5040000F015
:10207000C2F84FF40050FFF7E3FF4FF4E05000F0D8
:1020800028F804220221002000F040F840F2D64156
:10209000002000F05CF80A21002000F048F842F22D
:1020A000200000F023F8042000F073F80022122131
:1020B000002000F05CF8A4B24FF6FF70844204D018
:1020C000210089B2002000F071F80020FFF7B8FF6E
:1020D00010BD80B550F001001A2180B200F0C3F8A5
:1020E00001BD80B51A2000F095F802BD80B5192118
:1020F00080B200F0B8F801BD80B5192000F08AF870
:1021000002BD80B5182000F085F802BD80B552EA06
:10211000013210F11401C9B2100080B200F0A3F82E
:1021200001BD80B51430C0B200F074F802BD80B5B6
:102130000A0010F11001C9B2100080B200F093F84B
:1021400001BD80B51030C0B200F064F802BD80B5AA
:102150000A0010F10801C9B2100080B200F083F843
:1021600001BD80B50830C0B200F054F802BD80B5A2
:10217000920152EAC12210F11E01C9B2100080B2D0
:1021800000F071F801BD80B51E30C0B200F042F819
:1021900002BD80B550F402701B2180B200F063F8DC
:1021A00001BD80B51B2000F035F802BD80B50A00E6
:1021B00010F10C01C9B2100080B200F054F801BD5A
:1021C00080B50C30C0B200F025F802BD10B50C008F
:1021D0004FF40050FFF734FF0A20FFF70DFF2100F6
:1021E00089B20020FFF7E2FF0020FFF729FF6420FB
:1021F000FFF702FF10BD80B501224FF49871002057
:1022000000F0E4FF4F214E2000F0F9FF1520FFF70A
:102210000BFF01BD38B50025C0B20100002000F061
:10222000E5FF562000F0F1FF0120FFF7E5FE002258
:102230000221562000F0FFFF0120FFF7DDFE0224FF
:102240000BE0002000F0C8FF611EC9B2C900884041
:1022500005430120FFF7D0FE641EE4B2002CF0D14C
:10226000280080B232BD38B504000D00EDB229005F
:10227000002000F0BBFF562000F0C7FF0120FFF751
:10228000BBFEEDB22900002000F0B0FF572000F0A7
:10229000BCFF02250DE0A4B2681EC0B2C000210040
:1022A0000141C9B2002000F0A1FF0120FFF7A4FE08
:1022B0006D1EEDB2002DEED131BD80B5002000F0D5
:1022C000D4FF01BDF8B504000D0016001F00002169
:1022D000102000F055FC200000F0B3FC072108207E
:1022E00000F04EFC280000F0ACFC0721322000F08A
:1022F00047FC300000F0A5FC0721462000F040FC20
:10230000380000F09EFC0721692000F039FC069897
:1023100000F097FC082384220821002000F0C6FF6B
:10232000362384223621002000F0C0FFF1BD80B5A5
:10233000DFF86C0400907AA379A2DFF86814DFF864
:102340006804FFF7BFFFDFF864040078002815D1A8
:10235000DFF85C04006800F08DFA02000B00DFF883
:102360005414DFF8540400F02DFD04216A2000F01D
:1023700007FCDFF8480400F064FC52E0DFF82C04AE
:102380000078012818D1DFF828040068DFF830143D
:1023900000F0F8FD00F06EFA02000B00DFF82414E4
:1023A000DFF8140400F00EFD04216A2000F0E8FBC1
:1023B0007CA000F046FC34E0DFF8F003007802284F
:1023C00015D1DFF80404006800F054FA02000B0095
:1023D000DFF8F013DFF8E00300F0F4FC04216A20DA
:1023E00000F0CEFBDFF8E40300F02BFC19E0DFF88F
:1023F000BC030078032814D1DFF8D403006800F090
:1024000039FA02000B00DFF8AC13DFF8AC0300F080
:10241000D9FC04216A2000F0B3FBDFF8B80300F018
:1024200010FC02210C2000F0ABFBDFF88C0300F065
:102430008FFC01BD10B582B0DFF89C0300905AA359
:102440005AA2DFF89813DFF89803FFF73BFF002448
:102450000DE00221E4B2142000FB04F01E30C0B2F3
:1024600000F08EFBDFF8500300F0EBFB641CE4B2DD
:10247000042C1EDADFF86C03E4B230F814204CA10F
:10248000DFF8340300F09EFC2000C0B2DFF85813E0
:10249000098880B28842DCD10221E4B2142000FB1A
:1024A00004F01E30C0B200F06BFBC34800F0D4FB58
:1024B000DCE70020FFF784FE020092B2DFF82C1365
:1024C000BD4800F07FFC03210C2000F059FBBA4806
:1024D00000F0B7FBC6480268C649B74800F072FC76
:1024E00004210C2000F04CFBB34800F0AAFB13BD04
:1024F00080B5B9480090C04B2CA209A1BF48FFF796
:10250000E1FEBF4802782BA1AB4800F05BFC022142
:10251000462000F035FBA84800F01AFC01BD000081
:102520000000000010B582B0B64800901EA322A2A1
:10253000AA49B548FFF7C6FE002413E0062006218D
:1025400094FBF1F1891CC9B294FBF0F200FB12403C
:10255000122250431030C0B200F012FB964800F037
:1025600070FB641C0B2C1CDA2200A849924800F076
:1025700029FC9D4800888442E0D10620062194FB76
:10258000F1F1891CC9B294FBF0F200FB1240122257
:1025900050431030C0B200F0F3FA874800F05CFB03
:1025A000DFE713BD6D696C002D3E00005550000043
:1025B00025780000256400003C2D000010B582B095
:1025C0009348007800282BD0FFF78BFD91490880B5
:1025D0000020FFF7A6FD904908800020FFF7B1FD1D
:1025E0008E4908800020FFF7BCFD8D490880FFF769
:1025F00083FD8C490880FFF7D4FD8B4908800020BB
:10260000FFF7C1FD89490880FFF77BFD88490880F5
:102610000020FFF7D5FD8749088000207C4908701D
:10262000784800905DA35DA283498448FFF74AFE85
:1026300083480088002806D002286ED038D30328AB
:1026400000F08680A9E0734802887E495A4800F06D
:10265000B9FB02210C2000F093FA574800F0F1FA80
:102660006D4802887849544800F0ACFB03210C20E7
:1026700000F086FA504800F0E4FA6848028873498E
:102680004D4800F09FFB04210C2000F079FA4A48E5
:1026900000F0D7FA624802886D49474800F092FB83
:1026A00005210C2000F06CFA434800F0CAFA74E0EF
:1026B0005C4802886749404800F084FB02210C20F6
:1026C00000F05EFA3C4800F0BCFA574802886249C4
:1026D000394800F077FB03210C2000F051FA36480E
:1026E00000F0AFFA514802885C49334800F06AFBB9
:1026F00004210C2000F044FA2F4800F0A2FA3C48D4
:10270000026857492C4800F05DFB05210C2000F0C1
:1027100037FA294800F095FA3FE0454802885149C8
:10272000254800F04FFB02210C2000F029FA224836
:1027300000F087FA3F4802884B491F4800F042FBEF
:1027400003210C2000F01CFA1B4800F07AFA24E068
:1027500000241FE04548E4B250F824000202120AA7
:102760004349154800F02EFBE4B20320E4B20321F4
:1027700094FBF1F1891CC9B294FBF0F200FB12400A
:10278000282250430A30C0B200F0FAF90A4800F09B
:1027900058FA641CE4B20B2CDCDB13BD0000000013
:1027A000383A0000303A000000390000F000002004
:1027B000C8000020403A0000A4000020483A000071
:1027C000A913D03C503A0000D0000020583A000035
:1027D000CC000020603A0000703A0000683A000027
:1027E0003C390000B8000020D60000201439000059
:1027F000C40000204C390000783A0000283900005D
:10280000EF000020803A00005C390000883A0000A8
:10281000F1000020D8000020DA000020DC000020B9
:10282000DE000020E0000020E2000020E4000020A4
:10283000E6000020E8000020903A0000F439000093
:10284000EA0000206C3900007C3900008C3900005F
:10285000003A00009C3900000C3A0000AC3900003E
:10286000183A0000BC390000CC3900007800002084
:10287000983A00005FF0FF0C1CEAD05114BF61458C
:1028800006E0C110400721F0E04101F160517047BE
:1028900079B900F0004100020AD0B0FA80FC00FAD9
:1028A0000CF001F16051A1EB0C5101EBD02140057E
:1028B000704741020CBF40F4E0016FF000010020BE
:1028C00070470000064B1B889BB213F0200353F0A7
:1028D000400303430B431343014803800120704727
:1028E0008825004010F0070011F0030150EAC100F4
:1028F00013F0070150EA41100F4908800F48028089
:102900000120704710B410F0070454EAC00411F01D
:10291000070054EA801412F0070054EA402413F030
:10292000070054EA003406480480012010BC7047B8
:102930000149888501207047002000404424004060
:1029400004200040F8B504000D0016000020002708
:10295000012000F03AF800F049F8002709E00020D3
:1029600020682860241D2D1D00F040F8C007FBD40E
:102970003F1DB742F3D3002000F027F8F1BD10B49B
:102980000023002304E00C68091D0460001D1B1DCA
:102990009342F8D310BC70471649098889B20129BF
:1029A00001D1002010E04FF25641134A11804FF23E
:1029B0002311114A118012490880000C1149088026
:1029C00001200E49088001207047002806D00E48DB
:1029D000008850F004000C49088005E00A4800888F
:1029E00010F0FB000849088001207047014800886A
:1029F00080B270470028004020280040082800408E
:102A000010280040142800400428004080B501210F
:102A1000CA48FFF7C5FA1E20FFF7E8FA0221C748A7
:102A2000FFF7BBFA0120FFF7E7FA0221C348FFF7DF
:102A3000B7FA0120FFF7E0FA0221C048FFF7ADFA2C
:102A40000120FFF7D9FA0121BC48FFF7A6FA0421BB
:102A5000BA48FFF7A2FA01BD38B504000121B74812
:102A6000FFF79EFA0120FFF7C1FA0421B348FFF7F0
:102A700094FA0120FFF7BAFA002509E01021AF48C7
:102A8000FFF78EFA0821AD48FFF787FA64006D1C46
:102A9000082D0ADA0821A948FFF782FA2006EDD5A9
:102AA0001021A648FFF779FAECE70121A348FFF7C8
:102AB00074FA31BD38B504000121A048FFF770FA5F
:102AC0000120FFF793FA04219C48FFF769FA0120DF
:102AD000FFF78CFA002509E010219848FFF760FA0B
:102AE00008219648FFF759FA64006D1C082D0ADA90
:102AF00008219248FFF754FA2006EDD510218F489F
:102B0000FFF74BFAECE704218C48FFF746FA012166
:102B10008A48FFF742FA31BD80B5FFF777FFE22020
:102B2000FFF7C8FFA120FFF7C5FFA220FFF7C2FFF4
:102B3000C020FFF7BFFF2F20FFF7BCFF6420FFF787
:102B40005BFAA420FFF7B6FF8120FFF7B3FF202038
:102B5000FFF7B0FF2320FFF7ADFFAF20FFF7AAFF7D
:102B6000A620FFF7A7FFB020FFF7A4FF1020FFF774
:102B7000A1FF0020FFF79EFF4020FFF79BFF01BD54
:102B800038B504000D006E4805706E4804702000D2
:102B9000C0B2000950F01000C0B2FFF78BFF14F074
:102BA0000F00FFF787FF55F0B000C0B2FFF782FFBC
:102BB00031BD38B500240025002507E00020FFF7CF
:102BC0004BFF641CE4B2842CF8DB6D1CEDB2082DC5
:102BD00006DA2900C9B20020FFF7D2FF0024F1E78E
:102BE00031BD38B5040000250BE05748E4B205219B
:102BF000EDB201FB0451081810F8A00CFFF72CFFF0
:102C00006D1CEDB2052DF0DB0020FFF725FF31BD77
:102C100038B5040000250DE04B48E4B20521EDB2C3
:102C200001FB0451081810F8A00CC043C0B2FFF714
:102C300013FF6D1CEDB2052DEEDB0020FFF70CFF3E
:102C400031BD10B5040003E02078FFF7CAFF641C13
:102C500020780028F8D110BD10B5040003E02078DA
:102C6000FFF7D6FF641C20780028F8D110BDF8B516
:102C70000400334805783348067801270DE03348CF
:102C8000E4B23A21FFB201FB04710818B0F52360E9
:102C90000078FFF7E1FE761CFF1CFFB23A2F3EDA08
:102CA0002900C9B23000C0B2FFF76AFFE4B2202C9D
:102CB00003D10020FFF7D0FE0BE02448E4B23A2114
:102CC000FFB201FB04710818A0F632200078FFF76C
:102CD000C3FE691CC9B23000C0B2FFF751FFE4B2B5
:102CE000202C03D10020FFF7B7FE0BE01748E4B219
:102CF0003A21FFB201FB04710818A0F631200078D8
:102D0000FFF7AAFEA91CC9B23000C0B2FFF738FF16
:102D1000E4B2202CB3D10020FFF79EFEBBE70020D9
:102D2000FFF79AFEE4B22E2C00D1761F2900C9B21B
:102D30003000C0B2FFF724FFF1BD0000306000405A
:102D4000F3000020F20000203C3600004833000071
:102D500010B5040003E02078FFF789FF641C207899
:102D60000028F8D110BDF8B504000D0017000026AA
:102D7000082095FBF0F00100C9B22000C0B2FFF7B7
:102D8000FFFE002F08D00120082195FBF1F202FB85
:102D900011529040064307E00120082195FBF1F213
:102DA00002FB115290408643082095FBF0F0010091
:102DB000C9B22000C0B2FFF7E3FE3000C0B2FFF797
:102DC0004BFEF1BD0CB41CB5044604A801900A46A4
:102DD000009401AB6946074878441830FDF780F944
:102DE000009A0021117000285CBF0098001B16BCDF
:102DF0005DF80CFBE7DEFFFF002800BF0AD0B0FA49
:102E000080F18840D1F19D01C905020672F10042AE
:102E100041EB10207047000090EA010F44BF81F0A1
:102E2000004100F043B800BF421A3CBF801A891825
:102E30004FF0004CC0F3C752FF2A24D0C1F3C75350
:102E400013B3D21AD2F1190327DD4CEA01214CFA4F
:102E500003F321EA0303D140C20D4CEA00204018DD
:102E600034BF20EA0C004CEA5000D20553EA00635C
:102E700073EB0C0C52EB1020420012F1807F38BF34
:102E80007047C00DC0057047490212BF9A4200EB5F
:102E90005120F8E7D2F11703D9D5704790EA010F16
:102EA00044BF81F00041FFF7BFBF00BF431A4FF09E
:102EB00000423EBF5340C01AC91800BFD3095FEAA1
:102EC000D05C13EB400F34BFB3EB410F40E07CEB21
:102ED000D1530CD342EA012122D8D1EB402009D3AF
:102EE000400A28BF5FEA500140EBCC507047401ABF
:102EF00015D04002B0FA80F2521C9040400A4FEACE
:102F00003C23B3EB026384BF00EB730007E040F4A3
:102F100000001A16DB07C2F10102D04018437047C7
:102F2000182BFCDC31FA03F202FA03F3591A38BF0A
:102F300042F00102D2EB40203CBF4000ACF1010C5A
:102F40005FEACC5CC20572F100414CEB5020704747
:102F500013EB400F0FD24B0009D0ACEBD153022B37
:102F600003DB4902172BDDDD70479143401A430014
:102F7000D5D10020704713EB410FD0D36FF0000084
:102F80007047000010B5FF2313EAD0541DBF13EAA9
:102F9000D1529C429A4239E0A41ADA0780EA01032E
:102FA000134042EA012142EA0020421A3CBF641E5B
:102FB00001EB4202090AB2FBF1FE01FB1E221202E2
:102FC000B2FBF1F001FB10226EF30F201202B2FBF4
:102FD000F1FE4EEA00207F3406DDFE2C24DA53EAAF
:102FE000500050EBC45010BDD4F1020401FB1E226E
:102FF00040F08071192C1DDC21FA04F0C4F120048A
:10300000A140114371F10042584110BD9C421ABFCA
:1030100003EAD1529A420FE080EA010E0EF000431B
:10302000400004D0490016D143F0FF4010BD4900D4
:1030300008BFD343180010BD9C4205D1D21AF7D067
:1030400001F00041484010BD4A0212BF0846484006
:1030500000F0004010BD4AB90902B1FA81F2914076
:1030600044B1A418C00140F000409EE7C90141F0FE
:10307000004152420002B0FA80F4A040141B94E7D1
:10308000FF2212EAD05C1DBF12EAD153944593424D
:103090002BE09C44D30780EA01021A4043EA002057
:1030A00043EA0121A1FB0030410038BF40007CF120
:1030B0007F010BDBFE294ADA5B0842EAC15153EA81
:1030C000006373F1004C51EB10207047D1F1080CF4
:1030D000DCF120012FDB5B0810FA01F10B4373F1E7
:1030E000004120FA0CF05041704794451CBF02EAA1
:1030F000D153934280EA010202F000421DD0400009
:1031000019D0490017D05BB9634514D00902B1FA50
:1031100081F39940BCEB030CC00140F00040C1E7D3
:103120000002B0FA80FC10FA0CF0B3EB0C0CC901F1
:1031300041F00041B6E71000704740000AD0490056
:1031400008D010F1807F94BF11F1807F02E042F03F
:10315000FF407047D04370474FF0807C1CEB400F1E
:1031600094BF1CEB410F05E040EA010C5FEA4C0CF8
:1031700001D28842704718BF814270474FF0807C6F
:103180001CEB400F94BF1CEB410F05E040EA010C23
:103190005FEA4C0C01D28142704718BF88427047E9
:1031A00010B4848B640601D5002007E0048914F470
:1031B00070640C4314431C430481012010BC70470D
:1031C000018001207047818101207047084310432E
:1031D0002B49088001207047012803D12948008825
:1031E00080B202E028480078C0B27047012802D1BE
:1031F0002648018001E0264801700120704751EA0D
:10320000002124480180012070474FF6FE710840DC
:10321000FF2809D920490870C00910F0060050F0B5
:10322000F0001E49087004E01C49087000201A498B
:10323000087001207047491E51EA0221184A118086
:10324000FF2809D914490870C00910F0060050F091
:10325000F1001249087006E050F001000F490870B3
:1032600000200D49087001207047012803D10D4846
:10327000008880B202E00C48008880B270470000ED
:103280000030004030300040083000403430004012
:103290000C300040243000401C300040183000400A
:1032A000103000402C300040043000402DE9FE4F2B
:1032B000019A141A029A551A26196F1983468846DC
:1032C0005FF001095FF0010A002C03D55FF0FF39C0
:1032D00064427642002D03D55FF0FF3A6D427F4293
:1032E000184A1278FFF73FFD55EA0400002826D05F
:1032F000AC4212DB002519EB0B0B7D19AC4202DA54
:103300001AEB0808AD1B0F48027841465846FFF7F4
:103310002AFD01988345EED111E000241AEB08083C
:103320003419A54202DA19EB0B0BE41B05480278AD
:1033300041465846FFF717FD02988045EED1BDE89B
:10334000F78F0000FA0C00000000000000000000F1
:103350000000000000000000000000000000001C51
:1033600000001C00001C00001C00001C00001C00D1
:10337000001C000000000000000000000000000031
:10338000000000000000000000000000000000003D
:10339000001F00001F00001F00001F0000000000B1
:1033A000000000000000000000000000000000001D
:1033B000000000000000000000000000000000000D
:1033C0000000000000000000800000E00000FC00A1
:1033D00080FF00E01F00FC0380FF00E01F00FC03F3
:1033E00000FE00001E0000020000000000000000BF
:1033F0000000000000000000000000000000FF01CD
:10340000C0FF0FF0FF1FF8FF3F78007C1C00700C1E
:1034100000600C00600C00601C00707C003CF8FF39
:103420003FF0FF1FE0FF0F00FF0100000000000061
:1034300000000000000000000000400000E000402C
:10344000600040300040300060F8FF7FFCFF7FFCF0
:10345000FF7FFCFF7F000060000040000040000094
:10346000400000000000000000000000000000001C
:103470000078006078007878007C3C007E0C007F4B
:103480000CC07B0CE0780C70781C3C78FC1F78F842
:103490000F7CF8077EF0017E0000000000000000B5
:1034A000000000000000000000000078003C7800F0
:1034B0003C78007C3C00781C18700C18600C18607C
:1034C0000C1C600C3C601C7E70FCF73FF8F33FF86E
:1034D000E31FF0C007000000000000000000000033
:1034E000000000800100E00100F00100BC01008E3E
:1034F00001808701C08141F08061F8FF7FFCFF7F80
:10350000FCFF7FFCFF7F00806100804100C0010064
:10351000C0010000000000000000000000000000EA
:10352000003CFC1F3CFC3F7CFC1F783C18703C18A6
:10353000603C18603C18603C38603C78703CF83F58
:103540003EF03F3EE01F00C007000000000000000A
:1035500000000000000000000000F80300FF0F80E2
:10356000FF1FC0FF3FE01B78F01870380C60180C8C
:10357000601C0C600C0C700C3C780CFC3F00F83F9D
:1035800000F01F00E0070000000000000000000045
:10359000000000FC0000FC00007C00003C00603CDF
:1035A00000783C007E3C803F3CE00F3CF8033C7ED2
:1035B00000BC1F00FC0700FC01003C00000C0000E8
:1035C00000000000000000000000000000E0830F89
:1035D000F0C71FF8EF3FF8FF3F1C7E780C18700C07
:1035E00018600C18600C18600C38601C7C78F8FFB0
:1035F0003FF8F73FF0E71FE0810700000000000000
:1036000000000000C00F00F01F00F03F00F87F0036
:103610003C78601C60600C60600C60700C60381C52
:10362000303C3C301FF8FF0FF0FF07E0FF03807FC6
:10363000000000000000000000000000000000008A
:103640000000005F00000007000700147F147F14D3
:10365000242A7F2A12231308646236495522500017
:1036600005030000001C2241000041221C00082A22
:103670001C2A0808083E0808005030000008080806
:103680000808003030000020100804023E5149456F
:103690003E00427F400042615149462141454B3145
:1036A0001814127F1027454545393C4A49493001D5
:1036B000710905033649494936064949291E00362C
:1036C000360000005636000000081422411414147D
:1036D00014144122140800020151090632497941AB
:1036E0003E7E1111117E7F494949363E41414122BA
:1036F0007F4141221C7F494949417F090901013E1F
:10370000414151327F0808087F00417F410020403D
:10371000413F017F081422417F404040407F020426
:10372000027F7F0408107F3E4141413E7F09090925
:10373000063E4151215E7F091929464649494931D2
:1037400001017F01013F4040403F1F2040201F7F7B
:103750002018207F63140814630304780403615164
:1037600049454300007F4141020408102041417F48
:1037700000000402010204404040404000010204F5
:103780000020545454787F484444383844444420FA
:10379000384444487F3854545418087E09010208BC
:1037A0001454543C7F0804047800447D40002040B9
:1037B000443D00007F10284400417F40007C0418F5
:1037C00004787C0804047838444444387C14141485
:1037D00008081414187C7C08040408485454542025
:1037E000043F4440203C4040207C1C2040201C3CA6
:1037F0004030403C44281028440C5050503C446415
:10380000544C44000836410000007F00000041365F
:10381000080008082A1C08081C2A080819E050F8A3
:10382000041BCB0744BFA9F101035918121F002341
:10383000042A41F8043BF9D25FEA827C0B4604D5A6
:103840004FF0000CA1F800C09B1CD10744BF002121
:10385000197050F8042B002AE1D1704710B50749C0
:1038600079441831064C7C44163404E00A68081D7B
:10387000511888470146A142F8D110BD0800000048
:103880001400000099FFFFFFF4000000000000207A
:103890000000000000F00BF8002801D0FFF7DEFF69
:1038A0000020C046C046FDF7DDFE00F002F8012012
:1038B000704700F001B800000746384600F002F8F3
:1038C000FBE7000080B5C046C046024A1100182040
:1038D000ABBEFBE726000200253032646D6D282563
:1038E00030386C5829736176656421004F46465321
:1038F00045542025303458205341564521000000BE
:10390000494E445543544956452053454E53494E1C
:1039100047000000435552204F4646534554203A35
:103920002025303458000000434F4E545241535428
:103930002053455454494E47000000004F4646531B
:1039400045542053455454494E4700004441544186
:10395000203A202530386C5800000000534554545C
:10396000494E47204D4F444500000000434F4E460E
:1039700049473A2025303458000000004449564950
:103980004445523A202530345800000053455454E1
:103990004C45436E743A2025303458004552524FFE
:1039A00052436F6E663A20253034580049445249DC
:1039B00056453A20253034580000000053544154F5
:1039C00055533A2025303458000000004F464653E6
:1039D00045543A20253034580000000025643A2030
:1039E0002530386C580000004E6F6E6520416374BE
:1039F000212100004465627567204D6F64650000F9
:103A000052436E743A202530345800004D55583AD0
:103A10002025303458000000665245513A202530A8
:103A2000386C5800C046C046C046C046FFF732FF5B
:103A300053455454494E4700554E49540000000028
:103A400025352E3246000000206D6D20000000005C
:103A500025352E31460000002025202000000000E2
:103A6000206D412000000000534156450000000039
:103A70004E45585400000000444F574E00000000CF
:103A80004558495400000000253032640000000011
:103A90005245524F4144000025366C58000000004A
:043AA000FFF7FEBF6F
:0400000500003A2598
:00000001FF
