:10000000F804002041430000BD430000BD43000050
:10001000BD430000BD430000BD43000000000000E0
:10002000000000000000000000000000BD430000D0
:10003000BD43000000000000BD430000BD430000C0
:10004000BD430000BD430000BD430000BD430000B0
:10005000BD430000BD430000BD430000BD430000A0
:10006000BD430000BD43000000000000AB1F0000C6
:10007000BD430000BD430000BD430000BD43000080
:10008000BD430000BD430000BD430000BD43000070
:10009000BD430000BD430000BD430000BD43000060
:1000A000BD430000BD430000BD430000BD43000050
:1000B000BD430000BD430000BD430000BD43000040
:1000C000BD430000BD430000BD430000BD43000030
:1000D000BD430000BD430000BD4300000000000020
:1000E0002DE9F04FA1B08046002017461D46029131
:1000F0000B900DF1440A6FF000490AE017F8011B5C
:100100000298C0470028029000F0A1820B98401C82
:100110000B90387808B90B989BE22528EED1002087
:10012000059006900790089009900A9001E040F031
:10013000010017F8011F2029F9D023290DD02B2900
:1001400004D02D2906D030290AD00CE040F002005E
:1001500080B2EEE740F00400FAE740F00800F7E76D
:1001600040F01000F4E72A290ED12968296051F8DF
:10017000042B2960002A0D9204D5514240F004005E
:100180000D9180B27F1C11E000210D9109E00D99C5
:10019000494505D001EB810302EB430130390D9154
:1001A0007F1C3A78A2F130010A29F0D339782E2940
:1001B00003D04FF0FF310C911DE017F8011F2A29E1
:1001C00007D1296829607F1C51F8042B29600C9203
:1001D00011E000210C9109E00C99494505D001EB93
:1001E000810302EB430130390C917F1C3A78A2F174
:1001F00030010A29F0D3ADF838000FF6C420397861
:1002000000F070FD08B117F8010B8DF83A009DF869
:100210003A00682802BF39786829622005D06C2826
:1002200004BF38786C2803D171208DF83A007F1C08
:1002300011A8049017F8014BB4F1250023D0203801
:10024000022840F2BB80133800F0E0800B3800F049
:100250004A81401E00F02381401E022840F2AE80F9
:10026000001F00F01C81401F79D0401E00F0CE809E
:10027000401E24D0C01E0BD0801E00F0C780C01EC0
:1002800000F0C48039E125208DF8440001203DE1D3
:100290002868286050F8046B286003960C9C002C9A
:1002A00004D5304600F02AFD044606E0224600212F
:1002B000304600F03FFD00B1841B069427E1296819
:1002C00029603C2451F8040B29600021CDE900018C
:1002D00011A80390DDE90001049E11B908B90C9A38
:1002E000B2B10206120FA0EB02123032D2B2631E7C
:1002F0003A2AA8BF273200099A5540EA0170090935
:1003000008BF00281C4603D0039AA3199A42E8D3D9
:10031000A0190390C4F13C010C980691814209DABE
:10032000401A08904FF6EF71BDF838000840ADF85C
:100330003800ECE0002840F1EA809DF8380000F039
:100340001400102840F0E3800D98059A801A089A4E
:10035000801A441A012CC0F2DA800894D7E09DF884
:100360003A0062281AD0682806D06A280CD06C2877
:100370001CD0712808D019E02868286050F8041BA8
:1003800028600B980880C2E02868286050F8042B89
:1003900028600B98C117C2E90001B8E028682860FE
:1003A00050F8041B28600B980870B0E0286828609B
:1003B00050F8041B28600B980860A8E02868C01D4E
:1003C00020F007022A60D2E9000108322A60CDE954
:1003D0000001002902D505982D210AE0BDF838005A
:1003E000810702D505982B2103E0C00705D50598A4
:1003F000202100F80A10401C059011A80599081842
:1004000003902146684600F0E1F980E09DF83A004B
:100410006C280DD0712818BF6A2809D12868C01D22
:1004200020F007022A60D2E9000108322A6005E0C4
:100430002968296051F8040B29600021CDE90001E9
:100440009DF83A00682803D1DDE9000180B20BE095
:10045000622803D1DDE90001C0B205E0742818BFAD
:100460007A2804D1DDE900010021CDE900019DF8E1
:10047000380000072ED5DDE90001002908BF00285B
:1004800028D044F02000782824D10598302100F8A5
:100490000A10401C411C059100F80A401AE09DF822
:1004A0003A00294600F0D8F8CDE90001002902DA27
:1004B00005982D210AE0BDF83800810702D505987E
:1004C0002B2103E0C00705D50598202100F80A106C
:1004D000401C059011A8059908180390214668460C
:1004E00000F0F1F813E0012005902868286050F82A
:1004F000041B28608DF8441009E025208DF8440085
:10050000012005901CB18AF80140022005900D9849
:100510000599401A0899401A0699401A0999401AF3
:100520000799401A0A99441A9DF83800400710D4D8
:100530002020012C8DF840000BDB2646012310AA59
:100540006946404600F0A5FB002840F08080761EFA
:10055000F4D1DDF814B0BBF1000F11AE0CD016F8D9
:10056000011B0298C0470028029070D00B98401CD5
:10057000BBF1010B0B90F2D130208DF84000089EAA
:10058000012E09DB012310AA6946404600F081FBD9
:1005900000285CD1761EF5D1DDF818B0039EBBF1C2
:1005A000000F0CD016F8011B0298C04700280290DB
:1005B0004DD00B98401CBBF1010B0B90F2D13020B9
:1005C0008DF84000099E012E09DB012310AA69461F
:1005D000404600F05EFB002839D1761EF5D1039825
:1005E0000699DDF81CB00E18BBF1000F0BD016F801
:1005F000011B0298C047029048B30B98401CBBF106
:10060000010B0B90F3D130208DF840000A9E012E93
:1006100008DB012310AA6946404600F03AFBB0B956
:10062000761EF6D19DF8380040077FF572AD202088
:10063000012C8DF84000FFF66CAD012310AA69462D
:10064000404600F026FB10B9641EF6D161E54FF07C
:10065000FF3021B0BDE8F08F622826D068281DD079
:100660006A2808D06C2827D0712804D0742823D099
:100670007A280CD020E00868C01D20F00700086030
:10068000D0E90023083008601946104670470A6810
:100690000A6052F8040B0A60002170470A680A6079
:1006A00052F8040B0A6000B20BE00A680A6052F8C4
:1006B000040B0A6040B204E00A680A6052F8040BB6
:1006C0000A60C11770472DE9FA4E05460A462F69A0
:1006D0006F2A08BF082405D041F02000782814BFF5
:1006E0000A2410243C26D5E90001642A18BF692A8F
:1006F00081468A4605D1002903DAD9F100096AEB5F
:100700004A0ABAF1000F08BFB9F1000F0CD1286BEB
:1007100050B9082C36D195F83800000732D5302072
:100720003B2687F83B002DE0E3174846514622461A
:1007300000F02CFBA4FB0023A9EB02023032D2B262
:10074000A6F1010B3A2A5E4603DB9DF80030513BCF
:100750009A180BF8072081465FEA010A08BFB9F131
:10076000000F03D0E868F1198842DDD3082C09D1C5
:1007700095F83800000705D5F05D302802D0761EC8
:100780003020F055C6F13C00A861F119E960296BF1
:10079000884208DA081A28624FF6EF71288F08405D
:1007A0002887BDE8F38E00290ED595F8381001F0A2
:1007B0001401102908D1696B6A69891A2A6A891A91
:1007C0000E1A012EA8BF2E62BDE8F38E2DE9F34F5D
:1007D0008BB0D0E90089006B002801AF48BF06202C
:1007E00005D404BF41F02000672802D101200B99F5
:1007F000086340F2FF720B984168C1F30A509042BF
:1008000020D1080302BF0B98006800280AD10B9979
:10081000032088619DF8300061381A2858D30FF200
:10082000B44109E00B99032088619DF830006138DC
:100830001A284AD30FF294410B98C068032200F0A3
:100840001DFB00E1012807DA0B9800F052FB01289C
:1008500002DB00230026EDE00B9ADFF854B152686A
:1008600040F2FE3161F31E520B994A6040F2FE31B4
:10087000461A404649460022002300F05BFB38BF81
:1008800089F0004936B247F297507043494990FBCE
:10089000F1F636B2C6F10707012F92461BDBF807C7
:1008A00007D552465B464046494600F05BFB804612
:1008B00089465046594652465B467F1000F052FB2F
:1008C000002F82468B46EAD126E00FF2FC31B3E7D7
:1008D0000FF2FC31B0E77F420024374D12E0F807F9
:1008E00007D552465B462046294600F03BFB0446AE
:1008F0000D465046594652465B4600F033FB7F108A
:1009000082468B46002FEAD14046494622462B4676
:1009100000F0FAFB804689469DF83000DFF89CB075
:1009200040F02005662D0CBF06F10A0006200B9949
:10093000096B4718142FA8BF132730208DF8040027
:100940000DF10504012F3BDB4046494600F008FD50
:10095000014604F1080204234FF00A0CB1FBFCFC31
:100960000CEB8C04A1EB4401303102F8011C0A218C
:10097000BCFBF1FE0EEB8E04ACEB440430345B1E8A
:10098000714602F8024DE7D1083F012F02F1080439
:10099000D8DB00F0FBFC02460B464046494600F01F
:1009A00003FD00225B4600F0DDFA80468946CBE776
:1009B00000002440A08601000000F03F84D797414A
:1009C0000DF10500201A0DF1050702E0401E761E0C
:1009D0007F1C39783029F9D0662D02D136B2711CCE
:1009E00003E0652D0CBF012100210B9A126B8B18BF
:1009F0001BB29842B8BF03461BB219001AD48142F9
:100A000004DAC85D3528A8BF392000DA3020CA19B9
:100A1000521E00E05B1E12F80149491E8442F9D0C3
:100A2000392802D1C85D401CC855002902D57F1E57
:100A30005B1C761C36B29DF830100B9800961BB2EA
:100A40003A4600F003F80DB0BDE8F08F2DE9F04311
:100A5000054685B01E46D5F83080012E89461746DA
:100A600002DA01260FF2702749F02000BDF930406C
:100A7000662808BF641C15D0672840F0938014F1E5
:100A8000040F7CDB44457ADA95F83800641C0007D3
:100A900002D44645B8BFB04624B2B8EB040848BFFC
:100AA0004FF0000824B2E868A969012C25DA4A1C35
:100AB00030230B54B8F1010F03DA95F83810090709
:100AC00002D52E211154521CAA6118EB040FB8BF95
:100AD000C8F1000424B26142A0446962B045B8BFC5
:100AE0004646AB6936B2EE6132463946181800F018
:100AF000C5F9A8EB0600A862B4E00818A64218DA07
:100B00003246394600F0BAF9A9697118A01BB8F14C
:100B1000010FA961686203DA95F83800000705D56E
:100B2000EA682E208854E869401CE861C5F82880EE
:100B300098E02246394600F0A1F9A8692018361B32
:100B4000B8F1010F03DA95F83810090703D5EA6800
:100B50002E218154401C36B2A861B045B8BF46462C
:100B6000E868AB6936B23246E119181800F086F928
:100B7000A8693018A861A8EB0600686272E04645D3
:100B800004DA95F83810090758BFB046B8F10108E3
:100B900048BF4FF00008B9F1670F0CBF4FF065096F
:100BA0004FF04509A969E8684A1CAA61B8F1010F2C
:100BB00017F8013B0B5403DA95F83810090717D5DD
:100BC000531CAB612E211154B8F1010F10DB761EBE
:100BD00036B2B045B8BF464636B232463946181826
:100BE00000F04CF9A8693018A861A8EB060068620B
:100BF000E868A9690918200081F8009003D42B2027
:100C000048708F1C03E02D224A708F1C644200261E
:100C10000DF1080808E00A22684600F085FC0198FA
:100C200008F8010B761C009C21B20129F3DA022E90
:100C300006DA49F02000652804BF302007F8010BD0
:100C40004EB9302007F8010B07E0761E02A8305C91
:100C5000303007F8010B012EF7DAE868A9690818A7
:100C6000381AE86195F8380000F0140010280DD10A
:100C70006869A9690818696A0818E9690818A96AF9
:100C80000818696B8842BCBF081A286205B0BDE825
:100C9000F083F8B504460D4616461F46002077B18E
:100CA00016F8011BA868A047A86030B1E86A401C8C
:100CB000E86200207F1EF3D1F2BD4FF0FF30F2BD9D
:100CC000686A6C747A4C00006E616E004E414E0092
:100CD000696E6600494E460030000268531C03608E
:100CE000117070470278C9B28A421AB11CBF10F85D
:100CF000012FF9E718BF00207047010000F1010340
:100D0000810704D010F8011B89B18107FAD102686C
:100D1000B2F10131914311F0803F04BF50F8042F2C
:100D2000F6E710F8011B11B110F8011BFBE7C01A20
:100D300070470000C9B2830706D0521E22D310F8B4
:100D4000013B9942F7D11FE0083A13D302F10402A4
:100D500041EA012141EA014150F8043B121F21BF41
:100D60004B40A3F1013C2CEA030C1CF0803FF3D074
:100D7000C9B2001F083210F8013B521E28BF91EA89
:100D8000030FF8D818BF0120401E70471B4213D133
:100D9000094236D12AB18446B0FBF2F002FB10C200
:100DA000704700F0C9BBFCD30022002370470B0042
:100DB0000200002100207047904271EB030CF6D333
:100DC00070B5B1FA81F4B3FA83F52C1BA340C4F1DA
:100DD000200532FA05F63343A2405FF00046E640B4
:100DE00002E05B085FEA3202841A71EB030524BF5C
:100DF000204629467641F4D302000B003000002142
:100E000070BD012ACFD970B5140C20D0B1FA81F48D
:100E1000B2FA82F5C4F120046419B4F12006D6D3E5
:100E2000B2405FF00044F440002502E052085FEA5F
:100E30003303C61A71EB020E24BF3046714664417B
:100E40006D41F3D302000B002000290070BD0C4659
:100E5000B1FBF2F102FB11452D0445EA1045B5FB4B
:100E6000F2F402FB145580B240EA0545B5FBF2F0FE
:100E700002FB105240EA044070BD000062B38B07D1
:100E800008D0521E11F8013B00F8013B00F024800D
:100E90008B07F6D1830740F0208000BF103A07D3BC
:100EA00030B4B1E83810103AA0E83810F9D230BCAC
:100EB000530724BFB1E80810A0E8081044BF51F858
:100EC000043B40F8043BD20724BF31F8022B20F842
:100ED000022B44BF0B7803707047083A07D3B1E880
:100EE0000810083A40F8043B40F804CBF7D2530707
:100EF000E4E730B4436803F0004201211B031B0BFD
:100F0000436004BF0368002B08D10DE00368DD0FC8
:100F100045EA440444605B000360491E4468E30200
:100F2000F4D523031B0B436043681A434260084611
:100F300030BC70474FF4001C1CEB410F94BF1CEBFE
:100F4000430F09E041EA030C50EA4C0C52EA0C0C46
:100F500003D2994208BF9042704714BF8B4282422D
:100F600070470000B0B581EA030C0CF0004C40F271
:100F7000FF7515EA11541DBF15EA1357AC42AF4275
:100F800039E0E41923EA455343F48013C90241F0E0
:100F9000004141EA505EC7021100A7FB020200288F
:100FA0004FF00000EEFB01204FF00001E3FB0721B2
:100FB00018BF42F00102401800214941E3FB0E0135
:100FC000A4F580640F0302D252004041494154F11C
:100FD00001046CDD470872F1004250F1000051EB52
:100FE0000451A1F580115CBF41EA0C01B0BD4CEA8F
:100FF00005510020B0BD05EA1357AC4214BFAF4203
:1010000041E050EA410E1CBF52EA430E02E0614645
:101010000020B0BD24423C441BD15FEA070EF6D04D
:10102000090302BF01460020AEF1140EB1FA81F7A8
:10103000AEEB070401FA07FE0C37C7F1200100FAF6
:1010400007F7C8404EEA000E23EA455343F48013E5
:10105000A2E733F00043B3FA83F704BFB2FA82FE8B
:1010600077440B3FE41BB7F1200E2FBF02FA0EF3BB
:10107000BB40C7F1200E22FA0EFE38BF43EA0E0332
:10108000BA40641C82E750EA410E14BF52EA430E94
:101090006FF000014FF4001717EB430F8ABF19469A
:1010A00017EB410FB5E74CEA05510020B0BDD4F174
:1010B0000104B4F120070FDAC4F12007520828BF59
:1010C00042F0010210FA07F501FA07F7E1BF2A43DF
:1010D000E0403843E1400FE0352C98DCC7F12004B4
:1010E00052EA400220FA07F218BF42F0010231FA38
:1010F00007F0A1400A43002172F1004250F10000C4
:1011000051EB0C01B0BD00002DE9F04140F2FF753C
:1011100081EA030C0CF0004C15EA11541DBF15EACE
:101120001357AC42AF42E9E0BC41C1F31301C3F332
:101130001303801A994143F4801304D2641E4000C3
:10114000494180185941C90241EA5051B1FBF3F6B7
:1011500003FB1611A2FB0675D7EBC020A94102D2F2
:10116000761E80185941C90241EA5051B1FBF3FE85
:1011700003FB1E11A2FB0E75D7EBC020A94103D2C1
:10118000AEF1010E80185941890241EA905176056D
:1011900046EA8E2EB1FBF3F603FB1611A2FB067591
:1011A000D7EB8020A94102D2761E80185941C9028E
:1011B00041EA50514EEA060EB1FBF3F603FB16115D
:1011C000A2FB0675D7EBC020A94102D2761E80187B
:1011D0005941C90241EA5051B1FBF3F703FB171122
:1011E000A2FB0735D3EBC020A94167F100070CBF74
:1011F000004247F0010766F3D5274FEA1E31B808D1
:1012000014F5806414DDBD0775F1004250EB0E50FB
:1012100051EB045111F5801F5CBF41EA0C01BDE8A0
:10122000F0814CF07F6141F0E0410020BDE8F081A9
:10123000BD076D0840EA0E5041F48011D4F101045D
:10124000B4F120060ADAC4F120060200E04001FAF7
:1012500006F3E1401843B24015430EE0342C14DC91
:10126000C6F1200445EA40056D0820FA06F2154350
:1012700021FA06F0A1400D43002175F1004250F122
:10128000000051EB0C01BDE8F08100205FEA0C0189
:10129000BDE8F081CFB992185B41B3FA83F704BF80
:1012A000B2FA82F6BF190B3FB7F120062FBF02FA40
:1012B00006F3BB40C7F1200622FA06F638BF3343D7
:1012C000BA401CB1E419641E2FE77F4231F000419F
:1012D000B1FA81F404BFB0FA80F6A4190B3CB4F162
:1012E00020062FBF00FA06F1A140C4F1200620FA23
:1012F00006F638BF3143A0403C1B16E7AC421ABF8C
:1013000005EA1357AF4214E050EA41061CBF52EA07
:101310004306BFE750EA4107304661461CBF41EA39
:101320000551BDE8F08152EA430C08BFC143BDE856
:10133000F08100204FF4001616EB410F98BF16EB1A
:10134000430F08BF16EB410F24BFC14305E016EB66
:10135000430F0CBF61464CEA0551BDE8F081000027
:10136000400D40EAC120490080F00D8040F000406F
:10137000490DA1F58061491C05D4D1F11F0154BF6D
:10138000C840C01770474FF000007047010000BF11
:1013900009D0B0FA80F18840C91CC1F58461090503
:1013A00001EBD02140057047F0B44FF0004591EAC1
:1013B000030F44BF6B4000F0C1B800BF841A71EB4B
:1013C000030604D26E40001BB141121973414FF461
:1013D000001C1CEB410F34BF7CEB430684E00C0D7A
:1013E000A4EB1356362E7DDC012E43DC45EAC323E5
:1013F00043EA525312BFD20292025B08240545EA27
:10140000C12141EA5051D2EBC020994125D407D1E6
:10141000B0FA80F610FA06F164D00020203608E019
:10142000B1FA81F6B140C6F1200220FA02F211436E
:10143000B0404FEAF474B4EB465434F001064FEA7E
:1014400074040AD8D6F50016760D04F00044F04076
:1014500061FA06F25040F1404840C00A40EA41506B
:1014600021F0004128BF5FEA500550F1000044EB35
:10147000D12137E045EAC323DB0A45EAC121C90A85
:10148000B6F120050EDD42EA0242120CC5F120063B
:1014900003FA06F6EB4042EA06056D42984161F117
:1014A00000010DE062FA06F5F240554063FA06FCD1
:1014B00082EA0C02F3405A406D42904161EB030115
:1014C00011F4801F05D1641E620502D06D004041F9
:1014D000494121F48011430875F1004350F10000A7
:1014E00041EB0451F0BC70471CEB410F15D223F0C7
:1014F000004352EA43060BD04FEA4C0CBCEB410FC1
:1015000004D80C0D661E342EB7DDEBE7801A994126
:1015100050EA410608BF0021E4E708BF1CEB430F77
:1015200028BF6FF00001DDE791FBF2F303FB12111E
:10153000C0E900317047000070470000841A71EB69
:10154000030603D2001BB141121973414FF4001C72
:101550001CEB410F34BF7CEB430443E00C0DA4EBC8
:101560001356352E50DC45EAC323DB0A45EAC12178
:10157000C912B6F120050DDD63FA05F6EB4086EAE7
:101580000305124218BF45F00105C01851F10001D2
:101590000CD213E062FA06F5F2405540F3415A408E
:1015A000B340F3405A408018594107D349085FEAD5
:1015B00030005FEA350528BF45F0010501F58011CF
:1015C000420875F1004250F1000041EB0451F0BCBB
:1015D0004FF4001C1CEB410F38BF70470020090D71
:1015E000090570471CEB410F10D252EA43060BD09D
:1015F000BCEB410F05D80C0DAB43661E342EB5DD98
:1016000002E0AB4380185941F0BC7047F0BC704712
:10161000012110F01F029140DFF8A42840B24009D8
:1016200042F820107047012110F01F029140DFF8AE
:10163000942840B2400942F82010704780B500203D
:10164000DFF88C18087000F08BF800F090F800F0CC
:10165000A2F800F081FC00F0D2F8DFF878080078FA
:10166000002803D10320DFF86C18087000F037F968
:10167000DFF85408008800F0BEFCDFF85C08007852
:10168000402826D10120DFF85418087000200FE010
:10169000DFF83418098880B28200D2F10C021141BF
:1016A00011F00F01DFF8382880B222F81010401C2A
:1016B00080B20428ECDB0020DFF82818088008E05E
:1016C000DFF80C080078042801D100F0A5FF00F035
:1016D0004CFA00F03DF9DFF810180860DFF8080850
:1016E000006800F06AF9DFF804180860DFF8F8070E
:1016F000006800F0B9F9DFF8F8170860DFF8F007C4
:10170000006800F017FADFF8EC170860DFF8C80788
:1017100000784028DDD1DFF8B8070078002807D12D
:10172000DFF8C807006801F039F900F094FECEE751
:10173000DFF89C070078012802D100F087FFC6E798
:10174000DFF88C070078022802D100F0CBFFBEE75B
:10175000DFF87C0700780328B2D100F0FFFEB6E77F
:1017600080B500220221002001F040F901BD80B5C2
:1017700040F2531001F070F90023002200210020F4
:1017800001F044F95FF0FF33002200215FF0FF30E9
:1017900001F04CF901BD80B53C21DFF85C0701F098
:1017A00065F90421DFF8500701F063F90021DFF843
:1017B000480701F061F90021DFF8400701F056F910
:1017C0009F21DFF8380701F054F90021DFF82C07DA
:1017D00001F052F90021DFF8280701F047F9032151
:1017E000DFF81C0701F04BF90321DFF8140701F0C3
:1017F00040F90021DFF8080701F03EF901BD10B5FE
:10180000002000240B20FFF70EFF78225FF48031C8
:10181000DFF8F00601F05DF90B20FFF7F9FE00207C
:101820000BE0DFF8E016E4B251F82410DFF8D82618
:10183000C0B242F82010641C401CC0B20B28F0DB80
:10184000DFF8C006E4B250F82400DFF8881608700C
:10185000641CDFF8B006E4B250F82400DFF8681624
:101860000880641C10BD80B50020002100200BE022
:10187000DFF89426C0B252F82020DFF88836C9B2CB
:1018800043F82120491C401CC0B20B28F0DBDFF8D4
:1018900044060078DFF86C26C9B242F82100491CE2
:1018A000DFF824060088DFF85C26C9B242F8210080
:1018B000491C0B20FFF7B7FE5FF4803001F016F9EA
:1018C00078225FF48031DFF83C0601F0E5F801F0A2
:1018D00037F9C007FBD40B20FFF79AFE01BD80B596
:1018E00000F02BF8DFF8F0150870DFF8EC05007851
:1018F000002813D020280ED040281DD101F0B6F9C1
:1019000001F001FADFF8CC05007850F02000C0B2F9
:1019100001F07AF910E000F01AF80DE001F0A6F9F4
:1019200001F0F1F9DFF8AC05007850F02000C0B20A
:1019300001F06AF900F00BF801BD80B50020DFF876
:10194000BC0501F09FF810F06000C0B202BD704706
:1019500010B5002400F09BFB00070FD5002000F01D
:10196000BBFC04432404012000F0B6FC044314F043
:10197000704F03D1200ADFF870150860DFF85005BA
:101980000078002804D0DFF848050078012810D13D
:10199000DFF854050268DFF87415DFF8300501F050
:1019A000C7FA0521102001F095F9DFF8200501F0B4
:1019B000F7F9DFF83405006810BD2DE9F0410400A7
:1019C00000200026002000E0401CC0B20B2806DAF0
:1019D000DFF83415C0B251F820108C42F4D3DFF890
:1019E00030150870DFF82805007801F0BBFADFF841
:1019F000241501F0C7FA0500DFF81405007801F09E
:101A0000B1FA0600DFF80005DFF80415097810EBDD
:101A1000810050F8040C01F0A5FA0700DFF8E80493
:101A2000DFF8EC14097850F8210001F09BFA8046A9
:101A30003000290001F0E8FA06004046390001F0C4
:101A4000E3FA0100300001F053FB0600200001F032
:101A500089FA390001F0D8FA310001F0C7FB2900FA
:101A600001F090FABDE8F0812DE9F041040000207A
:101A70000025DFF89C04007801F074FADFF8981470
:101A800001F0B4FB5FF0814101F07CFA0500DFF862
:101A90008004007801F066FADFF8781401F072FA39
:101AA000DFF8741401F0A2FB5FF0814101F06AFAE3
:101AB0000600DFF85404DFF85814097810EB8100B1
:101AC00050F8040C01F04EFA0700DFF83C04DFF890
:101AD0004014097850F8210001F044FA80462800AB
:101AE000310001F091FA05004046390001F08CFA0E
:101AF0000100280001F0FCFA0500200001F032FA94
:101B0000390001F081FA290001F070FB310001F089
:101B100039FA5FF0814101F0D5FB02D25FF08140DC
:101B200006E0DFF8F81301F0DFFB01D8DFF8F0037F
:101B3000BDE8F08180B5DFF8EC1301F023FA5FF027
:101B4000834101F0D5FADFF8E01301F04FFB0021EB
:101B500001F0B8FB01D2002006E0DFF8D01301F05D
:101B6000C3FB01D8DFF8C00302BD10B50024DFF8C5
:101B7000880300F087FF10F0F000C0B2302800F0BA
:101B80008081702800F02781902800F07081B028B3
:101B900000F0C980D02876D0E02840F08F81DFF8AF
:101BA00030030078002806D10420DFF824130870E1
:101BB00001F0A9F862E0DFF818030078012828D1C5
:101BC000DFF824030068DFF84013DFF8642312888D
:101BD00041F82200DFF810030368DFF8540302889D
:101BE000DFF85013B94801F0A3F904210C2001F0EB
:101BF00071F8B64801F0D4F8DFF8340300880A28F9
:101C00003CDADFF82C030088401CDFF8241308803E
:101C100034E0AF480078022805D10120AF490870B0
:101C200001F071F82AE0AA480078032826D10020A4
:101C30000AE0AB49C0B231F81010C0B28200D2F154
:101C40000C0291400C43401CC0B20428F1DB21007F
:101C500089B2002000F080FA002000F077FA9A495B
:101C6000088099480288B449984801F061F9052133
:101C70000C2001F02FF8954801F092F84FF496707F
:101C800000F08BF91AE192480078002810D1AB4897
:101C90000078401CA9490870A8480078042802DB95
:101CA0000020A64908704FF4967000F076F935E0F0
:101CB00087480078012807D1FFF7D5FD0020844927
:101CC000087001F020F829E081480078022808D146
:101CD00000207F49087000208249088001F013F835
:101CE0001CE07B48007803280FD101207849087058
:101CF00000208F49088001F006F80421282000F018
:101D0000E9FF8F4801F04CF808E07148007804289A
:101D100004D103206E49087000F0F5FF4FF496706F
:101D200000F03BF9CAE06A480078012809D18048F0
:101D3000008800284AD07E480088401E7C490880E0
:101D400044E06348007802280BD1664800880328E5
:101D50003CDA64480088401C6249088000F0D3FFE8
:101D600034E05B480078032819D15D487049098840
:101D700030F811000F2806D1002059496C4A12880A
:101D800021F8120022E056486949098830F811000C
:101D9000401C5349664A128821F8120016E04C484C
:101DA0000078042812D14B480078401C494908703B
:101DB00048480078072802DB072046490870454854
:101DC000007850F02000C0B200F01EFF4FF4967073
:101DD00000F0E3F872E03E480078012809D1544849
:101DE00000880A283EDA52480088401C5049088082
:101DF00038E03748007802280BD13A48008800289C
:101E000030D038480088401E3649088000F07BFFFB
:101E100028E02F48007803280DD145480088032882
:101E200003D10020424908801CE041480088401C42
:101E30003F49088016E026480078042812D125483A
:101E40000078401E2349087022480078002802D1FB
:101E50000020204908701F48007850F02000C0B2D0
:101E600000F0D2FE4FF4967000F097F826E00220C2
:101E70001749087000F047FF4FF4967000F08DF896
:101E80001CE002211D4800F002FE0A2000F085F847
:101E900002211A4800F0F8FD0A2000F07EF800F058
:101EA000E5FE00F030FF0B48007850F02000C0B293
:101EB00000F0AAFE4FF4967000F06FF810BD00001D
:101EC00000E100E080E100E0E6000020A400002046
:101ED000EA000020ED000020EB000020EF000020D1
:101EE000B8000020E8000020C4000020C800002046
:101EF000CC000020D0000020006000403060004096
:101F0000606000400000002078000020F8420000DF
:101F1000EC000020000080BFCDCCCC3F0100A041F0
:101F20000000A041000080C00000C8420100C8427B
:101F3000D4000020F441000008420000EE00002020
:101F400004430000012110F01F0291401D4A40B2DD
:101F5000400942F82010704780B520215FF0804092
:101F600001F0E4F91823002240215FF0804001F0E5
:101F7000CDF900F001F801BD80B50B20FFF7E2FFBD
:101F800001BD000005E000BF00BF00BF00BF00BFF3
:101F900000BF401E0128F6DA704700210A4A11608E
:101FA000094909688142FBD3704780B501215FF080
:101FB000804001F0BEF904480068401C02490860F6
:101FC00001BD000000E100E0C000002010B50400E9
:101FD0001A2000F081F9A4B2B4F5005F05D150F4E5
:101FE000005080B200F03BF804E04DF6FF7108406D
:101FF00000F035F810BD10B5040000F0C2F84FF441
:102000000050FFF7E3FF4FF4E05000F028F80422FF
:102010000221002000F040F840F2D641002000F0FC
:102020005CF80A21002000F048F842F2200000F09D
:1020300023F8042000F073F800221221002000F0A1
:102040005CF8A4B24FF6FF70844204D0210089B23C
:10205000002000F071F80020FFF7B8FF10BD80B538
:1020600050F001001A2180B200F004F901BD80B5E2
:102070001A2000F031F902BD80B5192180B200F0BC
:10208000F9F801BD80B5192000F026F902BD80B530
:10209000182000F021F902BD80B552EA013210F19A
:1020A0001401C9B2100080B200F0E4F801BD80B59F
:1020B0001430C0B200F010F902BD80B50A0010F172
:1020C0001001C9B2100080B200F0D4F801BD80B593
:1020D0001030C0B200F000F902BD80B50A0010F166
:1020E0000801C9B2100080B200F0C4F801BD80B58B
:1020F0000830C0B200F0F0F802BD80B5920152EA9B
:10210000C12210F11E01C9B2100080B200F0B2F875
:1021100001BD80B51E30C0B200F0DEF802BD80B552
:1021200050F402701B2180B200F0A4F801BD80B50C
:102130001B2000F0D1F802BD80B50A0010F10C019F
:10214000C9B2100080B200F095F801BD80B50C3026
:10215000C0B200F0C1F802BD10B50C004FF4005041
:10216000FFF734FF0A20FFF718FF210089B2002093
:10217000FFF7E2FF0020FFF729FF6420FFF70DFFC4
:1021800010BD80B50121984800F07EFC02219648E0
:1021900000F07AFC01BD80B50221934800F077FC85
:1021A0000120FFF7EFFE01218F4800F070FC0120B5
:1021B000FFF7E8FE01BD80B501218B4800F064FC0B
:1021C0000120FFF7DFFE0221874800F05DFC0120BF
:1021D000FFF7D8FE01BD80B5C0B2002804D00221AF
:1021E000814800F051FC03E002217F4800F04FFCE1
:1021F0006420FFF7C7FE01217B4800F045FC012069
:10220000FFF7C0FE0121784800F041FC0120FFF7F4
:10221000B9FE01BD10B500240121734800F029FC6E
:102220006420FFF7AFFE704800F02CFC10F00104B2
:1022300001216D4800F028FC0120FFF7A3FE0121D9
:10224000694800F024FC0120FFF79CFE032166484A
:1022500000F00FFC2000C0B210BD80B50321624821
:1022600000F007FC0020FFF7B6FF01215E4800F0F8
:1022700000FC01BD38B556228DF800208DF8011004
:10228000010089B2090A8DF802108DF80300FFF7EA
:1022900082FF002402E0FFF7BDFF641CE4B2042CBF
:1022A00014DA002503E00020FFF795FF6D1CEDB266
:1022B000082DF0DA6846E4B2205CD5F10701084148
:1022C000C007F0D50120FFF786FFEFE7FFF773FFA8
:1022D0006420FFF757FE31BDF8B5002700245621D2
:1022E0008DF800108DF80100FFF755FF002602E081
:1022F000FFF790FF761CF6B2022E14D2002503E001
:102300000020FFF768FF6D1CEDB2082DF0DA68467B
:10231000F6B2305CD5F107010841C007F0D50120C5
:10232000FFF759FFEFE7FFF746FF0120FFF72AFE0F
:10233000FFF731FF5726002503E00020FFF74BFF92
:102340006D1CEDB2082D0ADAF6B2D5F107003100A6
:102350000141C807F1D50120FFF73DFFF0E7FFF786
:1023600059FF0121204800F084FB6420FFF70AFE9A
:10237000002625E01C4800F085FBC0F34000D5F1A5
:102380000701884007430121174800F07DFB012029
:10239000FFF7F8FD0121144800F079FB0120FFF759
:1023A000F1FD6D1CEDB2082DE4DBFFF756FFFFB227
:1023B000D6F10100C0B2C00017FA00F00443761C49
:1023C000F6B2022E02DA00270025EBE703210648C9
:1023D00000F04FFBFFF7EFFE6420FFF7D3FD200076
:1023E00080B2F2BD0000000060600040F8B504005B
:1023F0000D0016001F000021102000F06BFC2000D3
:1024000000F0CEFC0721082000F064FC280000F05A
:10241000C7FC0721322000F05DFC300000F0C0FC5A
:102420000721462000F056FC380000F0B9FC0721D7
:10243000692000F04FFC069800F0B2FC08238422CB
:102440000821002000F078FF362384223621002066
:1024500000F072FFF1BD80B5DFF86C0400907AA344
:1024600079A2DFF86814DFF86804FFF7BFFFDFF830
:1024700064040078002815D1DFF85C04006800F0DF
:102480008DFA02000B00DFF85414DFF8540400F05A
:102490004FFD04216A2000F01DFCDFF8480400F025
:1024A0007FFC52E0DFF82C040078012818D1DFF817
:1024B00028040068DFF8301400F01AFE00F06EFA0D
:1024C00002000B00DFF82414DFF8140400F030FDE4
:1024D00004216A2000F0FEFB7CA000F061FC34E0E7
:1024E000DFF8F0030078022815D1DFF80404006853
:1024F00000F054FA02000B00DFF8F013DFF8E003FD
:1025000000F016FD04216A2000F0E4FBDFF8E4038C
:1025100000F046FC19E0DFF8BC030078032814D172
:10252000DFF8D403006800F039FA02000B00DFF88E
:10253000AC13DFF8AC0300F0FBFC04216A2000F0D0
:10254000C9FBDFF8B80300F02BFC02210C2000F0DF
:10255000C1FBDFF88C0300F0B1FC01BD10B582B007
:10256000DFF89C0300905AA35AA2DFF89813DFF813
:102570009803FFF73BFF00240DE00221E4B2142092
:1025800000FB04F01E30C0B200F0A4FBDFF85003E3
:1025900000F006FC641CE4B2042C1EDADFF86C03C5
:1025A000E4B230F814204CA1DFF8340300F0C0FC92
:1025B0002000C0B2DFF85813098880B28842DCD10D
:1025C0000221E4B2142000FB04F01E30C0B200F07F
:1025D00081FBC34800F0EFFBDCE70020FFF7B6FD0E
:1025E000020092B2DFF82C13BD4800F0A1FC0321D9
:1025F0000C2000F06FFBBA4800F0D2FBC64802681E
:10260000C649B74800F094FC04210C2000F062FB9E
:10261000B34800F0C5FB13BD80B5B9480090C04B6E
:102620002CA209A1BF48FFF7E1FEBF4802782BA109
:10263000AB4800F07DFC0221462000F04BFBA8488F
:1026400000F03CFC01BD00000000000010B582B0AD
:10265000B64800901EA322A2AA49B548FFF7C6FEBD
:10266000002413E00620062194FBF1F1891CC9B275
:1026700094FBF0F200FB1240122250431030C0B223
:1026800000F028FB964800F08BFB641C0B2C1CDA36
:102690002200A849924800F04BFC9D4800888442E3
:1026A000E0D10620062194FBF1F1891CC9B294FB0C
:1026B000F0F200FB1240122250431030C0B200F082
:1026C00009FB874800F077FBDFE713BD6D696C00FD
:1026D0002D3E0000555000002578000025640000C4
:1026E0003C2D000010B582B09348007800282BD014
:1026F000FFF7BDFC914908800020FFF7D8FC904906
:1027000008800020FFF7E3FC8E4908800020FFF7D7
:10271000EEFC8D490880FFF7B5FC8C490880FFF777
:1027200006FD8B4908800020FFF7F3FC89490880EB
:10273000FFF7ADFC884908800020FFF707FD8749B7
:10274000088000207C490870784800905DA35DA255
:1027500083498448FFF74AFE83480088002806D052
:1027600002286ED038D3032800F08680A9E0734891
:1027700002887E495A4800F0DBFB02210C2000F061
:10278000A9FA574800F00CFB6D4802887849544874
:1027900000F0CEFB03210C2000F09CFA504800F022
:1027A000FFFA6848028873494D4800F0C1FB0421D4
:1027B0000C2000F08FFA4A4800F0F2FA62480288D2
:1027C0006D49474800F0B4FB05210C2000F082FA67
:1027D000434800F0E5FA74E05C48028867494048E5
:1027E00000F0A6FB02210C2000F074FA3C4800F037
:1027F000D7FA574802886249394800F099FB03210B
:102800000C2000F067FA364800F0CAFA51480288F6
:102810005C49334800F08CFB04210C2000F05AFA8C
:102820002F4800F0BDFA3C48026857492C4800F098
:102830007FFB05210C2000F04DFA294800F0B0FA8A
:102840003FE0454802885149254800F071FB0221CC
:102850000C2000F03FFA224800F0A2FA3F4802881C
:102860004B491F4800F064FB03210C2000F032FAB2
:102870001B4800F095FA24E000241FE04548E4B22C
:1028800050F824000202120A4349154800F050FB98
:10289000E4B20320E4B2032194FBF1F1891CC9B234
:1028A00094FBF0F200FB1240282250430A30C0B2E1
:1028B00000F010FA0A4800F073FA641CE4B20B2C22
:1028C000DCDB13BD00000000544300004C4300005B
:1028D0001C420000EE000020C80000205C43000005
:1028E000A400002064430000A913D03C6C43000006
:1028F000D000002074430000CC0000207C43000086
:102900008C4300008443000058420000B8000020BF
:10291000D400002030420000C400002068420000C3
:102920009443000044420000ED0000209C4300005E
:1029300078420000A4430000EF000020D6000020F1
:10294000D8000020DA000020DC000020DE0000209B
:10295000E0000020E2000020E4000020E60000206B
:10296000AC43000010430000E80000208842000053
:1029700098420000A84200001C430000B84200003A
:1029800028430000C842000034430000D842000041
:10299000E842000078000020B44300005FF0FF0C24
:1029A0001CEAD05114BF614506E0C110400721F078
:1029B000E04101F16051704779B900F00041000237
:1029C0000AD0B0FA80FC00FA0CF001F16051A1EBE2
:1029D0000C5101EBD0214005704741020CBF40F47F
:1029E000E0016FF00001002070470000064B1B88DB
:1029F0009BB213F0200353F0400303430B431343F4
:102A000001480380012070478825004010F007002E
:102A100011F0030150EAC10013F0070150EA411020
:102A20000F4908800F4802800120704710B410F051
:102A3000070454EAC00411F0070054EA801412F0AD
:102A4000070054EA402413F0070054EA0034064813
:102A50000480012010BC704701498885012070471F
:102A60000020004044240040042000400180012058
:102A70007047017101207047017201207047017396
:102A800001207047007D70470177007F704780F814
:102A9000201090F820007047F8B504000D001600D3
:102AA00000200027012000F03AF800F049F8002744
:102AB00009E0002020682860241D2D1D00F040F84A
:102AC000C007FBD43F1DB742F3D3002000F027F826
:102AD000F1BD10B40023002304E00C68091D04605C
:102AE000001D1B1D9342F8D310BC7047164909887E
:102AF00089B2012901D1002010E04FF25641134A5A
:102B000011804FF22311114A118012490880000CE4
:102B10001149088001200E490880012070470028D3
:102B200006D00E48008850F004000C49088005E0EB
:102B30000A48008810F0FB0008490880012070470F
:102B40000148008880B270470028004020280040DB
:102B500008280040102800401428004004280040A5
:102B600080B50121CE48FFF792FF1E20FFF70AFA39
:102B70000221CB48FFF788FF0120FFF70EFA022160
:102B8000C748FFF784FF0120FFF707FA0221C44876
:102B9000FFF77AFF0120FFF700FA0121C048FFF795
:102BA00073FF0421BE48FFF76FFF01BD38B5040075
:102BB0000121BB48FFF76BFF0120FFF7E3F9042178
:102BC000B748FFF761FF0120FFF7DCF9002509E0B6
:102BD0001021B348FFF75BFF0821B148FFF754FF0E
:102BE00064006D1C082D0ADA0821AD48FFF74FFF7D
:102BF0002006EDD51021AA48FFF746FFECE701219A
:102C0000A748FFF741FF31BD38B504000121A448B2
:102C1000FFF73DFF0120FFF7B5F90421A048FFF7BA
:102C200036FF0120FFF7AEF9002509E010219C488E
:102C3000FFF72DFF08219A48FFF726FF64006D1C5F
:102C4000082D0ADA08219648FFF721FF2006EDD566
:102C500010219348FFF718FFECE704219048FFF795
:102C600013FF01218E48FFF70FFF31BD80B5FFF73D
:102C700077FFE220FFF7C8FFA120FFF7C5FFA220E2
:102C8000FFF7C2FFC020FFF7BFFF2F20FFF7BCFFF9
:102C90006420FFF782F9A420FFF7B6FF8120FFF739
:102CA000B3FF2020FFF7B0FF2320FFF7ADFFAF20D9
:102CB000FFF7AAFFA620FFF7A7FFB020FFF7A4FFAA
:102CC0001020FFF7A1FF0020FFF79EFF4020FFF735
:102CD0009BFF01BD38B504000D00724805707248B5
:102CE00004702000C0B2000950F01000C0B2FFF71D
:102CF0008BFF14F00F00FFF787FF55F0B000C0B254
:102D0000FFF782FF31BD38B500240025002507E01C
:102D10000020FFF74BFF641CE4B2842CF8DB6D1C31
:102D2000EDB2082D06DA2900C9B20020FFF7D2FF64
:102D30000024F1E731BD38B5040000250EE05B4802
:102D4000E4B20521EDB201FB045110EB8100B0F5B6
:102D500020700068C0B2FFF729FF6D1CEDB2052D91
:102D6000EDDB0020FFF722FF31BD38B50400002560
:102D70000FE04E48E4B20521EDB201FB045110EB27
:102D80008100B0F520700068C043C0B2FFF70EFFAD
:102D90006D1CEDB2052DECDB0020FFF707FF31BD08
:102DA00010B5040003E02078FFF7C5FF641C20780D
:102DB0000028F8D110BD10B5040003E02078FFF71B
:102DC000D4FF641C20780028F8D110BDF8B50400A9
:102DD000344805783448067801270FE03448E4B2D7
:102DE0003A21FFB201FB047110EB4100B0F5A35092
:102DF0000088C0B2FFF7DAFE761CFF1CFFB23A2F44
:102E000040DA2900C9B23000C0B2FFF763FFE4B274
:102E1000202C03D10020FFF7C9FE0CE02448E4B2C7
:102E20003A21FFB201FB047110EB41002149085A1D
:102E3000C0B2FFF7BBFE691CC9B23000C0B2FFF7D9
:102E400049FFE4B2202C03D10020FFF7AFFE0CE0D5
:102E50001748E4B23A21FFB201FB047110EB4100C4
:102E60001549085AC0B2FFF7A1FEA91CC9B230002B
:102E7000C0B2FFF72FFFE4B2202CAFD10020FFF744
:102E800095FEB9E70020FFF791FEE4B22E2C00D1A9
:102E9000761F2900C9B23000C0B2FFF71BFFF1BD99
:102EA00030600040F1000020F0000020D43300002A
:102EB000543B00009CEBFFFF9EEBFFFF10B50400AE
:102EC00003E02078FFF782FF641C20780028F8D107
:102ED00010BDF8B504000D0017000026082095FB72
:102EE000F0F00100C9B22000C0B2FFF7F3FE002FDE
:102EF00008D00120082195FBF1F202FB115290400D
:102F0000064307E00120082195FBF1F202FB115274
:102F100090408643082095FBF0F00100C9B22000E4
:102F2000C0B2FFF7D7FE3000C0B2FFF73FFEF1BDE1
:102F30000CB41CB5044604A801900A46009401ABE9
:102F40006946074878441830FDF7CAF8009A00210E
:102F5000117000285CBF0098001B16BC5DF80CFBCC
:102F60007BDDFFFF002800BF0AD0B0FA80F1884067
:102F7000D1F19D01C905020672F1004241EB10201A
:102F80007047000090EA010F44BF81F0004100F05B
:102F900043B800BF421A3CBF801A89184FF0004C5A
:102FA000C0F3C752FF2A24D0C1F3C75313B3D21AB8
:102FB000D2F1190327DD4CEA01214CFA03F321EA8F
:102FC0000303D140C20D4CEA0020401834BF20EA70
:102FD0000C004CEA5000D20553EA006373EB0C0C72
:102FE00052EB1020420012F1807F38BF7047C00DB5
:102FF000C0057047490212BF9A4200EB5120F8E722
:10300000D2F11703D9D5704790EA010F44BF81F080
:103010000041FFF7BFBF00BF431A4FF000423EBF61
:103020005340C01AC91800BFD3095FEAD05C13EB44
:10303000400F34BFB3EB410F40E07CEBD1530CD3D6
:1030400042EA012122D8D1EB402009D3400A28BF0F
:103050005FEA500140EBCC507047401A15D0400257
:10306000B0FA80F2521C9040400A4FEA3C23B3EB86
:10307000026384BF00EB730007E040F400001A16FF
:10308000DB07C2F10102D04018437047182BFCDC6B
:1030900031FA03F202FA03F3591A38BF42F001027F
:1030A000D2EB40203CBF4000ACF1010C5FEACC5CAD
:1030B000C20572F100414CEB5020704713EB400FFA
:1030C0000FD24B0009D0ACEBD153022B03DB4902EA
:1030D000172BDDDD70479143401A4300D5D1002006
:1030E000704713EB410FD0D36FF000007047000022
:1030F00010B5FF2313EAD0541DBF13EAD1529C42EE
:103100009A4239E0A41ADA0780EA0103134042EA3E
:10311000012142EA0020421A3CBF641E01EB420238
:10312000090AB2FBF1FE01FB1E221202B2FBF1F012
:1031300001FB10226EF30F201202B2FBF1FE4EEAE9
:1031400000207F3406DDFE2C24DA53EA500050EBD9
:10315000C45010BDD4F1020401FB1E2240F0807166
:10316000192C1DDC21FA04F0C4F12004A140114304
:1031700071F10042584110BD9C421ABF03EAD1527E
:103180009A420FE080EA010E0EF00043400004D0A6
:10319000490016D143F0FF4010BD490008BFD3439A
:1031A000180010BD9C4205D1D21AF7D001F00041A1
:1031B000484010BD4A0212BF0846484000F0004097
:1031C00010BD4AB90902B1FA81F2914044B1A41884
:1031D000C00140F000409EE7C90141F00041524269
:1031E0000002B0FA80F4A040141B94E7FF2212EA18
:1031F000D05C1DBF12EAD153944593422BE09C440E
:10320000D30780EA01021A4043EA002043EA012181
:10321000A1FB0030410038BF40007CF17F010BDB97
:10322000FE294ADA5B0842EAC15153EA006373F1AE
:10323000004C51EB10207047D1F1080CDCF120015B
:103240002FDB5B0810FA01F10B4373F1004120FA08
:103250000CF05041704794451CBF02EAD153934291
:1032600080EA010202F000421DD0400019D049005E
:1032700017D05BB9634514D00902B1FA81F39940C4
:10328000BCEB030CC00140F00040C1E70002B0FA03
:1032900080FC10FA0CF0B3EB0C0CC90141F00041BA
:1032A000B6E71000704740000AD0490008D010F17E
:1032B000807F94BF11F1807F02E042F0FF407047B1
:1032C000D04370474FF0807C1CEB400F94BF1CEB49
:1032D000410F05E040EA010C5FEA4C0C01D2884244
:1032E000704718BF814270474FF0807C1CEB400F45
:1032F00094BF1CEB410F05E040EA010C5FEA4C0C67
:1033000001D28142704718BF8842704710B4848B45
:10331000640601D5002007E0048914F470640C43AE
:1033200014431C430481012010BC7047018001201C
:1033300070478181012070472DE9FE4F019A141AD0
:10334000029A551A26196F19834688465FF00109BB
:103350005FF0010A002C03D55FF0FF39644276422A
:10336000002D03D55FF0FF3A6D427F42184A127874
:10337000FFF7AFFD55EA0400002826D0AC4212DB6F
:10338000002519EB0B0B7D19AC4202DA1AEB080889
:10339000AD1B0F48027841465846FFF79AFD019849
:1033A0008345EED111E000241AEB08083419A54238
:1033B00002DA19EB0B0BE41B05480278414658462C
:1033C000FFF787FD02988045EED1BDE8F78F00003A
:1033D000FA0C0000000000000000000000000000E7
:1033E00000000000000000000000000000000000DD
:1033F0005F0000000000000000000000000000006E
:1034000007000000000000000700000000000000AE
:10341000140000007F000000140000007F00000086
:1034200014000000240000002A0000007F000000BB
:103430002A0000001200000023000000130000001A
:103440000800000064000000620000003600000078
:10345000490000005500000022000000500000005C
:103460000000000005000000030000000000000054
:1034700000000000000000001C000000220000000E
:1034800041000000000000000000000041000000BA
:10349000220000001C0000000000000008000000E6
:1034A0002A0000001C0000002A00000008000000A4
:1034B00008000000080000003E00000008000000B6
:1034C0000800000000000000500000003000000074
:1034D00000000000000000000800000008000000DC
:1034E00008000000080000000800000000000000C4
:1034F000300000003000000000000000000000006C
:10350000200000001000000008000000040000007F
:10351000020000003E0000005100000049000000D1
:10352000450000003E0000000000000042000000D6
:103530007F0000004000000000000000420000008A
:10354000610000005100000049000000460000003A
:103550002100000041000000450000004B00000079
:1035600031000000180000001400000012000000EC
:103570007F00000010000000270000004500000050
:103580004500000045000000390000003C0000003C
:103590004A0000004900000049000000300000001F
:1035A000010000007100000009000000050000009B
:1035B0000300000036000000490000004900000040
:1035C000490000003600000006000000490000002D
:1035D00049000000290000001E000000000000005B
:1035E000360000003600000000000000000000006F
:1035F000000000005600000036000000000000003F
:10360000000000000000000008000000140000009E
:10361000220000004100000014000000140000001F
:10362000140000001400000014000000410000001D
:10363000220000001400000008000000000000004C
:10364000020000000100000051000000090000001D
:103650000600000032000000490000007900000070
:10366000410000003E0000007E000000110000004C
:1036700011000000110000007E0000007F0000002B
:103680004900000049000000490000003600000029
:103690003E00000041000000410000004100000029
:1036A000220000007F0000004100000041000000F7
:1036B000220000001C0000007F0000004900000004
:1036C0004900000049000000410000007F000000A8
:1036D00009000000090000000100000001000000D6
:1036E0003E000000410000004100000051000000C9
:1036F000320000007F000000080000000800000009
:10370000080000007F0000000000000041000000F1
:103710007F000000410000000000000020000000C9
:1037200040000000410000003F00000001000000D8
:103730007F000000080000001400000022000000CC
:10374000410000007F000000400000004000000039
:1037500040000000400000007F0000000200000068
:1037600004000000020000007F0000007F00000055
:103770000400000008000000100000007F000000AE
:103780003E00000041000000410000004100000038
:103790003E0000007F00000009000000090000005A
:1037A00009000000060000003E000000410000008B
:1037B00051000000210000005E0000007F000000BA
:1037C0000900000019000000290000004600000068
:1037D00046000000490000004900000049000000C8
:1037E0003100000001000000010000007F00000027
:1037F00001000000010000003F0000004000000048
:1038000040000000400000003F0000001F000000DA
:103810002000000040000000200000001F00000009
:103820007F000000200000001800000020000000C1
:103830007F0000006300000014000000080000008A
:1038400014000000630000000300000004000000FA
:103850007800000004000000030000006100000088
:103860005100000049000000450000004300000036
:1038700000000000000000007F0000004100000088
:1038800041000000020000000400000008000000E9
:103890001000000020000000410000004100000076
:1038A0007F00000000000000000000000400000095
:1038B00002000000010000000200000004000000FF
:1038C00040000000400000004000000040000000F8
:1038D00040000000000000000100000002000000A5
:1038E0000400000000000000200000005400000060
:1038F0005400000054000000780000007F00000029
:1039000048000000440000004400000038000000AF
:1039100038000000440000004400000044000000A3
:1039200020000000380000004400000044000000B7
:10393000480000007F000000380000005400000034
:1039400054000000540000001800000008000000AF
:103950007E000000090000000100000002000000DD
:103960000800000014000000540000005400000093
:103970003C0000007F000000080000000400000080
:103980000400000078000000000000004400000077
:103990007D0000004000000000000000200000004A
:1039A00040000000440000003D0000000000000056
:1039B000000000007F000000100000002800000050
:1039C0004400000000000000410000007F000000F3
:1039D00040000000000000007C0000000400000027
:1039E0001800000004000000780000007C000000C7
:1039F000080000000400000004000000780000003F
:103A000038000000440000004400000044000000B2
:103A1000380000007C0000001400000014000000CA
:103A2000140000000800000008000000140000005E
:103A300014000000180000007C0000007C00000062
:103A4000080000000400000004000000080000005E
:103A50004800000054000000540000005400000022
:103A600020000000040000003F00000044000000AF
:103A700040000000200000003C000000400000006A
:103A800040000000200000007C0000001C0000003E
:103A90002000000040000000200000001C0000008A
:103AA0003C0000004000000030000000400000002A
:103AB0003C0000004400000028000000100000004E
:103AC00028000000440000000C000000500000002E
:103AD00050000000500000003C00000044000000C6
:103AE00064000000540000004C000000440000008E
:103AF0000000000008000000360000004100000047
:103B00000000000000000000000000007F00000036
:103B10000000000000000000000000004100000064
:103B2000360000000800000000000000080000004F
:103B3000080000002A0000001C000000080000002F
:103B4000080000001C0000002A000000080000001F
:103B5000080000000000000000000000000000005D
:103B60000000000000000000000000000000000055
:103B70000000000000000000000000000000000045
:103B800000001C00000000001C00000000001C00E1
:103B9000000000001C00000000001C0000000000ED
:103BA0001C00000000001C000000000000000000DD
:103BB0000000000000000000000000000000000005
:103BC00000000000000000000000000000000000F5
:103BD00000000000000000000000000000000000E5
:103BE0000000000000001F00000000001F00000097
:103BF00000001F00000000001F0000000000000087
:103C000000000000000000000000000000000000B4
:103C100000000000000000000000000000000000A4
:103C20000000000000000000000000000000000094
:103C30000000000000000000000000000000000084
:103C40000000000000000000000000000000000074
:103C500000000000800000000000E0000000000004
:103C6000FC0000008000FF000000E0001F000000DA
:103C7000FC0003008000FF000000E0001F000000C7
:103C8000FC0003000000FE00000000001E00000019
:103C90000000020000000000000000000000000022
:103CA0000000000000000000000000000000000014
:103CB0000000000000000000000000000000000004
:103CC000FF000100C000FF000F00F000FF001F0018
:103CD000F800FF003F00780000007C001C0000009E
:103CE00070000C00000060000C00000060000C0080
:103CF000000060001C00000070007C0000003C0020
:103D0000F800FF003F00F000FF001F00E000FF0090
:103D10000F000000FF000100000000000000000094
:103D20000000000000000000000000000000000093
:103D30000000000000000000400000000000E00063
:103D40000000400060000000400030000000400023
:103D5000300000006000F800FF007F00FC00FF0062
:103D60007F00FC00FF007F00FC00FF007F000000E0
:103D70000000600000000000400000000000400063
:103D800000000000400000000000000000000000F3
:103D90000000000000000000000000000000000023
:103DA00000000000000078000000600078000000C3
:103DB0007800780000007C003C0000007E000C00D1
:103DC00000007F000C00C0007B000C00E0007800C9
:103DD0000C00700078001C003C007800FC001F0004
:103DE0007800F8000F007C00F80007007E00F0006B
:103DF00001007E0000000000000000000000000044
:103E000000000000000000000000000000000000B2
:103E100000000000000000000000780000003C00EE
:103E2000780000003C00780000007C003C000000AE
:103E300078001C00180070000C00180060000C00D6
:103E4000180060000C001C0060000C003C006000CA
:103E50001C007E007000FC00F7003F00F800F3003B
:103E60003F00F800E3001F00F000C0000700000062
:103E70000000000000000000000000000000000042
:103E800000000000000000000000800001000000B1
:103E9000E00001000000F00001000000BC00010093
:103EA00000008E000100800087000100C00081003A
:103EB0004100F00080006100F800FF007F00FC007E
:103EC000FF007F00FC00FF007F00FC00FF007F0080
:103ED0000000800061000000800041000000C00080
:103EE00001000000C0000100000000000000000010
:103EF00000000000000000000000000000000000C2
:103F00000000000000003C00FC001F003C00FC0022
:103F10003F007C00FC001F0078003C00180070008F
:103F20003C00180060003C00180060003C001800D5
:103F300060003C00380060003C00780070003C00ED
:103F4000F8003F003E00F0003F003E00E0001F0090
:103F50000000C0000700000000000000000000009A
:103F60000000000000000000000000000000000051
:103F70000000000000000000F80003000000FF0047
:103F80000F008000FF001F00C000FF003F00E000A6
:103F90001B007800F0001800700038000C00600072
:103FA00018000C0060001C000C0060000C000C00ED
:103FB00070000C003C0078000C00FC003F0000008A
:103FC000F8003F000000F0001F000000E0000700C4
:103FD00000000000000000000000000000000000E1
:103FE00000000000000000000000FC0000000000D5
:103FF000FC00000000007C00000000003C0000000D
:1040000060003C00000078003C0000007E003C00A6
:1040100080003F003C00E0000F003C00F80003007F
:104020003C007E000000BC001F000000FC000700F8
:104030000000FC00010000003C00000000000C003B
:104040000000000000000000000000000000000070
:104050000000000000000000000000000000E00080
:1040600083000F00F000C7001F00F800EF003F00C2
:10407000F800FF003F001C007E0078000C001800D4
:1040800070000C00180060000C00180060000C00AC
:10409000180060000C00380060001C007C007800F4
:1040A000F800FF003F00F800F7003F00F000E700D5
:1040B0001F00E00081000700000000000000000079
:1040C000000000000000000000000000C0000F0021
:1040D0000000F0001F000000F0003F000000F800AA
:1040E0007F0000003C00780060001C006000600061
:1040F0000C00600060000C00600070000C006000AC
:1041000038001C0030003C003C0030001F00F8006C
:10411000FF000F00F000FF000700E000FF000300B9
:1041200080007F0000000000000000000000000090
:10413000000000000000000019E050F8041BCB074D
:1041400044BFA9F101035918121F0023042A41F8A2
:10415000043BF9D25FEA827C0B4604D54FF0000C99
:10416000A1F800C09B1CD10744BF0021197050F872
:10417000042B002AE1D1704710B507497944183162
:10418000064C7C44163404E00A68081D5118884720
:104190000146A142F8D110BD080000001400000043
:1041A00099FFFFFFF4000000000000200000000065
:1041B00000F00BF8002801D0FFF7DEFF0020C0461A
:1041C000C046FDF73BFA00F002F80120704700F00E
:1041D00001B800000746384600F002F8FBE700008F
:1041E00080B5C046C046024A11001820ABBEFBE7AE
:1041F00026000200253032646D6D282530386C5859
:1042000029736176656421004F4646534554202545
:10421000303458205341564521000000494E445542
:1042200043544956452053454E53494E47000000DC
:10423000435552204F4646534554203A20253034AA
:1042400058000000434F4E5452415354205345549C
:1042500054494E47000000004F46465345542053F2
:10426000455454494E47000044415441203A2025CA
:1042700030386C580000000053455454494E4720D4
:104280004D4F444500000000434F4E4649473A20F9
:104290002530345800000000444956494445523AFC
:1042A0002025303458000000534554544C45436E8B
:1042B000743A2025303458004552524F52436F6EA5
:1042C000663A2025303458004944524956453A2030
:1042D00025303458000000005354415455533A20BF
:1042E00025303458000000004F46465345543A20CC
:1042F0002530345800000000444154413A20253014
:10430000386C58004E6F6E652041637421210000A7
:104310004465627567204D6F6465000052436E749A
:104320003A202530345800004D55583A2025303475
:1043300058000000665245513A202530386C58002C
:10434000C046C046C046C046FFF732FF53455454EE
:10435000494E4700554E49540000000025352E3285
:1043600046000000206D6D200000000025352E3134
:10437000460000002025202000000000206D412084
:104380000000000053415645000000004E455854BF
:1043900000000000444F574E0000000045584954AB
:1043A0000000000025303264000000005245524FEA
:1043B0004144000025366C5800000000FFF7FEBFA6
:040000050000434173
:00000001FF
