:020000040800F2
:100000001009002091560008E7110008E7110008C8
:10001000E7110008E7110008E711000800000000E0
:10002000000000000000000000000000E7110008D0
:10003000E711000800000000E7110008013A00087D
:100040002DE9F04F80460FF23060A5B015461E46F0
:10005000D0E90023CDE91223002004910D900DF189
:10006000500A6FF0004900E065190020ADF8020069
:1000700012AB4FF0FF3229460DF1020001F093F868
:100080000446012C04DA2878441EA441E443E40F1A
:10009000BDF8020025280CBFA4F1010BA346BBF15B
:1000A000010F0EDB2F4617F8011B0498C0470028EC
:1000B000049000F0F3800D98401CBBF1010B0D90F3
:1000C000F1D1BDF80200252807D100200790089043
:1000D00009900A900B900C9005E00028C4D10D986F
:1000E000D2E240F0010015F8011F2029F9D02329A0
:1000F0000DD02B2904D02D2906D030290AD00CE0B0
:1001000040F0020080B2EEE740F00400FAE740F071
:100110000800F7E740F01000F4E72A290ED1316813
:10012000316051F8042B3160002A0F9204D55142FE
:1001300040F004000F9180B26D1C11E000210F917E
:1001400009E00F99494505D001EB810302EB43011A
:1001500030390F916D1C2A78A2F130010A29F0D3B1
:1001600029782E2903D04FF0FF310E911DE015F8AC
:10017000011F2A2907D1316831606D1C51F8042B09
:1001800031600E9211E000210E9109E00E9949456F
:1001900005D001EB810302EB430130390E916D1C58
:1001A0002A78A2F130010A29F0D3ADF840000FF20D
:1001B000D040297801F00CF808B115F8010B8DF842
:1001C00042009DF84200682802BF29786829622011
:1001D00005D06C2804BF28786C2803D171208DF8D5
:1001E00042006D1C14A8069015F8014BB4F12500CF
:1001F0002AD01C3800F0D480001F022840F2D080A2
:10020000133800F0F580093800F0CA80801E00F035
:100210005C81401E00F03581401E022840F2C08003
:10022000001F00F02E81401F00F08B80401E00F068
:10023000DF80401E35D0C01E0BD0801E00F0D8805D
:10024000C01E00F0D58063E125208DF8500001200C
:1002500067E19DF842006C283068306014D050F897
:10026000047B306005970E9C002C04D5384600F0C6
:10027000BBFF044606E022460021384600F0D0FFCE
:1002800000B1C41B08944DE150F8042B306002A962
:10029000404600F033FA002840F144814FF0FF302F
:1002A000F2E1316831603C2451F8040B31600021E7
:1002B000CDE9020114A80590DDE90201069F11B9FC
:1002C00008B90E9AB2B10206120FA0EB0212303238
:1002D000D2B2631E3A2AA8BF27320009DA5540EA93
:1002E0000170090908BF00281C4603D0059AE319CC
:1002F0009A42E8D3E0190590C4F13C010E980891A8
:10030000814209DA401A0A904FF6EF71BDF84000B9
:100310000840ADF8400005E1002840F103819DF858
:10032000400000F01400102840F0FC800F98079A5D
:10033000801A0A9A801A441A012CC0F2F3800A9497
:10034000F0E09DF8420062281AD0682806D06A289A
:100350000CD06C281CD0712808D019E030683060AF
:1003600050F8041B30600D980880DBE03068306086
:1003700050F8042B30600D98C117C2E90001D1E09C
:100380003068306050F8041B30600D980870C9E088
:100390003068306050F8041B30600D980860C1E090
:1003A0003068C01D20F007023260D2E90001083237
:1003B0003260CDE90201002902D507982D210AE01B
:1003C000BDF84000810702D507982B2103E0C00744
:1003D00005D50798202100F80A10401C079014A8A2
:1003E000079908180590214602A800F091FB99E0B2
:1003F0009DF842006C280DD0712818BF6A2809D1D9
:100400003068C01D20F007023260D2E900010832D6
:10041000326005E03168316051F8040B3160002131
:10042000CDE902019DF84200682803D1DDE902010F
:1004300080B20BE0622803D1DDE90201C0B205E021
:10044000742818BF7A2804D1DDE902010021CDE922
:1004500002019DF8400000072ED5DDE902010029C8
:1004600008BF002828D044F02000782824D107981D
:10047000302100F80A10401C411C079100F80A4086
:100480001AE09DF84200314600F001F9CDE9020181
:10049000002902DA07982D210AE0BDF84000810703
:1004A00002D507982B2103E0C00705D50798202126
:1004B00000F80A10401C079014A807990818059026
:1004C000214602A800F0A0FA2CE09DF842006C281A
:1004D00009D0012007903068306050F8041B30606C
:1004E0008DF850101EE03068306001AA50F8041BEF
:1004F0003060ADF804100020ADF8060002A94FF0FE
:10050000FF300E90404600F0F9F800280AD5C5E605
:1005100025208DF85000012007901CB18AF8014079
:10052000022007900F980799401A0A99401A0899D3
:10053000401A0B99401A0999401A0C99441A9DF8CF
:100540004000400710D42020012C8DF800000BDB68
:10055000274601236A4602A9404600F000FE002813
:100560007FF49CAE7F1EF4D1DDF81CB0BBF1000F10
:1005700014AF0DD017F8011B0498C0470028049051
:100580003FF48CAE0D98401CBBF1010B0D90F1D1E6
:1005900030208DF800000A9F012F0ADB01236A46F4
:1005A00002A9404600F0DBFD00287FF477AE7F1EF5
:1005B000F4D1DDF820B0059FBBF1000F0DD017F886
:1005C000011B0498C047002804903FF467AE0D98C3
:1005D000401CBBF1010B0D90F1D130208DF80000D3
:1005E0000B9F012F0ADB01236A4602A9404600F057
:1005F000B6FD00287FF452AE7F1EF4D1059808990D
:10060000DDF824B00F18BBF1000F0DD017F8011B57
:100610000498C047002804903FF440AE0D98401C59
:10062000BBF1010B0D90F1D130208DF800000C9F33
:10063000012F0ADB01236A4602A9404600F08FFD24
:1006400000287FF42BAE7F1EF4D19DF840004007B8
:100650007FF50BAD2020012C8DF80000FFF605ADD5
:1006600001236A4602A9404600F079FD00287FF484
:1006700015AE641EF4D1F8E4000000000000000094
:10068000686A6C747A4C000025B0BDE8F08F62286F
:1006900026D068281DD06A2808D06C2827D0712859
:1006A00004D0742823D07A280CD020E00868C01D1C
:1006B00020F007000860D0E90023083008601946E0
:1006C000104670470A680A6052F8040B0A6000215D
:1006D00070470A680A6052F8040B0A6000B20BE027
:1006E0000A680A6052F8040B0A6040B204E00A6823
:1006F0000A6052F8040B0A60C11770472DE9F44FE5
:100700000D4694B0D5F830A0BAF1000F804648BF2E
:100710006FF0004A00F0B0FD696B401801900FF6D1
:100720006C20D0E90023CDE9022395F8380040077A
:1007300002D40198412805D240200DF11009019002
:10074000002609E000F09EFD5FEA0009F8D14FF0B5
:10075000FF3056E1AAEB040ABAF1010FC0F2CE80D5
:100760001498018802AA0DF1010000F0E3FD0028B1
:10077000044600F1DE801498008810B9641E00F170
:10078000D880A245C0F2BA806869019922189142C6
:1007900080F0A2806E634042296A401AA969401A1B
:1007A000696A401AE969401AA96A461A95F8380038
:1007B000400710D42020012E8DF800000BDB3746B7
:1007C00001236A462946404600F0C9FC002840F053
:1007D000B0807F1EF4D1D5F814B0BBF1000F4F46A6
:1007E0000DD017F8011BA868C0470028A86000F0CA
:1007F000A080E86A401CBBF1010BE862F1D1302017
:100800008DF800002F6A012F0ADB01236A46294672
:10081000404600F0A4FC002840F08B807F1EF4D1FD
:10082000D5F818B0EF68BBF1000F0CD017F8011B1A
:10083000A868C0470028A8607BD0E86A401CBBF1CC
:10084000010BE862F2D130208DF800006F6A012FB1
:1008500009DB01236A462946404600F080FC002857
:1008600067D17F1EF5D1E868A969D5F81CB00F18CB
:10087000BBF1000F0CD017F8011BA868C047002877
:10088000A86056D0E86A401CBBF1010BE862F2D1C7
:1008900030208DF80000AF6A012F09DB01236A4682
:1008A0002946404600F05BFC002842D17F1EF5D16E
:1008B00095F8380040070DD52020012E8DF8000056
:1008C00008DB01236A462946404600F048FC80BB0D
:1008D000761EF6D100266E61224668690DF101018F
:1008E000484400F035FD6869201868611498801C40
:1008F0001490801E008800287FF42CAF686B696913
:10090000401A296A401AA969401A696A401AE969B5
:10091000401AA96AA0EB010A95F83800400710D4E4
:10092000BAF1010F0DDB5446A8682021C047A8602A
:1009300010B94FF0FF365DE0E86A401C641EE862C3
:10094000F2D16B694A462946404600F008FC00286F
:10095000EFD12C6A012C0ADBA8683021C04700289F
:10096000A860E6D0E86A401C641EE862F4D1AB6976
:10097000EA682946404600F0F2FB0028D9D16C6AAB
:10098000012C0ADBA8683021C0470028A860D0D01D
:10099000E86A401C641EE862F4D1E868A969EB6962
:1009A0000A182946404600F0DAFB0028C1D1AC6A9B
:1009B000012C0ADBA8683021C0470028A860B8D005
:1009C000E86A401C641EE862F4D195F838004007DC
:1009D0000ED5BAF1010F0BDBA8682021C047002813
:1009E000A860A6D0E86A401CBAF1010AE862F3D117
:1009F0006E616E6304A881451CBF484600F0E4FCAC
:100A0000304615B0BDE8F08F2DE9FA4E05460A468E
:100A10002F696F2A08BF082405D041F020007828EC
:100A200014BF0A2410243C26D5E90001642A18BF0B
:100A3000692A81468A4605D1002903DAD9F10009DD
:100A40006AEB4A0ABAF1000F08BFB9F1000F0CD1E6
:100A5000286B50B9082C36D195F83800000732D5EC
:100A600030203B2687F83B002DE0E31748465146EF
:100A7000224600F0E9FCA4FB0023A9EB020230327D
:100A8000D2B2A6F1010B3A2A5E4603DB9DF8003094
:100A9000513B9A180BF8072081465FEA010A08BF0C
:100AA000B9F1000F03D0E868F1198842DDD3082CB2
:100AB00009D195F83800000705D5F05D302802D03F
:100AC000761E3020F055C6F13C00A861F119E960AE
:100AD000296B884208DA081A28624FF6EF71288FCE
:100AE00008402887BDE8F38E00290ED595F8381008
:100AF00001F01401102908D1696B6A69891A2A6A00
:100B0000891A0E1A012EA8BF2E62BDE8F38E0000CE
:100B10002DE9F24F04468EB0D4E90001CDE902017F
:100B200004AF9DF8380040F0200BBBF1610F0AD0F4
:100B3000206B002848BF062004D408BFBBF1670F14
:100B400001D1012020636168C1F30A5040F2FF72B5
:100B500090421CD1080304BF2068002809D103205B
:100B6000A0619DF8380061381A2836D30FF2306141
:100B700008E00320A0619DF8380061381A2829D3C5
:100B80000FF21461E068032200F0E2FBBEE10128ED
:100B900016DA204600F0CFFC012811DB00250020EA
:100BA000BBF1610F20D1E168302201F8012B4A1C12
:100BB000E2609DF83820612A0CBF782258220FE0AD
:100BC000626840F2FE3161F31E52451A62604FF0D6
:100BD000FF30E5E70FF2BC51D4E70FF2C051D1E787
:100BE0000A706169891C616110B90026002584E1E1
:100BF000BBF1610F40F09880206B00284CBF21268C
:100C0000461CD4E900ABDDE902010022002300F01C
:100C1000B3FC36B23ABF8BF00040CDE902A0CDE97B
:100C200002AB06F101082D1FB8F1010F8DF810205D
:100C30000DF1110736DBDDE902010022002300F08F
:100C4000B3FC2FD21C2102A800F0C6FCDDE9020192
:100C500000F048FDA8F10708B8F1010F814609DB53
:100C600000F06CFD02460B46DDE9020100F07EFD5E
:100C7000CDE90201F81D072105E009F00F0200F897
:100C8000012D4FEA2919B9F1010F01DB491EF4D5F5
:100C9000491E5CBF002200F8012DF9D5C71DB8F12F
:100CA000010FC8DA0DF11100391AB142B8BF0E4672
:100CB00036B230000DF111072FD4884206DA04A9AC
:100CC000411849780829A8BF0F2100DA002104AA99
:100CD000821800E0761E12F80139401E8B42F9D0CE
:100CE0000F2904D104A941184A78521C4A700028DF
:100CF00002D504AF761C2D1D36B2701E0DD4C1195D
:100D00000A783032D2B23A2A03DB9DF838303A3BC7
:100D10009A18401E01F80129F2D5206B002840F1F5
:100D2000EC80701E2063E8E0DDE902010022002370
:100D300000F022FC3CBF81F00041CDE902012DB260
:100D400047F2975068434B49DFF82C9190FBF1F53F
:100D50002DB2C5F1070ABAF1010F90461CDBDDE99F
:100D600002675FEACA7007D542464B4630463946AD
:100D700000F0BCFD06460F464046494642464B46FB
:100D80004FEA6A0A00F0B2FDBAF1000F80468946C8
:100D9000E7D1CDE9026724E0CAF1000A0026374F07
:100DA00014E05FEACA7007D542464B4630463946E2
:100DB00000F09CFD06460F464046494642464B46DB
:100DC00000F094FD4FEA6A0A80468946BAF1000FA6
:100DD000E7D1DDE9020132463B4600F059FECDE99C
:100DE0000201BBF1660F0CBF05F10A000620216B62
:100DF000DFF88C904618142EA8BF132630208DF8EB
:100E000010000DF11107012E3CDBDDE9020100F0BD
:100E10007FFC07F1080104220A23B0FBF3F303EB84
:100E20008307A0EB4700303001F8010C0A20B3FB28
:100E3000F0F000EB8007A3EB47033033521E01F8BC
:100E4000023DE9D1083E012E01F10807DBDBDDE9B7
:100E5000020100F05DFC00F07BFC02460B46DDE980
:100E6000020100F083FC00224B4600F03FFDCDE97B
:100E70000201CAE7A0860100000024400000F03F04
:100E800084D797410DF11100381A0DF1110702E0D6
:100E9000401E6D1E7F1C39783029F9D0BBF1660FDA
:100EA00002D12DB2691C04E0BBF1650F0CBF01211A
:100EB0000021226B8E1836B2B042B8BF064636B259
:100EC00031001AD4814204DAC85D3528A8BF392020
:100ED00000DA3020CA19521E00E0761E12F80139DD
:100EE000491E8342F9D0392802D1C85D401CC8553B
:100EF000002902D57F1E761C6D1C2DB29DF838107E
:100F0000009533B23A46204600F003F80FB0BDE832
:100F1000F08F2DE9F04786B006468A4690461D467A
:100F200000F0FFFE012D406A376B90F8009002DA66
:100F300001250FF270284AF02000BDF938406628DC
:100F400008BF641C12D0672876D114F1040F79DB36
:100F5000BC4277DA96F83800641C000702D4BD4220
:100F6000B8BF2F4624B23F1B48BF002724B2F06809
:100F7000B169012C21DA4A1C30230B54012F03DA0A
:100F800096F83810090702D502F80090521CB26199
:100F9000E742B8BF7C4224B26142E7197162AF42B6
:100FA000B8BF3D46B3692DB2F5612A4641461818CF
:100FB00000F0CEF9781BB062BAE00818A54216DA44
:100FC0002A46414600F0C4F9B1696918601B012F37
:100FD000B161706203DA96F83800000705D5F06851
:100FE00001F80090F069401CF061B762A0E0224671
:100FF000414600F0ADF9B06920182D1B012F03DA2E
:1010000096F83810090703D5F16800F80190401CE4
:101010002DB2B061AF42B8BF3D46F068B3692DB2A2
:101020002A4604EB0801181800F092F9B069281854
:10103000B061781B70627BE0BAF1610F14D14FF0A0
:10104000700A16E0BD4204DA96F83810090758BF56
:101050002F467F1E48BF0027BAF1670F14BF4FF01D
:10106000450A4FF0650A04E0BAF1410F08BF4FF09E
:10107000500AB169F0684A1CB261012F18F8013BAF
:101080000B5403DA96F83810090715D5531CB361D1
:1010900002F80090012F0FDB6D1E2DB2AF42B8BFDA
:1010A0003D462DB22A464146181800F051F9B06964
:1010B0002818B061781B7062F068B16909182000C7
:1010C00081F800A004D42B20487001F1020804E04C
:1010D0002D224A7001F102086442002502AF08E0A7
:1010E0000A22684600F036FE019807F8010B6D1CD5
:1010F000009C21B20129F3DA022D06DA4AF0200021
:10110000652804BF302008F8010B4DB9302008F8DD
:10111000010B07E06D1E02A8285C303008F8010BB7
:10112000012DF7DAF068B1690818A8EB0000F0614A
:1011300096F8380000F0140010280DD17069B169DC
:101140000818716A0818F1690818B16A0818716BF3
:101150008842BCBF081A306206B0BDE8F087F8B517
:1011600004460D4616461F46002077B116F8011BAF
:10117000A868A047A86030B1E86A401CE862002077
:101180007F1EF3D1F2BD4FF0FF30F2BD0000000032
:10119000000000006E616E004E414E00696E6600F8
:1011A000494E46003000F8B504460D4616461F4627
:1011B00000F0D8FD3B4632462946204601B0BDE846
:1011C000F04000F0E6BD0268531C036011707047E8
:1011D0000278C9B28A421AB11CBF10F8012FF9E790
:1011E00018BF00207047FEE700F10103810704D01B
:1011F00010F8011B89B18107FAD10268B2F10131FF
:10120000914311F0803F04BF50F8042FF6E710F827
:10121000011B11B110F8011BFBE7C01A7047010058
:10122000C9B2830706D0521E22D310F8013B99425F
:10123000F7D11FE0083A13D302F1040241EA012179
:1012400041EA014150F8043B121F21BF4B40A3F17A
:10125000013C2CEA030C1CF0803FF3D0C9B2001F04
:10126000083210F8013B521E28BF91EA030FF8D84C
:1012700018BF0120401E704780B500F073FD0120AB
:1012800002BD000070B5054605F10F00C408C04658
:10129000C046E400A54232D2082C04D2082402E061
:1012A000083000F091F82248026811000CD1011DAD
:1012B0000A6802B31368A34238BF111DF8D310E0C7
:1012C0001D68A5420DD2191D0B68002BF8D11268BC
:1012D000011D00E0191D0B6893420CD01D68A5424A
:1012E000F8D361B10D682A68A2F10803A3420AD2BB
:1012F0006A680A600FE000F06FFD0028D0D1C04698
:10130000C046002070BD63190B60121B6E685E60E2
:101310000B681A602C60096800291DBF4A68002A02
:10132000091D00210160C046C04605F1080070BDDE
:101330005811002070B504460D46164600F012FD07
:10134000324629462046BDE8704000F015BD000039
:1013500062B38B0708D0521E11F8013B00F8013B25
:1013600000F024808B07F6D1830740F0208000BF77
:10137000103A07D330B4B1E83810103AA0E838106A
:10138000F9D230BC530724BFB1E80810A0E8081018
:1013900044BF51F8043B40F8043BD20724BF31F866
:1013A000022B20F8022B44BF0B7803707047083AD9
:1013B00007D3B1E80810083A40F8043B40F804CBE2
:1013C000F7D25307E4E7000000B9704738B5A0F141
:1013D00008042068082833D310F0070F30D1C04626
:1013E000C0461848416809B18C4203D2616044602C
:1013F00017E019464B680BB1A342FAD30B685D188E
:10140000AC421BD3A54204D12268D2180A600C4614
:1014100007E04A681AB123681B199A420ED362602A
:101420004C60616851B1226813198B4206D10023C8
:10143000036008688018206048686060C046C04645
:1014400031BD0000581100201B4213D1094236D192
:101450002AB18446B0FBF2F002FB10C2704700F0E4
:10146000D1BCFCD30022002370470B0002000021F6
:1014700000207047904271EB030CF6D370B5B1FABF
:1014800081F4B3FA83F52C1BA340C4F1200532FA92
:1014900005F63343A2405FF00046E64002E05B08F9
:1014A0005FEA3202841A71EB030524BF2046294605
:1014B0007641F4D302000B003000002170BD012AF8
:1014C000CFD970B5140C20D0B1FA81F4B2FA82F5FC
:1014D000C4F120046419B4F12006D6D3B2405FF001
:1014E0000044F440002502E052085FEA3303C61AC4
:1014F00071EB020E24BF3046714664416D41F3D357
:1015000002000B002000290070BD0C46B1FBF2F177
:1015100002FB11452D0445EA1045B5FBF2F402FB30
:10152000145580B240EA0545B5FBF2F002FB1052BB
:1015300040EA044070BD30B4436803F0004201212A
:101540001B031B0B436004BF0368002B08D10DE095
:101550000368DD0F45EA440444605B000360491EF4
:101560004468E302F4D523031B0B436043681A432A
:101570004260084630BC70474FF4001C1CEB410F22
:1015800094BF1CEB430F09E041EA030C50EA4C0CFA
:1015900052EA0C0C03D2994208BF9042704714BF24
:1015A0008B428242704700004FF4001C1CEB410F3D
:1015B00094BF1CEB430F09E041EA030C50EA4C0CCA
:1015C00052EA0C0C03D28B4208BF8242704714BF10
:1015D000994290427047000070B504460D4660681D
:1015E000C0F30A5040F2FF71884207D160680003DF
:1015F00004BF2068002817D0022070BD20B9204603
:10160000FFF799FF012866DA012D0FDB40F2FF7129
:10161000091A8D420AD36068002847BF00202F496D
:1016200000202F49C4E90001012070BD4142A942B8
:10163000616806DA6FF31E51401941EA005060609C
:1016400040E0401E63684519012205F1350062F350
:101650001F53352801F00041636003D3616000200F
:10166000206070BD002015F11F0F04DA2068236090
:101670000022203562606A4212D0401E25688041F7
:10168000C2F12003C0439D4045EAD07025686668DA
:10169000D54006FA03F32B4323606368D3406360AD
:1016A00062680A43B0F1004F626003D80DD1207820
:1016B000C0070AD52068401C2060206828B96068EF
:1016C000401C60604FF0FF3070BD6068884204BF0E
:1016D00020680028F6D1002070BD00BF0000F0FF98
:1016E0000000F07FF446400D40EAC120490006D2D8
:1016F00000F014F8004248BF6FF00040604700F06F
:101700000DF84FF0004188428CBF084640426047C8
:10171000400D40EAC120490080F00D8040F00040BB
:10172000490DA1F58061491C05D4D1F11F0154BFB9
:10173000C840C01770474FF000007047010040F1EB
:101740000980F446404200F005F851F0004160473E
:10175000010000BF09D0B0FA80F18840C91CC1F572
:101760008461090501EBD02140057047F0B44FF0CA
:10177000004591EA030F44BF6B4000F045BB00BF3A
:10178000841A71EB030604D26E40001BB14112199A
:1017900073414FF4001C1CEB410F34BF7CEB43063C
:1017A00084E00C0DA4EB1356362E7DDC012E43DCB9
:1017B00045EAC32343EA525312BFD20292025B08A6
:1017C000240545EAC12141EA5051D2EBC02099419C
:1017D00025D407D1B0FA80F610FA06F164D00020C3
:1017E000203608E0B1FA81F6B140C6F1200220FAB5
:1017F00002F21143B0404FEAF474B4EB465434F0B3
:1018000001064FEA74040AD8D6F50016760D04F0E6
:101810000044F04061FA06F25040F1404840C00AEE
:1018200040EA415021F0004128BF5FEA500550F1E5
:10183000000044EBD12137E045EAC323DB0A45EA47
:10184000C121C90AB6F120050EDD42EA0242120C9E
:10185000C5F1200603FA06F6EB4042EA06056D42A2
:10186000984161F100010DE062FA06F5F240554041
:1018700063FA06FC82EA0C02F3405A406D42904142
:1018800061EB030111F4801F05D1641E620502D0D3
:101890006D004041494121F48011430875F1004336
:1018A00050F1000041EB0451F0BC70471CEB410FBC
:1018B00015D223F0004352EA43060BD04FEA4C0CFA
:1018C000BCEB410F04D80C0D661E342EB7DDEBE7E0
:1018D000801A994150EA410608BF0021E4E708BF99
:1018E0001CEB430F28BF6FF00001DDE7B0B581EAC4
:1018F000030C0CF0004C40F2FF7515EA11541DBFAB
:1019000015EA1357AC42AF4239E0E41923EA4553D4
:1019100043F48013C90241F0004141EA505EC7021E
:101920001100A7FB020200284FF00000EEFB01208F
:101930004FF00001E3FB072118BF42F001024018FD
:1019400000214941E3FB0E01A4F580640F0302D29C
:1019500052004041494154F101046CDD470872F1E5
:10196000004250F1000051EB0451A1F580115CBF21
:1019700041EA0C01B0BD4CEA05510020B0BD05EABA
:101980001357AC4214BFAF4241E050EA410E1CBFB6
:1019900052EA430E02E061460020B0BD24423C44BE
:1019A0001BD15FEA070EF6D0090302BF01460020F3
:1019B000AEF1140EB1FA81F7AEEB070401FA07FE9F
:1019C0000C37C7F1200100FA07F7C8404EEA000EB5
:1019D00023EA455343F48013A2E733F00043B3FAFC
:1019E00083F704BFB2FA82FE77440B3FE41BB7F1E2
:1019F000200E2FBF02FA0EF3BB40C7F1200E22FAD1
:101A00000EFE38BF43EA0E03BA40641C82E750EA78
:101A1000410E14BF52EA430E6FF000014FF400175D
:101A200017EB430F8ABF194617EB410FB5E74CEA96
:101A300005510020B0BDD4F10104B4F120070FDA44
:101A4000C4F12007520828BF42F0010210FA07F53E
:101A500001FA07F7E1BF2A43E0403843E1400FE0D5
:101A6000352C98DCC7F1200452EA400220FA07F234
:101A700018BF42F0010231FA07F0A1400A430021E9
:101A800072F1004250F1000051EB0C01B0BD0000BA
:101A90002DE9F04140F2FF7581EA030C0CF0004C97
:101AA00015EA11541DBF15EA1357AC42AF42E9E0E5
:101AB000BC41C1F31301C3F31303801A994143F4EA
:101AC000801304D2641E4000494180185941C90264
:101AD00041EA5051B1FBF3F603FB1611A2FB067568
:101AE000D7EBC020A94102D2761E80185941C90205
:101AF00041EA5051B1FBF3FE03FB1E11A2FB0E7530
:101B0000D7EBC020A94103D2AEF1010E8018594194
:101B1000890241EA9051760546EA8E2EB1FBF3F632
:101B200003FB1611A2FB0675D7EB8020A94102D258
:101B3000761E80185941C90241EA50514EEA060EFC
:101B4000B1FBF3F603FB1611A2FB0675D7EBC02021
:101B5000A94102D2761E80185941C90241EA50516A
:101B6000B1FBF3F703FB1711A2FB0735D3EBC02042
:101B7000A94167F100070CBF004247F0010766F377
:101B8000D5274FEA1E31B80814F5806414DDBD076F
:101B900075F1004250EB0E5051EB045111F5801FCE
:101BA0005CBF41EA0C01BDE8F0814CF07F6141F07F
:101BB000E0410020BDE8F081BD076D0840EA0E500D
:101BC00041F48011D4F10104B4F120060ADAC4F121
:101BD00020060200E04001FA06F3E1401843B2405B
:101BE00015430EE0342C14DCC6F1200445EA400510
:101BF0006D0820FA06F2154321FA06F0A1400D43C4
:101C0000002175F1004250F1000051EB0C01BDE8DC
:101C1000F08100205FEA0C01BDE8F081CFB9921895
:101C20005B41B3FA83F704BFB2FA82F6BF190B3FE8
:101C3000B7F120062FBF02FA06F3BB40C7F120061A
:101C400022FA06F638BF3343BA401CB1E419641EC9
:101C50002FE77F4231F00041B1FA81F404BFB0FABE
:101C600080F6A4190B3CB4F120062FBF00FA06F150
:101C7000A140C4F1200620FA06F638BF3143A04047
:101C80003C1B16E7AC421ABF05EA1357AF4214E0FB
:101C900050EA41061CBF52EA4306BFE750EA41073B
:101CA000304661461CBF41EA0551BDE8F08152EA69
:101CB000430C08BFC143BDE8F08100204FF400167B
:101CC00016EB410F98BF16EB430F08BF16EB410F01
:101CD00024BFC14305E016EB430F0CBF61464CEA3D
:101CE0000551BDE8F081000080B5134800F0F6F81A
:101CF0000FF24C020FF244010160426241600FF2A8
:101D00004402826381600FF24402C160016141615B
:101D100081618162C16201634163C26301644164A4
:101D200001BD10B5044800F0D9F80446206808B990
:101D3000FFF7DAFF204610BD14000020000000006D
:101D40002E00000066616C7365000000747275659A
:101D50000000000091FBF2F303FB1211C0E9003117
:101D60007047000080B5DFF80C0000F0B7F880691C
:101D700002BD0000A400002030B430B90FF24800CA
:101D8000D0E90045C2E900451BE00170012030BCEC
:101D9000704730B431B90FF23800D0E90045C3E9DB
:101DA00000450EE01AB930BC6FF00100704708B171
:101DB0000A7802800978481E804130BCC043C00FB9
:101DC0007047002030BC7047000000000000000099
:101DD00000000000000000000749086808B100206A
:101DE00070470648C008C00008600549C908C90016
:101DF000091A0160704700BF741100201709002004
:101E00001011002070470000841A71EB030603D202
:101E1000001BB141121973414FF4001C1CEB410F20
:101E200034BF7CEB430443E00C0DA4EB1356352E7A
:101E300050DC45EAC323DB0A45EAC121C912B6F1E9
:101E400020050DDD63FA05F6EB4086EA0305124234
:101E500018BF45F00105C01851F100010CD213E084
:101E600062FA06F5F2405540F3415A40B340F34060
:101E70005A408018594107D349085FEA30005FEAA9
:101E8000350528BF45F0010501F58011420875F1BF
:101E9000004250F1000041EB0451F0BC4FF4001C33
:101EA0001CEB410F38BF70470020090D0905704732
:101EB0001CEB410F10D252EA43060BD0BCEB410F92
:101EC00005D80C0DAB43661E342EB5DD02E0AB43E6
:101ED00080185941F0BC7047F0BC70477047000053
:101EE000BFF34F8FDFF8A007006810F4E060DFF861
:101EF0009C170843DFF890170860BFF34F8F00BFAF
:101F0000FDE780B5DFF8880700F068FC10F03000CE
:101F100002BD00200AE0C0B2DFF8781751F82010A7
:101F2000DFF87427C0B242F82010401CC0B20B2862
:101F3000F1DBC0B2DFF85C1751F82010DFF85C2746
:101F40001170401CC0B2DFF84C1751F82010DFF8B8
:101F500050271180401C704710B500F064FC3420FD
:101F600000F0DCFCDFF82C0700F071FC00240DE031
:101F7000DFF82407E4B250F82410E4B2A00000F126
:101F8000006010F5FE3000F08EFC641CE4B20B2CF7
:101F9000EEDBDFF808070178E4B2A00000F1006092
:101FA00010F5FE3000F07FFC641CDFF8F4060188B9
:101FB000E4B2A00000F1006010F5FE3000F073FC08
:101FC000641C00F03BFC10BD80B5FFF79AFFDFF802
:101FD000D4160880DFF8CC060088102810D02028FE
:101FE00011D100F0BAFD00F0C6FE00F011FFDFF8DD
:101FF000AC06007850F02000C0B200F082FE02E093
:1020000000F04FFDFFE701BD10B5002401F075F8A9
:1020100000070FD5002001F0EAF804432404012052
:1020200001F0E5F8044314F0704F03D1200ADFF803
:1020300078160860DFF87006006810BD2DE9F041E1
:10204000040000200026002000E0401CC0B20B2845
:1020500006DADFF84416C0B251F820108C42F4D3EF
:10206000DFF848160870DFF84406007801F084F9BC
:10207000DFF83C1601F090F90500DFF83006007833
:1020800001F07AF90600DFF81006DFF8201609786B
:1020900010EB810050F8040C01F06EF90700DFF836
:1020A000F805DFF80816097850F8210001F064F906
:1020B00080463000290001F0B1F9060040463900A1
:1020C00001F0ACF90100300001F01CFA060020001C
:1020D00001F052F9390001F0A1F9310001F090FA54
:1020E000290001F059F9BDE8F08180B5DFF8C41589
:1020F00001F008FADFF8C01501F082FA02BD80B5E0
:10210000DFF8B41501F0FEF95FF0834101F078FAD1
:102110005FF0814101F040F902BD80B5DFF89C0518
:1021200001F08CFB80B201F027F95FF08B4101F0E8
:10213000E9F901F08BFB5FF06632DFF88435FFF7D9
:10214000D5FB0022DFF87C35FFF7D0FB01F0A6FBC2
:10215000DFF874150988002911D101F077FB02001E
:102160000B00DFF86815DFF8680501F0DFFB0521DB
:10217000102000F034FEDFF8580500F096FE01BD97
:1021800010B50024DFF8080500F028FB10F00F0060
:1021900080B2032800F07C81072800F084800A28A0
:1021A00000F083810B2800F0CF800C2800F09C8188
:1021B0000D2803D00E2800F0258197E1DFF80805EF
:1021C0000088002805D0022835D009D3032839D04B
:1021D00065E00420DFF8F014088000F019FE5EE0EE
:1021E000DFF8C4040068DFF8B014DFF8E8241288D0
:1021F00041F82200DFF8B0040368DFF8D804028851
:10220000DFF8D414DFF8C80401F090FB04210C209F
:1022100000F0E5FDDFF8B80400F047FEDFF8B40495
:1022200000880A2806DADFF8AC040088401CDFF8D2
:10223000A414088033E00120DFF8A014087000F037
:10224000E7FD2CE000200BE0DFF8941480B231F8B9
:10225000101080B28200D2F10C0291400C43401C5D
:1022600080B20428F0DB210089B2002000F0AAFF30
:10227000002000F0A1FFDFF828140880DFF8200418
:102280000288DFF86014DFF8480401F04FFB0521F5
:102290000C2000F0A4FDDFF8380400F006FEC82092
:1022A00001F097FB22E1DFF820040088002806D027
:1022B000022821D017D304283CD028D340E0DFF8EF
:1022C00028040078401CDFF820140870DFF8180498
:1022D0000078042803DB0020DFF80C140870C82005
:1022E00001F077FB2CE0FFF737FE0020DFF8D81372
:1022F000088000F08DFD23E00020DFF8CC1308807B
:102300000020DFF8E813088000F082FD18E00120CB
:10231000DFF8B41308800020DFF8B813088000F05D
:1023200077FD0421282000F05AFDDFF8C40300F0F7
:10233000BCFD05E00320DFF89013088000F068FD85
:10234000C82001F046FBD1E0DFF87C0300880128BB
:1023500006D053D303281FD00FD304283BD04DE021
:10236000DFF870030088002806D0DFF868030088D3
:10237000401EDFF86013088040E0DFF8700300883B
:10238000032808DADFF864030088401CDFF85C13D8
:10239000088000F03DFD31E0DFF84403DFF834133E
:1023A000098830F811000F2808D10020DFF8301319
:1023B000DFF82023128821F812000BE0DFF8200359
:1023C000C449098830F81100401CC549C14A128827
:1023D00021F8120012E0B1480078401CAF490870A3
:1023E000AE480078072802DB0720AC490870AB48EC
:1023F000007850F02000C0B200F083FCC82001F04B
:10240000E8FA73E0B0480088012806D03CD30328DE
:1024100019D00CD3042824D036E0AE4800880A280E
:1024200004DAAC480088401CAA4908802CE0AF4878
:102430000088002806D0AD480088401EAB490880BF
:1024400000F0E6FC20E0A3480088032803D1002028
:10245000A049088004E09F480088401C9D490880EE
:1024600012E08E480078401E8C4908708B48007836
:10247000002802D10020894908708848007850F06F
:102480002000C0B200F03DFCC82001F0A2FA2DE00F
:102490008D480088022804D002208B49088000F073
:1024A000B7FCC82001F095FA20E04FF48051914824
:1024B00000F09AF90A2001F08CFA4FF480518D480F
:1024C00000F08FF90A2001F084FA00F054FC00F0CB
:1024D0009FFC7248007850F02000C0B200F011FC60
:1024E000C82001F076FA01E0FFF7FAFC10BD80B5D4
:1024F00000207549088000F04DFAFFF70AFD00F052
:1025000082FA01F055FA65480078002803D0634844
:102510000078082802DB032060490870FFF754FDAB
:1025200060480088202806D10121102000F057FCC7
:10253000714800F0BAFC00F06DFA5A480088202873
:1025400006D10221102000F04AFC6C4800F0ADFCDE
:1025500000F0E3FA53480088202806D10321102018
:1025600000F03DFC664800F0A0FC01F0B3FA4D48D5
:102570000088202806D10421102000F030FC61489A
:1025800000F093FC00F003FB46480088202806D1A9
:102590000521102000F023FC5B4800F086FC404839
:1025A000008800F060FD3F48008820282BD10120E2
:1025B0004A49087000204D49088000200BE0384946
:1025C00009888200D2F10C02114111F00F01444A36
:1025D00022F81010401C0428F1DB0621102000F026
:1025E000FEFB4A4800F061FC00F012FC0BE03648AC
:1025F0000088042801D101F040FBFFF7C1FD4FF432
:10260000967001F0E6F9FFF7FFFC274908602648BD
:102610000068FFF713FD3E4908603D480068FFF77A
:1026200064FD3C4908603B480068FFF768FD3A4993
:1026300008603948006801F058FAFFF76EFD194844
:1026400000882028DBD120480088002806D13048A7
:10265000006801F0FBF801F096FACEE71A4800880E
:10266000012802D101F084FBC7E71748008802283F
:1026700002D101F0C9FBC0E7134800880328B6D196
:1026800001F018FBB9E700000CED00E00400FA05CA
:102690000010014000FC01081011002093110020DF
:1026A0008E1100207A110020641100209211002068
:1026B000000080BF000020410000C842002401400B
:1026C00066660A4000005940781100207C550008D9
:1026D0003C1100207C110020F054000895110020CE
:1026E0005011002004550008941100209011002082
:1026F0003C560008000C0140C05400081855000862
:1027000048560008D85400082C55000854560008B4
:1027100068110020701100206C11002070B400229C
:1027200000250023002600240025CA7812F00F029D
:10273000CB78DB0601D58B781A430B781B0621D0AA
:102740000468002306E0CD78482D02D101259D4084
:1027500005615B1C082B14D2012515FA03F60D88C0
:102760003540B542F5D19E000F25B540AC4312FA75
:1027700006F52C43CD78282DE5D101259D404561F6
:10278000E7E704600B88FF2B26DD4468002320E088
:10279000012513F1080615FA06F60D883540B542F5
:1027A00016D19E000F25B540AC4312FA06F52C4316
:1027B000CD78282D04D1012513F10806B5404561D7
:1027C000CD78482D04D1012513F10806B5400561E7
:1027D0005B1C082BDCD3446070BC7047806880B2FF
:1027E000704789B20161704789B24161704700004A
:1027F0000021DFF85C11096811F038010143DFF8AE
:10280000500101607047DFF84811096831F010018C
:10281000DFF83C211160DFF8381109680843DFF860
:10282000301108607047DFF82C01DFF82C110860C8
:10283000DFF82801DFF8201108607047DFF8200179
:10284000006850F08000DFF818110860704710B57C
:10285000040004205FF4302000F088F8C0B204289F
:102860001FD1DFF8FC00006850F00200DFF8F01024
:102870000860DFF8F0000460DFF8E400006850F062
:102880004000DFF8DC1008605FF4302000F06EF8E4
:10289000DFF8CC10096841F6FD721140DFF8C02066
:1028A0001160C0B210BD38B505000C000420002036
:1028B00000904FF4005000F059F8C0B204282BD11A
:1028C000DFF89C00006850F00100DFF89410086009
:1028D0002C804FF4005000F049F8C0B2042812D107
:1028E000A81C0090200C009908804FF4005000F0C4
:1028F0003DF8DFF86C10096841F6FE721140DFF810
:102900006020116008E0DFF85810096841F6FE7297
:102910001140DFF84C201160C0B232BD124908608E
:102920007047042010480068C00701D501200CE062
:102930000D480068400701D5022006E00A480068FB
:10294000C00601D5032000E00420C0B2704700009B
:10295000002002402301674504200240AB89EFCDEF
:1029600010200240142002400C20024010B5040048
:102970000420FFF7D6FF02E0FFF7D3FF641EC0B2CA
:10298000012801D1002CF7D1002C00D10520C0B2C4
:1029900010BD000080B501F0A3FB012001F0D0FBC9
:1029A000212001F08FFC0028FAD0002001F0E8FB84
:1029B0004FF4806001F0EDFB002001F0F3FB0220FA
:1029C000FFF716FF1020FFF71EFF5FF460110020D5
:1029D00001F0BAFB012001F0C1FB392001F072FCCB
:1029E0000028FAD0022001F0BDFB01F0C4FB08284A
:1029F000FBD101211C2001F045FC01215FF40010F6
:102A000001F050FC01BD80B500215FF0006001F0D5
:102A100097FC01BD80B53020ADF8000004208DF892
:102A2000030069468048FFF779FEC020ADF800003A
:102A300003208DF802001C208DF8030069467B48B6
:102A4000FFF76CFE0220ADF8000003208DF80200B5
:102A500010208DF8030069467448FFF75FFE2020C0
:102A6000ADF8000004208DF8030069466F48FFF7B9
:102A700055FEB820ADF8000003208DF802001020AC
:102A80008DF8030069466A48FFF748FE4420ADF818
:102A9000000004208DF8030069466548FFF73EFEFC
:102AA00001BD00B585B04FF40070ADF80000032003
:102AB0008DF8020018208DF8030069465C48FFF786
:102AC0002DFE4FF48060ADF8000004208DF8030067
:102AD00069465748FFF722FE01214FF4804001F07C
:102AE000D1FB5FF4E13001900020ADF80800002038
:102AF000ADF80A000020ADF80C000020ADF8100081
:102B00000C20ADF80E0001A9464801F023FC01217C
:102B1000444801F07FFC05B000BD00B585B001213F
:102B2000444801F0EDFC0020ADF804004BF6FF70C6
:102B3000ADF806004FF48060ADF80A004FF4804015
:102B4000ADF80C003C4800902B20ADF80800694619
:102B5000384801F06DFC05B000BD80B54FF4F84079
:102B6000ADF8000003208DF8020010208DF803005E
:102B700069462E48FFF7D2FD0F20ADF80000042073
:102B80008DF8030069462848FFF7C8FD01BD00B570
:102B900087B04FF4004001F00FFB01214FF40070AB
:102BA00001F070FB0120ADF8000000208DF803005B
:102BB00069461F48FFF7B2FD0020019000208DF804
:102BC000080001208DF809005FF4602003900020C8
:102BD000049001208DF814000523012200211748DC
:102BE00000F0CAFD01A9154800F076FD0121134847
:102BF00000F097FD114800F0A1FD104800F0A3FD82
:102C00000028FAD10D4800F0A8FD0C4800F0AAFDFC
:102C10000028FAD10121094800F083FD07B000BD6A
:102C2000000000000038014000100140000C01408D
:102C30000008014000540040400D03000024014002
:102C400080B54FF40051D948FFF7CEFD1E2000F0AB
:102C5000CAFE4FF48051D548FFF7C3FD012000F0B4
:102C6000B8FE4FF48051D148FFF7BEFD012000F0BF
:102C7000B0FE4FF48051CD48FFF7B3FD012000F0C6
:102C8000A8FE4FF40051C948FFF7ABFD4FF4804157
:102C9000C648FFF7A6FD01BD38B504004FF400514A
:102CA000C248FFF7A1FD012000F09DFE4FF48041D6
:102CB000BE48FFF796FD012000F095FE00250BE0D1
:102CC0004FF40061B948FFF78FFD4FF48061B748BA
:102CD000FFF787FD64006D1C082D0CDA4FF480614E
:102CE000B248FFF781FD2006EAD54FF40061AF48F6
:102CF000FFF777FDE9E74FF40051AC48FFF771FDAE
:102D000031BD38B504004FF40051A848FFF76CFD01
:102D1000012000F068FE4FF48041A448FFF764FDF5
:102D2000012000F060FE00250BE04FF400619F4899
:102D3000FFF75AFD4FF480619C48FFF752FD640095
:102D40006D1C082D0CDA4FF480619848FFF74CFD9C
:102D50002006EAD54FF400619448FFF742FDE9E709
:102D60004FF480419148FFF73CFD4FF400518F48EC
:102D7000FFF737FD31BD80B5FFF762FFE220FFF7B7
:102D8000C0FFA120FFF7BDFFA220FFF7BAFFC020C0
:102D9000FFF7B7FF2F20FFF7B4FF642000F019FE04
:102DA000A420FFF7AEFF8120FFF7ABFF2020FFF745
:102DB000A8FF2320FFF7A5FFAF20FFF7A2FFA62063
:102DC000FFF79FFFB020FFF79CFF1020FFF799FF50
:102DD0000020FFF796FF4020FFF793FF01BD38B5B5
:102DE00004000D0072480570724804702000C0B2E3
:102DF000000950F01000C0B2FFF783FF14F00F007D
:102E0000FFF77FFF55F0B000C0B2FFF77AFF31BD8A
:102E100038B500240025002507E00020FFF73CFF1F
:102E2000641CE4B2842CF8DB6D1CEDB2082D06DACC
:102E30002900C9B20020FFF7D2FF0024F1E731BD1D
:102E400038B5040000250EE05B48E4B20521EDB280
:102E500001FB045110EB8100B0F520700068C0B296
:102E6000FFF71AFF6D1CEDB2052DEDDB0020FFF71B
:102E700013FF31BD38B5040000250FE04E48E4B221
:102E80000521EDB201FB045110EB8100B0F520707B
:102E90000068C043C0B2FFF7FFFE6D1CEDB2052D08
:102EA000ECDB0020FFF7F8FE31BD10B5040003E0B5
:102EB0002078FFF7C5FF641C20780028F8D110BDEA
:102EC00010B5040003E02078FFF7D4FF641C2078DD
:102ED0000028F8D110BDF8B504003548057835480C
:102EE000067801270FE03548E4B23A21FFB201FB32
:102EF000047110EB4100B0F5A3500088C0B2FFF799
:102F0000CBFE761CFF1CFFB23A2F40DA2900C9B273
:102F10003000C0B2FFF763FFE4B2202C03D10020E1
:102F2000FFF7BAFE0CE02548E4B23A21FFB201FBFC
:102F3000047110EB41002249085AC0B2FFF7ACFE01
:102F4000691CC9B23000C0B2FFF749FFE4B2202CBF
:102F500003D10020FFF7A0FE0CE01848E4B23A21AC
:102F6000FFB201FB047110EB41001649085AC0B2D0
:102F7000FFF792FEA91CC9B23000C0B2FFF72FFFC5
:102F8000E4B2202CAFD10020FFF786FEB9E7002085
:102F9000FFF782FEE4B22E2C00D1761F2900C9B2C1
:102FA0003000C0B2FFF71BFFF1BD0000000C014074
:102FB000971100209611002058460008D84D0008AF
:102FC0009CEBFFFF9EEBFFFF10B5040003E02078B1
:102FD000FFF781FF641C20780028F8D110BDF8B5F8
:102FE00004000D0017000026082095FBF0F00100FA
:102FF000C9B22000C0B2FFF7F2FE002F08D00120B6
:10300000082195FBF1F202FB11529040064307E0C4
:103010000120082195FBF1F202FB115290408643FA
:10302000082095FBF0F00100C9B22000C0B2FFF704
:10303000D6FE3000C0B2FFF72FFEF1BD10B5040080
:103040001A2000F0D4F8A4B2B4F5005F05D150F412
:10305000005080B200F039F804E04DF6FF710840EE
:1030600000F033F810BD10B504004FF40050FFF726
:10307000E5FF4FF4E05000F028F804220221002080
:1030800000F040F840F2D641002000F05CF80A2140
:10309000002000F048F842F2200000F023F804205D
:1030A00000F073F800221221002000F05CF8A4B2B6
:1030B0004FF6FF70844204D0210089B2002000F056
:1030C00071F80020FFF7BAFF10BD80B550F0010085
:1030D0001A2180B200F0F2F801BD80B51A2000F08C
:1030E00086F802BD80B5192180B200F0E7F801BD75
:1030F00080B5192000F07BF802BD80B5182000F0E3
:1031000076F802BD80B552EA013210F11401C9B25D
:10311000100080B200F0D2F801BD80B51430C0B20A
:1031200000F065F802BD80B50A0010F11001C9B2C7
:10313000100080B200F0C2F801BD80B51030C0B2FE
:1031400000F055F802BD80B50A0010F10801C9B2BF
:10315000100080B200F0B2F801BD80B50830C0B2F6
:1031600000F045F802BD80B5920152EAC12210F18B
:103170001E01C9B2100080B200F0A0F801BD80B5F8
:103180001E30C0B200F033F802BD80B550F40270BA
:103190001B2180B200F092F801BD80B51B2000F029
:1031A00026F802BD80B50A0010F10C01C9B210006A
:1031B00080B200F083F801BD80B50C30C0B200F0E1
:1031C00016F802BD10B50C004FF40050FFF736FFA3
:1031D0000A2000F0FEFB210089B20020FFF7E2FF89
:1031E0000020FFF72BFF642000F0F3FB10BD38B583
:1031F000040000250021594801F082F901215748B7
:1032000001F07EF90121554801F0A4F9012153484C
:1032100001F084F95249514801F0BBF90028F9D076
:10322000002256214D4801F0A9F94E494B4801F0C2
:10323000B0F90028F9D02100C9B2484801F098F946
:103240004949464801F0A5F90028F9D00121434831
:1032500001F072F90121414801F060F940493F480D
:1032600001F097F90028F9D0012256213B4801F0DE
:1032700085F93E49394801F08CF90028F9D002243B
:103280000EE03B49354801F084F90028F9D0334875
:1032900001F071F9611EC9B2C90088400543641E7E
:1032A000E4B2002CEDD100212C4801F053F90121AA
:1032B0002A4801F041F9280080B232BD38B5040037
:1032C0000D000021254801F01BF90121234801F0E0
:1032D00017F90121214801F03DF901211F4801F0B2
:1032E0001DF91F491D4801F054F90028F9D00022AA
:1032F00056211A4801F042F91A49184801F049F9D3
:103300000028F9D02900C9B2144801F031F919494F
:10331000124801F03EF90028F9D0022510E0A4B2CD
:10332000681EC0B2C00021000141C9B20B4801F0C3
:103330001FF90D49094801F02CF90028F9D06D1E3C
:10334000EDB2002DEBD10021044801F003F9012179
:10335000024801F0F1F831BD0000000000540040C7
:103360000100030082000700840007000200030040
:103370004000030080000700002800BF0AD0B0FA18
:1033800080F18840D1F19D01C905020672F1004229
:1033900041EB10207047000090EA010F44BF81F01C
:1033A000004100F043B800BF421A3CBF801A8918A0
:1033B0004FF0004CC0F3C752FF2A24D0C1F3C753CB
:1033C00013B3D21AD2F1190327DD4CEA01214CFACA
:1033D00003F321EA0303D140C20D4CEA0020401858
:1033E00034BF20EA0C004CEA5000D20553EA0063D7
:1033F00073EB0C0C52EB1020420012F1807F38BFAF
:103400007047C00DC0057047490212BF9A4200EBD9
:103410005120F8E7D2F11703D9D5704790EA010F90
:1034200044BF81F00041FFF7BFBF00BF431A4FF018
:1034300000423EBF5340C01AC91800BFD3095FEA1B
:10344000D05C13EB400F34BFB3EB410F40E07CEB9B
:10345000D1530CD342EA012122D8D1EB402009D329
:10346000400A28BF5FEA500140EBCC507047401A39
:1034700015D04002B0FA80F2521C9040400A4FEA48
:103480003C23B3EB026384BF00EB730007E040F41E
:1034900000001A16DB07C2F10102D0401843704742
:1034A000182BFCDC31FA03F202FA03F3591A38BF85
:1034B00042F00102D2EB40203CBF4000ACF1010CD5
:1034C0005FEACC5CC20572F100414CEB50207047C2
:1034D00013EB400F0FD24B0009D0ACEBD153022BB2
:1034E00003DB4902172BDDDD70479143401A43008F
:1034F000D5D10020704713EB410FD0D36FF00000FF
:103500007047000010B5FF2313EAD0541DBF13EA23
:10351000D1529C429A4239E0A41ADA0780EA0103A8
:10352000134042EA012142EA0020421A3CBF641ED5
:1035300001EB4202090AB2FBF1FE01FB1E2212025C
:10354000B2FBF1F001FB10226EF30F201202B2FB6E
:10355000F1FE4EEA00207F3406DDFE2C24DA53EA29
:10356000500050EBC45010BDD4F1020401FB1E22E8
:1035700040F08071192C1DDC21FA04F0C4F1200404
:10358000A140114371F10042584110BD9C421ABF45
:1035900003EAD1529A420FE080EA010E0EF0004396
:1035A000400004D0490016D143F0FF4010BD49004F
:1035B00008BFD343180010BD9C4205D1D21AF7D0E2
:1035C00001F00041484010BD4A0212BF0846484081
:1035D00000F0004010BD4AB90902B1FA81F29140F1
:1035E00044B1A418C00140F000409EE7C90141F079
:1035F000004152420002B0FA80F4A040141B94E74C
:10360000FF2212EAD05C1DBF12EAD15394459342C7
:103610002BE09C44D30780EA01021A4043EA0020D1
:1036200043EA0121A1FB0030410038BF40007CF19A
:103630007F010BDBFE294ADA5B0842EAC15153EAFB
:10364000006373F1004C51EB10207047D1F1080C6E
:10365000DCF120012FDB5B0810FA01F10B4373F161
:10366000004120FA0CF05041704794451CBF02EA1B
:10367000D153934280EA010202F000421DD0400083
:1036800019D0490017D05BB9634514D00902B1FACB
:1036900081F39940BCEB030CC00140F00040C1E74E
:1036A0000002B0FA80FC10FA0CF0B3EB0C0CC9016C
:1036B00041F00041B6E71000704740000AD04900D1
:1036C00008D010F1807F94BF11F1807F02E042F0BA
:1036D000FF407047D043704730B400220023426857
:1036E000DFF8604122400C680D7954EA052422433A
:1036F00042608268DFF850412240CC688D682C43DC
:103700004D7954EA450422438260C26A32F4700261
:10371000097C491E0B43DBB252EA0352C26230BC41
:103720007047C9B2002904D0816851F0010181605D
:1037300003E081684908490081607047816851F061
:1037400008018160704700218068000701D50121D0
:1037500000E000210800C0B27047816851F0040108
:103760008160704700218068400701D5012100E099
:1037700000210800C0B27047F0B400240025C9B28F
:103780000A2911DBC4680725B1F10A0603277E4325
:10379000B540AC43DBB2B1F10A050326754313FA19
:1037A00005F52C43C4600EE004690725032606FBDB
:1037B00001F6B540AC43DBB2032505FB01F513FA76
:1037C00005F52C430461D2B2072A10DA446B1F239B
:1037D000551E0526754313FA05F5AC43C9B2521EB2
:1037E00005235A4311FA02F52C43446324E0D2B274
:1037F0000D2A10DA046B1F23D51F0526754313FA13
:1038000005F5AC43C9B2D21F05235A4311FA02F59C
:103810002C43046310E0C46A1F23B2F10D05052692
:10382000754313FA05F5AC43C9B20D3A05235A4363
:1038300011FA02F52C43C462F0BC7047C06C80B230
:1038400070470000FFFEF0FFFDF7F1FF5FF0FF0C97
:103850001CEAD05114BF614506E0C110400721F0B9
:10386000E04101F16051704779B900F00041000278
:103870000AD0B0FA80FC00FA0CF001F16051A1EB23
:103880000C5101EBD0214005704741020CBF40F4C0
:10389000E0016FF000010020704700004FEAF17C6A
:1038A000BCF1E04C2CBFBCF5001F11E05FEA4C0CF2
:1038B00034BFBCF17F5F2EE05FEA9C0C4FEA0C1C2A
:1038C0004FEA3C0CC10071F100414CEB5070704765
:1038D000C90241EA5051C00218BF41F0010141F054
:1038E00000414FEA6C50C0F10900212810D240EA93
:1038F000CC7CCCF1200C11FA0CF070F10040CCF132
:10390000200C21FA0CF00CF0004C40EB0C0070473E
:103910004FEACC707047490011F5001F04D84FEAF8
:10392000CC10FF30C0057047C81770470CB41CB5E9
:10393000044604A801900A46009401AB6946074872
:1039400078441830FCF77CFB009A002111700028A5
:103950005CBF0098001B16BC5DF80CFB6BD8FFFF2A
:1039600040B2002808D509012A4A40B210F00F00E1
:10397000801800F8041C03E00901274A40B2815472
:10398000704780B5411EB1F1807F01D301200EE068
:10399000401E224908600F215FF0FF30FFF7E0FF73
:1039A00000201F49086007201E490860002002BD52
:1039B00000B585B0684600F008FC00984FF47A71B5
:1039C000B0FBF1F0FFF7DDFF002800D0FEE705B007
:1039D00000BD01B40098144908601348006800282D
:1039E000FBD101B0704701B481B00198009002E0B2
:1039F0000098401E009000980028F9D102B070474E
:103A000009480068002804D007480068401E06499D
:103A10000860704718ED00E000E400E014E000E00A
:103A200018E000E010E000E06011002038B504006C
:103A3000802509E080213648FEF7D6FE2021344853
:103A4000FEF7CFFEEDB26D08EDB2002D0CD02021B7
:103A50002F48FEF7C9FE2800C0B22042EAD08021DC
:103A60002B48FEF7BEFEE9E720212948FEF7BCFE01
:103A700031BD38B504000D0010212548FEF7B4FE15
:103A80002000C0B2FFF7D2FF280080B2000AC0B207
:103A9000FFF7CCFF2800C0B2FFF7C8FF10211C4879
:103AA000FEF79FFE10211A48FEF79EFE31BD80B53D
:103AB00001215620FFF7DDFF01BD80B50821144824
:103AC000FEF78FFE0A20FFF78EFF08211048FEF751
:103AD0008BFE01BD80B5FFF7EAFFFFF7EEFF41F275
:103AE00007015520FFF7C5FF01BD80B5FFF7AEFE0A
:103AF0000022084BFDF7CCFF0022074BFDF7F6FE36
:103B0000FDF7F0FD010089B20120FFF7B2FF01BD12
:103B100000080140000038400000F040F8B5040003
:103B20000D0016001F0000211020FFF758F920009B
:103B3000FFF7BBF907210820FFF751F92800FFF72D
:103B4000B4F907213220FFF74AF93000FFF7ADF949
:103B500007214620FFF743F93800FFF7A6F90721B0
:103B60006920FFF73CF90698FFF79FF908238422A4
:103B70000821002000F022FD362384223621002077
:103B800000F01CFDF1BD80B5DFF87C04009077A348
:103B900076A2DFF87814DFF87804FFF7BFFFDFF8CC
:103BA00074040078002805D0022832D018D30328E6
:103BB00045D059E0DFF860040068FFF747FE0200D7
:103BC0000B00DFF85814DFF85804FFF7AFFE0421AC
:103BD0006A20FFF704F9DFF84C04FFF766F943E0C9
:103BE000DFF834040068DFF84014FFF78BFCFFF7C0
:103BF0002DFE02000B00DFF83414DFF82404FFF779
:103C000095FE04216A20FFF7EAF879A0FFF74DF945
:103C10002AE0DFF81C040068FFF718FE02000B0022
:103C2000DFF80814DFF8F803FFF780FE04216A20AC
:103C3000FFF7D5F8DFF8FC03FFF737F914E0DFF8FA
:103C4000F8030068FFF702FE02000B00DFF8CC1358
:103C5000DFF8CC03FFF76AFE04216A20FFF7BFF804
:103C6000DFF8D803FFF721F902210C20FFF7B7F89E
:103C7000DFF8AC03FFF7A8F901BD80B5DFF8C0039A
:103C80000090DFF8C0335BA238A1DFF8BC03FFF778
:103C900045FFDFF8B803027857A1DFF88403FFF788
:103CA00045FE02214620FFF79AF8DFF87403FFF77C
:103CB0008BF901BD10B582B0DFF8840300904FA3EB
:103CC0004CA2DFF88C13DFF88C03FFF727FF0024EA
:103CD0000DE00221E4B2142000FB04F01E30C0B25B
:103CE000FFF77DF8DFF83803FFF7DFF8641CE4B274
:103CF000042C1DDADFF86003E4B230F8142040A190
:103D0000C748FFF713FE2000C0B2DFF85013098840
:103D100080B28842DDD10221E4B2142000FB04F01D
:103D20001E30C0B2FFF75BF8BD48FFF7C9F8DDE70A
:103D30000020FFF741FA020092B2C949B848FFF7E4
:103D4000F5FD03210C20FFF74AF8B548FFF7ADF861
:103D5000C4480268C449B248FFF7E8FD04210C20BA
:103D6000FFF73DF8AE48FFF7A0F813BD00000000D4
:103D700010B582B0B248009020A322A2B449BB483B
:103D8000FFF7CCFE002413E00620062194FBF1F19E
:103D9000891CC9B294FBF0F200FB1240122250437E
:103DA0001030C0B2FFF71BF89D48FFF77EF8641C87
:103DB0000B2C1CDA2200AE499948FFF7B7FDA74843
:103DC00000888442E0D10620062194FBF1F1891C91
:103DD000C9B294FBF0F200FB1240122250431030A3
:103DE000C0B2FEF7FCFF8E48FFF76AF8DFE713BDAD
:103DF0006D696C0055500000256400002D3E0000E8
:103E0000257800003C2D000010B582B0994800785C
:103E100000282BD0FFF761F9974908800020FFF7B1
:103E20007CF9964908800020FFF787F994490880BB
:103E30000020FFF792F993490880FFF759F992495A
:103E40000880FFF7AAF9914908800020FFF797F949
:103E50008F490880FFF751F98E4908800020FFF74D
:103E6000ABF98D4908800020824908708B4800908A
:103E700064A364A28A498B48FFF750FE8A480088F1
:103E8000002806D002286ED038D3032800F0938093
:103E9000B6E07948028885496148FFF747FD02216D
:103EA0000C20FEF79CFF5E48FEF7FFFF7348028878
:103EB0007F495B48FFF73AFD03210C20FEF78FFF97
:103EC0005748FEF7F2FF6E4802887A495448FFF7D8
:103ED0002DFD04210C20FEF782FF5148FEF7E5FF7F
:103EE0006848028874494E48FFF720FD05210C20E0
:103EF000FEF775FF4A48FEF7D8FF81E06248028866
:103F00006E494748FFF712FD02210C20FEF767FFBC
:103F10004348FEF7CAFF5D48028869494048FFF7F9
:103F200005FD03210C20FEF75AFF3D48FEF7BDFFBB
:103F30005748028863493A48FFF7F8FC04210C20EF
:103F4000FEF74DFF3648FEF7B0FF464802685E496F
:103F50003348FFF7EBFC05210C20FEF740FF30480B
:103F6000FEF7A3FF4CE04B48028858492C48FFF766
:103F7000DDFC02210C20FEF732FF2948FEF795FFF9
:103F80004548028852492648FFF7D0FC03210C20FF
:103F9000FEF725FF2248FEF788FF2C4802784D499E
:103FA0001F48FFF7C3FC04210C20FEF718FF1C4834
:103FB000FEF77BFF24E000241FE04748E4B250F8FE
:103FC00024000202120A45491548FFF7AFFCE4B28B
:103FD0000320E4B2032194FBF1F1891CC9B294FBE4
:103FE000F0F200FB1240282250430A30C0B2FEF724
:103FF000F6FE0B48FEF759FF641CE4B20B2CDCDB29
:1040000013BD000000000000A45600089C560008E4
:10401000405500089411002068110020AC5600089B
:104020003C110020B4560008A913D03CBC5600082F
:1040300070110020C45600086C110020CC560008F6
:10404000DC560008D456000854550008931100208F
:10405000E45600088C550008501100207C11002007
:1040600068550008641100209C550008AC550008F4
:10407000EC560008951100207E11002080110020D0
:104080008211002084110020861100208811002058
:104090008A1100208C1100208E110020FC5600088F
:1040A000F45600086056000890110020BC55000826
:1040B000CC550008DC5500086C560008EC5500088B
:1040C00078560008FC550008845600080C56000875
:1040D0001C5600082C560008101100200457000838
:1040E000DFF82002006850F00100DFF818120860C5
:1040F000DFF814020068DFF814120840DFF8081235
:104100000860DFF800020068DFF804120840DFF8FA
:10411000F4110860DFF8EC01006830F48020DFF86B
:10412000E4110860DFF8E001006830F4FE00DFF819
:10413000D81108605FF41F00DFF8D81108607047DD
:10414000C0B275490860704700226F4A126832F4A5
:104150007C12084302436C4802607047C0B26F494A
:10416000086070470021684909688908890001438F
:104170006548016070476448006810F00C007047A3
:1041800000216149096831F0F00101435E48016096
:10419000704700215C49096831F4E06101435A48E5
:1041A0000160704700215849096831F4605151EAB3
:1041B000C00155480160704700215349096831F436
:1041C0004041014350480160704700210021002216
:1041D00000214D49096811F00C01002904D004297F
:1041E00005D0082906D021E04E49016020E04D4964
:1041F00001601DE04449096811F47011424A1268D7
:1042000012F48032890C891C002A03D1464A51439A
:1042100001600AE03C4A1268920303D5424A5143C6
:10422000016002E03F4A5143016001E03D49016005
:104230003549096811F0F00109093C4A895C0268B6
:10424000CA4042603049096811F4E061090A374AFE
:10425000895C4268CA4082602B49096811F4605148
:10426000C90A324A895C4268CA40C2602649096864
:1042700011F44041890B2E4A895CC268B2FBF1F10E
:1042800001617047C9B2002905D02A49096808436D
:104290002849086005E02749096831EA00002549F6
:1042A00008607047C9B2002905D02349096808434E
:1042B0002149086005E02049096831EA00001E49EB
:1042C000086070470021002200210100C9B249099D
:1042D000C9B2012902D10B490A6806E0022902D1BC
:1042E0000F490A6801E015490A68C0B210F01F01C1
:1042F000CA40D00701D5012100E000210800C0B26A
:104300007047000000100240041002400000FFF857
:10431000FFFFF6FE081002400000424260004242E9
:104320002010024000127A0000093D000000002029
:1043300010000020181002401C10024024100240FF
:10434000024A1140084302490860704780FFFF1F7E
:1043500008ED00E070B586B004000D0000200020DC
:10436000002100210026A88900282600208A4CF67A
:10437000FF710840E98808432082A0894EF6F311B6
:104380000840A9882A8911436A8911430843A081FA
:10439000A08A4FF6FF410840A9890843A0826846D9
:1043A000FFF713FF1A48864201D1039800E00298F4
:1043B000A189090406D51921484329684900B0FBA1
:1043C000F1F105E01921484329688900B0FBF1F1BA
:1043D0006420B1FBF0F000010209642303FB121119
:1043E000A289120408D5C90032316422B1FBF2F16E
:1043F00011F00701084307E0090132316422B1FBE3
:10440000F2F111F00F010843208106B070BD0000E9
:1044100000380140C9B2002904D0818951F400510B
:10442000818104E081894DF6FF72114081817047DE
:1044300070B586B004000D000026002004212D492F
:10444000A6884FF6C07006406846FFF7BEFE029988
:104450002948B1FBF0F00643A68022884FF6FE7390
:104460001A40228000262A68244B9A420BD22A68DE
:104470005200B1FBF2F189B2042900DA04210E43A3
:10448000401C208422E0EA884BF6FF739A4205D153
:104490002A6803235A43B1FBF2F106E02A68192384
:1044A0005A43B1FBF2F151F480410A0501D151F0B8
:1044B000010151F400410E4380B24FF4967148431C
:1044C0004FF47A7190FBF1F0401C2084A683208881
:1044D00050F00100208026884FF6F5300640A8886D
:1044E0006989084306432680A889298908432081D1
:1044F00006B070BD00127A0040420F00A186010094
:10450000C9B2002904D0018851F00101018004E002
:1045100001884FF6FE72114001807047C9B2002930
:1045200004D0018851F48071018004E001884FF6C5
:10453000FF62114001807047C9B2002904D0018890
:1045400051F40071018004E001884FF6FF521140E0
:1045500001807047C9B2002904D0018851F48061FC
:10456000018004E001884FF6FF321140018070475E
:10457000C9B201827047008AC0B27047D2B2002A25
:1045800002D051F0010101E011F0FE01C9B2018237
:1045900070470022002200230022828A038B1B0422
:1045A00053EA02000202120A11EA0200884201D113
:1045B000012200E000221000C0B270472DE9FE4F3A
:1045C000019A141A029A551A26196F1983468846B9
:1045D0005FF001095FF0010A002C03D55FF0FF399D
:1045E00064427642002D03D55FF0FF3A6D427F4270
:1045F000184A1278FEF7F3FC55EA0400002826D08A
:10460000AC4212DB002519EB0B0B7D19AC4202DA30
:104610001AEB0808AD1B0F48027841465846FEF7D2
:10462000DEFC01988345EED111E000241AEB080866
:104630003419A54202DA19EB0B0BE41B054802788A
:1046400041465846FEF7CBFC02988045EED1BDE8C6
:10465000F78F00001E12000800000000000000009C
:10466000000000000000000000000000000000004A
:10467000000000005F0000000000000000000000DB
:10468000000000000700000000000000070000001C
:1046900000000000140000007F0000001400000073
:1046A0007F00000014000000240000002A00000029
:1046B0007F0000002A00000012000000230000001C
:1046C0001300000008000000640000006200000009
:1046D00036000000490000005500000022000000E4
:1046E0005000000000000000050000000300000072
:1046F0000000000000000000000000001C0000009E
:104700002200000041000000000000000000000046
:1047100041000000220000001C000000000000001A
:10472000080000002A0000001C0000002A00000011
:104730000800000008000000080000003E00000023
:104740000800000008000000000000005000000009
:104750003000000000000000000000000800000021
:104760000800000008000000080000000800000029
:1047700000000000300000003000000000000000D9
:1047800000000000200000001000000008000000F1
:1047900004000000020000003E0000005100000084
:1047A00049000000450000003E000000000000003D
:1047B000420000007F0000004000000000000000F8
:1047C00042000000610000005100000049000000AC
:1047D00046000000210000004100000045000000EC
:1047E0004B00000031000000180000001400000021
:1047F000120000007F0000001000000027000000F1
:1048000045000000450000004500000039000000A0
:104810003C0000004A000000490000004900000080
:1048200030000000010000007100000009000000DD
:1048300005000000030000003600000049000000F1
:10484000490000004900000036000000060000009A
:104850004900000049000000290000001E0000007F
:1048600000000000360000003600000000000000DC
:1048700000000000000000005600000036000000AC
:104880000000000000000000000000000800000020
:10489000140000002200000041000000140000008D
:1048A00014000000140000001400000014000000B8
:1048B0004100000022000000140000000800000079
:1048C0000000000002000000010000005100000094
:1048D000090000000600000032000000490000004E
:1048E00079000000410000003E0000007E00000052
:1048F0001100000011000000110000007E00000007
:104900007F0000004900000049000000490000004D
:10491000360000003E0000004100000041000000A1
:1049200041000000220000007F0000004100000064
:1049300041000000220000001C0000007F00000079
:10494000490000004900000049000000410000004B
:104950007F000000090000000900000001000000C5
:10496000010000003E000000410000004100000086
:1049700051000000320000007F000000080000002D
:1049800008000000080000007F0000000000000098
:10499000410000007F000000410000000000000016
:1049A0002000000040000000410000003F00000027
:1049B000010000007F00000008000000140000005B
:1049C00022000000410000007F00000040000000C5
:1049D0004000000040000000400000007F00000098
:1049E0000200000004000000020000007F00000040
:1049F0007F0000000400000008000000100000001C
:104A00007F0000003E000000410000004100000067
:104A1000410000003E0000007F000000090000008F
:104A20000900000009000000060000003E00000030
:104A30004100000051000000210000005E00000065
:104A40007F0000000900000019000000290000009C
:104A50004600000046000000490000004900000038
:104A600049000000310000000100000001000000CA
:104A70007F00000001000000010000003F00000076
:104A80004000000040000000400000003F00000027
:104A90001F00000020000000400000002000000077
:104AA0001F0000007F000000200000001800000030
:104AB000200000007F0000006300000014000000E0
:104AC0000800000014000000630000000300000064
:104AD0000400000078000000040000000300000053
:104AE0006100000051000000490000004500000086
:104AF0004300000000000000000000007F000000F4
:104B0000410000004100000002000000040000001D
:104B1000080000001000000020000000410000001C
:104B2000410000007F0000000000000000000000C5
:104B3000040000000200000001000000020000006C
:104B400004000000400000004000000040000000A1
:104B500040000000400000000000000001000000D4
:104B6000020000000400000000000000200000001F
:104B700054000000540000005400000078000000C1
:104B80007F000000480000004400000044000000D6
:104B9000380000003800000044000000440000001D
:104BA0004400000020000000380000004400000025
:104BB00044000000480000007F00000038000000B2
:104BC00054000000540000005400000018000000D1
:104BD000080000007E000000090000000100000045
:104BE0000200000008000000140000005400000053
:104BF000540000003C0000007F000000080000009E
:104C00000400000004000000780000000000000024
:104C1000440000007D000000400000000000000093
:104C20002000000040000000440000003D000000A3
:104C300000000000000000007F00000010000000E5
:104C400028000000440000000000000041000000B7
:104C50007F00000040000000000000007C00000019
:104C600004000000180000000400000078000000AC
:104C70007C000000080000000400000004000000A8
:104C800078000000380000004400000044000000EC
:104C900044000000380000007C0000001400000008
:104CA00014000000140000000800000008000000CC
:104CB0001400000014000000180000007C00000038
:104CC0007C00000008000000040000000400000058
:104CD00008000000480000005400000054000000DC
:104CE0005400000020000000040000003F0000000D
:104CF0004400000040000000200000003C000000D4
:104D00004000000040000000200000007C00000087
:104D10001C000000200000004000000020000000F7
:104D20001C0000003C0000004000000030000000BB
:104D3000400000003C00000044000000280000008B
:104D40001000000028000000440000000C000000DB
:104D50005000000050000000500000003C00000027
:104D60004400000064000000540000004C000000FB
:104D700044000000000000000800000036000000B1
:104D800041000000000000000000000000000000E2
:104D90007F00000000000000000000000000000094
:104DA0004100000036000000080000000000000084
:104DB00008000000080000002A0000001C0000009D
:104DC00008000000080000001C0000002A0000008D
:104DD00008000000080000000000000000000000C3
:104DE00000000000000000000000000000000000C3
:104DF00000000000000000000000000000000000B3
:104E00000000000000001C00000000001C0000006A
:104E100000001C00000000001C00000000001C003E
:104E2000000000001C00000000001C00000000004A
:104E30000000000000000000000000000000000072
:104E40000000000000000000000000000000000062
:104E50000000000000000000000000000000000052
:104E6000000000000000000000001F000000000023
:104E70001F00000000001F00000000001F000000D5
:104E80000000000000000000000000000000000022
:104E90000000000000000000000000000000000012
:104EA0000000000000000000000000000000000002
:104EB00000000000000000000000000000000000F2
:104EC00000000000000000000000000000000000E2
:104ED0000000000000000000800000000000E00072
:104EE00000000000FC0000008000FF000000E00067
:104EF0001F000000FC0003008000FF000000E00035
:104F00001F000000FC0003000000FE000000000085
:104F10001E00000000000200000000000000000071
:104F20000000000000000000000000000000000081
:104F30000000000000000000000000000000000071
:104F400000000000FF000100C000FF000F00F000A3
:104F5000FF001F00F800FF003F00780000007C0009
:104F60001C00000070000C00000060000C0000003D
:104F700060000C00000060001C00000070007C005D
:104F800000003C00F800FF003F00F000FF001F00A1
:104F9000E000FF000F000000FF0001000000000023
:104FA0000000000000000000000000000000000001
:104FB00000000000000000000000000040000000B1
:104FC0000000E000000040006000000040003000F1
:104FD00000004000300000006000F800FF007F008B
:104FE000FC00FF007F00FC00FF007F00FC00FF00D2
:104FF0007F00000000006000000000004000000092
:105000000000400000000000400000000000000020
:105010000000000000000000000000000000000090
:1050200000000000000000000000780000006000A8
:10503000780000007800780000007C003C00000050
:105040007E000C0000007F000C00C0007B000C0004
:10505000E00078000C00700078001C003C00780034
:10506000FC001F007800F8000F007C00F80007002B
:105070007E00F00001007E00000000000000000043
:105080000000000000000000000000000000000020
:105090000000000000000000000000000000780098
:1050A00000003C00780000003C00780000007C001C
:1050B0003C00000078001C00180070000C00180074
:1050C00060000C00180060000C001C0060000C0068
:1050D0003C0060001C007E007000FC00F7003F00F8
:1050E000F800F3003F00F800E3001F00F000C000EC
:1050F00007000000000000000000000000000000A9
:10510000000000000000000000000000000080001F
:1051100001000000E00001000000F00001000000BC
:10512000BC00010000008E0001008000870001002B
:10513000C00081004100F00080006100F800FF0025
:105140007F00FC00FF007F00FC00FF007F00FC00F0
:10515000FF007F000000800061000000800041002F
:105160000000C00001000000C000010000000000BD
:10517000000000000000000000000000000000002F
:10518000000000000000000000003C00FC001F00C8
:105190003C00FC003F007C00FC001F0078003C004D
:1051A000180070003C00180060003C00180060000F
:1051B0003C00180060003C00380060003C007800B3
:1051C00070003C00F8003F003E00F0003F003E0051
:1051D000E0001F000000C000070000000000000009
:1051E00000000000000000000000000000000000BF
:1051F000000000000000000000000000F8000300B4
:105200000000FF000F008000FF001F00C000FF0033
:105210003F00E0001B007800F0001800700038002C
:105220000C00600018000C0060001C000C00600006
:105230000C000C0070000C003C0078000C00FC001E
:105240003F000000F8003F000000F0001F000000D9
:10525000E000070000000000000000000000000067
:105260000000000000000000000000000000FC0042
:1052700000000000FC00000000007C0000000000B6
:105280003C00000060003C00000078003C00000092
:105290007E003C0080003F003C00E0000F003C002E
:1052A000F80003003C007E000000BC001F0000006E
:1052B000FC0007000000FC00010000003C000000B2
:1052C00000000C00000000000000000000000000D2
:1052D00000000000000000000000000000000000CE
:1052E0000000E00083000F00F000C7001F00F8007E
:1052F000EF003F00F800FF003F001C007E00780038
:105300000C00180070000C00180060000C00180061
:1053100060000C00180060000C00380060001C00E9
:105320007C007800F800FF003F00F800F7003F0025
:10533000F000E7001F00E00081000700000000000F
:10534000000000000000000000000000000000005D
:10535000C0000F000000F0001F000000F0003F0040
:105360000000F8007F0000003C00780060001C0096
:10537000600060000C00600060000C0060007000C5
:105380000C00600038001C0030003C003C00300085
:105390001F00F800FF000F00F000FF000700E00012
:1053A000FF00030080007F000000000000000000FC
:1053B00000000000000000000000000019E050F8AC
:1053C000041BCB0744BFA9F101035918121F002386
:1053D000042A41F8043BF9D25FEA827C0B4604D5EB
:1053E0004FF0000CA1F800C09B1CD10744BF002166
:1053F000197050F8042B002AE1D1704730B50168CC
:1054000042688468091801EB5203D20748BF4C4434
:105410000C30994200D130BD11F9012B11F8015B1C
:10542000002A04F8015B02D5521CF9D1F1E7521EA3
:10543000F4D5EEE710B5074979441831064C7C44A1
:10544000163404E00A68081D511888470146A14235
:10545000F8D110BD080000002400000061FFFFFF2C
:1054600088000000101100200000000091FFFFFFE5
:105470009C0200003E0000000000002000F00BF83D
:10548000002801D0FFF7D6FF0020C046C046FDF738
:105490002EF800F002F80120704700F001B800007B
:1054A0000746384600F002F8FBE7000080B5C0462A
:1054B000C046024A11001820ABBEFBE726000200DE
:1054C0005243432C2054696D65722C20466C6173E5
:1054D0006820496E69742E00444143583735305F67
:1054E000436F6E66696775726174696F6E2E000036
:1054F000253032646D6D282530386C5829736176FB
:10550000656421004F4646534554202530345820C9
:1055100053415645210000004750494F5F436F6E8D
:1055200066696775726174696F6E2E00414443311C
:105530005F436F6E66696775726174696F6E2E0086
:10554000494E445543544956452053454E53494EC0
:1055500047000000434F4E5452415354205345548A
:1055600054494E4700000000435552204F464653D1
:105570004554203A202530345800000054454D5001
:105580003A2025342E324643000000004F46465351
:1055900045542053455454494E470000444154411A
:1055A000203A202530386C580000000053455454F0
:1055B000494E47204D4F444500000000434F4E46A2
:1055C00049473A20253034580000000044495649E4
:1055D0004445523A20253034580000005345545475
:1055E0004C45436E743A2025303458004552524F92
:1055F00052436F6E663A2025303458004944524970
:1056000056453A2025303458000000005354415488
:1056100055533A2025303458000000004F46465379
:1056200045543A202530345800000000436F6E7412
:1056300072613A2025303458000000004E6F6E65CC
:105640002041637421210000493243315F496E6972
:10565000742E00004C44435F496E69742E000000B4
:105660004465627567204D6F6465000052436E7437
:105670003A202530345800004D55583A2025303412
:1056800058000000665245513A202530386C5800C9
:10569000C046C046C046C046FFF7F0FE53455454CE
:1056A000494E4700554E49540000000025352E3222
:1056B00046000000206D6D200000000025352E31D1
:1056C000460000002025202000000000206D412021
:1056D00000000000444F574E000000004E45585453
:1056E00000000000534156450000000025303264A0
:1056F000000000005245524F4144000045584954B3
:105700000000000025366C5800000000FC000F016E
:10571000020304010203040607080902040608E460
:0B57200000F8FFDC00FAFF8100D10060
:040000050800569108
:00000001FF
